{"abi":[{"type":"function","name":"readReturn","inputs":[],"outputs":[],"stateMutability":"pure"},{"type":"function","name":"returnMultiple","inputs":[],"outputs":[{"name":"","type":"uint256","internalType":"uint256"},{"name":"","type":"bool","internalType":"bool"},{"name":"","type":"uint256[3]","internalType":"uint256[3]"}],"stateMutability":"pure"},{"type":"function","name":"returnNamed","inputs":[],"outputs":[{"name":"_number","type":"uint256","internalType":"uint256"},{"name":"_bool","type":"bool","internalType":"bool"},{"name":"_array","type":"uint256[3]","internalType":"uint256[3]"}],"stateMutability":"pure"},{"type":"function","name":"returnNamed2","inputs":[],"outputs":[{"name":"_number","type":"uint256","internalType":"uint256"},{"name":"_bool","type":"bool","internalType":"bool"},{"name":"_array","type":"uint256[3]","internalType":"uint256[3]"}],"stateMutability":"pure"}],"bytecode":{"object":"0x6080604052348015600e575f5ffd5b506102f38061001c5f395ff3fe608060405234801561000f575f5ffd5b506004361061004a575f3560e01c80633dece5111461004e5780636f5903301461006e5780638552dc0814610078578063e61e400814610098575b5f5ffd5b6100566100b8565b60405161006593929190610288565b60405180910390f35b6100766100ee565b005b610080610123565b60405161008f93929190610288565b60405180910390f35b6100a0610159565b6040516100af93929190610288565b60405180910390f35b5f5f6100c261018f565b600292505f91506040518060600160405280600381526020016002815260200160018152509050909192565b5f5f5f6100f961018f565b6101016100b8565b8093508195508296505050506101156100b8565b909150508092505050505050565b5f5f61012d61018f565b600180604051806060016040528060018152602001600281526020016005815250925092509250909192565b5f5f61016361018f565b600180604051806060016040528060018152602001600281526020016005815250925092509250909192565b6040518060600160405280600390602082028036833780820191505090505090565b5f819050919050565b6101c3816101b1565b82525050565b5f8115159050919050565b6101dd816101c9565b82525050565b5f60039050919050565b5f81905092915050565b5f819050919050565b610209816101b1565b82525050565b5f61021a8383610200565b60208301905092915050565b5f602082019050919050565b61023b816101e3565b61024581846101ed565b9250610250826101f7565b805f5b83811015610280578151610267878261020f565b965061027283610226565b925050600181019050610253565b505050505050565b5f60a08201905061029b5f8301866101ba565b6102a860208301856101d4565b6102b56040830184610232565b94935050505056fea264697066735822122086293a76ad2c51589fa6f3e1b0f676cf85f1b303e953e151a96ccf64503c3a3e64736f6c63430008220033","linkReferences":{}},"methodIdentifiers":{"readReturn()":"6f590330","returnMultiple()":"e61e4008","returnNamed()":"3dece511","returnNamed2()":"8552dc08"},"id":47}