{"abi":[{"type":"constructor","inputs":[],"stateMutability":"nonpayable"},{"type":"function","name":"flashloan","inputs":[{"name":"wethAmount","type":"uint256","internalType":"uint256"}],"outputs":[],"stateMutability":"nonpayable"},{"type":"function","name":"uniswapV2Call","inputs":[{"name":"sender","type":"address","internalType":"address"},{"name":"amount0","type":"uint256","internalType":"uint256"},{"name":"amount1","type":"uint256","internalType":"uint256"},{"name":"data","type":"bytes","internalType":"bytes"}],"outputs":[],"stateMutability":"nonpayable"}],"bytecode":{"object":"0x60a060405234801561000f575f5ffd5b50735c69bee701ef814a2b6a3edd4b1652cb9cc5aa6f73ffffffffffffffffffffffffffffffffffffffff1663e6a43905736b175474e89094c44da98b954eedeac495271d0f73c02aaa39b223fe8d0a0e5c4f27ead9083c756cc26040518363ffffffff1660e01b815260040161008792919061013d565b602060405180830381865afa1580156100a2573d5f5f3e3d5ffd5b505050506040513d601f19601f820116820180604052508101906100c69190610192565b73ffffffffffffffffffffffffffffffffffffffff1660808173ffffffffffffffffffffffffffffffffffffffff16815250506101bd565b5f73ffffffffffffffffffffffffffffffffffffffff82169050919050565b5f610127826100fe565b9050919050565b6101378161011d565b82525050565b5f6040820190506101505f83018561012e565b61015d602083018461012e565b9392505050565b5f5ffd5b6101718161011d565b811461017b575f5ffd5b50565b5f8151905061018c81610168565b92915050565b5f602082840312156101a7576101a6610164565b5b5f6101b48482850161017e565b91505092915050565b608051610a6c6101dc5f395f818161031a01526103e00152610a6c5ff3fe608060405234801561000f575f5ffd5b5060043610610034575f3560e01c806310d1e85c1461003857806365b6c4f014610054575b5f5ffd5b610052600480360381019061004d9190610564565b610070565b005b61006e600480360381019061006991906105e8565b6103a5565b005b5f3373ffffffffffffffffffffffffffffffffffffffff16630dfe16816040518163ffffffff1660e01b8152600401602060405180830381865afa1580156100ba573d5f5f3e3d5ffd5b505050506040513d601f19601f820116820180604052508101906100de9190610627565b90505f3373ffffffffffffffffffffffffffffffffffffffff1663d21220a76040518163ffffffff1660e01b8152600401602060405180830381865afa15801561012a573d5f5f3e3d5ffd5b505050506040513d601f19601f8201168201806040525081019061014e9190610627565b9050735c69bee701ef814a2b6a3edd4b1652cb9cc5aa6f73ffffffffffffffffffffffffffffffffffffffff1663e6a4390583836040518363ffffffff1660e01b815260040161019f929190610661565b602060405180830381865afa1580156101ba573d5f5f3e3d5ffd5b505050506040513d601f19601f820116820180604052508101906101de9190610627565b73ffffffffffffffffffffffffffffffffffffffff163373ffffffffffffffffffffffffffffffffffffffff161461021957610218610688565b5b5f5f858581019061022a91906106f0565b9150915073c02aaa39b223fe8d0a0e5c4f27ead9083c756cc273ffffffffffffffffffffffffffffffffffffffff168273ffffffffffffffffffffffffffffffffffffffff16146102b0576040517f08c379a00000000000000000000000000000000000000000000000000000000081526004016102a790610788565b60405180910390fd5b5f60016103e560038a6102c391906107d3565b6102cd9190610841565b6102d79190610871565b90505f81896102e69190610871565b905073c02aaa39b223fe8d0a0e5c4f27ead9083c756cc273ffffffffffffffffffffffffffffffffffffffff1663a9059cbb7f0000000000000000000000000000000000000000000000000000000000000000836040518363ffffffff1660e01b81526004016103579291906108b3565b6020604051808303815f875af1158015610373573d5f5f3e3d5ffd5b505050506040513d601f19601f82011682018060405250810190610397919061090f565b505050505050505050505050565b5f73c02aaa39b223fe8d0a0e5c4f27ead9083c756cc2826040516020016103cd9291906108b3565b60405160208183030381529060405290507f000000000000000000000000000000000000000000000000000000000000000073ffffffffffffffffffffffffffffffffffffffff1663022c0d9f5f8430856040518563ffffffff1660e01b815260040161043d94939291906109ec565b5f604051808303815f87803b158015610454575f5ffd5b505af1158015610466573d5f5f3e3d5ffd5b505050505050565b5f5ffd5b5f5ffd5b5f73ffffffffffffffffffffffffffffffffffffffff82169050919050565b5f61049f82610476565b9050919050565b6104af81610495565b81146104b9575f5ffd5b50565b5f813590506104ca816104a6565b92915050565b5f819050919050565b6104e2816104d0565b81146104ec575f5ffd5b50565b5f813590506104fd816104d9565b92915050565b5f5ffd5b5f5ffd5b5f5ffd5b5f5f83601f84011261052457610523610503565b5b8235905067ffffffffffffffff81111561054157610540610507565b5b60208301915083600182028301111561055d5761055c61050b565b5b9250929050565b5f5f5f5f5f6080868803121561057d5761057c61046e565b5b5f61058a888289016104bc565b955050602061059b888289016104ef565b94505060406105ac888289016104ef565b935050606086013567ffffffffffffffff8111156105cd576105cc610472565b5b6105d98882890161050f565b92509250509295509295909350565b5f602082840312156105fd576105fc61046e565b5b5f61060a848285016104ef565b91505092915050565b5f81519050610621816104a6565b92915050565b5f6020828403121561063c5761063b61046e565b5b5f61064984828501610613565b91505092915050565b61065b81610495565b82525050565b5f6040820190506106745f830185610652565b6106816020830184610652565b9392505050565b7f4e487b71000000000000000000000000000000000000000000000000000000005f52600160045260245ffd5b5f6106bf82610476565b9050919050565b6106cf816106b5565b81146106d9575f5ffd5b50565b5f813590506106ea816106c6565b92915050565b5f5f604083850312156107065761070561046e565b5b5f610713858286016106dc565b9250506020610724858286016104ef565b9150509250929050565b5f82825260208201905092915050565b7f746f6b656e20626f72726f7720213d20574554480000000000000000000000005f82015250565b5f61077260148361072e565b915061077d8261073e565b602082019050919050565b5f6020820190508181035f83015261079f81610766565b9050919050565b7f4e487b71000000000000000000000000000000000000000000000000000000005f52601160045260245ffd5b5f6107dd826104d0565b91506107e8836104d0565b92508282026107f6816104d0565b9150828204841483151761080d5761080c6107a6565b5b5092915050565b7f4e487b71000000000000000000000000000000000000000000000000000000005f52601260045260245ffd5b5f61084b826104d0565b9150610856836104d0565b92508261086657610865610814565b5b828204905092915050565b5f61087b826104d0565b9150610886836104d0565b925082820190508082111561089e5761089d6107a6565b5b92915050565b6108ad816104d0565b82525050565b5f6040820190506108c65f830185610652565b6108d360208301846108a4565b9392505050565b5f8115159050919050565b6108ee816108da565b81146108f8575f5ffd5b50565b5f81519050610909816108e5565b92915050565b5f602082840312156109245761092361046e565b5b5f610931848285016108fb565b91505092915050565b5f819050919050565b5f819050919050565b5f61096661096161095c8461093a565b610943565b6104d0565b9050919050565b6109768161094c565b82525050565b5f81519050919050565b5f82825260208201905092915050565b8281835e5f83830152505050565b5f601f19601f8301169050919050565b5f6109be8261097c565b6109c88185610986565b93506109d8818560208601610996565b6109e1816109a4565b840191505092915050565b5f6080820190506109ff5f83018761096d565b610a0c60208301866108a4565b610a196040830185610652565b8181036060830152610a2b81846109b4565b90509594505050505056fea2646970667358221220ce1d8fdbffe332102f5919054c73b5480f32cc29fb36a282358e26f604a193c664736f6c63430008220033","linkReferences":{}},"methodIdentifiers":{"flashloan(uint256)":"65b6c4f0","uniswapV2Call(address,uint256,uint256,bytes)":"10d1e85c"},"id":116}