{"abi":[{"type":"constructor","inputs":[],"stateMutability":"nonpayable"},{"type":"function","name":"aave","inputs":[],"outputs":[{"name":"","type":"address","internalType":"contract ILendingPool"}],"stateMutability":"view"},{"type":"function","name":"executeOperation","inputs":[{"name":"asset","type":"address","internalType":"address"},{"name":"amount","type":"uint256","internalType":"uint256"},{"name":"premium","type":"uint256","internalType":"uint256"},{"name":"initiator","type":"address","internalType":"address"},{"name":"","type":"bytes","internalType":"bytes"}],"outputs":[{"name":"","type":"bool","internalType":"bool"}],"stateMutability":"nonpayable"},{"type":"function","name":"flashloan","inputs":[{"name":"wethAmount","type":"uint256","internalType":"uint256"}],"outputs":[],"stateMutability":"nonpayable"}],"bytecode":{"object":"0x6080604052348015600e575f5ffd5b507387870bca3f3fd6335c3f4ce8392d69350b4fa4e25f5f6101000a81548173ffffffffffffffffffffffffffffffffffffffff021916908373ffffffffffffffffffffffffffffffffffffffff16021790555061092c8061006f5f395ff3fe608060405234801561000f575f5ffd5b506004361061003f575f3560e01c80631b11d0ff1461004357806365b6c4f014610073578063819faf7b1461008f575b5f5ffd5b61005d60048036038101906100589190610447565b6100ad565b60405161006a91906104f7565b60405180910390f35b61008d60048036038101906100889190610510565b61028a565b005b61009761032d565b6040516100a49190610596565b60405180910390f35b5f7387870bca3f3fd6335c3f4ce8392d69350b4fa4e273ffffffffffffffffffffffffffffffffffffffff163373ffffffffffffffffffffffffffffffffffffffff1614610130576040517f08c379a000000000000000000000000000000000000000000000000000000000815260040161012790610609565b60405180910390fd5b3073ffffffffffffffffffffffffffffffffffffffff168473ffffffffffffffffffffffffffffffffffffffff161461019e576040517f08c379a000000000000000000000000000000000000000000000000000000000815260040161019590610671565b60405180910390fd5b5f60016127106005896101b191906106bc565b6101bb919061072a565b6101c5919061075a565b90505f81886101d4919061075a565b905073c02aaa39b223fe8d0a0e5c4f27ead9083c756cc273ffffffffffffffffffffffffffffffffffffffff1663095ea7b37387870bca3f3fd6335c3f4ce8392d69350b4fa4e2836040518363ffffffff1660e01b81526004016102399291906107ab565b6020604051808303815f875af1158015610255573d5f5f3e3d5ffd5b505050506040513d601f19601f8201168201806040525081019061027991906107fc565b506001925050509695505050505050565b5f5f9054906101000a900473ffffffffffffffffffffffffffffffffffffffff1673ffffffffffffffffffffffffffffffffffffffff166342b0b77c3073c02aaa39b223fe8d0a0e5c4f27ead9083c756cc2845f6040518563ffffffff1660e01b81526004016102fd94939291906108a0565b5f604051808303815f87803b158015610314575f5ffd5b505af1158015610326573d5f5f3e3d5ffd5b5050505050565b5f5f9054906101000a900473ffffffffffffffffffffffffffffffffffffffff1681565b5f5ffd5b5f5ffd5b5f73ffffffffffffffffffffffffffffffffffffffff82169050919050565b5f61038282610359565b9050919050565b61039281610378565b811461039c575f5ffd5b50565b5f813590506103ad81610389565b92915050565b5f819050919050565b6103c5816103b3565b81146103cf575f5ffd5b50565b5f813590506103e0816103bc565b92915050565b5f5ffd5b5f5ffd5b5f5ffd5b5f5f83601f840112610407576104066103e6565b5b8235905067ffffffffffffffff811115610424576104236103ea565b5b6020830191508360018202830111156104405761043f6103ee565b5b9250929050565b5f5f5f5f5f5f60a0878903121561046157610460610351565b5b5f61046e89828a0161039f565b965050602061047f89828a016103d2565b955050604061049089828a016103d2565b94505060606104a189828a0161039f565b935050608087013567ffffffffffffffff8111156104c2576104c1610355565b5b6104ce89828a016103f2565b92509250509295509295509295565b5f8115159050919050565b6104f1816104dd565b82525050565b5f60208201905061050a5f8301846104e8565b92915050565b5f6020828403121561052557610524610351565b5b5f610532848285016103d2565b91505092915050565b5f819050919050565b5f61055e61055961055484610359565b61053b565b610359565b9050919050565b5f61056f82610544565b9050919050565b5f61058082610565565b9050919050565b61059081610576565b82525050565b5f6020820190506105a95f830184610587565b92915050565b5f82825260208201905092915050565b7f6e6f7420617574686f72697a65640000000000000000000000000000000000005f82015250565b5f6105f3600e836105af565b91506105fe826105bf565b602082019050919050565b5f6020820190508181035f830152610620816105e7565b9050919050565b7f696e76616c696420696e69746961746f720000000000000000000000000000005f82015250565b5f61065b6011836105af565b915061066682610627565b602082019050919050565b5f6020820190508181035f8301526106888161064f565b9050919050565b7f4e487b71000000000000000000000000000000000000000000000000000000005f52601160045260245ffd5b5f6106c6826103b3565b91506106d1836103b3565b92508282026106df816103b3565b915082820484148315176106f6576106f561068f565b5b5092915050565b7f4e487b71000000000000000000000000000000000000000000000000000000005f52601260045260245ffd5b5f610734826103b3565b915061073f836103b3565b92508261074f5761074e6106fd565b5b828204905092915050565b5f610764826103b3565b915061076f836103b3565b92508282019050808211156107875761078661068f565b5b92915050565b61079681610378565b82525050565b6107a5816103b3565b82525050565b5f6040820190506107be5f83018561078d565b6107cb602083018461079c565b9392505050565b6107db816104dd565b81146107e5575f5ffd5b50565b5f815190506107f6816107d2565b92915050565b5f6020828403121561081157610810610351565b5b5f61081e848285016107e8565b91505092915050565b5f82825260208201905092915050565b50565b5f6108455f83610827565b915061085082610837565b5f82019050919050565b5f819050919050565b5f61ffff82169050919050565b5f61088a6108856108808461085a565b61053b565b610863565b9050919050565b61089a81610870565b82525050565b5f60a0820190506108b35f83018761078d565b6108c0602083018661078d565b6108cd604083018561079c565b81810360608301526108de8161083a565b90506108ed6080830184610891565b9594505050505056fea2646970667358221220e6b34e438beb415352b1eb2c7c01df5313f6270d105296305b1bb37c8784460464736f6c63430008220033","linkReferences":{}},"methodIdentifiers":{"aave()":"819faf7b","executeOperation(address,uint256,uint256,address,bytes)":"1b11d0ff","flashloan(uint256)":"65b6c4f0"},"id":114}