{"abi":[{"type":"constructor","inputs":[],"stateMutability":"payable"},{"type":"receive","stateMutability":"payable"},{"type":"function","name":"callETH","inputs":[{"name":"_to","type":"address","internalType":"address payable"},{"name":"amount","type":"uint256","internalType":"uint256"}],"outputs":[],"stateMutability":"payable"},{"type":"function","name":"sendETH","inputs":[{"name":"_to","type":"address","internalType":"address payable"},{"name":"amount","type":"uint256","internalType":"uint256"}],"outputs":[],"stateMutability":"payable"},{"type":"function","name":"transferETH","inputs":[{"name":"_to","type":"address","internalType":"address payable"},{"name":"amount","type":"uint256","internalType":"uint256"}],"outputs":[],"stateMutability":"payable"},{"type":"error","name":"CallFailed","inputs":[]},{"type":"error","name":"SendFailed","inputs":[]}],"bytecode":{"object":"0x608060405261033b806100115f395ff3fe608060405260043610610037575f3560e01c806364a197f3146100425780637b1a49091461005e5780638419cf501461007a5761003e565b3661003e57005b5f5ffd5b61005c60048036038101906100579190610286565b610096565b005b61007860048036038101906100739190610286565b610109565b005b610094600480360381019061008f9190610286565b610151565b005b5f8273ffffffffffffffffffffffffffffffffffffffff166108fc8390811502906040515f60405180830381858888f19350505050905080610104576040517f81063e5100000000000000000000000000000000000000000000000000000000815260040160405180910390fd5b505050565b8173ffffffffffffffffffffffffffffffffffffffff166108fc8290811502906040515f60405180830381858888f1935050505015801561014c573d5f5f3e3d5ffd5b505050565b5f8273ffffffffffffffffffffffffffffffffffffffff1682604051610176906102f1565b5f6040518083038185875af1925050503d805f81146101b0576040519150601f19603f3d011682016040523d82523d5f602084013e6101b5565b606091505b50509050806101f0576040517f3204506f00000000000000000000000000000000000000000000000000000000815260040160405180910390fd5b505050565b5f5ffd5b5f73ffffffffffffffffffffffffffffffffffffffff82169050919050565b5f610222826101f9565b9050919050565b61023281610218565b811461023c575f5ffd5b50565b5f8135905061024d81610229565b92915050565b5f819050919050565b61026581610253565b811461026f575f5ffd5b50565b5f813590506102808161025c565b92915050565b5f5f6040838503121561029c5761029b6101f5565b5b5f6102a98582860161023f565b92505060206102ba85828601610272565b9150509250929050565b5f81905092915050565b50565b5f6102dc5f836102c4565b91506102e7826102ce565b5f82019050919050565b5f6102fb826102d1565b915081905091905056fea2646970667358221220c43417e346b6809e690c2fa76b6e00873fd26b570ab73eae7132b56c152f48cb64736f6c63430008220033","linkReferences":{}},"methodIdentifiers":{"callETH(address,uint256)":"8419cf50","sendETH(address,uint256)":"64a197f3","transferETH(address,uint256)":"7b1a4909"},"id":62}