{"abi":[{"type":"function","name":"toHexString","inputs":[{"name":"value","type":"uint256","internalType":"uint256"},{"name":"length","type":"uint256","internalType":"uint256"}],"outputs":[{"name":"","type":"string","internalType":"string"}],"stateMutability":"pure"},{"type":"function","name":"toHexString","inputs":[{"name":"value","type":"uint256","internalType":"uint256"}],"outputs":[{"name":"","type":"string","internalType":"string"}],"stateMutability":"pure"},{"type":"function","name":"toString","inputs":[{"name":"value","type":"uint256","internalType":"uint256"}],"outputs":[{"name":"","type":"string","internalType":"string"}],"stateMutability":"pure"}],"bytecode":{"object":"0x6108f761004d600b8282823980515f1a6073146041577f4e487b71000000000000000000000000000000000000000000000000000000005f525f60045260245ffd5b305f52607381538281f3fe730000000000000000000000000000000000000000301460806040526004361061004a575f3560e01c806363e1cbea1461004e5780636900a3ae1461007e5780638fba8d5c146100ae575b5f5ffd5b61006860048036038101906100639190610527565b6100de565b60405161007591906105d5565b60405180910390f35b610098600480360381019061009391906105f5565b610313565b6040516100a591906105d5565b60405180910390f35b6100c860048036038101906100c391906105f5565b61046c565b6040516100d591906105d5565b60405180910390f35b60605f60028360026100f0919061064d565b6100fa919061068e565b67ffffffffffffffff811115610113576101126106c1565b5b6040519080825280601f01601f1916602001820160405280156101455781602001600182028036833780820191505090505b5090507f3000000000000000000000000000000000000000000000000000000000000000815f8151811061017c5761017b6106ee565b5b60200101907effffffffffffffffffffffffffffffffffffffffffffffffffffffffffffff191690815f1a9053507f7800000000000000000000000000000000000000000000000000000000000000816001815181106101df576101de6106ee565b5b60200101907effffffffffffffffffffffffffffffffffffffffffffffffffffffffffffff191690815f1a9053505f600184600261021d919061064d565b610227919061068e565b90505b60018111156102c6577f3031323334353637383961626364656600000000000000000000000000000000600f861660108110610269576102686106ee565b5b1a60f81b8282815181106102805761027f6106ee565b5b60200101907effffffffffffffffffffffffffffffffffffffffffffffffffffffffffffff191690815f1a905350600485901c9450806102bf9061071b565b905061022a565b505f8414610309576040517f08c379a00000000000000000000000000000000000000000000000000000000081526004016103009061079c565b60405180910390fd5b8091505092915050565b60605f8203610359576040518060400160405280600181526020017f30000000000000000000000000000000000000000000000000000000000000008152509050610467565b5f8290505f5b5f8214610388578080610371906107ba565b915050600a82610381919061082e565b915061035f565b5f8167ffffffffffffffff8111156103a3576103a26106c1565b5b6040519080825280601f01601f1916602001820160405280156103d55781602001600182028036833780820191505090505b5090505b5f8514610460576001826103ed919061085e565b9150600a856103fc9190610891565b6030610408919061068e565b60f81b81838151811061041e5761041d6106ee565b5b60200101907effffffffffffffffffffffffffffffffffffffffffffffffffffffffffffff191690815f1a905350600a85610459919061082e565b94506103d9565b8093505050505b919050565b60605f82036104b2576040518060400160405280600481526020017f307830300000000000000000000000000000000000000000000000000000000081525090506104eb565b5f8290505f5f90505b5f82146104dc5780806104cd906107ba565b915050600882901c91506104bb565b6104e684826100de565b925050505b919050565b5f5ffd5b5f819050919050565b610506816104f4565b8114610510575f5ffd5b50565b5f81359050610521816104fd565b92915050565b5f5f6040838503121561053d5761053c6104f0565b5b5f61054a85828601610513565b925050602061055b85828601610513565b9150509250929050565b5f81519050919050565b5f82825260208201905092915050565b8281835e5f83830152505050565b5f601f19601f8301169050919050565b5f6105a782610565565b6105b1818561056f565b93506105c181856020860161057f565b6105ca8161058d565b840191505092915050565b5f6020820190508181035f8301526105ed818461059d565b905092915050565b5f6020828403121561060a576106096104f0565b5b5f61061784828501610513565b91505092915050565b7f4e487b71000000000000000000000000000000000000000000000000000000005f52601160045260245ffd5b5f610657826104f4565b9150610662836104f4565b9250828202610670816104f4565b9150828204841483151761068757610686610620565b5b5092915050565b5f610698826104f4565b91506106a3836104f4565b92508282019050808211156106bb576106ba610620565b5b92915050565b7f4e487b71000000000000000000000000000000000000000000000000000000005f52604160045260245ffd5b7f4e487b71000000000000000000000000000000000000000000000000000000005f52603260045260245ffd5b5f610725826104f4565b91505f820361073757610736610620565b5b600182039050919050565b5f82825260208201905092915050565b7f537472696e67733a20686578206c656e67746820696e73756666696369656e745f82015250565b5f610786602083610742565b915061079182610752565b602082019050919050565b5f6020820190508181035f8301526107b38161077a565b9050919050565b5f6107c4826104f4565b91507fffffffffffffffffffffffffffffffffffffffffffffffffffffffffffffffff82036107f6576107f5610620565b5b600182019050919050565b7f4e487b71000000000000000000000000000000000000000000000000000000005f52601260045260245ffd5b5f610838826104f4565b9150610843836104f4565b92508261085357610852610801565b5b828204905092915050565b5f610868826104f4565b9150610873836104f4565b925082820390508181111561088b5761088a610620565b5b92915050565b5f61089b826104f4565b91506108a6836104f4565b9250826108b6576108b5610801565b5b82820690509291505056fea2646970667358221220f3a44d72e52503f73aba2a5e8fbb5e7b627ca17434473da27e541e15a26e710564736f6c63430008220033","linkReferences":{}},"methodIdentifiers":{"toHexString(uint256)":"8fba8d5c","toHexString(uint256,uint256)":"63e1cbea","toString(uint256)":"6900a3ae"},"id":60}