{"abi":[{"type":"function","name":"getString1","inputs":[{"name":"_number","type":"uint256","internalType":"uint256"}],"outputs":[{"name":"","type":"string","internalType":"string"}],"stateMutability":"pure"},{"type":"function","name":"getString2","inputs":[{"name":"_number","type":"uint256","internalType":"uint256"}],"outputs":[{"name":"","type":"string","internalType":"string"}],"stateMutability":"pure"}],"bytecode":{"object":"0x6080604052348015600e575f5ffd5b506104608061001c5f395ff3fe608060405234801561000f575f5ffd5b5060043610610034575f3560e01c8063d6ee0f3214610038578063e65eac9814610068575b5f5ffd5b610052600480360381019061004d91906101e2565b610098565b60405161005f919061027d565b60405180910390f35b610082600480360381019061007d91906101e2565b61011c565b60405161008f919061027d565b60405180910390f35b60608173__$111ee09297e5373e93f7baec7c227ba511$__638fba8d5c90916040518263ffffffff1660e01b81526004016100d391906102ac565b5f60405180830381865af41580156100ed573d5f5f3e3d5ffd5b505050506040513d5f823e3d601f19601f8201168201806040525081019061011591906103e3565b9050919050565b606073__$111ee09297e5373e93f7baec7c227ba511$__638fba8d5c836040518263ffffffff1660e01b815260040161015591906102ac565b5f60405180830381865af415801561016f573d5f5f3e3d5ffd5b505050506040513d5f823e3d601f19601f8201168201806040525081019061019791906103e3565b9050919050565b5f604051905090565b5f5ffd5b5f5ffd5b5f819050919050565b6101c1816101af565b81146101cb575f5ffd5b50565b5f813590506101dc816101b8565b92915050565b5f602082840312156101f7576101f66101a7565b5b5f610204848285016101ce565b91505092915050565b5f81519050919050565b5f82825260208201905092915050565b8281835e5f83830152505050565b5f601f19601f8301169050919050565b5f61024f8261020d565b6102598185610217565b9350610269818560208601610227565b61027281610235565b840191505092915050565b5f6020820190508181035f8301526102958184610245565b905092915050565b6102a6816101af565b82525050565b5f6020820190506102bf5f83018461029d565b92915050565b5f5ffd5b5f5ffd5b7f4e487b71000000000000000000000000000000000000000000000000000000005f52604160045260245ffd5b61030382610235565b810181811067ffffffffffffffff82111715610322576103216102cd565b5b80604052505050565b5f61033461019e565b905061034082826102fa565b919050565b5f67ffffffffffffffff82111561035f5761035e6102cd565b5b61036882610235565b9050602081019050919050565b5f61038761038284610345565b61032b565b9050828152602081018484840111156103a3576103a26102c9565b5b6103ae848285610227565b509392505050565b5f82601f8301126103ca576103c96102c5565b5b81516103da848260208601610375565b91505092915050565b5f602082840312156103f8576103f76101a7565b5b5f82015167ffffffffffffffff811115610415576104146101ab565b5b610421848285016103b6565b9150509291505056fea264697066735822122076ff14c1ff8be25c0038dbec38619b8a3985d46250020c72403f32f5a87619fd64736f6c63430008220033","linkReferences":{"src/17_Library/Library.sol":{"Strings":[{"start":185,"length":20},{"start":316,"length":20}]}}},"methodIdentifiers":{"getString1(uint256)":"d6ee0f32","getString2(uint256)":"e65eac98"},"id":60}