{"abi":[{"type":"function","name":"f","inputs":[{"name":"_in","type":"uint8","internalType":"uint8"}],"outputs":[{"name":"out","type":"uint8","internalType":"uint8"}],"stateMutability":"pure"},{"type":"function","name":"f","inputs":[{"name":"_in","type":"uint256","internalType":"uint256"}],"outputs":[{"name":"out","type":"uint256","internalType":"uint256"}],"stateMutability":"pure"},{"type":"function","name":"saySomething","inputs":[],"outputs":[{"name":"","type":"string","internalType":"string"}],"stateMutability":"pure"},{"type":"function","name":"saySomething","inputs":[{"name":"something","type":"string","internalType":"string"}],"outputs":[{"name":"","type":"string","internalType":"string"}],"stateMutability":"pure"}],"bytecode":{"object":"0x6080604052348015600e575f5ffd5b506104ae8061001c5f395ff3fe608060405234801561000f575f5ffd5b506004361061004a575f3560e01c80633120d4341461004e578063b3de648b1461007e578063fbd61553146100ae578063fe6b3783146100cc575b5f5ffd5b6100686004803603810190610063919061019c565b6100fc565b60405161007591906101d6565b60405180910390f35b61009860048036038101906100939190610222565b610105565b6040516100a5919061025c565b60405180910390f35b6100b661010e565b6040516100c391906102e5565b60405180910390f35b6100e660048036038101906100e19190610431565b61014b565b6040516100f391906102e5565b60405180910390f35b5f819050919050565b5f819050919050565b60606040518060400160405280600781526020017f4e6f7468696e6700000000000000000000000000000000000000000000000000815250905090565b6060819050919050565b5f604051905090565b5f5ffd5b5f5ffd5b5f60ff82169050919050565b61017b81610166565b8114610185575f5ffd5b50565b5f8135905061019681610172565b92915050565b5f602082840312156101b1576101b061015e565b5b5f6101be84828501610188565b91505092915050565b6101d081610166565b82525050565b5f6020820190506101e95f8301846101c7565b92915050565b5f819050919050565b610201816101ef565b811461020b575f5ffd5b50565b5f8135905061021c816101f8565b92915050565b5f602082840312156102375761023661015e565b5b5f6102448482850161020e565b91505092915050565b610256816101ef565b82525050565b5f60208201905061026f5f83018461024d565b92915050565b5f81519050919050565b5f82825260208201905092915050565b8281835e5f83830152505050565b5f601f19601f8301169050919050565b5f6102b782610275565b6102c1818561027f565b93506102d181856020860161028f565b6102da8161029d565b840191505092915050565b5f6020820190508181035f8301526102fd81846102ad565b905092915050565b5f5ffd5b5f5ffd5b7f4e487b71000000000000000000000000000000000000000000000000000000005f52604160045260245ffd5b6103438261029d565b810181811067ffffffffffffffff821117156103625761036161030d565b5b80604052505050565b5f610374610155565b9050610380828261033a565b919050565b5f67ffffffffffffffff82111561039f5761039e61030d565b5b6103a88261029d565b9050602081019050919050565b828183375f83830152505050565b5f6103d56103d084610385565b61036b565b9050828152602081018484840111156103f1576103f0610309565b5b6103fc8482856103b5565b509392505050565b5f82601f83011261041857610417610305565b5b81356104288482602086016103c3565b91505092915050565b5f602082840312156104465761044561015e565b5b5f82013567ffffffffffffffff81111561046357610462610162565b5b61046f84828501610404565b9150509291505056fea26469706673582212206b314f3d3976879d81d97068142ed6eaf770a0fa6fa45733ff3dcd52b6dfe82864736f6c63430008220033","linkReferences":{}},"methodIdentifiers":{"f(uint256)":"b3de648b","f(uint8)":"3120d434","saySomething()":"fbd61553","saySomething(string)":"fe6b3783"},"id":59}