{"abi":[{"type":"constructor","inputs":[{"name":"_tokenContract","type":"address","internalType":"address"}],"stateMutability":"nonpayable"},{"type":"function","name":"amountAllowed","inputs":[],"outputs":[{"name":"","type":"uint256","internalType":"uint256"}],"stateMutability":"view"},{"type":"function","name":"requestTokens","inputs":[],"outputs":[],"stateMutability":"nonpayable"},{"type":"function","name":"requestedAddress","inputs":[{"name":"","type":"address","internalType":"address"}],"outputs":[{"name":"","type":"bool","internalType":"bool"}],"stateMutability":"view"},{"type":"function","name":"tokenContract","inputs":[],"outputs":[{"name":"","type":"address","internalType":"address"}],"stateMutability":"view"},{"type":"event","name":"SendToken","inputs":[{"name":"Receiver","type":"address","indexed":true,"internalType":"address"},{"name":"Amount","type":"uint256","indexed":true,"internalType":"uint256"}],"anonymous":false}],"bytecode":{"object":"0x608060405260645f55348015610013575f5ffd5b5060405161079c38038061079c833981810160405281019061003591906100d9565b8060015f6101000a81548173ffffffffffffffffffffffffffffffffffffffff021916908373ffffffffffffffffffffffffffffffffffffffff16021790555050610104565b5f5ffd5b5f73ffffffffffffffffffffffffffffffffffffffff82169050919050565b5f6100a88261007f565b9050919050565b6100b88161009e565b81146100c2575f5ffd5b50565b5f815190506100d3816100af565b92915050565b5f602082840312156100ee576100ed61007b565b5b5f6100fb848285016100c5565b91505092915050565b61068b806101115f395ff3fe608060405234801561000f575f5ffd5b506004361061004a575f3560e01c8063359cf2b71461004e57806355a373d6146100585780635e33dba9146100765780639ad2cd14146100a6575b5f5ffd5b6100566100c4565b005b610060610348565b60405161006d91906103ce565b60405180910390f35b610090600480360381019061008b9190610415565b61036d565b60405161009d919061045a565b60405180910390f35b6100ae61038a565b6040516100bb919061048b565b60405180910390f35b60025f3373ffffffffffffffffffffffffffffffffffffffff1673ffffffffffffffffffffffffffffffffffffffff1681526020019081526020015f205f9054906101000a900460ff161561014e576040517f08c379a0000000000000000000000000000000000000000000000000000000008152600401610145906104fe565b60405180910390fd5b5f60015f9054906101000a900473ffffffffffffffffffffffffffffffffffffffff1690505f548173ffffffffffffffffffffffffffffffffffffffff166370a08231306040518263ffffffff1660e01b81526004016101ae91906103ce565b602060405180830381865afa1580156101c9573d5f5f3e3d5ffd5b505050506040513d601f19601f820116820180604052508101906101ed9190610546565b101561022e576040517f08c379a0000000000000000000000000000000000000000000000000000000008152600401610225906105bb565b60405180910390fd5b8073ffffffffffffffffffffffffffffffffffffffff1663a9059cbb335f546040518363ffffffff1660e01b815260040161026a9291906105d9565b6020604051808303815f875af1158015610286573d5f5f3e3d5ffd5b505050506040513d601f19601f820116820180604052508101906102aa919061062a565b50600160025f3373ffffffffffffffffffffffffffffffffffffffff1673ffffffffffffffffffffffffffffffffffffffff1681526020019081526020015f205f6101000a81548160ff0219169083151502179055505f543373ffffffffffffffffffffffffffffffffffffffff167f916800025d85907d1e91e112659a8e7e77a17ea4de231b05f15bb381d3bfde6160405160405180910390a350565b60015f9054906101000a900473ffffffffffffffffffffffffffffffffffffffff1681565b6002602052805f5260405f205f915054906101000a900460ff1681565b5f5481565b5f73ffffffffffffffffffffffffffffffffffffffff82169050919050565b5f6103b88261038f565b9050919050565b6103c8816103ae565b82525050565b5f6020820190506103e15f8301846103bf565b92915050565b5f5ffd5b6103f4816103ae565b81146103fe575f5ffd5b50565b5f8135905061040f816103eb565b92915050565b5f6020828403121561042a576104296103e7565b5b5f61043784828501610401565b91505092915050565b5f8115159050919050565b61045481610440565b82525050565b5f60208201905061046d5f83018461044b565b92915050565b5f819050919050565b61048581610473565b82525050565b5f60208201905061049e5f83018461047c565b92915050565b5f82825260208201905092915050565b7f43616e27742052657175657374204d756c7469706c652054696d6573210000005f82015250565b5f6104e8601d836104a4565b91506104f3826104b4565b602082019050919050565b5f6020820190508181035f830152610515816104dc565b9050919050565b61052581610473565b811461052f575f5ffd5b50565b5f815190506105408161051c565b92915050565b5f6020828403121561055b5761055a6103e7565b5b5f61056884828501610532565b91505092915050565b7f46617563657420456d70747921000000000000000000000000000000000000005f82015250565b5f6105a5600d836104a4565b91506105b082610571565b602082019050919050565b5f6020820190508181035f8301526105d281610599565b9050919050565b5f6040820190506105ec5f8301856103bf565b6105f9602083018461047c565b9392505050565b61060981610440565b8114610613575f5ffd5b50565b5f8151905061062481610600565b92915050565b5f6020828403121561063f5761063e6103e7565b5b5f61064c84828501610616565b9150509291505056fea2646970667358221220930e40cb9807c7413e71534cef311c03e218fe7408c6ebe3d5b61931b8be4d5064736f6c63430008220033","linkReferences":{}},"methodIdentifiers":{"amountAllowed()":"9ad2cd14","requestTokens()":"359cf2b7","requestedAddress(address)":"5e33dba9","tokenContract()":"55a373d6"},"id":74}