{"abi":[{"type":"constructor","inputs":[],"stateMutability":"nonpayable"},{"type":"function","name":"approve","inputs":[{"name":"to","type":"address","internalType":"address"},{"name":"tokenId","type":"uint256","internalType":"uint256"}],"outputs":[],"stateMutability":"nonpayable"},{"type":"function","name":"balanceOf","inputs":[{"name":"owner","type":"address","internalType":"address"}],"outputs":[{"name":"","type":"uint256","internalType":"uint256"}],"stateMutability":"view"},{"type":"function","name":"getApproved","inputs":[{"name":"tokenId","type":"uint256","internalType":"uint256"}],"outputs":[{"name":"","type":"address","internalType":"address"}],"stateMutability":"view"},{"type":"function","name":"isApprovedForAll","inputs":[{"name":"owner","type":"address","internalType":"address"},{"name":"operator","type":"address","internalType":"address"}],"outputs":[{"name":"","type":"bool","internalType":"bool"}],"stateMutability":"view"},{"type":"function","name":"luckyMint","inputs":[],"outputs":[{"name":"success","type":"bool","internalType":"bool"}],"stateMutability":"nonpayable"},{"type":"function","name":"name","inputs":[],"outputs":[{"name":"","type":"string","internalType":"string"}],"stateMutability":"view"},{"type":"function","name":"ownerOf","inputs":[{"name":"tokenId","type":"uint256","internalType":"uint256"}],"outputs":[{"name":"","type":"address","internalType":"address"}],"stateMutability":"view"},{"type":"function","name":"safeTransferFrom","inputs":[{"name":"from","type":"address","internalType":"address"},{"name":"to","type":"address","internalType":"address"},{"name":"tokenId","type":"uint256","internalType":"uint256"}],"outputs":[],"stateMutability":"nonpayable"},{"type":"function","name":"safeTransferFrom","inputs":[{"name":"from","type":"address","internalType":"address"},{"name":"to","type":"address","internalType":"address"},{"name":"tokenId","type":"uint256","internalType":"uint256"},{"name":"data","type":"bytes","internalType":"bytes"}],"outputs":[],"stateMutability":"nonpayable"},{"type":"function","name":"setApprovalForAll","inputs":[{"name":"operator","type":"address","internalType":"address"},{"name":"approved","type":"bool","internalType":"bool"}],"outputs":[],"stateMutability":"nonpayable"},{"type":"function","name":"supportsInterface","inputs":[{"name":"interfaceId","type":"bytes4","internalType":"bytes4"}],"outputs":[{"name":"","type":"bool","internalType":"bool"}],"stateMutability":"view"},{"type":"function","name":"symbol","inputs":[],"outputs":[{"name":"","type":"string","internalType":"string"}],"stateMutability":"view"},{"type":"function","name":"tokenURI","inputs":[{"name":"tokenId","type":"uint256","internalType":"uint256"}],"outputs":[{"name":"","type":"string","internalType":"string"}],"stateMutability":"view"},{"type":"function","name":"transferFrom","inputs":[{"name":"from","type":"address","internalType":"address"},{"name":"to","type":"address","internalType":"address"},{"name":"tokenId","type":"uint256","internalType":"uint256"}],"outputs":[],"stateMutability":"nonpayable"},{"type":"event","name":"Approval","inputs":[{"name":"owner","type":"address","indexed":true,"internalType":"address"},{"name":"approved","type":"address","indexed":true,"internalType":"address"},{"name":"tokenId","type":"uint256","indexed":true,"internalType":"uint256"}],"anonymous":false},{"type":"event","name":"ApprovalForAll","inputs":[{"name":"owner","type":"address","indexed":true,"internalType":"address"},{"name":"operator","type":"address","indexed":true,"internalType":"address"},{"name":"approved","type":"bool","indexed":false,"internalType":"bool"}],"anonymous":false},{"type":"event","name":"Transfer","inputs":[{"name":"from","type":"address","indexed":true,"internalType":"address"},{"name":"to","type":"address","indexed":true,"internalType":"address"},{"name":"tokenId","type":"uint256","indexed":true,"internalType":"uint256"}],"anonymous":false},{"type":"error","name":"ERC721IncorrectOwner","inputs":[{"name":"sender","type":"address","internalType":"address"},{"name":"tokenId","type":"uint256","internalType":"uint256"},{"name":"owner","type":"address","internalType":"address"}]},{"type":"error","name":"ERC721InsufficientApproval","inputs":[{"name":"operator","type":"address","internalType":"address"},{"name":"tokenId","type":"uint256","internalType":"uint256"}]},{"type":"error","name":"ERC721InvalidApprover","inputs":[{"name":"approver","type":"address","internalType":"address"}]},{"type":"error","name":"ERC721InvalidOperator","inputs":[{"name":"operator","type":"address","internalType":"address"}]},{"type":"error","name":"ERC721InvalidOwner","inputs":[{"name":"owner","type":"address","internalType":"address"}]},{"type":"error","name":"ERC721InvalidReceiver","inputs":[{"name":"receiver","type":"address","internalType":"address"}]},{"type":"error","name":"ERC721InvalidSender","inputs":[{"name":"sender","type":"address","internalType":"address"}]},{"type":"error","name":"ERC721NonexistentToken","inputs":[{"name":"tokenId","type":"uint256","internalType":"uint256"}]}],"bytecode":{"object":"0x608060405234801561000f575f5ffd5b5060405180602001604052805f81525060405180602001604052805f815250815f908161003c91906102a2565b50806001908161004c91906102a2565b505050610371565b5f81519050919050565b7f4e487b71000000000000000000000000000000000000000000000000000000005f52604160045260245ffd5b7f4e487b71000000000000000000000000000000000000000000000000000000005f52602260045260245ffd5b5f60028204905060018216806100cf57607f821691505b6020821081036100e2576100e161008b565b5b50919050565b5f819050815f5260205f209050919050565b5f6020601f8301049050919050565b5f82821b905092915050565b5f600883026101447fffffffffffffffffffffffffffffffffffffffffffffffffffffffffffffffff82610109565b61014e8683610109565b95508019841693508086168417925050509392505050565b5f819050919050565b5f819050919050565b5f61019261018d61018884610166565b61016f565b610166565b9050919050565b5f819050919050565b6101ab83610178565b6101bf6101b782610199565b848454610115565b825550505050565b5f5f905090565b6101d66101c7565b6101e18184846101a2565b505050565b5f5b82811015610207576101fc5f8284016101ce565b6001810190506101e8565b505050565b601f82111561025a578282111561025957610226816100e8565b61022f836100fa565b610238856100fa565b6020861015610245575f90505b808301610254828403826101e6565b505050505b5b505050565b5f82821c905092915050565b5f61027a5f198460080261025f565b1980831691505092915050565b5f610292838361026b565b9150826002028217905092915050565b6102ab82610054565b67ffffffffffffffff8111156102c4576102c361005e565b5b6102ce82546100b8565b6102d982828561020c565b5f60209050601f83116001811461030a575f84156102f8578287015190505b6103028582610287565b865550610369565b601f198416610318866100e8565b5f5b8281101561033f5784890151825560018201915060208501945060208101905061031a565b8683101561035c5784890151610358601f89168261026b565b8355505b6001600288020188555050505b505050505050565b611e4d8061037e5f395ff3fe608060405234801561000f575f5ffd5b50600436106100e8575f3560e01c806370a082311161008a578063b88d4fde11610064578063b88d4fde14610258578063c87b56dd14610274578063e985e9c5146102a4578063ffd5a7be146102d4576100e8565b806370a08231146101ee57806395d89b411461021e578063a22cb4651461023c576100e8565b8063095ea7b3116100c6578063095ea7b31461016a57806323b872dd1461018657806342842e0e146101a25780636352211e146101be576100e8565b806301ffc9a7146100ec57806306fdde031461011c578063081812fc1461013a575b5f5ffd5b61010660048036038101906101019190611654565b6102f2565b6040516101139190611699565b60405180910390f35b6101246103d3565b6040516101319190611722565b60405180910390f35b610154600480360381019061014f9190611775565b610462565b60405161016191906117df565b60405180910390f35b610184600480360381019061017f9190611822565b61047d565b005b6101a0600480360381019061019b9190611860565b610493565b005b6101bc60048036038101906101b79190611860565b610592565b005b6101d860048036038101906101d39190611775565b6105b1565b6040516101e591906117df565b60405180910390f35b610208600480360381019061020391906118b0565b6105c2565b60405161021591906118ea565b60405180910390f35b610226610678565b6040516102339190611722565b60405180910390f35b6102566004803603810190610251919061192d565b610708565b005b610272600480360381019061026d9190611a97565b61071e565b005b61028e60048036038101906102899190611775565b610743565b60405161029b9190611722565b60405180910390f35b6102be60048036038101906102b99190611b17565b6107a9565b6040516102cb9190611699565b60405180910390f35b6102dc610837565b6040516102e99190611699565b60405180910390f35b5f7f80ac58cd000000000000000000000000000000000000000000000000000000007bffffffffffffffffffffffffffffffffffffffffffffffffffffffff1916827bffffffffffffffffffffffffffffffffffffffffffffffffffffffff191614806103bc57507f5b5e139f000000000000000000000000000000000000000000000000000000007bffffffffffffffffffffffffffffffffffffffffffffffffffffffff1916827bffffffffffffffffffffffffffffffffffffffffffffffffffffffff1916145b806103cc57506103cb8261087e565b5b9050919050565b60605f80546103e190611b82565b80601f016020809104026020016040519081016040528092919081815260200182805461040d90611b82565b80156104585780601f1061042f57610100808354040283529160200191610458565b820191905f5260205f20905b81548152906001019060200180831161043b57829003601f168201915b5050505050905090565b5f61046c826108e7565b506104768261096d565b9050919050565b61048f828261048a6109a6565b6109ad565b5050565b5f73ffffffffffffffffffffffffffffffffffffffff168273ffffffffffffffffffffffffffffffffffffffff1603610503575f6040517f64a0ae920000000000000000000000000000000000000000000000000000000081526004016104fa91906117df565b60405180910390fd5b5f61051683836105116109a6565b6109bf565b90508373ffffffffffffffffffffffffffffffffffffffff168173ffffffffffffffffffffffffffffffffffffffff161461058c578382826040517f64283d7b00000000000000000000000000000000000000000000000000000000815260040161058393929190611bb2565b60405180910390fd5b50505050565b6105ac83838360405180602001604052805f81525061071e565b505050565b5f6105bb826108e7565b9050919050565b5f5f73ffffffffffffffffffffffffffffffffffffffff168273ffffffffffffffffffffffffffffffffffffffff1603610633575f6040517f89c62b6400000000000000000000000000000000000000000000000000000000815260040161062a91906117df565b60405180910390fd5b60035f8373ffffffffffffffffffffffffffffffffffffffff1673ffffffffffffffffffffffffffffffffffffffff1681526020019081526020015f20549050919050565b60606001805461068790611b82565b80601f01602080910402602001604051908101604052809291908181526020018280546106b390611b82565b80156106fe5780601f106106d5576101008083540402835291602001916106fe565b820191905f5260205f20905b8154815290600101906020018083116106e157829003601f168201915b5050505050905090565b61071a6107136109a6565b8383610bca565b5050565b610729848484610493565b61073d6107346109a6565b85858585610da3565b50505050565b606061074e826108e7565b505f610758610f4f565b90505f8151116107765760405180602001604052805f8152506107a1565b8061078084610f65565b604051602001610791929190611c21565b6040516020818303038152906040525b915050919050565b5f60055f8473ffffffffffffffffffffffffffffffffffffffff1673ffffffffffffffffffffffffffffffffffffffff1681526020019081526020015f205f8373ffffffffffffffffffffffffffffffffffffffff1673ffffffffffffffffffffffffffffffffffffffff1681526020019081526020015f205f9054906101000a900460ff16905092915050565b5f5f60aa426108469190611c71565b03610877576108573360065461102f565b60065f81548092919061086990611cce565b91905055506001905061087b565b5f90505b90565b5f7f01ffc9a7000000000000000000000000000000000000000000000000000000007bffffffffffffffffffffffffffffffffffffffffffffffffffffffff1916827bffffffffffffffffffffffffffffffffffffffffffffffffffffffff1916149050919050565b5f5f6108f283611122565b90505f73ffffffffffffffffffffffffffffffffffffffff168173ffffffffffffffffffffffffffffffffffffffff160361096457826040517f7e27328900000000000000000000000000000000000000000000000000000000815260040161095b91906118ea565b60405180910390fd5b80915050919050565b5f60045f8381526020019081526020015f205f9054906101000a900473ffffffffffffffffffffffffffffffffffffffff169050919050565b5f33905090565b6109ba838383600161115b565b505050565b5f5f6109ca84611122565b90505f73ffffffffffffffffffffffffffffffffffffffff168373ffffffffffffffffffffffffffffffffffffffff1614610a0b57610a0a81848661131a565b5b5f73ffffffffffffffffffffffffffffffffffffffff168173ffffffffffffffffffffffffffffffffffffffff1614610a9657610a4a5f855f5f61115b565b600160035f8373ffffffffffffffffffffffffffffffffffffffff1673ffffffffffffffffffffffffffffffffffffffff1681526020019081526020015f205f82825403925050819055505b5f73ffffffffffffffffffffffffffffffffffffffff168573ffffffffffffffffffffffffffffffffffffffff1614610b1557600160035f8773ffffffffffffffffffffffffffffffffffffffff1673ffffffffffffffffffffffffffffffffffffffff1681526020019081526020015f205f82825401925050819055505b8460025f8681526020019081526020015f205f6101000a81548173ffffffffffffffffffffffffffffffffffffffff021916908373ffffffffffffffffffffffffffffffffffffffff160217905550838573ffffffffffffffffffffffffffffffffffffffff168273ffffffffffffffffffffffffffffffffffffffff167fddf252ad1be2c89b69c2b068fc378daa952ba7f163c4a11628f55a4df523b3ef60405160405180910390a4809150509392505050565b5f73ffffffffffffffffffffffffffffffffffffffff168373ffffffffffffffffffffffffffffffffffffffff1603610c3a575f6040517fa9fbf51f000000000000000000000000000000000000000000000000000000008152600401610c3191906117df565b60405180910390fd5b5f73ffffffffffffffffffffffffffffffffffffffff168273ffffffffffffffffffffffffffffffffffffffff1603610caa57816040517f5b08ba18000000000000000000000000000000000000000000000000000000008152600401610ca191906117df565b60405180910390fd5b8060055f8573ffffffffffffffffffffffffffffffffffffffff1673ffffffffffffffffffffffffffffffffffffffff1681526020019081526020015f205f8473ffffffffffffffffffffffffffffffffffffffff1673ffffffffffffffffffffffffffffffffffffffff1681526020019081526020015f205f6101000a81548160ff0219169083151502179055508173ffffffffffffffffffffffffffffffffffffffff168373ffffffffffffffffffffffffffffffffffffffff167f17307eab39ab6107e8899845ad3d59bd9653f200f220920489ca2b5937696c3183604051610d969190611699565b60405180910390a3505050565b5f8373ffffffffffffffffffffffffffffffffffffffff163b1115610f48578273ffffffffffffffffffffffffffffffffffffffff1663150b7a02868685856040518563ffffffff1660e01b8152600401610e019493929190611d67565b6020604051808303815f875af1925050508015610e3c57506040513d601f19601f82011682018060405250810190610e399190611dc5565b60015b610ebd573d805f8114610e6a576040519150601f19603f3d011682016040523d82523d5f602084013e610e6f565b606091505b505f815103610eb557836040517f64a0ae92000000000000000000000000000000000000000000000000000000008152600401610eac91906117df565b60405180910390fd5b805160208201fd5b63150b7a0260e01b7bffffffffffffffffffffffffffffffffffffffffffffffffffffffff1916817bffffffffffffffffffffffffffffffffffffffffffffffffffffffff191614610f4657836040517f64a0ae92000000000000000000000000000000000000000000000000000000008152600401610f3d91906117df565b60405180910390fd5b505b5050505050565b606060405180602001604052805f815250905090565b60605f6001610f73846113dd565b0190505f8167ffffffffffffffff811115610f9157610f90611973565b5b6040519080825280601f01601f191660200182016040528015610fc35781602001600182028036833780820191505090505b5090505f82602083010190505b600115611024578080600190039150507f3031323334353637383961626364656600000000000000000000000000000000600a86061a8153600a858161101957611018611c44565b5b0494505f8503610fd0575b819350505050919050565b5f73ffffffffffffffffffffffffffffffffffffffff168273ffffffffffffffffffffffffffffffffffffffff160361109f575f6040517f64a0ae9200000000000000000000000000000000000000000000000000000000815260040161109691906117df565b60405180910390fd5b5f6110ab83835f6109bf565b90505f73ffffffffffffffffffffffffffffffffffffffff168173ffffffffffffffffffffffffffffffffffffffff161461111d575f6040517f73c6ac6e00000000000000000000000000000000000000000000000000000000815260040161111491906117df565b60405180910390fd5b505050565b5f60025f8381526020019081526020015f205f9054906101000a900473ffffffffffffffffffffffffffffffffffffffff169050919050565b808061119357505f73ffffffffffffffffffffffffffffffffffffffff168273ffffffffffffffffffffffffffffffffffffffff1614155b156112c5575f6111a2846108e7565b90505f73ffffffffffffffffffffffffffffffffffffffff168373ffffffffffffffffffffffffffffffffffffffff161415801561120c57508273ffffffffffffffffffffffffffffffffffffffff168173ffffffffffffffffffffffffffffffffffffffff1614155b801561121f575061121d81846107a9565b155b1561126157826040517fa9fbf51f00000000000000000000000000000000000000000000000000000000815260040161125891906117df565b60405180910390fd5b81156112c357838573ffffffffffffffffffffffffffffffffffffffff168273ffffffffffffffffffffffffffffffffffffffff167f8c5be1e5ebec7d5bd14f71427d1e84f3dd0314c0f7b2291e5b200ac8c7c3b92560405160405180910390a45b505b8360045f8581526020019081526020015f205f6101000a81548173ffffffffffffffffffffffffffffffffffffffff021916908373ffffffffffffffffffffffffffffffffffffffff16021790555050505050565b61132583838361152e565b6113d8575f73ffffffffffffffffffffffffffffffffffffffff168373ffffffffffffffffffffffffffffffffffffffff160361139957806040517f7e27328900000000000000000000000000000000000000000000000000000000815260040161139091906118ea565b60405180910390fd5b81816040517f177e802f0000000000000000000000000000000000000000000000000000000081526004016113cf929190611df0565b60405180910390fd5b505050565b5f5f5f90507a184f03e93ff9f4daa797ed6e38ed64bf6a1f0100000000000000008310611439577a184f03e93ff9f4daa797ed6e38ed64bf6a1f010000000000000000838161142f5761142e611c44565b5b0492506040810190505b6d04ee2d6d415b85acef81000000008310611476576d04ee2d6d415b85acef8100000000838161146c5761146b611c44565b5b0492506020810190505b662386f26fc1000083106114a557662386f26fc10000838161149b5761149a611c44565b5b0492506010810190505b6305f5e10083106114ce576305f5e10083816114c4576114c3611c44565b5b0492506008810190505b61271083106114f35761271083816114e9576114e8611c44565b5b0492506004810190505b60648310611516576064838161150c5761150b611c44565b5b0492506002810190505b600a8310611525576001810190505b80915050919050565b5f5f73ffffffffffffffffffffffffffffffffffffffff168373ffffffffffffffffffffffffffffffffffffffff16141580156115e557508273ffffffffffffffffffffffffffffffffffffffff168473ffffffffffffffffffffffffffffffffffffffff1614806115a657506115a584846107a9565b5b806115e457508273ffffffffffffffffffffffffffffffffffffffff166115cc8361096d565b73ffffffffffffffffffffffffffffffffffffffff16145b5b90509392505050565b5f604051905090565b5f5ffd5b5f5ffd5b5f7fffffffff0000000000000000000000000000000000000000000000000000000082169050919050565b611633816115ff565b811461163d575f5ffd5b50565b5f8135905061164e8161162a565b92915050565b5f60208284031215611669576116686115f7565b5b5f61167684828501611640565b91505092915050565b5f8115159050919050565b6116938161167f565b82525050565b5f6020820190506116ac5f83018461168a565b92915050565b5f81519050919050565b5f82825260208201905092915050565b8281835e5f83830152505050565b5f601f19601f8301169050919050565b5f6116f4826116b2565b6116fe81856116bc565b935061170e8185602086016116cc565b611717816116da565b840191505092915050565b5f6020820190508181035f83015261173a81846116ea565b905092915050565b5f819050919050565b61175481611742565b811461175e575f5ffd5b50565b5f8135905061176f8161174b565b92915050565b5f6020828403121561178a576117896115f7565b5b5f61179784828501611761565b91505092915050565b5f73ffffffffffffffffffffffffffffffffffffffff82169050919050565b5f6117c9826117a0565b9050919050565b6117d9816117bf565b82525050565b5f6020820190506117f25f8301846117d0565b92915050565b611801816117bf565b811461180b575f5ffd5b50565b5f8135905061181c816117f8565b92915050565b5f5f60408385031215611838576118376115f7565b5b5f6118458582860161180e565b925050602061185685828601611761565b9150509250929050565b5f5f5f60608486031215611877576118766115f7565b5b5f6118848682870161180e565b93505060206118958682870161180e565b92505060406118a686828701611761565b9150509250925092565b5f602082840312156118c5576118c46115f7565b5b5f6118d28482850161180e565b91505092915050565b6118e481611742565b82525050565b5f6020820190506118fd5f8301846118db565b92915050565b61190c8161167f565b8114611916575f5ffd5b50565b5f8135905061192781611903565b92915050565b5f5f60408385031215611943576119426115f7565b5b5f6119508582860161180e565b925050602061196185828601611919565b9150509250929050565b5f5ffd5b5f5ffd5b7f4e487b71000000000000000000000000000000000000000000000000000000005f52604160045260245ffd5b6119a9826116da565b810181811067ffffffffffffffff821117156119c8576119c7611973565b5b80604052505050565b5f6119da6115ee565b90506119e682826119a0565b919050565b5f67ffffffffffffffff821115611a0557611a04611973565b5b611a0e826116da565b9050602081019050919050565b828183375f83830152505050565b5f611a3b611a36846119eb565b6119d1565b905082815260208101848484011115611a5757611a5661196f565b5b611a62848285611a1b565b509392505050565b5f82601f830112611a7e57611a7d61196b565b5b8135611a8e848260208601611a29565b91505092915050565b5f5f5f5f60808587031215611aaf57611aae6115f7565b5b5f611abc8782880161180e565b9450506020611acd8782880161180e565b9350506040611ade87828801611761565b925050606085013567ffffffffffffffff811115611aff57611afe6115fb565b5b611b0b87828801611a6a565b91505092959194509250565b5f5f60408385031215611b2d57611b2c6115f7565b5b5f611b3a8582860161180e565b9250506020611b4b8582860161180e565b9150509250929050565b7f4e487b71000000000000000000000000000000000000000000000000000000005f52602260045260245ffd5b5f6002820490506001821680611b9957607f821691505b602082108103611bac57611bab611b55565b5b50919050565b5f606082019050611bc55f8301866117d0565b611bd260208301856118db565b611bdf60408301846117d0565b949350505050565b5f81905092915050565b5f611bfb826116b2565b611c058185611be7565b9350611c158185602086016116cc565b80840191505092915050565b5f611c2c8285611bf1565b9150611c388284611bf1565b91508190509392505050565b7f4e487b71000000000000000000000000000000000000000000000000000000005f52601260045260245ffd5b5f611c7b82611742565b9150611c8683611742565b925082611c9657611c95611c44565b5b828206905092915050565b7f4e487b71000000000000000000000000000000000000000000000000000000005f52601160045260245ffd5b5f611cd882611742565b91507fffffffffffffffffffffffffffffffffffffffffffffffffffffffffffffffff8203611d0a57611d09611ca1565b5b600182019050919050565b5f81519050919050565b5f82825260208201905092915050565b5f611d3982611d15565b611d438185611d1f565b9350611d538185602086016116cc565b611d5c816116da565b840191505092915050565b5f608082019050611d7a5f8301876117d0565b611d8760208301866117d0565b611d9460408301856118db565b8181036060830152611da68184611d2f565b905095945050505050565b5f81519050611dbf8161162a565b92915050565b5f60208284031215611dda57611dd96115f7565b5b5f611de784828501611db1565b91505092915050565b5f604082019050611e035f8301856117d0565b611e1060208301846118db565b939250505056fea26469706673582212206a4e2a341ca78d6371e23d446fbea29967029bbd33e2a3e156cb3ffc2540de6b64736f6c63430008220033","linkReferences":{}},"methodIdentifiers":{"approve(address,uint256)":"095ea7b3","balanceOf(address)":"70a08231","getApproved(uint256)":"081812fc","isApprovedForAll(address,address)":"e985e9c5","luckyMint()":"ffd5a7be","name()":"06fdde03","ownerOf(uint256)":"6352211e","safeTransferFrom(address,address,uint256)":"42842e0e","safeTransferFrom(address,address,uint256,bytes)":"b88d4fde","setApprovalForAll(address,bool)":"a22cb465","supportsInterface(bytes4)":"01ffc9a7","symbol()":"95d89b41","tokenURI(uint256)":"c87b56dd","transferFrom(address,address,uint256)":"23b872dd"},"id":134}