{"abi":[{"type":"constructor","inputs":[],"stateMutability":"nonpayable"},{"type":"function","name":"approve","inputs":[{"name":"to","type":"address","internalType":"address"},{"name":"tokenId","type":"uint256","internalType":"uint256"}],"outputs":[],"stateMutability":"nonpayable"},{"type":"function","name":"balanceOf","inputs":[{"name":"owner","type":"address","internalType":"address"}],"outputs":[{"name":"","type":"uint256","internalType":"uint256"}],"stateMutability":"view"},{"type":"function","name":"getApproved","inputs":[{"name":"tokenId","type":"uint256","internalType":"uint256"}],"outputs":[{"name":"","type":"address","internalType":"address"}],"stateMutability":"view"},{"type":"function","name":"isApprovedForAll","inputs":[{"name":"owner","type":"address","internalType":"address"},{"name":"operator","type":"address","internalType":"address"}],"outputs":[{"name":"","type":"bool","internalType":"bool"}],"stateMutability":"view"},{"type":"function","name":"luckyMint","inputs":[{"name":"luckyNumber","type":"uint256","internalType":"uint256"}],"outputs":[],"stateMutability":"nonpayable"},{"type":"function","name":"name","inputs":[],"outputs":[{"name":"","type":"string","internalType":"string"}],"stateMutability":"view"},{"type":"function","name":"ownerOf","inputs":[{"name":"tokenId","type":"uint256","internalType":"uint256"}],"outputs":[{"name":"owner","type":"address","internalType":"address"}],"stateMutability":"view"},{"type":"function","name":"safeTransferFrom","inputs":[{"name":"from","type":"address","internalType":"address"},{"name":"to","type":"address","internalType":"address"},{"name":"tokenId","type":"uint256","internalType":"uint256"}],"outputs":[],"stateMutability":"nonpayable"},{"type":"function","name":"safeTransferFrom","inputs":[{"name":"from","type":"address","internalType":"address"},{"name":"to","type":"address","internalType":"address"},{"name":"tokenId","type":"uint256","internalType":"uint256"},{"name":"_data","type":"bytes","internalType":"bytes"}],"outputs":[],"stateMutability":"nonpayable"},{"type":"function","name":"setApprovalForAll","inputs":[{"name":"operator","type":"address","internalType":"address"},{"name":"approved","type":"bool","internalType":"bool"}],"outputs":[],"stateMutability":"nonpayable"},{"type":"function","name":"supportsInterface","inputs":[{"name":"interfaceId","type":"bytes4","internalType":"bytes4"}],"outputs":[{"name":"","type":"bool","internalType":"bool"}],"stateMutability":"pure"},{"type":"function","name":"symbol","inputs":[],"outputs":[{"name":"","type":"string","internalType":"string"}],"stateMutability":"view"},{"type":"function","name":"tokenURI","inputs":[{"name":"tokenId","type":"uint256","internalType":"uint256"}],"outputs":[{"name":"","type":"string","internalType":"string"}],"stateMutability":"view"},{"type":"function","name":"transferFrom","inputs":[{"name":"from","type":"address","internalType":"address"},{"name":"to","type":"address","internalType":"address"},{"name":"tokenId","type":"uint256","internalType":"uint256"}],"outputs":[],"stateMutability":"nonpayable"},{"type":"event","name":"Approval","inputs":[{"name":"owner","type":"address","indexed":true,"internalType":"address"},{"name":"approved","type":"address","indexed":true,"internalType":"address"},{"name":"tokenId","type":"uint256","indexed":true,"internalType":"uint256"}],"anonymous":false},{"type":"event","name":"ApprovalForAll","inputs":[{"name":"owner","type":"address","indexed":true,"internalType":"address"},{"name":"operator","type":"address","indexed":true,"internalType":"address"},{"name":"approved","type":"bool","indexed":false,"internalType":"bool"}],"anonymous":false},{"type":"event","name":"Transfer","inputs":[{"name":"from","type":"address","indexed":true,"internalType":"address"},{"name":"to","type":"address","indexed":true,"internalType":"address"},{"name":"tokenId","type":"uint256","indexed":true,"internalType":"uint256"}],"anonymous":false},{"type":"error","name":"ERC721InvalidReceiver","inputs":[{"name":"receiver","type":"address","internalType":"address"}]}],"bytecode":{"object":"0x608060405234801561000f575f5ffd5b5060405180602001604052805f81525060405180602001604052805f815250815f908161003c91906102a2565b50806001908161004c91906102a2565b505050610371565b5f81519050919050565b7f4e487b71000000000000000000000000000000000000000000000000000000005f52604160045260245ffd5b7f4e487b71000000000000000000000000000000000000000000000000000000005f52602260045260245ffd5b5f60028204905060018216806100cf57607f821691505b6020821081036100e2576100e161008b565b5b50919050565b5f819050815f5260205f209050919050565b5f6020601f8301049050919050565b5f82821b905092915050565b5f600883026101447fffffffffffffffffffffffffffffffffffffffffffffffffffffffffffffffff82610109565b61014e8683610109565b95508019841693508086168417925050509392505050565b5f819050919050565b5f819050919050565b5f61019261018d61018884610166565b61016f565b610166565b9050919050565b5f819050919050565b6101ab83610178565b6101bf6101b782610199565b848454610115565b825550505050565b5f5f905090565b6101d66101c7565b6101e18184846101a2565b505050565b5f5b82811015610207576101fc5f8284016101ce565b6001810190506101e8565b505050565b601f82111561025a578282111561025957610226816100e8565b61022f836100fa565b610238856100fa565b6020861015610245575f90505b808301610254828403826101e6565b505050505b5b505050565b5f82821c905092915050565b5f61027a5f198460080261025f565b1980831691505092915050565b5f610292838361026b565b9150826002028217905092915050565b6102ab82610054565b67ffffffffffffffff8111156102c4576102c361005e565b5b6102ce82546100b8565b6102d982828561020c565b5f60209050601f83116001811461030a575f84156102f8578287015190505b6103028582610287565b865550610369565b601f198416610318866100e8565b5f5b8281101561033f5784890151825560018201915060208501945060208101905061031a565b8683101561035c5784890151610358601f89168261026b565b8355505b6001600288020188555050505b505050505050565b61237b8061037e5f395ff3fe608060405234801561000f575f5ffd5b50600436106100e8575f3560e01c806370a082311161008a578063a22cb46511610064578063a22cb46514610258578063b88d4fde14610274578063c87b56dd14610290578063e985e9c5146102c0576100e8565b806370a08231146101ee5780638726d8361461021e57806395d89b411461023a576100e8565b8063095ea7b3116100c6578063095ea7b31461016a57806323b872dd1461018657806342842e0e146101a25780636352211e146101be576100e8565b806301ffc9a7146100ec57806306fdde031461011c578063081812fc1461013a575b5f5ffd5b61010660048036038101906101019190611697565b6102f0565b60405161011391906116dc565b60405180910390f35b610124610429565b6040516101319190611765565b60405180910390f35b610154600480360381019061014f91906117b8565b6104b4565b6040516101619190611822565b60405180910390f35b610184600480360381019061017f9190611865565b61058b565b005b6101a0600480360381019061019b91906118a3565b6106c9565b005b6101bc60048036038101906101b791906118a3565b610731565b005b6101d860048036038101906101d391906117b8565b610750565b6040516101e59190611822565b60405180910390f35b610208600480360381019061020391906118f3565b6107f7565b604051610215919061192d565b60405180910390f35b610238600480360381019061023391906117b8565b6108ab565b005b61024261095b565b60405161024f9190611765565b60405180910390f35b610272600480360381019061026d9190611970565b6109e7565b005b61028e60048036038101906102899190611ada565b610adf565b005b6102aa60048036038101906102a591906117b8565b610b49565b6040516102b79190611765565b60405180910390f35b6102da60048036038101906102d59190611b5a565b610c43565b6040516102e791906116dc565b60405180910390f35b5f7f80ac58cd000000000000000000000000000000000000000000000000000000007bffffffffffffffffffffffffffffffffffffffffffffffffffffffff1916827bffffffffffffffffffffffffffffffffffffffffffffffffffffffff191614806103ba57507f01ffc9a7000000000000000000000000000000000000000000000000000000007bffffffffffffffffffffffffffffffffffffffffffffffffffffffff1916827bffffffffffffffffffffffffffffffffffffffffffffffffffffffff1916145b8061042257507f5b5e139f000000000000000000000000000000000000000000000000000000007bffffffffffffffffffffffffffffffffffffffffffffffffffffffff1916827bffffffffffffffffffffffffffffffffffffffffffffffffffffffff1916145b9050919050565b5f805461043590611bc5565b80601f016020809104026020016040519081016040528092919081815260200182805461046190611bc5565b80156104ac5780601f10610483576101008083540402835291602001916104ac565b820191905f5260205f20905b81548152906001019060200180831161048f57829003601f168201915b505050505081565b5f5f73ffffffffffffffffffffffffffffffffffffffff1660025f8481526020019081526020015f205f9054906101000a900473ffffffffffffffffffffffffffffffffffffffff1673ffffffffffffffffffffffffffffffffffffffff1603610553576040517f08c379a000000000000000000000000000000000000000000000000000000000815260040161054a90611c3f565b60405180910390fd5b60045f8381526020019081526020015f205f9054906101000a900473ffffffffffffffffffffffffffffffffffffffff169050919050565b5f60025f8381526020019081526020015f205f9054906101000a900473ffffffffffffffffffffffffffffffffffffffff1690508073ffffffffffffffffffffffffffffffffffffffff163373ffffffffffffffffffffffffffffffffffffffff16148061067a575060055f8273ffffffffffffffffffffffffffffffffffffffff1673ffffffffffffffffffffffffffffffffffffffff1681526020019081526020015f205f3373ffffffffffffffffffffffffffffffffffffffff1673ffffffffffffffffffffffffffffffffffffffff1681526020019081526020015f205f9054906101000a900460ff165b6106b9576040517f08c379a00000000000000000000000000000000000000000000000000000000081526004016106b090611ca7565b60405180910390fd5b6106c4818484610cd1565b505050565b5f6106d382610750565b90506106e0813384610d80565b61071f576040517f08c379a000000000000000000000000000000000000000000000000000000000815260040161071690611d0f565b60405180910390fd5b61072b81858585610eab565b50505050565b61074b83838360405180602001604052805f815250610adf565b505050565b5f60025f8381526020019081526020015f205f9054906101000a900473ffffffffffffffffffffffffffffffffffffffff1690505f73ffffffffffffffffffffffffffffffffffffffff168173ffffffffffffffffffffffffffffffffffffffff16036107f2576040517f08c379a00000000000000000000000000000000000000000000000000000000081526004016107e990611c3f565b60405180910390fd5b919050565b5f5f73ffffffffffffffffffffffffffffffffffffffff168273ffffffffffffffffffffffffffffffffffffffff1603610866576040517f08c379a000000000000000000000000000000000000000000000000000000000815260040161085d90611d77565b60405180910390fd5b60035f8373ffffffffffffffffffffffffffffffffffffffff1673ffffffffffffffffffffffffffffffffffffffff1681526020019081526020015f20549050919050565b5f60646001436108bb9190611dc2565b40426040516020016108ce929190611e3e565b604051602081830303815290604052805190602001205f1c6108f09190611e96565b9050818114610934576040517f08c379a000000000000000000000000000000000000000000000000000000000815260040161092b90611f10565b60405180910390fd5b610940336006546110ea565b60065f81548092919061095290611f2e565b91905055505050565b6001805461096890611bc5565b80601f016020809104026020016040519081016040528092919081815260200182805461099490611bc5565b80156109df5780601f106109b6576101008083540402835291602001916109df565b820191905f5260205f20905b8154815290600101906020018083116109c257829003601f168201915b505050505081565b8060055f3373ffffffffffffffffffffffffffffffffffffffff1673ffffffffffffffffffffffffffffffffffffffff1681526020019081526020015f205f8473ffffffffffffffffffffffffffffffffffffffff1673ffffffffffffffffffffffffffffffffffffffff1681526020019081526020015f205f6101000a81548160ff0219169083151502179055508173ffffffffffffffffffffffffffffffffffffffff163373ffffffffffffffffffffffffffffffffffffffff167f17307eab39ab6107e8899845ad3d59bd9653f200f220920489ca2b5937696c3183604051610ad391906116dc565b60405180910390a35050565b5f610ae983610750565b9050610af6813385610d80565b610b35576040517f08c379a0000000000000000000000000000000000000000000000000000000008152600401610b2c90611d0f565b60405180910390fd5b610b4281868686866112f8565b5050505050565b60605f73ffffffffffffffffffffffffffffffffffffffff1660025f8481526020019081526020015f205f9054906101000a900473ffffffffffffffffffffffffffffffffffffffff1673ffffffffffffffffffffffffffffffffffffffff1603610be9576040517f08c379a0000000000000000000000000000000000000000000000000000000008152600401610be090611fbf565b60405180910390fd5b5f610bf2611317565b90505f815111610c105760405180602001604052805f815250610c3b565b80610c1a8461132d565b604051602001610c2b929190612017565b6040516020818303038152906040525b915050919050565b5f60055f8473ffffffffffffffffffffffffffffffffffffffff1673ffffffffffffffffffffffffffffffffffffffff1681526020019081526020015f205f8373ffffffffffffffffffffffffffffffffffffffff1673ffffffffffffffffffffffffffffffffffffffff1681526020019081526020015f205f9054906101000a900460ff16905092915050565b8160045f8381526020019081526020015f205f6101000a81548173ffffffffffffffffffffffffffffffffffffffff021916908373ffffffffffffffffffffffffffffffffffffffff160217905550808273ffffffffffffffffffffffffffffffffffffffff168473ffffffffffffffffffffffffffffffffffffffff167f8c5be1e5ebec7d5bd14f71427d1e84f3dd0314c0f7b2291e5b200ac8c7c3b92560405160405180910390a4505050565b5f8373ffffffffffffffffffffffffffffffffffffffff168373ffffffffffffffffffffffffffffffffffffffff161480610e1657508273ffffffffffffffffffffffffffffffffffffffff1660045f8481526020019081526020015f205f9054906101000a900473ffffffffffffffffffffffffffffffffffffffff1673ffffffffffffffffffffffffffffffffffffffff16145b80610ea2575060055f8573ffffffffffffffffffffffffffffffffffffffff1673ffffffffffffffffffffffffffffffffffffffff1681526020019081526020015f205f8473ffffffffffffffffffffffffffffffffffffffff1673ffffffffffffffffffffffffffffffffffffffff1681526020019081526020015f205f9054906101000a900460ff165b90509392505050565b8373ffffffffffffffffffffffffffffffffffffffff168373ffffffffffffffffffffffffffffffffffffffff1614610f19576040517f08c379a0000000000000000000000000000000000000000000000000000000008152600401610f1090612084565b60405180910390fd5b5f73ffffffffffffffffffffffffffffffffffffffff168273ffffffffffffffffffffffffffffffffffffffff1603610f87576040517f08c379a0000000000000000000000000000000000000000000000000000000008152600401610f7e906120ec565b60405180910390fd5b610f92845f83610cd1565b600160035f8573ffffffffffffffffffffffffffffffffffffffff1673ffffffffffffffffffffffffffffffffffffffff1681526020019081526020015f205f828254610fdf9190611dc2565b92505081905550600160035f8473ffffffffffffffffffffffffffffffffffffffff1673ffffffffffffffffffffffffffffffffffffffff1681526020019081526020015f205f828254611033919061210a565b925050819055508160025f8381526020019081526020015f205f6101000a81548173ffffffffffffffffffffffffffffffffffffffff021916908373ffffffffffffffffffffffffffffffffffffffff160217905550808273ffffffffffffffffffffffffffffffffffffffff168473ffffffffffffffffffffffffffffffffffffffff167fddf252ad1be2c89b69c2b068fc378daa952ba7f163c4a11628f55a4df523b3ef60405160405180910390a450505050565b5f73ffffffffffffffffffffffffffffffffffffffff168273ffffffffffffffffffffffffffffffffffffffff1603611158576040517f08c379a000000000000000000000000000000000000000000000000000000000815260040161114f90612187565b60405180910390fd5b5f73ffffffffffffffffffffffffffffffffffffffff1660025f8381526020019081526020015f205f9054906101000a900473ffffffffffffffffffffffffffffffffffffffff1673ffffffffffffffffffffffffffffffffffffffff16146111f6576040517f08c379a00000000000000000000000000000000000000000000000000000000081526004016111ed906121ef565b60405180910390fd5b600160035f8473ffffffffffffffffffffffffffffffffffffffff1673ffffffffffffffffffffffffffffffffffffffff1681526020019081526020015f205f828254611243919061210a565b925050819055508160025f8381526020019081526020015f205f6101000a81548173ffffffffffffffffffffffffffffffffffffffff021916908373ffffffffffffffffffffffffffffffffffffffff160217905550808273ffffffffffffffffffffffffffffffffffffffff165f73ffffffffffffffffffffffffffffffffffffffff167fddf252ad1be2c89b69c2b068fc378daa952ba7f163c4a11628f55a4df523b3ef60405160405180910390a45050565b61130485858585610eab565b61131084848484611486565b5050505050565b606060405180602001604052805f815250905090565b60605f8203611373576040518060400160405280600181526020017f30000000000000000000000000000000000000000000000000000000000000008152509050611481565b5f8290505f5b5f82146113a257808061138b90611f2e565b915050600a8261139b919061220d565b9150611379565b5f8167ffffffffffffffff8111156113bd576113bc6119b6565b5b6040519080825280601f01601f1916602001820160405280156113ef5781602001600182028036833780820191505090505b5090505b5f851461147a576001826114079190611dc2565b9150600a856114169190611e96565b6030611422919061210a565b60f81b8183815181106114385761143761223d565b5b60200101907effffffffffffffffffffffffffffffffffffffffffffffffffffffffffffff191690815f1a905350600a85611473919061220d565b94506113f3565b8093505050505b919050565b5f8373ffffffffffffffffffffffffffffffffffffffff163b111561162b578273ffffffffffffffffffffffffffffffffffffffff1663150b7a02338685856040518563ffffffff1660e01b81526004016114e494939291906122bc565b6020604051808303815f875af192505050801561151f57506040513d601f19601f8201168201806040525081019061151c919061231a565b60015b6115a0573d805f811461154d576040519150601f19603f3d011682016040523d82523d5f602084013e611552565b606091505b505f81510361159857836040517f64a0ae9200000000000000000000000000000000000000000000000000000000815260040161158f9190611822565b60405180910390fd5b805181602001fd5b63150b7a0260e01b7bffffffffffffffffffffffffffffffffffffffffffffffffffffffff1916817bffffffffffffffffffffffffffffffffffffffffffffffffffffffff19161461162957836040517f64a0ae920000000000000000000000000000000000000000000000000000000081526004016116209190611822565b60405180910390fd5b505b50505050565b5f604051905090565b5f5ffd5b5f5ffd5b5f7fffffffff0000000000000000000000000000000000000000000000000000000082169050919050565b61167681611642565b8114611680575f5ffd5b50565b5f813590506116918161166d565b92915050565b5f602082840312156116ac576116ab61163a565b5b5f6116b984828501611683565b91505092915050565b5f8115159050919050565b6116d6816116c2565b82525050565b5f6020820190506116ef5f8301846116cd565b92915050565b5f81519050919050565b5f82825260208201905092915050565b8281835e5f83830152505050565b5f601f19601f8301169050919050565b5f611737826116f5565b61174181856116ff565b935061175181856020860161170f565b61175a8161171d565b840191505092915050565b5f6020820190508181035f83015261177d818461172d565b905092915050565b5f819050919050565b61179781611785565b81146117a1575f5ffd5b50565b5f813590506117b28161178e565b92915050565b5f602082840312156117cd576117cc61163a565b5b5f6117da848285016117a4565b91505092915050565b5f73ffffffffffffffffffffffffffffffffffffffff82169050919050565b5f61180c826117e3565b9050919050565b61181c81611802565b82525050565b5f6020820190506118355f830184611813565b92915050565b61184481611802565b811461184e575f5ffd5b50565b5f8135905061185f8161183b565b92915050565b5f5f6040838503121561187b5761187a61163a565b5b5f61188885828601611851565b9250506020611899858286016117a4565b9150509250929050565b5f5f5f606084860312156118ba576118b961163a565b5b5f6118c786828701611851565b93505060206118d886828701611851565b92505060406118e9868287016117a4565b9150509250925092565b5f602082840312156119085761190761163a565b5b5f61191584828501611851565b91505092915050565b61192781611785565b82525050565b5f6020820190506119405f83018461191e565b92915050565b61194f816116c2565b8114611959575f5ffd5b50565b5f8135905061196a81611946565b92915050565b5f5f604083850312156119865761198561163a565b5b5f61199385828601611851565b92505060206119a48582860161195c565b9150509250929050565b5f5ffd5b5f5ffd5b7f4e487b71000000000000000000000000000000000000000000000000000000005f52604160045260245ffd5b6119ec8261171d565b810181811067ffffffffffffffff82111715611a0b57611a0a6119b6565b5b80604052505050565b5f611a1d611631565b9050611a2982826119e3565b919050565b5f67ffffffffffffffff821115611a4857611a476119b6565b5b611a518261171d565b9050602081019050919050565b828183375f83830152505050565b5f611a7e611a7984611a2e565b611a14565b905082815260208101848484011115611a9a57611a996119b2565b5b611aa5848285611a5e565b509392505050565b5f82601f830112611ac157611ac06119ae565b5b8135611ad1848260208601611a6c565b91505092915050565b5f5f5f5f60808587031215611af257611af161163a565b5b5f611aff87828801611851565b9450506020611b1087828801611851565b9350506040611b21878288016117a4565b925050606085013567ffffffffffffffff811115611b4257611b4161163e565b5b611b4e87828801611aad565b91505092959194509250565b5f5f60408385031215611b7057611b6f61163a565b5b5f611b7d85828601611851565b9250506020611b8e85828601611851565b9150509250929050565b7f4e487b71000000000000000000000000000000000000000000000000000000005f52602260045260245ffd5b5f6002820490506001821680611bdc57607f821691505b602082108103611bef57611bee611b98565b5b50919050565b7f746f6b656e20646f65736e2774206578697374000000000000000000000000005f82015250565b5f611c296013836116ff565b9150611c3482611bf5565b602082019050919050565b5f6020820190508181035f830152611c5681611c1d565b9050919050565b7f6e6f74206f776e6572206e6f7220617070726f76656420666f7220616c6c00005f82015250565b5f611c91601e836116ff565b9150611c9c82611c5d565b602082019050919050565b5f6020820190508181035f830152611cbe81611c85565b9050919050565b7f6e6f74206f776e6572206e6f7220617070726f766564000000000000000000005f82015250565b5f611cf96016836116ff565b9150611d0482611cc5565b602082019050919050565b5f6020820190508181035f830152611d2681611ced565b9050919050565b7f6f776e6572203d207a65726f20616464726573730000000000000000000000005f82015250565b5f611d616014836116ff565b9150611d6c82611d2d565b602082019050919050565b5f6020820190508181035f830152611d8e81611d55565b9050919050565b7f4e487b71000000000000000000000000000000000000000000000000000000005f52601160045260245ffd5b5f611dcc82611785565b9150611dd783611785565b9250828203905081811115611def57611dee611d95565b5b92915050565b5f819050919050565b5f819050919050565b611e18611e1382611df5565b611dfe565b82525050565b5f819050919050565b611e38611e3382611785565b611e1e565b82525050565b5f611e498285611e07565b602082019150611e598284611e27565b6020820191508190509392505050565b7f4e487b71000000000000000000000000000000000000000000000000000000005f52601260045260245ffd5b5f611ea082611785565b9150611eab83611785565b925082611ebb57611eba611e69565b5b828206905092915050565b7f426574746572206c75636b206e6578742074696d6521000000000000000000005f82015250565b5f611efa6016836116ff565b9150611f0582611ec6565b602082019050919050565b5f6020820190508181035f830152611f2781611eee565b9050919050565b5f611f3882611785565b91507fffffffffffffffffffffffffffffffffffffffffffffffffffffffffffffffff8203611f6a57611f69611d95565b5b600182019050919050565b7f546f6b656e204e6f7420457869737400000000000000000000000000000000005f82015250565b5f611fa9600f836116ff565b9150611fb482611f75565b602082019050919050565b5f6020820190508181035f830152611fd681611f9d565b9050919050565b5f81905092915050565b5f611ff1826116f5565b611ffb8185611fdd565b935061200b81856020860161170f565b80840191505092915050565b5f6120228285611fe7565b915061202e8284611fe7565b91508190509392505050565b7f6e6f74206f776e657200000000000000000000000000000000000000000000005f82015250565b5f61206e6009836116ff565b91506120798261203a565b602082019050919050565b5f6020820190508181035f83015261209b81612062565b9050919050565b7f7472616e7366657220746f20746865207a65726f2061646472657373000000005f82015250565b5f6120d6601c836116ff565b91506120e1826120a2565b602082019050919050565b5f6020820190508181035f830152612103816120ca565b9050919050565b5f61211482611785565b915061211f83611785565b925082820190508082111561213757612136611d95565b5b92915050565b7f6d696e7420746f207a65726f20616464726573730000000000000000000000005f82015250565b5f6121716014836116ff565b915061217c8261213d565b602082019050919050565b5f6020820190508181035f83015261219e81612165565b9050919050565b7f746f6b656e20616c7265616479206d696e7465640000000000000000000000005f82015250565b5f6121d96014836116ff565b91506121e4826121a5565b602082019050919050565b5f6020820190508181035f830152612206816121cd565b9050919050565b5f61221782611785565b915061222283611785565b92508261223257612231611e69565b5b828204905092915050565b7f4e487b71000000000000000000000000000000000000000000000000000000005f52603260045260245ffd5b5f81519050919050565b5f82825260208201905092915050565b5f61228e8261226a565b6122988185612274565b93506122a881856020860161170f565b6122b18161171d565b840191505092915050565b5f6080820190506122cf5f830187611813565b6122dc6020830186611813565b6122e9604083018561191e565b81810360608301526122fb8184612284565b905095945050505050565b5f815190506123148161166d565b92915050565b5f6020828403121561232f5761232e61163a565b5b5f61233c84828501612306565b9150509291505056fea26469706673582212204ee57169177569317ee293e2eb2de4abc759c7966bed29841356474632f52afd64736f6c63430008220033","linkReferences":{}},"methodIdentifiers":{"approve(address,uint256)":"095ea7b3","balanceOf(address)":"70a08231","getApproved(uint256)":"081812fc","isApprovedForAll(address,address)":"e985e9c5","luckyMint(uint256)":"8726d836","name()":"06fdde03","ownerOf(uint256)":"6352211e","safeTransferFrom(address,address,uint256)":"42842e0e","safeTransferFrom(address,address,uint256,bytes)":"b88d4fde","setApprovalForAll(address,bool)":"a22cb465","supportsInterface(bytes4)":"01ffc9a7","symbol()":"95d89b41","tokenURI(uint256)":"c87b56dd","transferFrom(address,address,uint256)":"23b872dd"},"id":127}