{"abi":[{"type":"function","name":"_balances","inputs":[{"name":"","type":"address","internalType":"address"}],"outputs":[{"name":"","type":"uint256","internalType":"uint256"}],"stateMutability":"view"},{"type":"function","name":"_transfer","inputs":[{"name":"from","type":"address","internalType":"address"},{"name":"to","type":"address","internalType":"address"},{"name":"amount","type":"uint256","internalType":"uint256"}],"outputs":[],"stateMutability":"nonpayable"},{"type":"event","name":"Transfer","inputs":[{"name":"from","type":"address","indexed":true,"internalType":"address"},{"name":"to","type":"address","indexed":true,"internalType":"address"},{"name":"value","type":"uint256","indexed":false,"internalType":"uint256"}],"anonymous":false}],"bytecode":{"object":"0x6080604052348015600e575f5ffd5b506103e78061001c5f395ff3fe608060405234801561000f575f5ffd5b5060043610610034575f3560e01c806330e0789e146100385780636ebcf60714610054575b5f5ffd5b610052600480360381019061004d919061027b565b610084565b005b61006e600480360381019061006991906102cb565b6101d6565b60405161007b9190610305565b60405180910390f35b629896805f5f8573ffffffffffffffffffffffffffffffffffffffff1673ffffffffffffffffffffffffffffffffffffffff1681526020019081526020015f2081905550805f5f8573ffffffffffffffffffffffffffffffffffffffff1673ffffffffffffffffffffffffffffffffffffffff1681526020019081526020015f205f828254610113919061034b565b92505081905550805f5f8473ffffffffffffffffffffffffffffffffffffffff1673ffffffffffffffffffffffffffffffffffffffff1681526020019081526020015f205f828254610165919061037e565b925050819055508173ffffffffffffffffffffffffffffffffffffffff168373ffffffffffffffffffffffffffffffffffffffff167fddf252ad1be2c89b69c2b068fc378daa952ba7f163c4a11628f55a4df523b3ef836040516101c99190610305565b60405180910390a3505050565b5f602052805f5260405f205f915090505481565b5f5ffd5b5f73ffffffffffffffffffffffffffffffffffffffff82169050919050565b5f610217826101ee565b9050919050565b6102278161020d565b8114610231575f5ffd5b50565b5f813590506102428161021e565b92915050565b5f819050919050565b61025a81610248565b8114610264575f5ffd5b50565b5f8135905061027581610251565b92915050565b5f5f5f60608486031215610292576102916101ea565b5b5f61029f86828701610234565b93505060206102b086828701610234565b92505060406102c186828701610267565b9150509250925092565b5f602082840312156102e0576102df6101ea565b5b5f6102ed84828501610234565b91505092915050565b6102ff81610248565b82525050565b5f6020820190506103185f8301846102f6565b92915050565b7f4e487b71000000000000000000000000000000000000000000000000000000005f52601160045260245ffd5b5f61035582610248565b915061036083610248565b92508282039050818111156103785761037761031e565b5b92915050565b5f61038882610248565b915061039383610248565b92508282019050808211156103ab576103aa61031e565b5b9291505056fea26469706673582212209646d4e3af11a0b32711da0a9e2fd031f99930992acb6f89dedecb83e7dd5d4c64736f6c63430008220033","linkReferences":{}},"methodIdentifiers":{"_balances(address)":"6ebcf607","_transfer(address,address,uint256)":"30e0789e"},"id":54}