{"abi":[{"type":"function","name":"balanceOfBAYC","inputs":[{"name":"owner","type":"address","internalType":"address"}],"outputs":[{"name":"balance","type":"uint256","internalType":"uint256"}],"stateMutability":"view"},{"type":"function","name":"safeTransferFromBAYC","inputs":[{"name":"from","type":"address","internalType":"address"},{"name":"to","type":"address","internalType":"address"},{"name":"tokenId","type":"uint256","internalType":"uint256"}],"outputs":[],"stateMutability":"nonpayable"}],"bytecode":{"object":"0x608060405273bc4ca0eda7647a8ab7c2061c2e118a18a936f13d5f5f6101000a81548173ffffffffffffffffffffffffffffffffffffffff021916908373ffffffffffffffffffffffffffffffffffffffff1602179055503480156061575f5ffd5b506103b98061006f5f395ff3fe608060405234801561000f575f5ffd5b5060043610610034575f3560e01c80635b4f65bf14610038578063fec8a8a514610068575b5f5ffd5b610052600480360381019061004d9190610211565b610084565b60405161005f9190610254565b60405180910390f35b610082600480360381019061007d9190610297565b610124565b005b5f5f5f9054906101000a900473ffffffffffffffffffffffffffffffffffffffff1673ffffffffffffffffffffffffffffffffffffffff166370a08231836040518263ffffffff1660e01b81526004016100de91906102f6565b602060405180830381865afa1580156100f9573d5f5f3e3d5ffd5b505050506040513d601f19601f8201168201806040525081019061011d9190610323565b9050919050565b5f5f9054906101000a900473ffffffffffffffffffffffffffffffffffffffff1673ffffffffffffffffffffffffffffffffffffffff166342842e0e8484846040518463ffffffff1660e01b81526004016101819392919061034e565b5f604051808303815f87803b158015610198575f5ffd5b505af11580156101aa573d5f5f3e3d5ffd5b50505050505050565b5f5ffd5b5f73ffffffffffffffffffffffffffffffffffffffff82169050919050565b5f6101e0826101b7565b9050919050565b6101f0816101d6565b81146101fa575f5ffd5b50565b5f8135905061020b816101e7565b92915050565b5f60208284031215610226576102256101b3565b5b5f610233848285016101fd565b91505092915050565b5f819050919050565b61024e8161023c565b82525050565b5f6020820190506102675f830184610245565b92915050565b6102768161023c565b8114610280575f5ffd5b50565b5f813590506102918161026d565b92915050565b5f5f5f606084860312156102ae576102ad6101b3565b5b5f6102bb868287016101fd565b93505060206102cc868287016101fd565b92505060406102dd86828701610283565b9150509250925092565b6102f0816101d6565b82525050565b5f6020820190506103095f8301846102e7565b92915050565b5f8151905061031d8161026d565b92915050565b5f60208284031215610338576103376101b3565b5b5f6103458482850161030f565b91505092915050565b5f6060820190506103615f8301866102e7565b61036e60208301856102e7565b61037b6040830184610245565b94935050505056fea2646970667358221220571e6438c37ae7b9c024329d57e1e81c06c0b47b11cbb4f4f5d51178f46b21f464736f6c63430008220033","linkReferences":{}},"methodIdentifiers":{"balanceOfBAYC(address)":"5b4f65bf","safeTransferFromBAYC(address,address,uint256)":"fec8a8a5"},"id":56}