{"abi":[{"type":"constructor","inputs":[],"stateMutability":"nonpayable"},{"type":"function","name":"CONSTANT_ADDRESS","inputs":[],"outputs":[{"name":"","type":"address","internalType":"address"}],"stateMutability":"view"},{"type":"function","name":"CONSTANT_BYTES","inputs":[],"outputs":[{"name":"","type":"bytes","internalType":"bytes"}],"stateMutability":"view"},{"type":"function","name":"CONSTANT_NUM","inputs":[],"outputs":[{"name":"","type":"uint256","internalType":"uint256"}],"stateMutability":"view"},{"type":"function","name":"CONSTANT_STRING","inputs":[],"outputs":[{"name":"","type":"string","internalType":"string"}],"stateMutability":"view"},{"type":"function","name":"IMMUTABLE_ADDRESS","inputs":[],"outputs":[{"name":"","type":"address","internalType":"address"}],"stateMutability":"view"},{"type":"function","name":"IMMUTABLE_BLOCK","inputs":[],"outputs":[{"name":"","type":"uint256","internalType":"uint256"}],"stateMutability":"view"},{"type":"function","name":"IMMUTABLE_NUM","inputs":[],"outputs":[{"name":"","type":"uint256","internalType":"uint256"}],"stateMutability":"view"},{"type":"function","name":"IMMUTABLE_TEST","inputs":[],"outputs":[{"name":"","type":"uint256","internalType":"uint256"}],"stateMutability":"view"},{"type":"function","name":"test","inputs":[],"outputs":[{"name":"","type":"uint256","internalType":"uint256"}],"stateMutability":"pure"}],"bytecode":{"object":"0x6101006040526402540be3ff60809081525034801561001c575f5ffd5b503073ffffffffffffffffffffffffffffffffffffffff1660a08173ffffffffffffffffffffffffffffffffffffffff168152505061045e6080818152505061006961007560201b60201c565b60e08181525050610082565b5f5f600990508091505090565b60805160a05160c05160e05161047c6100b55f395f61020701525f6101de01525f61028c01525f610268015261047c5ff3fe608060405234801561000f575f5ffd5b5060043610610091575f3560e01c806379135c7d1161006457806379135c7d1461010d578063858e04031461012b578063ed7ff87514610149578063f151302114610167578063f8a8fd6d1461018557610091565b80631adead50146100955780631d9afdd2146100b35780632314d48c146100d15780634064572e146100ef575b5f5ffd5b61009d6101a3565b6040516100aa919061032b565b60405180910390f35b6100bb6101dc565b6040516100c89190610363565b60405180910390f35b6100d9610200565b6040516100e69190610363565b60405180910390f35b6100f7610205565b6040516101049190610363565b60405180910390f35b610115610229565b60405161012291906103ce565b60405180910390f35b610133610262565b604051610140919061042d565b60405180910390f35b610151610266565b60405161015e9190610363565b60405180910390f35b61016f61028a565b60405161017c919061042d565b60405180910390f35b61018d6102ae565b60405161019a9190610363565b60405180910390f35b6040518060400160405280600481526020017f307841410000000000000000000000000000000000000000000000000000000081525081565b7f000000000000000000000000000000000000000000000000000000000000000081565b600a81565b7f000000000000000000000000000000000000000000000000000000000000000081565b6040518060400160405280600381526020017f575446000000000000000000000000000000000000000000000000000000000081525081565b5f81565b7f000000000000000000000000000000000000000000000000000000000000000081565b7f000000000000000000000000000000000000000000000000000000000000000081565b5f5f600990508091505090565b5f81519050919050565b5f82825260208201905092915050565b8281835e5f83830152505050565b5f601f19601f8301169050919050565b5f6102fd826102bb565b61030781856102c5565b93506103178185602086016102d5565b610320816102e3565b840191505092915050565b5f6020820190508181035f83015261034381846102f3565b905092915050565b5f819050919050565b61035d8161034b565b82525050565b5f6020820190506103765f830184610354565b92915050565b5f81519050919050565b5f82825260208201905092915050565b5f6103a08261037c565b6103aa8185610386565b93506103ba8185602086016102d5565b6103c3816102e3565b840191505092915050565b5f6020820190508181035f8301526103e68184610396565b905092915050565b5f73ffffffffffffffffffffffffffffffffffffffff82169050919050565b5f610417826103ee565b9050919050565b6104278161040d565b82525050565b5f6020820190506104405f83018461041e565b9291505056fea264697066735822122065c89241d6807f4340cc0cca58933e59f9156a0bc5600f9876ac7297219477b864736f6c63430008220033","linkReferences":{}},"methodIdentifiers":{"CONSTANT_ADDRESS()":"858e0403","CONSTANT_BYTES()":"79135c7d","CONSTANT_NUM()":"2314d48c","CONSTANT_STRING()":"1adead50","IMMUTABLE_ADDRESS()":"f1513021","IMMUTABLE_BLOCK()":"1d9afdd2","IMMUTABLE_NUM()":"ed7ff875","IMMUTABLE_TEST()":"4064572e","test()":"f8a8fd6d"},"id":52}