{"abi":[{"type":"function","name":"callWithSignature","inputs":[],"outputs":[],"stateMutability":"nonpayable"},{"type":"function","name":"elementaryParamSelector","inputs":[{"name":"param1","type":"uint256","internalType":"uint256"},{"name":"param2","type":"bool","internalType":"bool"}],"outputs":[{"name":"selectorWithElementaryParam","type":"bytes4","internalType":"bytes4"}],"stateMutability":"nonpayable"},{"type":"function","name":"fixedSizeParamSelector","inputs":[{"name":"param1","type":"uint256[3]","internalType":"uint256[3]"}],"outputs":[{"name":"selectorWithFixedSizeParam","type":"bytes4","internalType":"bytes4"}],"stateMutability":"nonpayable"},{"type":"function","name":"mappingParamSelector","inputs":[{"name":"demo","type":"address","internalType":"contract DemoContract"},{"name":"user","type":"tuple","internalType":"struct Selector.User","components":[{"name":"uid","type":"uint256","internalType":"uint256"},{"name":"name","type":"bytes","internalType":"bytes"}]},{"name":"count","type":"uint256[]","internalType":"uint256[]"},{"name":"mySchool","type":"uint8","internalType":"enum Selector.School"}],"outputs":[{"name":"selectorWithMappingParam","type":"bytes4","internalType":"bytes4"}],"stateMutability":"nonpayable"},{"type":"function","name":"mint","inputs":[{"name":"","type":"address","internalType":"address"}],"outputs":[],"stateMutability":"nonpayable"},{"type":"function","name":"mintSelector","inputs":[],"outputs":[{"name":"mSelector","type":"bytes4","internalType":"bytes4"}],"stateMutability":"pure"},{"type":"function","name":"nonFixedSizeParamSelector","inputs":[{"name":"param1","type":"uint256[]","internalType":"uint256[]"},{"name":"param2","type":"string","internalType":"string"}],"outputs":[{"name":"selectorWithNonFixedSizeParam","type":"bytes4","internalType":"bytes4"}],"stateMutability":"nonpayable"},{"type":"function","name":"nonParamSelector","inputs":[],"outputs":[{"name":"selectorWithNonParam","type":"bytes4","internalType":"bytes4"}],"stateMutability":"nonpayable"},{"type":"event","name":"Log","inputs":[{"name":"data","type":"bytes","indexed":false,"internalType":"bytes"}],"anonymous":false},{"type":"event","name":"SelectorEvent","inputs":[{"name":"","type":"bytes4","indexed":false,"internalType":"bytes4"}],"anonymous":false}],"bytecode":{"object":"0x6080604052348015600e575f5ffd5b506115068061001c5f395ff3fe608060405234801561000f575f5ffd5b5060043610610086575f3560e01c80636a627842116100595780636a62784214610100578063e355b0ce1461011c578063ead6b8bd1461014c578063f0ca01de1461017c57610086565b8063038179361461008a578063046dab16146100a85780633ec37834146100c657806359ebea23146100f6575b5f5ffd5b6100926101ac565b60405161009f919061099e565b60405180910390f35b6100b0610211565b6040516100bd919061099e565b60405180910390f35b6100e060048036038101906100db9190610a30565b610238565b6040516100ed919061099e565b60405180910390f35b6100fe6102a0565b005b61011a60048036038101906101159190610ac8565b6107d6565b005b61013660048036038101906101319190610dc2565b610812565b604051610143919061099e565b60405180910390f35b61016660048036038101906101619190610f0c565b61087c565b604051610173919061099e565b60405180910390f35b61019660048036038101906101919190610fd5565b6108e3565b6040516101a3919061099e565b60405180910390f35b5f7f87c76683e354abe8640b03c72d02c9175d9a00a6c0101d5bc4be081b9b8199eb630381793660e01b6040516101e3919061099e565b60405180910390a17f038179367d802aca924f17568b786520678fa7955b6cd468a00dd90b7cfbab40905090565b5f7f6a627842f752de95745ef8f3ca67858982b5f585d752f8163e5855050041cb3c905090565b5f7f87c76683e354abe8640b03c72d02c9175d9a00a6c0101d5bc4be081b9b8199eb633ec3783460e01b60405161026f919061099e565b60405180910390a17f3ec3783488bfc90ed98dc398cd67f30f42b252c8ce7d59a4dce63a149c452548905092915050565b5f600367ffffffffffffffff8111156102bc576102bb610b42565b5b6040519080825280602002602001820160405280156102ea5781602001602082028036833780820191505090505b5090506001815f815181106103025761030161104b565b5b6020026020010181815250506002816001815181106103245761032361104b565b5b6020026020010181815250506003816002815181106103465761034561104b565b5b60200260200101818152505061035a61094b565b6001815f0181815250506040518060400160405280600681526020017f307861306231000000000000000000000000000000000000000000000000000081525081602001819052505f5f3073ffffffffffffffffffffffffffffffffffffffff1663038179366040516024016040516020818303038152906040529060e01b6020820180517bffffffffffffffffffffffffffffffffffffffffffffffffffffffff838183161783525050505060405161041491906110ca565b5f604051808303815f865af19150503d805f811461044d576040519150601f19603f3d011682016040523d82523d5f602084013e610452565b606091505b50915091505f5f3073ffffffffffffffffffffffffffffffffffffffff16633ec3783460015f604051602401610489929190611167565b6040516020818303038152906040529060e01b6020820180517bffffffffffffffffffffffffffffffffffffffffffffffffffffffff83818316178352505050506040516104d791906110ca565b5f604051808303815f865af19150503d805f8114610510576040519150601f19603f3d011682016040523d82523d5f602084013e610515565b606091505b50915091505f5f3073ffffffffffffffffffffffffffffffffffffffff1663ead6b8bd6040518060600160405280600160ff168152602001600260ff168152602001600360ff1681525060405160240161056f9190611233565b6040516020818303038152906040529060e01b6020820180517bffffffffffffffffffffffffffffffffffffffffffffffffffffffff83818316178352505050506040516105bd91906110ca565b5f604051808303815f865af19150503d805f81146105f6576040519150601f19603f3d011682016040523d82523d5f602084013e6105fb565b606091505b50915091505f5f3073ffffffffffffffffffffffffffffffffffffffff1663f0ca01de8b60405160240161062f919061135d565b6040516020818303038152906040529060e01b6020820180517bffffffffffffffffffffffffffffffffffffffffffffffffffffffff838183161783525050505060405161067d91906110ca565b5f604051808303815f865af19150503d805f81146106b6576040519150601f19603f3d011682016040523d82523d5f602084013e6106bb565b606091505b50915091505f5f3073ffffffffffffffffffffffffffffffffffffffff1663e355b0ce739d7f74d0c41e726ec95884e0e97fa6129e3b5e998d8f600160405160240161070a9493929190611421565b6040516020818303038152906040529060e01b6020820180517bffffffffffffffffffffffffffffffffffffffffffffffffffffffff838183161783525050505060405161075891906110ca565b5f604051808303815f865af19150503d805f8114610791576040519150601f19603f3d011682016040523d82523d5f602084013e610796565b606091505b50915091508980156107a55750875b80156107ae5750855b80156107b75750835b80156107c05750815b6107c8575f5ffd5b505050505050505050505050565b7fafabcf2dd47e06a477a89e49c03f8ebe8e0a7e94f775b25bbb24227c9d0110b25f366040516108079291906114ae565b60405180910390a150565b5f7f87c76683e354abe8640b03c72d02c9175d9a00a6c0101d5bc4be081b9b8199eb63e355b0ce60e01b604051610849919061099e565b60405180910390a17fe355b0ceecdc5a85bc460808aed3b4d8eaa7935dbf79d2db6ffcf71e5c3525769050949350505050565b5f7f87c76683e354abe8640b03c72d02c9175d9a00a6c0101d5bc4be081b9b8199eb63ead6b8bd60e01b6040516108b3919061099e565b60405180910390a17fead6b8bdece33532847146a6fe63967e794ef7c18f3b888ae6fb3aebb4ef1b959050919050565b5f7f87c76683e354abe8640b03c72d02c9175d9a00a6c0101d5bc4be081b9b8199eb63f0ca01de60e01b60405161091a919061099e565b60405180910390a17ff0ca01de95639524000d6ff4e9309b96c7f67f7961bf24b33f8b20e85f6ad977905092915050565b60405180604001604052805f8152602001606081525090565b5f7fffffffff0000000000000000000000000000000000000000000000000000000082169050919050565b61099881610964565b82525050565b5f6020820190506109b15f83018461098f565b92915050565b5f604051905090565b5f5ffd5b5f5ffd5b5f819050919050565b6109da816109c8565b81146109e4575f5ffd5b50565b5f813590506109f5816109d1565b92915050565b5f8115159050919050565b610a0f816109fb565b8114610a19575f5ffd5b50565b5f81359050610a2a81610a06565b92915050565b5f5f60408385031215610a4657610a456109c0565b5b5f610a53858286016109e7565b9250506020610a6485828601610a1c565b9150509250929050565b5f73ffffffffffffffffffffffffffffffffffffffff82169050919050565b5f610a9782610a6e565b9050919050565b610aa781610a8d565b8114610ab1575f5ffd5b50565b5f81359050610ac281610a9e565b92915050565b5f60208284031215610add57610adc6109c0565b5b5f610aea84828501610ab4565b91505092915050565b5f610afd82610a8d565b9050919050565b610b0d81610af3565b8114610b17575f5ffd5b50565b5f81359050610b2881610b04565b92915050565b5f5ffd5b5f601f19601f8301169050919050565b7f4e487b71000000000000000000000000000000000000000000000000000000005f52604160045260245ffd5b610b7882610b32565b810181811067ffffffffffffffff82111715610b9757610b96610b42565b5b80604052505050565b5f610ba96109b7565b9050610bb58282610b6f565b919050565b5f5ffd5b5f5ffd5b5f5ffd5b5f67ffffffffffffffff821115610be057610bdf610b42565b5b610be982610b32565b9050602081019050919050565b828183375f83830152505050565b5f610c16610c1184610bc6565b610ba0565b905082815260208101848484011115610c3257610c31610bc2565b5b610c3d848285610bf6565b509392505050565b5f82601f830112610c5957610c58610bbe565b5b8135610c69848260208601610c04565b91505092915050565b5f60408284031215610c8757610c86610b2e565b5b610c916040610ba0565b90505f610ca0848285016109e7565b5f83015250602082013567ffffffffffffffff811115610cc357610cc2610bba565b5b610ccf84828501610c45565b60208301525092915050565b5f67ffffffffffffffff821115610cf557610cf4610b42565b5b602082029050602081019050919050565b5f5ffd5b5f610d1c610d1784610cdb565b610ba0565b90508083825260208201905060208402830185811115610d3f57610d3e610d06565b5b835b81811015610d685780610d5488826109e7565b845260208401935050602081019050610d41565b5050509392505050565b5f82601f830112610d8657610d85610bbe565b5b8135610d96848260208601610d0a565b91505092915050565b60038110610dab575f5ffd5b50565b5f81359050610dbc81610d9f565b92915050565b5f5f5f5f60808587031215610dda57610dd96109c0565b5b5f610de787828801610b1a565b945050602085013567ffffffffffffffff811115610e0857610e076109c4565b5b610e1487828801610c72565b935050604085013567ffffffffffffffff811115610e3557610e346109c4565b5b610e4187828801610d72565b9250506060610e5287828801610dae565b91505092959194509250565b5f67ffffffffffffffff821115610e7857610e77610b42565b5b602082029050919050565b5f610e95610e9084610e5e565b610ba0565b90508060208402830185811115610eaf57610eae610d06565b5b835b81811015610ed85780610ec488826109e7565b845260208401935050602081019050610eb1565b5050509392505050565b5f82601f830112610ef657610ef5610bbe565b5b6003610f03848285610e83565b91505092915050565b5f60608284031215610f2157610f206109c0565b5b5f610f2e84828501610ee2565b91505092915050565b5f67ffffffffffffffff821115610f5157610f50610b42565b5b610f5a82610b32565b9050602081019050919050565b5f610f79610f7484610f37565b610ba0565b905082815260208101848484011115610f9557610f94610bc2565b5b610fa0848285610bf6565b509392505050565b5f82601f830112610fbc57610fbb610bbe565b5b8135610fcc848260208601610f67565b91505092915050565b5f5f60408385031215610feb57610fea6109c0565b5b5f83013567ffffffffffffffff811115611008576110076109c4565b5b61101485828601610d72565b925050602083013567ffffffffffffffff811115611035576110346109c4565b5b61104185828601610fa8565b9150509250929050565b7f4e487b71000000000000000000000000000000000000000000000000000000005f52603260045260245ffd5b5f81519050919050565b5f81905092915050565b8281835e5f83830152505050565b5f6110a482611078565b6110ae8185611082565b93506110be81856020860161108c565b80840191505092915050565b5f6110d5828461109a565b915081905092915050565b5f819050919050565b5f60ff82169050919050565b5f819050919050565b5f61111861111361110e846110e0565b6110f5565b6110e9565b9050919050565b611128816110fe565b82525050565b5f819050919050565b5f61115161114c6111478461112e565b6110f5565b6110e9565b9050919050565b61116181611137565b82525050565b5f60408201905061117a5f83018561111f565b6111876020830184611158565b9392505050565b5f60039050919050565b5f81905092915050565b5f819050919050565b6111b4816110e9565b82525050565b5f6111c583836111ab565b60208301905092915050565b5f602082019050919050565b6111e68161118e565b6111f08184611198565b92506111fb826111a2565b805f5b8381101561122b57815161121287826111ba565b965061121d836111d1565b9250506001810190506111fe565b505050505050565b5f6060820190506112465f8301846111dd565b92915050565b5f81519050919050565b5f82825260208201905092915050565b5f819050602082019050919050565b61127e816109c8565b82525050565b5f61128f8383611275565b60208301905092915050565b5f602082019050919050565b5f6112b18261124c565b6112bb8185611256565b93506112c683611266565b805f5b838110156112f65781516112dd8882611284565b97506112e88361129b565b9250506001810190506112c9565b5085935050505092915050565b5f82825260208201905092915050565b7f61626300000000000000000000000000000000000000000000000000000000005f82015250565b5f611347600383611303565b915061135282611313565b602082019050919050565b5f6040820190508181035f83015261137581846112a7565b905081810360208301526113888161133b565b905092915050565b61139981610a8d565b82525050565b5f82825260208201905092915050565b5f6113b982611078565b6113c3818561139f565b93506113d381856020860161108c565b6113dc81610b32565b840191505092915050565b5f604083015f8301516113fc5f860182611275565b506020830151848203602086015261141482826113af565b9150508091505092915050565b5f6080820190506114345f830187611390565b818103602083015261144681866113e7565b9050818103604083015261145a81856112a7565b9050611469606083018461111f565b95945050505050565b5f82825260208201905092915050565b5f61148d8385611472565b935061149a838584610bf6565b6114a383610b32565b840190509392505050565b5f6020820190508181035f8301526114c7818486611482565b9050939250505056fea26469706673582212201a0af96a494db96ac85b254a73e7c16d3564a4649e8d58dc3918a2a125a7262364736f6c63430008220033","linkReferences":{}},"methodIdentifiers":{"callWithSignature()":"59ebea23","elementaryParamSelector(uint256,bool)":"3ec37834","fixedSizeParamSelector(uint256[3])":"ead6b8bd","mappingParamSelector(address,(uint256,bytes),uint256[],uint8)":"e355b0ce","mint(address)":"6a627842","mintSelector()":"046dab16","nonFixedSizeParamSelector(uint256[],string)":"f0ca01de","nonParamSelector()":"03817936"},"id":70}