{"abi":[{"type":"constructor","inputs":[],"stateMutability":"nonpayable"},{"type":"function","name":"approve","inputs":[{"name":"to","type":"address","internalType":"address"},{"name":"tokenId","type":"uint256","internalType":"uint256"}],"outputs":[],"stateMutability":"nonpayable"},{"type":"function","name":"balanceOf","inputs":[{"name":"owner","type":"address","internalType":"address"}],"outputs":[{"name":"","type":"uint256","internalType":"uint256"}],"stateMutability":"view"},{"type":"function","name":"getApproved","inputs":[{"name":"tokenId","type":"uint256","internalType":"uint256"}],"outputs":[{"name":"","type":"address","internalType":"address"}],"stateMutability":"view"},{"type":"function","name":"isApprovedForAll","inputs":[{"name":"owner","type":"address","internalType":"address"},{"name":"operator","type":"address","internalType":"address"}],"outputs":[{"name":"","type":"bool","internalType":"bool"}],"stateMutability":"view"},{"type":"function","name":"mint","inputs":[],"outputs":[],"stateMutability":"payable"},{"type":"function","name":"mintedAddress","inputs":[{"name":"","type":"address","internalType":"address"}],"outputs":[{"name":"","type":"bool","internalType":"bool"}],"stateMutability":"view"},{"type":"function","name":"name","inputs":[],"outputs":[{"name":"","type":"string","internalType":"string"}],"stateMutability":"view"},{"type":"function","name":"ownerOf","inputs":[{"name":"tokenId","type":"uint256","internalType":"uint256"}],"outputs":[{"name":"","type":"address","internalType":"address"}],"stateMutability":"view"},{"type":"function","name":"safeTransferFrom","inputs":[{"name":"from","type":"address","internalType":"address"},{"name":"to","type":"address","internalType":"address"},{"name":"tokenId","type":"uint256","internalType":"uint256"}],"outputs":[],"stateMutability":"nonpayable"},{"type":"function","name":"safeTransferFrom","inputs":[{"name":"from","type":"address","internalType":"address"},{"name":"to","type":"address","internalType":"address"},{"name":"tokenId","type":"uint256","internalType":"uint256"},{"name":"data","type":"bytes","internalType":"bytes"}],"outputs":[],"stateMutability":"nonpayable"},{"type":"function","name":"setApprovalForAll","inputs":[{"name":"operator","type":"address","internalType":"address"},{"name":"approved","type":"bool","internalType":"bool"}],"outputs":[],"stateMutability":"nonpayable"},{"type":"function","name":"supportsInterface","inputs":[{"name":"interfaceId","type":"bytes4","internalType":"bytes4"}],"outputs":[{"name":"","type":"bool","internalType":"bool"}],"stateMutability":"view"},{"type":"function","name":"symbol","inputs":[],"outputs":[{"name":"","type":"string","internalType":"string"}],"stateMutability":"view"},{"type":"function","name":"tokenURI","inputs":[{"name":"tokenId","type":"uint256","internalType":"uint256"}],"outputs":[{"name":"","type":"string","internalType":"string"}],"stateMutability":"view"},{"type":"function","name":"totalSupply","inputs":[],"outputs":[{"name":"","type":"uint256","internalType":"uint256"}],"stateMutability":"view"},{"type":"function","name":"transferFrom","inputs":[{"name":"from","type":"address","internalType":"address"},{"name":"to","type":"address","internalType":"address"},{"name":"tokenId","type":"uint256","internalType":"uint256"}],"outputs":[],"stateMutability":"nonpayable"},{"type":"event","name":"Approval","inputs":[{"name":"owner","type":"address","indexed":true,"internalType":"address"},{"name":"approved","type":"address","indexed":true,"internalType":"address"},{"name":"tokenId","type":"uint256","indexed":true,"internalType":"uint256"}],"anonymous":false},{"type":"event","name":"ApprovalForAll","inputs":[{"name":"owner","type":"address","indexed":true,"internalType":"address"},{"name":"operator","type":"address","indexed":true,"internalType":"address"},{"name":"approved","type":"bool","indexed":false,"internalType":"bool"}],"anonymous":false},{"type":"event","name":"Transfer","inputs":[{"name":"from","type":"address","indexed":true,"internalType":"address"},{"name":"to","type":"address","indexed":true,"internalType":"address"},{"name":"tokenId","type":"uint256","indexed":true,"internalType":"uint256"}],"anonymous":false},{"type":"error","name":"ERC721IncorrectOwner","inputs":[{"name":"sender","type":"address","internalType":"address"},{"name":"tokenId","type":"uint256","internalType":"uint256"},{"name":"owner","type":"address","internalType":"address"}]},{"type":"error","name":"ERC721InsufficientApproval","inputs":[{"name":"operator","type":"address","internalType":"address"},{"name":"tokenId","type":"uint256","internalType":"uint256"}]},{"type":"error","name":"ERC721InvalidApprover","inputs":[{"name":"approver","type":"address","internalType":"address"}]},{"type":"error","name":"ERC721InvalidOperator","inputs":[{"name":"operator","type":"address","internalType":"address"}]},{"type":"error","name":"ERC721InvalidOwner","inputs":[{"name":"owner","type":"address","internalType":"address"}]},{"type":"error","name":"ERC721InvalidReceiver","inputs":[{"name":"receiver","type":"address","internalType":"address"}]},{"type":"error","name":"ERC721InvalidSender","inputs":[{"name":"sender","type":"address","internalType":"address"}]},{"type":"error","name":"ERC721NonexistentToken","inputs":[{"name":"tokenId","type":"uint256","internalType":"uint256"}]}],"bytecode":{"object":"0x608060405234801561000f575f5ffd5b506040518060400160405280600b81526020017f5265656e747279204e46540000000000000000000000000000000000000000008152506040518060400160405280600581526020017f52654e4654000000000000000000000000000000000000000000000000000000815250815f908161008a91906102f0565b50806001908161009a91906102f0565b5050506103bf565b5f81519050919050565b7f4e487b71000000000000000000000000000000000000000000000000000000005f52604160045260245ffd5b7f4e487b71000000000000000000000000000000000000000000000000000000005f52602260045260245ffd5b5f600282049050600182168061011d57607f821691505b6020821081036101305761012f6100d9565b5b50919050565b5f819050815f5260205f209050919050565b5f6020601f8301049050919050565b5f82821b905092915050565b5f600883026101927fffffffffffffffffffffffffffffffffffffffffffffffffffffffffffffffff82610157565b61019c8683610157565b95508019841693508086168417925050509392505050565b5f819050919050565b5f819050919050565b5f6101e06101db6101d6846101b4565b6101bd565b6101b4565b9050919050565b5f819050919050565b6101f9836101c6565b61020d610205826101e7565b848454610163565b825550505050565b5f5f905090565b610224610215565b61022f8184846101f0565b505050565b5f5b828110156102555761024a5f82840161021c565b600181019050610236565b505050565b601f8211156102a857828211156102a75761027481610136565b61027d83610148565b61028685610148565b6020861015610293575f90505b8083016102a282840382610234565b505050505b5b505050565b5f82821c905092915050565b5f6102c85f19846008026102ad565b1980831691505092915050565b5f6102e083836102b9565b9150826002028217905092915050565b6102f9826100a2565b67ffffffffffffffff811115610312576103116100ac565b5b61031c8254610106565b61032782828561025a565b5f60209050601f831160018114610358575f8415610346578287015190505b61035085826102d5565b8655506103b7565b601f19841661036686610136565b5f5b8281101561038d57848901518255600182019150602085019450602081019050610368565b868310156103aa57848901516103a6601f8916826102b9565b8355505b6001600288020188555050505b505050505050565b612003806103cc5f395ff3fe6080604052600436106100f2575f3560e01c8063630303c611610089578063a22cb46511610058578063a22cb46514610322578063b88d4fde1461034a578063c87b56dd14610372578063e985e9c5146103ae576100f2565b8063630303c6146102445780636352211e1461028057806370a08231146102bc57806395d89b41146102f8576100f2565b80631249c58b116100c55780631249c58b146101c057806318160ddd146101ca57806323b872dd146101f457806342842e0e1461021c576100f2565b806301ffc9a7146100f657806306fdde0314610132578063081812fc1461015c578063095ea7b314610198575b5f5ffd5b348015610101575f5ffd5b5061011c6004803603810190610117919061183a565b6103ea565b604051610129919061187f565b60405180910390f35b34801561013d575f5ffd5b506101466104cb565b6040516101539190611908565b60405180910390f35b348015610167575f5ffd5b50610182600480360381019061017d919061195b565b61055a565b60405161018f91906119c5565b60405180910390f35b3480156101a3575f5ffd5b506101be60048036038101906101b99190611a08565b610575565b005b6101c861058b565b005b3480156101d5575f5ffd5b506101de61065d565b6040516101eb9190611a55565b60405180910390f35b3480156101ff575f5ffd5b5061021a60048036038101906102159190611a6e565b610663565b005b348015610227575f5ffd5b50610242600480360381019061023d9190611a6e565b610762565b005b34801561024f575f5ffd5b5061026a60048036038101906102659190611abe565b610781565b604051610277919061187f565b60405180910390f35b34801561028b575f5ffd5b506102a660048036038101906102a1919061195b565b61079e565b6040516102b391906119c5565b60405180910390f35b3480156102c7575f5ffd5b506102e260048036038101906102dd9190611abe565b6107af565b6040516102ef9190611a55565b60405180910390f35b348015610303575f5ffd5b5061030c610865565b6040516103199190611908565b60405180910390f35b34801561032d575f5ffd5b5061034860048036038101906103439190611b13565b6108f5565b005b348015610355575f5ffd5b50610370600480360381019061036b9190611c7d565b61090b565b005b34801561037d575f5ffd5b506103986004803603810190610393919061195b565b610930565b6040516103a59190611908565b60405180910390f35b3480156103b9575f5ffd5b506103d460048036038101906103cf9190611cfd565b610996565b6040516103e1919061187f565b60405180910390f35b5f7f80ac58cd000000000000000000000000000000000000000000000000000000007bffffffffffffffffffffffffffffffffffffffffffffffffffffffff1916827bffffffffffffffffffffffffffffffffffffffffffffffffffffffff191614806104b457507f5b5e139f000000000000000000000000000000000000000000000000000000007bffffffffffffffffffffffffffffffffffffffffffffffffffffffff1916827bffffffffffffffffffffffffffffffffffffffffffffffffffffffff1916145b806104c457506104c382610a24565b5b9050919050565b60605f80546104d990611d68565b80601f016020809104026020016040519081016040528092919081815260200182805461050590611d68565b80156105505780601f1061052757610100808354040283529160200191610550565b820191905f5260205f20905b81548152906001019060200180831161053357829003601f168201915b5050505050905090565b5f61056482610a8d565b5061056e82610b13565b9050919050565b6105878282610582610b4c565b610b53565b5050565b5f151560075f3373ffffffffffffffffffffffffffffffffffffffff1673ffffffffffffffffffffffffffffffffffffffff1681526020019081526020015f205f9054906101000a900460ff161515146105e3575f5ffd5b60065f8154809291906105f590611dc5565b919050555061060633600654610b65565b600160075f3373ffffffffffffffffffffffffffffffffffffffff1673ffffffffffffffffffffffffffffffffffffffff1681526020019081526020015f205f6101000a81548160ff021916908315150217905550565b60065481565b5f73ffffffffffffffffffffffffffffffffffffffff168273ffffffffffffffffffffffffffffffffffffffff16036106d3575f6040517f64a0ae920000000000000000000000000000000000000000000000000000000081526004016106ca91906119c5565b60405180910390fd5b5f6106e683836106e1610b4c565b610b82565b90508373ffffffffffffffffffffffffffffffffffffffff168173ffffffffffffffffffffffffffffffffffffffff161461075c578382826040517f64283d7b00000000000000000000000000000000000000000000000000000000815260040161075393929190611e0c565b60405180910390fd5b50505050565b61077c83838360405180602001604052805f81525061090b565b505050565b6007602052805f5260405f205f915054906101000a900460ff1681565b5f6107a882610a8d565b9050919050565b5f5f73ffffffffffffffffffffffffffffffffffffffff168273ffffffffffffffffffffffffffffffffffffffff1603610820575f6040517f89c62b6400000000000000000000000000000000000000000000000000000000815260040161081791906119c5565b60405180910390fd5b60035f8373ffffffffffffffffffffffffffffffffffffffff1673ffffffffffffffffffffffffffffffffffffffff1681526020019081526020015f20549050919050565b60606001805461087490611d68565b80601f01602080910402602001604051908101604052809291908181526020018280546108a090611d68565b80156108eb5780601f106108c2576101008083540402835291602001916108eb565b820191905f5260205f20905b8154815290600101906020018083116108ce57829003601f168201915b5050505050905090565b610907610900610b4c565b8383610d8d565b5050565b610916848484610663565b61092a610921610b4c565b85858585610f66565b50505050565b606061093b82610a8d565b505f610945611112565b90505f8151116109635760405180602001604052805f81525061098e565b8061096d84611128565b60405160200161097e929190611e7b565b6040516020818303038152906040525b915050919050565b5f60055f8473ffffffffffffffffffffffffffffffffffffffff1673ffffffffffffffffffffffffffffffffffffffff1681526020019081526020015f205f8373ffffffffffffffffffffffffffffffffffffffff1673ffffffffffffffffffffffffffffffffffffffff1681526020019081526020015f205f9054906101000a900460ff16905092915050565b5f7f01ffc9a7000000000000000000000000000000000000000000000000000000007bffffffffffffffffffffffffffffffffffffffffffffffffffffffff1916827bffffffffffffffffffffffffffffffffffffffffffffffffffffffff1916149050919050565b5f5f610a98836111f2565b90505f73ffffffffffffffffffffffffffffffffffffffff168173ffffffffffffffffffffffffffffffffffffffff1603610b0a57826040517f7e273289000000000000000000000000000000000000000000000000000000008152600401610b019190611a55565b60405180910390fd5b80915050919050565b5f60045f8381526020019081526020015f205f9054906101000a900473ffffffffffffffffffffffffffffffffffffffff169050919050565b5f33905090565b610b60838383600161122b565b505050565b610b7e828260405180602001604052805f8152506113ea565b5050565b5f5f610b8d846111f2565b90505f73ffffffffffffffffffffffffffffffffffffffff168373ffffffffffffffffffffffffffffffffffffffff1614610bce57610bcd81848661140d565b5b5f73ffffffffffffffffffffffffffffffffffffffff168173ffffffffffffffffffffffffffffffffffffffff1614610c5957610c0d5f855f5f61122b565b600160035f8373ffffffffffffffffffffffffffffffffffffffff1673ffffffffffffffffffffffffffffffffffffffff1681526020019081526020015f205f82825403925050819055505b5f73ffffffffffffffffffffffffffffffffffffffff168573ffffffffffffffffffffffffffffffffffffffff1614610cd857600160035f8773ffffffffffffffffffffffffffffffffffffffff1673ffffffffffffffffffffffffffffffffffffffff1681526020019081526020015f205f82825401925050819055505b8460025f8681526020019081526020015f205f6101000a81548173ffffffffffffffffffffffffffffffffffffffff021916908373ffffffffffffffffffffffffffffffffffffffff160217905550838573ffffffffffffffffffffffffffffffffffffffff168273ffffffffffffffffffffffffffffffffffffffff167fddf252ad1be2c89b69c2b068fc378daa952ba7f163c4a11628f55a4df523b3ef60405160405180910390a4809150509392505050565b5f73ffffffffffffffffffffffffffffffffffffffff168373ffffffffffffffffffffffffffffffffffffffff1603610dfd575f6040517fa9fbf51f000000000000000000000000000000000000000000000000000000008152600401610df491906119c5565b60405180910390fd5b5f73ffffffffffffffffffffffffffffffffffffffff168273ffffffffffffffffffffffffffffffffffffffff1603610e6d57816040517f5b08ba18000000000000000000000000000000000000000000000000000000008152600401610e6491906119c5565b60405180910390fd5b8060055f8573ffffffffffffffffffffffffffffffffffffffff1673ffffffffffffffffffffffffffffffffffffffff1681526020019081526020015f205f8473ffffffffffffffffffffffffffffffffffffffff1673ffffffffffffffffffffffffffffffffffffffff1681526020019081526020015f205f6101000a81548160ff0219169083151502179055508173ffffffffffffffffffffffffffffffffffffffff168373ffffffffffffffffffffffffffffffffffffffff167f17307eab39ab6107e8899845ad3d59bd9653f200f220920489ca2b5937696c3183604051610f59919061187f565b60405180910390a3505050565b5f8373ffffffffffffffffffffffffffffffffffffffff163b111561110b578273ffffffffffffffffffffffffffffffffffffffff1663150b7a02868685856040518563ffffffff1660e01b8152600401610fc49493929190611ef0565b6020604051808303815f875af1925050508015610fff57506040513d601f19601f82011682018060405250810190610ffc9190611f4e565b60015b611080573d805f811461102d576040519150601f19603f3d011682016040523d82523d5f602084013e611032565b606091505b505f81510361107857836040517f64a0ae9200000000000000000000000000000000000000000000000000000000815260040161106f91906119c5565b60405180910390fd5b805160208201fd5b63150b7a0260e01b7bffffffffffffffffffffffffffffffffffffffffffffffffffffffff1916817bffffffffffffffffffffffffffffffffffffffffffffffffffffffff19161461110957836040517f64a0ae9200000000000000000000000000000000000000000000000000000000815260040161110091906119c5565b60405180910390fd5b505b5050505050565b606060405180602001604052805f815250905090565b60605f6001611136846114d0565b0190505f8167ffffffffffffffff81111561115457611153611b59565b5b6040519080825280601f01601f1916602001820160405280156111865781602001600182028036833780820191505090505b5090505f82602083010190505b6001156111e7578080600190039150507f3031323334353637383961626364656600000000000000000000000000000000600a86061a8153600a85816111dc576111db611f79565b5b0494505f8503611193575b819350505050919050565b5f60025f8381526020019081526020015f205f9054906101000a900473ffffffffffffffffffffffffffffffffffffffff169050919050565b808061126357505f73ffffffffffffffffffffffffffffffffffffffff168273ffffffffffffffffffffffffffffffffffffffff1614155b15611395575f61127284610a8d565b90505f73ffffffffffffffffffffffffffffffffffffffff168373ffffffffffffffffffffffffffffffffffffffff16141580156112dc57508273ffffffffffffffffffffffffffffffffffffffff168173ffffffffffffffffffffffffffffffffffffffff1614155b80156112ef57506112ed8184610996565b155b1561133157826040517fa9fbf51f00000000000000000000000000000000000000000000000000000000815260040161132891906119c5565b60405180910390fd5b811561139357838573ffffffffffffffffffffffffffffffffffffffff168273ffffffffffffffffffffffffffffffffffffffff167f8c5be1e5ebec7d5bd14f71427d1e84f3dd0314c0f7b2291e5b200ac8c7c3b92560405160405180910390a45b505b8360045f8581526020019081526020015f205f6101000a81548173ffffffffffffffffffffffffffffffffffffffff021916908373ffffffffffffffffffffffffffffffffffffffff16021790555050505050565b6113f48383611621565b6114086113ff610b4c565b5f858585610f66565b505050565b611418838383611714565b6114cb575f73ffffffffffffffffffffffffffffffffffffffff168373ffffffffffffffffffffffffffffffffffffffff160361148c57806040517f7e2732890000000000000000000000000000000000000000000000000000000081526004016114839190611a55565b60405180910390fd5b81816040517f177e802f0000000000000000000000000000000000000000000000000000000081526004016114c2929190611fa6565b60405180910390fd5b505050565b5f5f5f90507a184f03e93ff9f4daa797ed6e38ed64bf6a1f010000000000000000831061152c577a184f03e93ff9f4daa797ed6e38ed64bf6a1f010000000000000000838161152257611521611f79565b5b0492506040810190505b6d04ee2d6d415b85acef81000000008310611569576d04ee2d6d415b85acef8100000000838161155f5761155e611f79565b5b0492506020810190505b662386f26fc10000831061159857662386f26fc10000838161158e5761158d611f79565b5b0492506010810190505b6305f5e10083106115c1576305f5e10083816115b7576115b6611f79565b5b0492506008810190505b61271083106115e65761271083816115dc576115db611f79565b5b0492506004810190505b6064831061160957606483816115ff576115fe611f79565b5b0492506002810190505b600a8310611618576001810190505b80915050919050565b5f73ffffffffffffffffffffffffffffffffffffffff168273ffffffffffffffffffffffffffffffffffffffff1603611691575f6040517f64a0ae9200000000000000000000000000000000000000000000000000000000815260040161168891906119c5565b60405180910390fd5b5f61169d83835f610b82565b90505f73ffffffffffffffffffffffffffffffffffffffff168173ffffffffffffffffffffffffffffffffffffffff161461170f575f6040517f73c6ac6e00000000000000000000000000000000000000000000000000000000815260040161170691906119c5565b60405180910390fd5b505050565b5f5f73ffffffffffffffffffffffffffffffffffffffff168373ffffffffffffffffffffffffffffffffffffffff16141580156117cb57508273ffffffffffffffffffffffffffffffffffffffff168473ffffffffffffffffffffffffffffffffffffffff16148061178c575061178b8484610996565b5b806117ca57508273ffffffffffffffffffffffffffffffffffffffff166117b283610b13565b73ffffffffffffffffffffffffffffffffffffffff16145b5b90509392505050565b5f604051905090565b5f5ffd5b5f5ffd5b5f7fffffffff0000000000000000000000000000000000000000000000000000000082169050919050565b611819816117e5565b8114611823575f5ffd5b50565b5f8135905061183481611810565b92915050565b5f6020828403121561184f5761184e6117dd565b5b5f61185c84828501611826565b91505092915050565b5f8115159050919050565b61187981611865565b82525050565b5f6020820190506118925f830184611870565b92915050565b5f81519050919050565b5f82825260208201905092915050565b8281835e5f83830152505050565b5f601f19601f8301169050919050565b5f6118da82611898565b6118e481856118a2565b93506118f48185602086016118b2565b6118fd816118c0565b840191505092915050565b5f6020820190508181035f83015261192081846118d0565b905092915050565b5f819050919050565b61193a81611928565b8114611944575f5ffd5b50565b5f8135905061195581611931565b92915050565b5f602082840312156119705761196f6117dd565b5b5f61197d84828501611947565b91505092915050565b5f73ffffffffffffffffffffffffffffffffffffffff82169050919050565b5f6119af82611986565b9050919050565b6119bf816119a5565b82525050565b5f6020820190506119d85f8301846119b6565b92915050565b6119e7816119a5565b81146119f1575f5ffd5b50565b5f81359050611a02816119de565b92915050565b5f5f60408385031215611a1e57611a1d6117dd565b5b5f611a2b858286016119f4565b9250506020611a3c85828601611947565b9150509250929050565b611a4f81611928565b82525050565b5f602082019050611a685f830184611a46565b92915050565b5f5f5f60608486031215611a8557611a846117dd565b5b5f611a92868287016119f4565b9350506020611aa3868287016119f4565b9250506040611ab486828701611947565b9150509250925092565b5f60208284031215611ad357611ad26117dd565b5b5f611ae0848285016119f4565b91505092915050565b611af281611865565b8114611afc575f5ffd5b50565b5f81359050611b0d81611ae9565b92915050565b5f5f60408385031215611b2957611b286117dd565b5b5f611b36858286016119f4565b9250506020611b4785828601611aff565b9150509250929050565b5f5ffd5b5f5ffd5b7f4e487b71000000000000000000000000000000000000000000000000000000005f52604160045260245ffd5b611b8f826118c0565b810181811067ffffffffffffffff82111715611bae57611bad611b59565b5b80604052505050565b5f611bc06117d4565b9050611bcc8282611b86565b919050565b5f67ffffffffffffffff821115611beb57611bea611b59565b5b611bf4826118c0565b9050602081019050919050565b828183375f83830152505050565b5f611c21611c1c84611bd1565b611bb7565b905082815260208101848484011115611c3d57611c3c611b55565b5b611c48848285611c01565b509392505050565b5f82601f830112611c6457611c63611b51565b5b8135611c74848260208601611c0f565b91505092915050565b5f5f5f5f60808587031215611c9557611c946117dd565b5b5f611ca2878288016119f4565b9450506020611cb3878288016119f4565b9350506040611cc487828801611947565b925050606085013567ffffffffffffffff811115611ce557611ce46117e1565b5b611cf187828801611c50565b91505092959194509250565b5f5f60408385031215611d1357611d126117dd565b5b5f611d20858286016119f4565b9250506020611d31858286016119f4565b9150509250929050565b7f4e487b71000000000000000000000000000000000000000000000000000000005f52602260045260245ffd5b5f6002820490506001821680611d7f57607f821691505b602082108103611d9257611d91611d3b565b5b50919050565b7f4e487b71000000000000000000000000000000000000000000000000000000005f52601160045260245ffd5b5f611dcf82611928565b91507fffffffffffffffffffffffffffffffffffffffffffffffffffffffffffffffff8203611e0157611e00611d98565b5b600182019050919050565b5f606082019050611e1f5f8301866119b6565b611e2c6020830185611a46565b611e3960408301846119b6565b949350505050565b5f81905092915050565b5f611e5582611898565b611e5f8185611e41565b9350611e6f8185602086016118b2565b80840191505092915050565b5f611e868285611e4b565b9150611e928284611e4b565b91508190509392505050565b5f81519050919050565b5f82825260208201905092915050565b5f611ec282611e9e565b611ecc8185611ea8565b9350611edc8185602086016118b2565b611ee5816118c0565b840191505092915050565b5f608082019050611f035f8301876119b6565b611f1060208301866119b6565b611f1d6040830185611a46565b8181036060830152611f2f8184611eb8565b905095945050505050565b5f81519050611f4881611810565b92915050565b5f60208284031215611f6357611f626117dd565b5b5f611f7084828501611f3a565b91505092915050565b7f4e487b71000000000000000000000000000000000000000000000000000000005f52601260045260245ffd5b5f604082019050611fb95f8301856119b6565b611fc66020830184611a46565b939250505056fea26469706673582212206e7a030fd0244872036205eba3f810696332968dcf97c07c592f1b99a4f8eb7564736f6c63430008220033","linkReferences":{}},"methodIdentifiers":{"approve(address,uint256)":"095ea7b3","balanceOf(address)":"70a08231","getApproved(uint256)":"081812fc","isApprovedForAll(address,address)":"e985e9c5","mint()":"1249c58b","mintedAddress(address)":"630303c6","name()":"06fdde03","ownerOf(uint256)":"6352211e","safeTransferFrom(address,address,uint256)":"42842e0e","safeTransferFrom(address,address,uint256,bytes)":"b88d4fde","setApprovalForAll(address,bool)":"a22cb465","supportsInterface(bytes4)":"01ffc9a7","symbol()":"95d89b41","tokenURI(uint256)":"c87b56dd","totalSupply()":"18160ddd","transferFrom(address,address,uint256)":"23b872dd"},"id":138}