{"abi":[{"type":"constructor","inputs":[{"name":"name","type":"string","internalType":"string"},{"name":"symbol","type":"string","internalType":"string"},{"name":"totalSupply","type":"uint256","internalType":"uint256"}],"stateMutability":"payable"},{"type":"function","name":"allowance","inputs":[{"name":"owner","type":"address","internalType":"address"},{"name":"spender","type":"address","internalType":"address"}],"outputs":[{"name":"","type":"uint256","internalType":"uint256"}],"stateMutability":"view"},{"type":"function","name":"approve","inputs":[{"name":"spender","type":"address","internalType":"address"},{"name":"value","type":"uint256","internalType":"uint256"}],"outputs":[{"name":"","type":"bool","internalType":"bool"}],"stateMutability":"nonpayable"},{"type":"function","name":"balanceOf","inputs":[{"name":"account","type":"address","internalType":"address"}],"outputs":[{"name":"","type":"uint256","internalType":"uint256"}],"stateMutability":"view"},{"type":"function","name":"bridge","inputs":[{"name":"amount","type":"uint256","internalType":"uint256"}],"outputs":[],"stateMutability":"nonpayable"},{"type":"function","name":"decimals","inputs":[],"outputs":[{"name":"","type":"uint8","internalType":"uint8"}],"stateMutability":"view"},{"type":"function","name":"mint","inputs":[{"name":"to","type":"address","internalType":"address"},{"name":"amount","type":"uint256","internalType":"uint256"}],"outputs":[],"stateMutability":"nonpayable"},{"type":"function","name":"name","inputs":[],"outputs":[{"name":"","type":"string","internalType":"string"}],"stateMutability":"view"},{"type":"function","name":"owner","inputs":[],"outputs":[{"name":"","type":"address","internalType":"address"}],"stateMutability":"view"},{"type":"function","name":"renounceOwnership","inputs":[],"outputs":[],"stateMutability":"nonpayable"},{"type":"function","name":"symbol","inputs":[],"outputs":[{"name":"","type":"string","internalType":"string"}],"stateMutability":"view"},{"type":"function","name":"totalSupply","inputs":[],"outputs":[{"name":"","type":"uint256","internalType":"uint256"}],"stateMutability":"view"},{"type":"function","name":"transfer","inputs":[{"name":"to","type":"address","internalType":"address"},{"name":"value","type":"uint256","internalType":"uint256"}],"outputs":[{"name":"","type":"bool","internalType":"bool"}],"stateMutability":"nonpayable"},{"type":"function","name":"transferFrom","inputs":[{"name":"from","type":"address","internalType":"address"},{"name":"to","type":"address","internalType":"address"},{"name":"value","type":"uint256","internalType":"uint256"}],"outputs":[{"name":"","type":"bool","internalType":"bool"}],"stateMutability":"nonpayable"},{"type":"function","name":"transferOwnership","inputs":[{"name":"newOwner","type":"address","internalType":"address"}],"outputs":[],"stateMutability":"nonpayable"},{"type":"event","name":"Approval","inputs":[{"name":"owner","type":"address","indexed":true,"internalType":"address"},{"name":"spender","type":"address","indexed":true,"internalType":"address"},{"name":"value","type":"uint256","indexed":false,"internalType":"uint256"}],"anonymous":false},{"type":"event","name":"Bridge","inputs":[{"name":"user","type":"address","indexed":true,"internalType":"address"},{"name":"amount","type":"uint256","indexed":false,"internalType":"uint256"}],"anonymous":false},{"type":"event","name":"Mint","inputs":[{"name":"to","type":"address","indexed":true,"internalType":"address"},{"name":"amount","type":"uint256","indexed":false,"internalType":"uint256"}],"anonymous":false},{"type":"event","name":"OwnershipTransferred","inputs":[{"name":"previousOwner","type":"address","indexed":true,"internalType":"address"},{"name":"newOwner","type":"address","indexed":true,"internalType":"address"}],"anonymous":false},{"type":"event","name":"Transfer","inputs":[{"name":"from","type":"address","indexed":true,"internalType":"address"},{"name":"to","type":"address","indexed":true,"internalType":"address"},{"name":"value","type":"uint256","indexed":false,"internalType":"uint256"}],"anonymous":false},{"type":"error","name":"ERC20InsufficientAllowance","inputs":[{"name":"spender","type":"address","internalType":"address"},{"name":"allowance","type":"uint256","internalType":"uint256"},{"name":"needed","type":"uint256","internalType":"uint256"}]},{"type":"error","name":"ERC20InsufficientBalance","inputs":[{"name":"sender","type":"address","internalType":"address"},{"name":"balance","type":"uint256","internalType":"uint256"},{"name":"needed","type":"uint256","internalType":"uint256"}]},{"type":"error","name":"ERC20InvalidApprover","inputs":[{"name":"approver","type":"address","internalType":"address"}]},{"type":"error","name":"ERC20InvalidReceiver","inputs":[{"name":"receiver","type":"address","internalType":"address"}]},{"type":"error","name":"ERC20InvalidSender","inputs":[{"name":"sender","type":"address","internalType":"address"}]},{"type":"error","name":"ERC20InvalidSpender","inputs":[{"name":"spender","type":"address","internalType":"address"}]},{"type":"error","name":"OwnableInvalidOwner","inputs":[{"name":"owner","type":"address","internalType":"address"}]},{"type":"error","name":"OwnableUnauthorizedAccount","inputs":[{"name":"account","type":"address","internalType":"address"}]}],"bytecode":{"object":"0x6080604052604051611cfa380380611cfa833981810160405281019061002591906105c3565b33838381600390816100379190610863565b5080600490816100479190610863565b5050505f73ffffffffffffffffffffffffffffffffffffffff168173ffffffffffffffffffffffffffffffffffffffff16036100ba575f6040517f1e4fbdf70000000000000000000000000000000000000000000000000000000081526004016100b19190610971565b60405180910390fd5b6100c9816100e260201b60201c565b506100da33826101a560201b60201c565b505050610a47565b5f60055f9054906101000a900473ffffffffffffffffffffffffffffffffffffffff1690508160055f6101000a81548173ffffffffffffffffffffffffffffffffffffffff021916908373ffffffffffffffffffffffffffffffffffffffff1602179055508173ffffffffffffffffffffffffffffffffffffffff168173ffffffffffffffffffffffffffffffffffffffff167f8be0079c531659141344cd1fd0a4f28419497f9722a3daafe3b4186f6b6457e060405160405180910390a35050565b5f73ffffffffffffffffffffffffffffffffffffffff168273ffffffffffffffffffffffffffffffffffffffff1603610215575f6040517fec442f0500000000000000000000000000000000000000000000000000000000815260040161020c9190610971565b60405180910390fd5b6102265f838361022a60201b60201c565b5050565b5f73ffffffffffffffffffffffffffffffffffffffff168373ffffffffffffffffffffffffffffffffffffffff160361027a578060025f82825461026e91906109b7565b92505081905550610348565b5f5f5f8573ffffffffffffffffffffffffffffffffffffffff1673ffffffffffffffffffffffffffffffffffffffff1681526020019081526020015f2054905081811015610303578381836040517fe450d38c0000000000000000000000000000000000000000000000000000000081526004016102fa939291906109f9565b60405180910390fd5b8181035f5f8673ffffffffffffffffffffffffffffffffffffffff1673ffffffffffffffffffffffffffffffffffffffff1681526020019081526020015f2081905550505b5f73ffffffffffffffffffffffffffffffffffffffff168273ffffffffffffffffffffffffffffffffffffffff160361038f578060025f82825403925050819055506103d9565b805f5f8473ffffffffffffffffffffffffffffffffffffffff1673ffffffffffffffffffffffffffffffffffffffff1681526020019081526020015f205f82825401925050819055505b8173ffffffffffffffffffffffffffffffffffffffff168373ffffffffffffffffffffffffffffffffffffffff167fddf252ad1be2c89b69c2b068fc378daa952ba7f163c4a11628f55a4df523b3ef836040516104369190610a2e565b60405180910390a3505050565b5f604051905090565b5f5ffd5b5f5ffd5b5f5ffd5b5f5ffd5b5f601f19601f8301169050919050565b7f4e487b71000000000000000000000000000000000000000000000000000000005f52604160045260245ffd5b6104a28261045c565b810181811067ffffffffffffffff821117156104c1576104c061046c565b5b80604052505050565b5f6104d3610443565b90506104df8282610499565b919050565b5f67ffffffffffffffff8211156104fe576104fd61046c565b5b6105078261045c565b9050602081019050919050565b8281835e5f83830152505050565b5f61053461052f846104e4565b6104ca565b9050828152602081018484840111156105505761054f610458565b5b61055b848285610514565b509392505050565b5f82601f83011261057757610576610454565b5b8151610587848260208601610522565b91505092915050565b5f819050919050565b6105a281610590565b81146105ac575f5ffd5b50565b5f815190506105bd81610599565b92915050565b5f5f5f606084860312156105da576105d961044c565b5b5f84015167ffffffffffffffff8111156105f7576105f6610450565b5b61060386828701610563565b935050602084015167ffffffffffffffff81111561062457610623610450565b5b61063086828701610563565b9250506040610641868287016105af565b9150509250925092565b5f81519050919050565b7f4e487b71000000000000000000000000000000000000000000000000000000005f52602260045260245ffd5b5f600282049050600182168061069957607f821691505b6020821081036106ac576106ab610655565b5b50919050565b5f819050815f5260205f209050919050565b5f6020601f8301049050919050565b5f82821b905092915050565b5f6008830261070e7fffffffffffffffffffffffffffffffffffffffffffffffffffffffffffffffff826106d3565b61071886836106d3565b95508019841693508086168417925050509392505050565b5f819050919050565b5f61075361074e61074984610590565b610730565b610590565b9050919050565b5f819050919050565b61076c83610739565b6107806107788261075a565b8484546106df565b825550505050565b5f5f905090565b610797610788565b6107a2818484610763565b505050565b5f5b828110156107c8576107bd5f82840161078f565b6001810190506107a9565b505050565b601f82111561081b578282111561081a576107e7816106b2565b6107f0836106c4565b6107f9856106c4565b6020861015610806575f90505b808301610815828403826107a7565b505050505b5b505050565b5f82821c905092915050565b5f61083b5f1984600802610820565b1980831691505092915050565b5f610853838361082c565b9150826002028217905092915050565b61086c8261064b565b67ffffffffffffffff8111156108855761088461046c565b5b61088f8254610682565b61089a8282856107cd565b5f60209050601f8311600181146108cb575f84156108b9578287015190505b6108c38582610848565b86555061092a565b601f1984166108d9866106b2565b5f5b82811015610900578489015182556001820191506020850194506020810190506108db565b8683101561091d5784890151610919601f89168261082c565b8355505b6001600288020188555050505b505050505050565b5f73ffffffffffffffffffffffffffffffffffffffff82169050919050565b5f61095b82610932565b9050919050565b61096b81610951565b82525050565b5f6020820190506109845f830184610962565b92915050565b7f4e487b71000000000000000000000000000000000000000000000000000000005f52601160045260245ffd5b5f6109c182610590565b91506109cc83610590565b92508282019050808211156109e4576109e361098a565b5b92915050565b6109f381610590565b82525050565b5f606082019050610a0c5f830186610962565b610a1960208301856109ea565b610a2660408301846109ea565b949350505050565b5f602082019050610a415f8301846109ea565b92915050565b6112a680610a545f395ff3fe608060405234801561000f575f5ffd5b50600436106100e8575f3560e01c8063715018a61161008a57806395d89b411161006457806395d89b4114610236578063a9059cbb14610254578063dd62ed3e14610284578063f2fde38b146102b4576100e8565b8063715018a6146101f25780638da5cb5b146101fc57806390fd50b31461021a576100e8565b806323b872dd116100c657806323b872dd14610158578063313ce5671461018857806340c10f19146101a657806370a08231146101c2576100e8565b806306fdde03146100ec578063095ea7b31461010a57806318160ddd1461013a575b5f5ffd5b6100f46102d0565b6040516101019190610ef4565b60405180910390f35b610124600480360381019061011f9190610fa5565b610360565b6040516101319190610ffd565b60405180910390f35b610142610382565b60405161014f9190611025565b60405180910390f35b610172600480360381019061016d919061103e565b61038b565b60405161017f9190610ffd565b60405180910390f35b6101906103b9565b60405161019d91906110a9565b60405180910390f35b6101c060048036038101906101bb9190610fa5565b6103c1565b005b6101dc60048036038101906101d791906110c2565b610425565b6040516101e99190611025565b60405180910390f35b6101fa61046a565b005b61020461047d565b60405161021191906110fc565b60405180910390f35b610234600480360381019061022f9190611115565b6104a5565b005b61023e610500565b60405161024b9190610ef4565b60405180910390f35b61026e60048036038101906102699190610fa5565b610590565b60405161027b9190610ffd565b60405180910390f35b61029e60048036038101906102999190611140565b6105b2565b6040516102ab9190611025565b60405180910390f35b6102ce60048036038101906102c991906110c2565b610634565b005b6060600380546102df906111ab565b80601f016020809104026020016040519081016040528092919081815260200182805461030b906111ab565b80156103565780601f1061032d57610100808354040283529160200191610356565b820191905f5260205f20905b81548152906001019060200180831161033957829003601f168201915b5050505050905090565b5f5f61036a6106b8565b90506103778185856106bf565b600191505092915050565b5f600254905090565b5f5f6103956106b8565b90506103a28582856106d1565b6103ad858585610764565b60019150509392505050565b5f6012905090565b6103c9610854565b6103d382826108db565b8173ffffffffffffffffffffffffffffffffffffffff167f0f6798a560793a54c3bcfe86a93cde1e73087d944c0ea20544137d4121396885826040516104199190611025565b60405180910390a25050565b5f5f5f8373ffffffffffffffffffffffffffffffffffffffff1673ffffffffffffffffffffffffffffffffffffffff1681526020019081526020015f20549050919050565b610472610854565b61047b5f61095a565b565b5f60055f9054906101000a900473ffffffffffffffffffffffffffffffffffffffff16905090565b6104af3382610a1d565b3373ffffffffffffffffffffffffffffffffffffffff167f22e3f162fca16dc0fcfb65eddf406531a0c555a2c24c58cf5d10fc2d202a882e826040516104f59190611025565b60405180910390a250565b60606004805461050f906111ab565b80601f016020809104026020016040519081016040528092919081815260200182805461053b906111ab565b80156105865780601f1061055d57610100808354040283529160200191610586565b820191905f5260205f20905b81548152906001019060200180831161056957829003601f168201915b5050505050905090565b5f5f61059a6106b8565b90506105a7818585610764565b600191505092915050565b5f60015f8473ffffffffffffffffffffffffffffffffffffffff1673ffffffffffffffffffffffffffffffffffffffff1681526020019081526020015f205f8373ffffffffffffffffffffffffffffffffffffffff1673ffffffffffffffffffffffffffffffffffffffff1681526020019081526020015f2054905092915050565b61063c610854565b5f73ffffffffffffffffffffffffffffffffffffffff168173ffffffffffffffffffffffffffffffffffffffff16036106ac575f6040517f1e4fbdf70000000000000000000000000000000000000000000000000000000081526004016106a391906110fc565b60405180910390fd5b6106b58161095a565b50565b5f33905090565b6106cc8383836001610a9c565b505050565b5f6106dc84846105b2565b90507fffffffffffffffffffffffffffffffffffffffffffffffffffffffffffffffff81101561075e578181101561074f578281836040517ffb8f41b2000000000000000000000000000000000000000000000000000000008152600401610746939291906111db565b60405180910390fd5b61075d84848484035f610a9c565b5b50505050565b5f73ffffffffffffffffffffffffffffffffffffffff168373ffffffffffffffffffffffffffffffffffffffff16036107d4575f6040517f96c6fd1e0000000000000000000000000000000000000000000000000000000081526004016107cb91906110fc565b60405180910390fd5b5f73ffffffffffffffffffffffffffffffffffffffff168273ffffffffffffffffffffffffffffffffffffffff1603610844575f6040517fec442f0500000000000000000000000000000000000000000000000000000000815260040161083b91906110fc565b60405180910390fd5b61084f838383610c6b565b505050565b61085c6106b8565b73ffffffffffffffffffffffffffffffffffffffff1661087a61047d565b73ffffffffffffffffffffffffffffffffffffffff16146108d95761089d6106b8565b6040517f118cdaa70000000000000000000000000000000000000000000000000000000081526004016108d091906110fc565b60405180910390fd5b565b5f73ffffffffffffffffffffffffffffffffffffffff168273ffffffffffffffffffffffffffffffffffffffff160361094b575f6040517fec442f0500000000000000000000000000000000000000000000000000000000815260040161094291906110fc565b60405180910390fd5b6109565f8383610c6b565b5050565b5f60055f9054906101000a900473ffffffffffffffffffffffffffffffffffffffff1690508160055f6101000a81548173ffffffffffffffffffffffffffffffffffffffff021916908373ffffffffffffffffffffffffffffffffffffffff1602179055508173ffffffffffffffffffffffffffffffffffffffff168173ffffffffffffffffffffffffffffffffffffffff167f8be0079c531659141344cd1fd0a4f28419497f9722a3daafe3b4186f6b6457e060405160405180910390a35050565b5f73ffffffffffffffffffffffffffffffffffffffff168273ffffffffffffffffffffffffffffffffffffffff1603610a8d575f6040517f96c6fd1e000000000000000000000000000000000000000000000000000000008152600401610a8491906110fc565b60405180910390fd5b610a98825f83610c6b565b5050565b5f73ffffffffffffffffffffffffffffffffffffffff168473ffffffffffffffffffffffffffffffffffffffff1603610b0c575f6040517fe602df05000000000000000000000000000000000000000000000000000000008152600401610b0391906110fc565b60405180910390fd5b5f73ffffffffffffffffffffffffffffffffffffffff168373ffffffffffffffffffffffffffffffffffffffff1603610b7c575f6040517f94280d62000000000000000000000000000000000000000000000000000000008152600401610b7391906110fc565b60405180910390fd5b8160015f8673ffffffffffffffffffffffffffffffffffffffff1673ffffffffffffffffffffffffffffffffffffffff1681526020019081526020015f205f8573ffffffffffffffffffffffffffffffffffffffff1673ffffffffffffffffffffffffffffffffffffffff1681526020019081526020015f20819055508015610c65578273ffffffffffffffffffffffffffffffffffffffff168473ffffffffffffffffffffffffffffffffffffffff167f8c5be1e5ebec7d5bd14f71427d1e84f3dd0314c0f7b2291e5b200ac8c7c3b92584604051610c5c9190611025565b60405180910390a35b50505050565b5f73ffffffffffffffffffffffffffffffffffffffff168373ffffffffffffffffffffffffffffffffffffffff1603610cbb578060025f828254610caf919061123d565b92505081905550610d89565b5f5f5f8573ffffffffffffffffffffffffffffffffffffffff1673ffffffffffffffffffffffffffffffffffffffff1681526020019081526020015f2054905081811015610d44578381836040517fe450d38c000000000000000000000000000000000000000000000000000000008152600401610d3b939291906111db565b60405180910390fd5b8181035f5f8673ffffffffffffffffffffffffffffffffffffffff1673ffffffffffffffffffffffffffffffffffffffff1681526020019081526020015f2081905550505b5f73ffffffffffffffffffffffffffffffffffffffff168273ffffffffffffffffffffffffffffffffffffffff1603610dd0578060025f8282540392505081905550610e1a565b805f5f8473ffffffffffffffffffffffffffffffffffffffff1673ffffffffffffffffffffffffffffffffffffffff1681526020019081526020015f205f82825401925050819055505b8173ffffffffffffffffffffffffffffffffffffffff168373ffffffffffffffffffffffffffffffffffffffff167fddf252ad1be2c89b69c2b068fc378daa952ba7f163c4a11628f55a4df523b3ef83604051610e779190611025565b60405180910390a3505050565b5f81519050919050565b5f82825260208201905092915050565b8281835e5f83830152505050565b5f601f19601f8301169050919050565b5f610ec682610e84565b610ed08185610e8e565b9350610ee0818560208601610e9e565b610ee981610eac565b840191505092915050565b5f6020820190508181035f830152610f0c8184610ebc565b905092915050565b5f5ffd5b5f73ffffffffffffffffffffffffffffffffffffffff82169050919050565b5f610f4182610f18565b9050919050565b610f5181610f37565b8114610f5b575f5ffd5b50565b5f81359050610f6c81610f48565b92915050565b5f819050919050565b610f8481610f72565b8114610f8e575f5ffd5b50565b5f81359050610f9f81610f7b565b92915050565b5f5f60408385031215610fbb57610fba610f14565b5b5f610fc885828601610f5e565b9250506020610fd985828601610f91565b9150509250929050565b5f8115159050919050565b610ff781610fe3565b82525050565b5f6020820190506110105f830184610fee565b92915050565b61101f81610f72565b82525050565b5f6020820190506110385f830184611016565b92915050565b5f5f5f6060848603121561105557611054610f14565b5b5f61106286828701610f5e565b935050602061107386828701610f5e565b925050604061108486828701610f91565b9150509250925092565b5f60ff82169050919050565b6110a38161108e565b82525050565b5f6020820190506110bc5f83018461109a565b92915050565b5f602082840312156110d7576110d6610f14565b5b5f6110e484828501610f5e565b91505092915050565b6110f681610f37565b82525050565b5f60208201905061110f5f8301846110ed565b92915050565b5f6020828403121561112a57611129610f14565b5b5f61113784828501610f91565b91505092915050565b5f5f6040838503121561115657611155610f14565b5b5f61116385828601610f5e565b925050602061117485828601610f5e565b9150509250929050565b7f4e487b71000000000000000000000000000000000000000000000000000000005f52602260045260245ffd5b5f60028204905060018216806111c257607f821691505b6020821081036111d5576111d461117e565b5b50919050565b5f6060820190506111ee5f8301866110ed565b6111fb6020830185611016565b6112086040830184611016565b949350505050565b7f4e487b71000000000000000000000000000000000000000000000000000000005f52601160045260245ffd5b5f61124782610f72565b915061125283610f72565b925082820190508082111561126a57611269611210565b5b9291505056fea2646970667358221220b8d5dd40492c594ba6ce431b51cdbde840668667c4aaac1f210c376f895d484f64736f6c63430008220033","linkReferences":{}},"methodIdentifiers":{"allowance(address,address)":"dd62ed3e","approve(address,uint256)":"095ea7b3","balanceOf(address)":"70a08231","bridge(uint256)":"90fd50b3","decimals()":"313ce567","mint(address,uint256)":"40c10f19","name()":"06fdde03","owner()":"8da5cb5b","renounceOwnership()":"715018a6","symbol()":"95d89b41","totalSupply()":"18160ddd","transfer(address,uint256)":"a9059cbb","transferFrom(address,address,uint256)":"23b872dd","transferOwnership(address)":"f2fde38b"},"id":110}