{"abi":[{"type":"constructor","inputs":[{"name":"proxy_","type":"address","internalType":"address"}],"stateMutability":"nonpayable"},{"type":"function","name":"increase","inputs":[],"outputs":[{"name":"","type":"uint256","internalType":"uint256"}],"stateMutability":"nonpayable"},{"type":"function","name":"proxy","inputs":[],"outputs":[{"name":"","type":"address","internalType":"address"}],"stateMutability":"view"}],"bytecode":{"object":"0x608060405234801561000f575f5ffd5b50604051610449380380610449833981810160405281019061003191906100d4565b805f5f6101000a81548173ffffffffffffffffffffffffffffffffffffffff021916908373ffffffffffffffffffffffffffffffffffffffff160217905550506100ff565b5f5ffd5b5f73ffffffffffffffffffffffffffffffffffffffff82169050919050565b5f6100a38261007a565b9050919050565b6100b381610099565b81146100bd575f5ffd5b50565b5f815190506100ce816100aa565b92915050565b5f602082840312156100e9576100e8610076565b5b5f6100f6848285016100c0565b91505092915050565b61033d8061010c5f395ff3fe608060405234801561000f575f5ffd5b5060043610610034575f3560e01c8063e8927fbc14610038578063ec55688914610056575b5f5ffd5b610040610074565b60405161004d91906101d5565b60405180910390f35b61005e610199565b60405161006b919061022d565b60405180910390f35b5f5f5f5f9054906101000a900473ffffffffffffffffffffffffffffffffffffffff1673ffffffffffffffffffffffffffffffffffffffff166040516024016040516020818303038152906040527fd09de08a000000000000000000000000000000000000000000000000000000007bffffffffffffffffffffffffffffffffffffffffffffffffffffffff19166020820180517bffffffffffffffffffffffffffffffffffffffffffffffffffffffff838183161783525050505060405161013d9190610298565b5f604051808303815f865af19150503d805f8114610176576040519150601f19603f3d011682016040523d82523d5f602084013e61017b565b606091505b509150508080602001905181019061019391906102dc565b91505090565b5f5f9054906101000a900473ffffffffffffffffffffffffffffffffffffffff1681565b5f819050919050565b6101cf816101bd565b82525050565b5f6020820190506101e85f8301846101c6565b92915050565b5f73ffffffffffffffffffffffffffffffffffffffff82169050919050565b5f610217826101ee565b9050919050565b6102278161020d565b82525050565b5f6020820190506102405f83018461021e565b92915050565b5f81519050919050565b5f81905092915050565b8281835e5f83830152505050565b5f61027282610246565b61027c8185610250565b935061028c81856020860161025a565b80840191505092915050565b5f6102a38284610268565b915081905092915050565b5f5ffd5b6102bb816101bd565b81146102c5575f5ffd5b50565b5f815190506102d6816102b2565b92915050565b5f602082840312156102f1576102f06102ae565b5b5f6102fe848285016102c8565b9150509291505056fea2646970667358221220cd1e3b0a8eedfec841182c90dd6124af9aada10559062ba216e545cb4a86a46564736f6c63430008220033","linkReferences":{}},"methodIdentifiers":{"increase()":"e8927fbc","proxy()":"ec556889"},"id":99}