{"abi":[{"type":"function","name":"implementation","inputs":[],"outputs":[{"name":"","type":"address","internalType":"address"}],"stateMutability":"view"},{"type":"function","name":"increment","inputs":[],"outputs":[{"name":"","type":"uint256","internalType":"uint256"}],"stateMutability":"nonpayable"},{"type":"function","name":"x","inputs":[],"outputs":[{"name":"","type":"uint256","internalType":"uint256"}],"stateMutability":"view"},{"type":"event","name":"CallSuccess","inputs":[],"anonymous":false}],"bytecode":{"object":"0x608060405260636001553480156013575f5ffd5b50610226806100215f395ff3fe608060405234801561000f575f5ffd5b506004361061003f575f3560e01c80630c55699c146100435780635c60da1b14610061578063d09de08a1461007f575b5f5ffd5b61004b61009d565b604051610058919061011f565b60405180910390f35b6100696100a3565b6040516100769190610177565b60405180910390f35b6100876100c7565b604051610094919061011f565b60405180910390f35b60015481565b5f5f9054906101000a900473ffffffffffffffffffffffffffffffffffffffff1681565b5f7fd4c1379b05055358f3fa6e4ccdfedb07a73d2b3698e95c42d8dc5838961737e360405160405180910390a16001805461010291906101bd565b905090565b5f819050919050565b61011981610107565b82525050565b5f6020820190506101325f830184610110565b92915050565b5f73ffffffffffffffffffffffffffffffffffffffff82169050919050565b5f61016182610138565b9050919050565b61017181610157565b82525050565b5f60208201905061018a5f830184610168565b92915050565b7f4e487b71000000000000000000000000000000000000000000000000000000005f52601160045260245ffd5b5f6101c782610107565b91506101d283610107565b92508282019050808211156101ea576101e9610190565b5b9291505056fea264697066735822122046adb7736c7c895e57767fbfaf4fefd50c8200f7a4c484baa543c07fcdf7130b64736f6c63430008220033","linkReferences":{}},"methodIdentifiers":{"implementation()":"5c60da1b","increment()":"d09de08a","x()":"0c55699c"},"id":99}