{"abi":[{"type":"function","name":"multicall","inputs":[{"name":"calls","type":"tuple[]","internalType":"struct Multicall.Call[]","components":[{"name":"target","type":"address","internalType":"address"},{"name":"allowFailure","type":"bool","internalType":"bool"},{"name":"callData","type":"bytes","internalType":"bytes"}]}],"outputs":[{"name":"returnData","type":"tuple[]","internalType":"struct Multicall.Result[]","components":[{"name":"success","type":"bool","internalType":"bool"},{"name":"returnData","type":"bytes","internalType":"bytes"}]}],"stateMutability":"nonpayable"}],"bytecode":{"object":"0x6080604052348015600e575f5ffd5b506107558061001c5f395ff3fe608060405234801561000f575f5ffd5b5060043610610029575f3560e01c8063e8bbf5d71461002d575b5f5ffd5b610047600480360381019061004291906102a0565b61005d565b604051610054919061046a565b60405180910390f35b60605f8383905090508067ffffffffffffffff8111156100805761007f61048a565b5b6040519080825280602002602001820160405280156100b957816020015b6100a661021c565b81526020019060019003908161009e5790505b509150365f5f90505b82811015610213575f8482815181106100de576100dd6104b7565b5b602002602001015190508686838181106100fb576100fa6104b7565b5b905060200281019061010d91906104f0565b9250825f0160208101906101219190610571565b73ffffffffffffffffffffffffffffffffffffffff16838060400190610147919061059c565b60405161015592919061063a565b5f604051808303815f865af19150503d805f811461018e576040519150601f19603f3d011682016040523d82523d5f602084013e610193565b606091505b50825f0183602001829052821515151581525050508260200160208101906101bb919061067c565b806101c65750805f01515b610205576040517f08c379a00000000000000000000000000000000000000000000000000000000081526004016101fc90610701565b60405180910390fd5b5080806001019150506100c2565b50505092915050565b60405180604001604052805f15158152602001606081525090565b5f5ffd5b5f5ffd5b5f5ffd5b5f5ffd5b5f5ffd5b5f5f83601f8401126102605761025f61023f565b5b8235905067ffffffffffffffff81111561027d5761027c610243565b5b60208301915083602082028301111561029957610298610247565b5b9250929050565b5f5f602083850312156102b6576102b5610237565b5b5f83013567ffffffffffffffff8111156102d3576102d261023b565b5b6102df8582860161024b565b92509250509250929050565b5f81519050919050565b5f82825260208201905092915050565b5f819050602082019050919050565b5f8115159050919050565b61032881610314565b82525050565b5f81519050919050565b5f82825260208201905092915050565b8281835e5f83830152505050565b5f601f19601f8301169050919050565b5f6103708261032e565b61037a8185610338565b935061038a818560208601610348565b61039381610356565b840191505092915050565b5f604083015f8301516103b35f86018261031f565b50602083015184820360208601526103cb8282610366565b9150508091505092915050565b5f6103e3838361039e565b905092915050565b5f602082019050919050565b5f610401826102eb565b61040b81856102f5565b93508360208202850161041d85610305565b805f5b85811015610458578484038952815161043985826103d8565b9450610444836103eb565b925060208a01995050600181019050610420565b50829750879550505050505092915050565b5f6020820190508181035f83015261048281846103f7565b905092915050565b7f4e487b71000000000000000000000000000000000000000000000000000000005f52604160045260245ffd5b7f4e487b71000000000000000000000000000000000000000000000000000000005f52603260045260245ffd5b5f5ffd5b5f5ffd5b5f5ffd5b5f8235600160600383360303811261050b5761050a6104e4565b5b80830191505092915050565b5f73ffffffffffffffffffffffffffffffffffffffff82169050919050565b5f61054082610517565b9050919050565b61055081610536565b811461055a575f5ffd5b50565b5f8135905061056b81610547565b92915050565b5f6020828403121561058657610585610237565b5b5f6105938482850161055d565b91505092915050565b5f5f833560016020038436030381126105b8576105b76104e4565b5b80840192508235915067ffffffffffffffff8211156105da576105d96104e8565b5b6020830192506001820236038313156105f6576105f56104ec565b5b509250929050565b5f81905092915050565b828183375f83830152505050565b5f61062183856105fe565b935061062e838584610608565b82840190509392505050565b5f610646828486610616565b91508190509392505050565b61065b81610314565b8114610665575f5ffd5b50565b5f8135905061067681610652565b92915050565b5f6020828403121561069157610690610237565b5b5f61069e84828501610668565b91505092915050565b5f82825260208201905092915050565b7f4d756c746963616c6c3a2063616c6c206661696c6564000000000000000000005f82015250565b5f6106eb6016836106a7565b91506106f6826106b7565b602082019050919050565b5f6020820190508181035f830152610718816106df565b905091905056fea26469706673582212209ddbb6838c8796d947b7d0f0002c39ca76335215ca7f601f9a28cf1e4493240064736f6c63430008220033","linkReferences":{}},"methodIdentifiers":{"multicall((address,bool,bytes)[])":"e8bbf5d7"},"id":112}