{"abi":[{"type":"function","name":"balanceOf","inputs":[{"name":"","type":"address","internalType":"address"}],"outputs":[{"name":"","type":"uint256","internalType":"uint256"}],"stateMutability":"view"},{"type":"function","name":"deposit","inputs":[],"outputs":[],"stateMutability":"payable"},{"type":"function","name":"getBalance","inputs":[],"outputs":[{"name":"","type":"uint256","internalType":"uint256"}],"stateMutability":"view"},{"type":"function","name":"withdraw","inputs":[],"outputs":[],"stateMutability":"nonpayable"}],"bytecode":{"object":"0x6080604052348015600e575f5ffd5b506105178061001c5f395ff3fe60806040526004361061003e575f3560e01c806312065fe0146100425780633ccfd60b1461006c57806370a0823114610082578063d0e30db0146100be575b5f5ffd5b34801561004d575f5ffd5b506100566100c8565b60405161006391906102be565b60405180910390f35b348015610077575f5ffd5b506100806100cf565b005b34801561008d575f5ffd5b506100a860048036038101906100a39190610335565b61023e565b6040516100b591906102be565b60405180910390f35b6100c6610252565b005b5f47905090565b5f5f5f3373ffffffffffffffffffffffffffffffffffffffff1673ffffffffffffffffffffffffffffffffffffffff1681526020019081526020015f205490505f8111610151576040517f08c379a0000000000000000000000000000000000000000000000000000000008152600401610148906103ba565b60405180910390fd5b5f5f5f3373ffffffffffffffffffffffffffffffffffffffff1673ffffffffffffffffffffffffffffffffffffffff1681526020019081526020015f20819055505f3373ffffffffffffffffffffffffffffffffffffffff16826040516101b790610405565b5f6040518083038185875af1925050503d805f81146101f1576040519150601f19603f3d011682016040523d82523d5f602084013e6101f6565b606091505b505090508061023a576040517f08c379a000000000000000000000000000000000000000000000000000000000815260040161023190610463565b60405180910390fd5b5050565b5f602052805f5260405f205f915090505481565b345f5f3373ffffffffffffffffffffffffffffffffffffffff1673ffffffffffffffffffffffffffffffffffffffff1681526020019081526020015f205f82825461029d91906104ae565b92505081905550565b5f819050919050565b6102b8816102a6565b82525050565b5f6020820190506102d15f8301846102af565b92915050565b5f5ffd5b5f73ffffffffffffffffffffffffffffffffffffffff82169050919050565b5f610304826102db565b9050919050565b610314816102fa565b811461031e575f5ffd5b50565b5f8135905061032f8161030b565b92915050565b5f6020828403121561034a576103496102d7565b5b5f61035784828501610321565b91505092915050565b5f82825260208201905092915050565b7f496e73756666696369656e742062616c616e63650000000000000000000000005f82015250565b5f6103a4601483610360565b91506103af82610370565b602082019050919050565b5f6020820190508181035f8301526103d181610398565b9050919050565b5f81905092915050565b50565b5f6103f05f836103d8565b91506103fb826103e2565b5f82019050919050565b5f61040f826103e5565b9150819050919050565b7f4661696c656420746f2073656e642045746865720000000000000000000000005f82015250565b5f61044d601483610360565b915061045882610419565b602082019050919050565b5f6020820190508181035f83015261047a81610441565b9050919050565b7f4e487b71000000000000000000000000000000000000000000000000000000005f52601160045260245ffd5b5f6104b8826102a6565b91506104c3836102a6565b92508282019050808211156104db576104da610481565b5b9291505056fea2646970667358221220fe5213d16f5158681da9012d5797f14787bea7335fdedacfc78f5493c2af63bd64736f6c63430008220033","linkReferences":{}},"methodIdentifiers":{"balanceOf(address)":"70a08231","deposit()":"d0e30db0","getBalance()":"12065fe0","withdraw()":"3ccfd60b"},"id":121}