{"abi":[{"type":"function","name":"callSetVars","inputs":[{"name":"_addr","type":"address","internalType":"address"},{"name":"_num","type":"uint256","internalType":"uint256"}],"outputs":[],"stateMutability":"payable"},{"type":"function","name":"delegatecallSetVars","inputs":[{"name":"_addr","type":"address","internalType":"address"},{"name":"_num","type":"uint256","internalType":"uint256"}],"outputs":[],"stateMutability":"payable"},{"type":"function","name":"num","inputs":[],"outputs":[{"name":"","type":"uint256","internalType":"uint256"}],"stateMutability":"view"},{"type":"function","name":"sender","inputs":[],"outputs":[{"name":"","type":"address","internalType":"address"}],"stateMutability":"view"}],"bytecode":{"object":"0x6080604052348015600e575f5ffd5b506104ae8061001c5f395ff3fe60806040526004361061003e575f3560e01c80631c1cba57146100425780634e70b1dc1461005e57806367e404ce14610088578063b39a9641146100b2575b5f5ffd5b61005c60048036038101906100579190610382565b6100ce565b005b348015610069575f5ffd5b506100726101ca565b60405161007f91906103cf565b60405180910390f35b348015610093575f5ffd5b5061009c6101cf565b6040516100a991906103f7565b60405180910390f35b6100cc60048036038101906100c79190610382565b6101f4565b005b5f5f8373ffffffffffffffffffffffffffffffffffffffff16836040516024016100f891906103cf565b6040516020818303038152906040527f6466414b000000000000000000000000000000000000000000000000000000007bffffffffffffffffffffffffffffffffffffffffffffffffffffffff19166020820180517bffffffffffffffffffffffffffffffffffffffffffffffffffffffff83818316178352505050506040516101829190610462565b5f60405180830381855af49150503d805f81146101ba576040519150601f19603f3d011682016040523d82523d5f602084013e6101bf565b606091505b509150915050505050565b5f5481565b60015f9054906101000a900473ffffffffffffffffffffffffffffffffffffffff1681565b5f5f8373ffffffffffffffffffffffffffffffffffffffff168360405160240161021e91906103cf565b6040516020818303038152906040527f6466414b000000000000000000000000000000000000000000000000000000007bffffffffffffffffffffffffffffffffffffffffffffffffffffffff19166020820180517bffffffffffffffffffffffffffffffffffffffffffffffffffffffff83818316178352505050506040516102a89190610462565b5f604051808303815f865af19150503d805f81146102e1576040519150601f19603f3d011682016040523d82523d5f602084013e6102e6565b606091505b509150915050505050565b5f5ffd5b5f73ffffffffffffffffffffffffffffffffffffffff82169050919050565b5f61031e826102f5565b9050919050565b61032e81610314565b8114610338575f5ffd5b50565b5f8135905061034981610325565b92915050565b5f819050919050565b6103618161034f565b811461036b575f5ffd5b50565b5f8135905061037c81610358565b92915050565b5f5f60408385031215610398576103976102f1565b5b5f6103a58582860161033b565b92505060206103b68582860161036e565b9150509250929050565b6103c98161034f565b82525050565b5f6020820190506103e25f8301846103c0565b92915050565b6103f181610314565b82525050565b5f60208201905061040a5f8301846103e8565b92915050565b5f81519050919050565b5f81905092915050565b8281835e5f83830152505050565b5f61043c82610410565b610446818561041a565b9350610456818560208601610424565b80840191505092915050565b5f61046d8284610432565b91508190509291505056fea26469706673582212206d5e8cc20affa1618d14aec7d44dc3158f62e4a339facf25458021b88fec8b6b64736f6c63430008220033","linkReferences":{}},"methodIdentifiers":{"callSetVars(address,uint256)":"b39a9641","delegatecallSetVars(address,uint256)":"1c1cba57","num()":"4e70b1dc","sender()":"67e404ce"},"id":65}