{"abi":[{"type":"function","name":"num","inputs":[],"outputs":[{"name":"","type":"uint256","internalType":"uint256"}],"stateMutability":"view"},{"type":"function","name":"sender","inputs":[],"outputs":[{"name":"","type":"address","internalType":"address"}],"stateMutability":"view"},{"type":"function","name":"setVars","inputs":[{"name":"_num","type":"uint256","internalType":"uint256"}],"outputs":[],"stateMutability":"payable"}],"bytecode":{"object":"0x6080604052348015600e575f5ffd5b506102328061001c5f395ff3fe608060405260043610610033575f3560e01c80634e70b1dc146100375780636466414b1461006157806367e404ce1461007d575b5f5ffd5b348015610042575f5ffd5b5061004b6100a7565b6040516100589190610132565b60405180910390f35b61007b60048036038101906100769190610179565b6100ac565b005b348015610088575f5ffd5b506100916100f5565b60405161009e91906101e3565b60405180910390f35b5f5481565b805f819055503360015f6101000a81548173ffffffffffffffffffffffffffffffffffffffff021916908373ffffffffffffffffffffffffffffffffffffffff16021790555050565b60015f9054906101000a900473ffffffffffffffffffffffffffffffffffffffff1681565b5f819050919050565b61012c8161011a565b82525050565b5f6020820190506101455f830184610123565b92915050565b5f5ffd5b6101588161011a565b8114610162575f5ffd5b50565b5f813590506101738161014f565b92915050565b5f6020828403121561018e5761018d61014b565b5b5f61019b84828501610165565b91505092915050565b5f73ffffffffffffffffffffffffffffffffffffffff82169050919050565b5f6101cd826101a4565b9050919050565b6101dd816101c3565b82525050565b5f6020820190506101f65f8301846101d4565b9291505056fea2646970667358221220f6f5056ca513d36a27f9ed568152915288eac9c72a2c3dadf7487e91b77a9b3d64736f6c63430008220033","linkReferences":{}},"methodIdentifiers":{"num()":"4e70b1dc","sender()":"67e404ce","setVars(uint256)":"6466414b"},"id":65}