{"abi":[{"type":"function","name":"fCalldata","inputs":[{"name":"_x","type":"uint256[]","internalType":"uint256[]"}],"outputs":[{"name":"","type":"uint256[]","internalType":"uint256[]"}],"stateMutability":"pure"},{"type":"function","name":"fMemory","inputs":[],"outputs":[],"stateMutability":"view"},{"type":"function","name":"fStorage","inputs":[],"outputs":[],"stateMutability":"nonpayable"},{"type":"function","name":"x","inputs":[{"name":"","type":"uint256","internalType":"uint256"}],"outputs":[{"name":"","type":"uint256","internalType":"uint256"}],"stateMutability":"view"}],"bytecode":{"object":"0x60806040526040518060600160405280600160ff168152602001600260ff168152602001600360ff168152505f9081610038919061024f565b50348015610044575f5ffd5b506102d3565b7f4e487b71000000000000000000000000000000000000000000000000000000005f52604160045260245ffd5b5f81549050919050565b5f819050919050565b5f8190506001806001038301049050919050565b5f819050815f5260205f209050919050565b5f82821b905092915050565b5f600883026100eb7fffffffffffffffffffffffffffffffffffffffffffffffffffffffffffffffff826100b0565b6100f586836100b0565b95508019841693508086168417925050509392505050565b5f819050919050565b5f61013061012b61012684610081565b61010d565b610081565b9050919050565b5f819050919050565b61014983610116565b61015d61015582610137565b8484546100bc565b825550505050565b5f5f905090565b610174610165565b61017f818484610140565b505050565b5f5b828110156101a55761019a5f82840161016c565b600181019050610186565b505050565b818310156101e1576101bb8261008a565b6101c48461008a565b6101cd8361009e565b8181016101dc83850382610184565b505050505b505050565b68010000000000000000821115610200576101ff61004a565b5b61020981610077565b8282556102178382846101aa565b505050565b5f60039050919050565b5f60ff82169050919050565b5f61023d8251610226565b80915050919050565b5f819050919050565b6102588261021c565b67ffffffffffffffff8111156102715761027061004a565b5b61027b81836101e6565b61028483610246565b61028d8361009e565b600183045f5b818110156102ca575f6102a585610232565b6102ae81610137565b8092506020870196505050808285015550600181019050610293565b50505050505050565b61045b806102e05f395ff3fe608060405234801561000f575f5ffd5b506004361061004a575f3560e01c8063200289901461004e5780633f4263ef146100585780636a8d1e08146100885780639b1a379c14610092575b5f5ffd5b6100566100c3565b005b610072600480360381019061006d919061025f565b6101ce565b60405161007f9190610299565b60405180910390f35b6100906101ed565b005b6100ac60048036038101906100a79190610313565b610215565b6040516100ba9291906103d6565b60405180910390f35b5f5f80548060200260200160405190810160405280929190818152602001828054801561010d57602002820191905f5260205f20905b8154815260200190600101908083116100f9575b505050505090506064815f81518110610129576101286103f8565b5b60200260200101818152505060c88160018151811061014b5761014a6103f8565b5b6020026020010181815250505f5f8054806020026020016040519081016040528092919081815260200182805480156101a157602002820191905f5260205f20905b81548152602001906001019080831161018d575b5050505050905061012c815f815181106101be576101bd6103f8565b5b6020026020010181815250505050565b5f81815481106101dc575f80fd5b905f5260205f20015f915090505481565b5f5f90506064815f81548110610206576102056103f8565b5b905f5260205f20018190555050565b365f8383915091509250929050565b5f5ffd5b5f5ffd5b5f819050919050565b61023e8161022c565b8114610248575f5ffd5b50565b5f8135905061025981610235565b92915050565b5f6020828403121561027457610273610224565b5b5f6102818482850161024b565b91505092915050565b6102938161022c565b82525050565b5f6020820190506102ac5f83018461028a565b92915050565b5f5ffd5b5f5ffd5b5f5ffd5b5f5f83601f8401126102d3576102d26102b2565b5b8235905067ffffffffffffffff8111156102f0576102ef6102b6565b5b60208301915083602082028301111561030c5761030b6102ba565b5b9250929050565b5f5f6020838503121561032957610328610224565b5b5f83013567ffffffffffffffff81111561034657610345610228565b5b610352858286016102be565b92509250509250929050565b5f82825260208201905092915050565b5f5ffd5b82818337505050565b5f610386838561035e565b93507f07ffffffffffffffffffffffffffffffffffffffffffffffffffffffffffffff8311156103b9576103b861036e565b5b6020830292506103ca838584610372565b82840190509392505050565b5f6020820190508181035f8301526103ef81848661037b565b90509392505050565b7f4e487b71000000000000000000000000000000000000000000000000000000005f52603260045260245ffdfea2646970667358221220427935779af6775733547f757ed4f09ead558a1f012a174f9c9538851bfd768964736f6c63430008220033","linkReferences":{}},"methodIdentifiers":{"fCalldata(uint256[])":"9b1a379c","fMemory()":"20028990","fStorage()":"6a8d1e08","x(uint256)":"3f4263ef"},"id":48}