{"abi":[{"type":"function","name":"bar","inputs":[],"outputs":[{"name":"","type":"uint256","internalType":"uint256"}],"stateMutability":"pure"},{"type":"function","name":"daysUnit","inputs":[],"outputs":[{"name":"","type":"uint256","internalType":"uint256"}],"stateMutability":"pure"},{"type":"function","name":"etherUnit","inputs":[],"outputs":[{"name":"","type":"uint256","internalType":"uint256"}],"stateMutability":"pure"},{"type":"function","name":"foo","inputs":[],"outputs":[],"stateMutability":"nonpayable"},{"type":"function","name":"global","inputs":[],"outputs":[{"name":"","type":"address","internalType":"address"},{"name":"","type":"uint256","internalType":"uint256"},{"name":"","type":"bytes","internalType":"bytes"}],"stateMutability":"view"},{"type":"function","name":"gweiUnit","inputs":[],"outputs":[{"name":"","type":"uint256","internalType":"uint256"}],"stateMutability":"pure"},{"type":"function","name":"hoursUnit","inputs":[],"outputs":[{"name":"","type":"uint256","internalType":"uint256"}],"stateMutability":"pure"},{"type":"function","name":"minutesUnit","inputs":[],"outputs":[{"name":"","type":"uint256","internalType":"uint256"}],"stateMutability":"pure"},{"type":"function","name":"secondsUnit","inputs":[],"outputs":[{"name":"","type":"uint256","internalType":"uint256"}],"stateMutability":"pure"},{"type":"function","name":"weeksUnit","inputs":[],"outputs":[{"name":"","type":"uint256","internalType":"uint256"}],"stateMutability":"pure"},{"type":"function","name":"weiUnit","inputs":[],"outputs":[{"name":"","type":"uint256","internalType":"uint256"}],"stateMutability":"pure"},{"type":"function","name":"x","inputs":[],"outputs":[{"name":"","type":"uint256","internalType":"uint256"}],"stateMutability":"view"},{"type":"function","name":"y","inputs":[],"outputs":[{"name":"","type":"uint256","internalType":"uint256"}],"stateMutability":"view"},{"type":"function","name":"z","inputs":[],"outputs":[{"name":"","type":"string","internalType":"string"}],"stateMutability":"view"}],"bytecode":{"object":"0x608060405260015f553480156012575f5ffd5b50610ab9806100205f395ff3fe608060405234801561000f575f5ffd5b50600436106100e8575f3560e01c8063aec3d6401161008a578063c5d7802e11610064578063c5d7802e14610206578063cb9f122014610224578063f1e6d19814610242578063febb0f7e14610260576100e8565b8063aec3d640146101c0578063be44f864146101de578063c2985578146101fc576100e8565b80632aca45f1116100c65780632aca45f114610146578063a05f990614610164578063a0d0d59e14610184578063a56dfe4a146101a2576100e8565b806309879682146100ec5780630c55699c1461010a5780631217634914610128575b5f5ffd5b6100f461027e565b6040516101019190610576565b60405180910390f35b610112610297565b60405161011f9190610576565b60405180910390f35b61013061029c565b60405161013d9190610576565b60405180910390f35b61014e6102c6565b60405161015b9190610576565b60405180910390f35b61016c6102f6565b60405161017b9392919061063e565b60405180910390f35b61018c61035a565b6040516101999190610576565b60405180910390f35b6101aa61038a565b6040516101b79190610576565b60405180910390f35b6101c8610390565b6040516101d59190610576565b60405180910390f35b6101e66103c3565b6040516101f39190610576565b60405180910390f35b6102046103f0565b005b61020e610446565b60405161021b91906106cc565b60405180910390f35b61022c6104d2565b6040516102399190610576565b60405180910390f35b61024a610511565b6040516102579190610576565b60405180910390f35b61026861053b565b6040516102759190610576565b60405180910390f35b5f600180146102905761028f6106ec565b5b6001905090565b5f5481565b5f600180146102ae576102ad6106ec565b5b600180146102bf576102be6106ec565b5b6001905090565b5f62093a8080146102da576102d96106ec565b5b62093a8080146102ed576102ec6106ec565b5b62093a80905090565b5f5f60605f3390505f4390505f5f368080601f0160208091040260200160405190810160405280939291908181526020018383808284375f81840152601f19601f820116905080830192505050505050509050828282955095509550505050909192565b5f62015180801461036e5761036d6106ec565b5b620151808014610381576103806106ec565b5b62015180905090565b60015481565b5f633b9aca0080146103a5576103a46106ec565b5b633b9aca0080146103b9576103b86106ec565b5b633b9aca00905090565b5f610e1080146103d6576103d56106ec565b5b610e1080146103e8576103e76106ec565b5b610e10905090565b60055f8190555060026001819055506040518060400160405280600481526020017f3078414100000000000000000000000000000000000000000000000000000000815250600290816104439190610954565b50565b6002805461045390610773565b80601f016020809104026020016040519081016040528092919081815260200182805461047f90610773565b80156104ca5780601f106104a1576101008083540402835291602001916104ca565b820191905f5260205f20905b8154815290600101906020018083116104ad57829003601f168201915b505050505081565b5f670de0b6b3a764000080146104eb576104ea6106ec565b5b670de0b6b3a76400008014610503576105026106ec565b5b670de0b6b3a7640000905090565b5f603c8014610523576105226106ec565b5b603c8014610534576105336106ec565b5b603c905090565b5f5f600190505f600390505f81836105539190610a50565b905080935050505090565b5f819050919050565b6105708161055e565b82525050565b5f6020820190506105895f830184610567565b92915050565b5f73ffffffffffffffffffffffffffffffffffffffff82169050919050565b5f6105b88261058f565b9050919050565b6105c8816105ae565b82525050565b5f81519050919050565b5f82825260208201905092915050565b8281835e5f83830152505050565b5f601f19601f8301169050919050565b5f610610826105ce565b61061a81856105d8565b935061062a8185602086016105e8565b610633816105f6565b840191505092915050565b5f6060820190506106515f8301866105bf565b61065e6020830185610567565b81810360408301526106708184610606565b9050949350505050565b5f81519050919050565b5f82825260208201905092915050565b5f61069e8261067a565b6106a88185610684565b93506106b88185602086016105e8565b6106c1816105f6565b840191505092915050565b5f6020820190508181035f8301526106e48184610694565b905092915050565b7f4e487b71000000000000000000000000000000000000000000000000000000005f52600160045260245ffd5b7f4e487b71000000000000000000000000000000000000000000000000000000005f52604160045260245ffd5b7f4e487b71000000000000000000000000000000000000000000000000000000005f52602260045260245ffd5b5f600282049050600182168061078a57607f821691505b60208210810361079d5761079c610746565b5b50919050565b5f819050815f5260205f209050919050565b5f6020601f8301049050919050565b5f82821b905092915050565b5f600883026107ff7fffffffffffffffffffffffffffffffffffffffffffffffffffffffffffffffff826107c4565b61080986836107c4565b95508019841693508086168417925050509392505050565b5f819050919050565b5f61084461083f61083a8461055e565b610821565b61055e565b9050919050565b5f819050919050565b61085d8361082a565b6108716108698261084b565b8484546107d0565b825550505050565b5f5f905090565b610888610879565b610893818484610854565b505050565b5f5b828110156108b9576108ae5f828401610880565b60018101905061089a565b505050565b601f82111561090c578282111561090b576108d8816107a3565b6108e1836107b5565b6108ea856107b5565b60208610156108f7575f90505b80830161090682840382610898565b505050505b5b505050565b5f82821c905092915050565b5f61092c5f1984600802610911565b1980831691505092915050565b5f610944838361091d565b9150826002028217905092915050565b61095d8261067a565b67ffffffffffffffff81111561097657610975610719565b5b6109808254610773565b61098b8282856108be565b5f60209050601f8311600181146109bc575f84156109aa578287015190505b6109b48582610939565b865550610a1b565b601f1984166109ca866107a3565b5f5b828110156109f1578489015182556001820191506020850194506020810190506109cc565b86831015610a0e5784890151610a0a601f89168261091d565b8355505b6001600288020188555050505b505050505050565b7f4e487b71000000000000000000000000000000000000000000000000000000005f52601160045260245ffd5b5f610a5a8261055e565b9150610a658361055e565b9250828201905080821115610a7d57610a7c610a23565b5b9291505056fea2646970667358221220424b5e5d71ef893dc54d52e9a4cd9e2043f7b0e1b492883df1cb25b56c60776f64736f6c63430008220033","linkReferences":{}},"methodIdentifiers":{"bar()":"febb0f7e","daysUnit()":"a0d0d59e","etherUnit()":"cb9f1220","foo()":"c2985578","global()":"a05f9906","gweiUnit()":"aec3d640","hoursUnit()":"be44f864","minutesUnit()":"f1e6d198","secondsUnit()":"09879682","weeksUnit()":"2aca45f1","weiUnit()":"12176349","x()":"0c55699c","y()":"a56dfe4a","z()":"c5d7802e"},"id":48}