{"abi":[{"type":"constructor","inputs":[{"name":"_bank","type":"address","internalType":"contract UncheckedBank"}],"stateMutability":"nonpayable"},{"type":"receive","stateMutability":"payable"},{"type":"function","name":"bank","inputs":[],"outputs":[{"name":"","type":"address","internalType":"contract UncheckedBank"}],"stateMutability":"view"},{"type":"function","name":"deposit","inputs":[],"outputs":[],"stateMutability":"payable"},{"type":"function","name":"getBalance","inputs":[],"outputs":[{"name":"","type":"uint256","internalType":"uint256"}],"stateMutability":"view"},{"type":"function","name":"withdraw","inputs":[],"outputs":[],"stateMutability":"payable"}],"bytecode":{"object":"0x608060405234801561000f575f5ffd5b506040516103ed3803806103ed833981810160405281019061003191906100e5565b805f5f6101000a81548173ffffffffffffffffffffffffffffffffffffffff021916908373ffffffffffffffffffffffffffffffffffffffff16021790555050610110565b5f5ffd5b5f73ffffffffffffffffffffffffffffffffffffffff82169050919050565b5f6100a38261007a565b9050919050565b5f6100b482610099565b9050919050565b6100c4816100aa565b81146100ce575f5ffd5b50565b5f815190506100df816100bb565b92915050565b5f602082840312156100fa576100f9610076565b5b5f610107848285016100d1565b91505092915050565b6102d08061011d5f395ff3fe608060405260043610610042575f3560e01c806312065fe0146100475780633ccfd60b1461007157806376cdb03b1461007b578063d0e30db0146100a557610043565b5b5f5ffd5b348015610052575f5ffd5b5061005b6100af565b60405161006891906101ee565b60405180910390f35b6100796100b6565b005b348015610086575f5ffd5b5061008f610133565b60405161009c9190610281565b60405180910390f35b6100ad610157565b005b5f47905090565b5f5f9054906101000a900473ffffffffffffffffffffffffffffffffffffffff1673ffffffffffffffffffffffffffffffffffffffff16633ccfd60b6040518163ffffffff1660e01b81526004015f604051808303815f87803b15801561011b575f5ffd5b505af115801561012d573d5f5f3e3d5ffd5b50505050565b5f5f9054906101000a900473ffffffffffffffffffffffffffffffffffffffff1681565b5f5f9054906101000a900473ffffffffffffffffffffffffffffffffffffffff1673ffffffffffffffffffffffffffffffffffffffff1663d0e30db0346040518263ffffffff1660e01b81526004015f604051808303818588803b1580156101bd575f5ffd5b505af11580156101cf573d5f5f3e3d5ffd5b5050505050565b5f819050919050565b6101e8816101d6565b82525050565b5f6020820190506102015f8301846101df565b92915050565b5f73ffffffffffffffffffffffffffffffffffffffff82169050919050565b5f819050919050565b5f61024961024461023f84610207565b610226565b610207565b9050919050565b5f61025a8261022f565b9050919050565b5f61026b82610250565b9050919050565b61027b81610261565b82525050565b5f6020820190506102945f830184610272565b9291505056fea26469706673582212208f6ae0265147e72f8bb97394075031f288bbae115706074a9f407ddace36568964736f6c63430008220033","linkReferences":{}},"methodIdentifiers":{"bank()":"76cdb03b","deposit()":"d0e30db0","getBalance()":"12065fe0","withdraw()":"3ccfd60b"},"id":133}