{"abi":[{"type":"function","name":"balanceOf","inputs":[{"name":"","type":"address","internalType":"address"}],"outputs":[{"name":"","type":"uint256","internalType":"uint256"}],"stateMutability":"view"},{"type":"function","name":"deposit","inputs":[],"outputs":[],"stateMutability":"payable"},{"type":"function","name":"getBalance","inputs":[],"outputs":[{"name":"","type":"uint256","internalType":"uint256"}],"stateMutability":"view"},{"type":"function","name":"withdraw","inputs":[],"outputs":[],"stateMutability":"nonpayable"}],"bytecode":{"object":"0x6080604052348015600e575f5ffd5b506103fd8061001c5f395ff3fe60806040526004361061003e575f3560e01c806312065fe0146100425780633ccfd60b1461006c57806370a0823114610082578063d0e30db0146100be575b5f5ffd5b34801561004d575f5ffd5b506100566100c8565b604051610063919061024d565b60405180910390f35b348015610077575f5ffd5b506100806100cf565b005b34801561008d575f5ffd5b506100a860048036038101906100a391906102c4565b6101cd565b6040516100b5919061024d565b60405180910390f35b6100c66101e1565b005b5f47905090565b5f5f5f3373ffffffffffffffffffffffffffffffffffffffff1673ffffffffffffffffffffffffffffffffffffffff1681526020019081526020015f205490505f8111610151576040517f08c379a000000000000000000000000000000000000000000000000000000000815260040161014890610349565b60405180910390fd5b5f5f5f3373ffffffffffffffffffffffffffffffffffffffff1673ffffffffffffffffffffffffffffffffffffffff1681526020019081526020015f20819055505f3373ffffffffffffffffffffffffffffffffffffffff166108fc8390811502906040515f60405180830381858888f1935050505090505050565b5f602052805f5260405f205f915090505481565b345f5f3373ffffffffffffffffffffffffffffffffffffffff1673ffffffffffffffffffffffffffffffffffffffff1681526020019081526020015f205f82825461022c9190610394565b92505081905550565b5f819050919050565b61024781610235565b82525050565b5f6020820190506102605f83018461023e565b92915050565b5f5ffd5b5f73ffffffffffffffffffffffffffffffffffffffff82169050919050565b5f6102938261026a565b9050919050565b6102a381610289565b81146102ad575f5ffd5b50565b5f813590506102be8161029a565b92915050565b5f602082840312156102d9576102d8610266565b5b5f6102e6848285016102b0565b91505092915050565b5f82825260208201905092915050565b7f496e73756666696369656e742062616c616e63650000000000000000000000005f82015250565b5f6103336014836102ef565b915061033e826102ff565b602082019050919050565b5f6020820190508181035f83015261036081610327565b9050919050565b7f4e487b71000000000000000000000000000000000000000000000000000000005f52601160045260245ffd5b5f61039e82610235565b91506103a983610235565b92508282019050808211156103c1576103c0610367565b5b9291505056fea2646970667358221220798a61043ed458fba05285f779d30cc6c9bbb43bf437099f74a61099270462fb64736f6c63430008220033","linkReferences":{}},"methodIdentifiers":{"balanceOf(address)":"70a08231","deposit()":"d0e30db0","getBalance()":"12065fe0","withdraw()":"3ccfd60b"},"id":133}