{"abi":[{"type":"constructor","inputs":[{"name":"name","type":"string","internalType":"string"},{"name":"symbol","type":"string","internalType":"string"}],"stateMutability":"nonpayable"},{"type":"function","name":"DOMAIN_SEPARATOR","inputs":[],"outputs":[{"name":"","type":"bytes32","internalType":"bytes32"}],"stateMutability":"view"},{"type":"function","name":"allowance","inputs":[{"name":"owner","type":"address","internalType":"address"},{"name":"spender","type":"address","internalType":"address"}],"outputs":[{"name":"","type":"uint256","internalType":"uint256"}],"stateMutability":"view"},{"type":"function","name":"approve","inputs":[{"name":"spender","type":"address","internalType":"address"},{"name":"value","type":"uint256","internalType":"uint256"}],"outputs":[{"name":"","type":"bool","internalType":"bool"}],"stateMutability":"nonpayable"},{"type":"function","name":"balanceOf","inputs":[{"name":"account","type":"address","internalType":"address"}],"outputs":[{"name":"","type":"uint256","internalType":"uint256"}],"stateMutability":"view"},{"type":"function","name":"decimals","inputs":[],"outputs":[{"name":"","type":"uint8","internalType":"uint8"}],"stateMutability":"view"},{"type":"function","name":"eip712Domain","inputs":[],"outputs":[{"name":"fields","type":"bytes1","internalType":"bytes1"},{"name":"name","type":"string","internalType":"string"},{"name":"version","type":"string","internalType":"string"},{"name":"chainId","type":"uint256","internalType":"uint256"},{"name":"verifyingContract","type":"address","internalType":"address"},{"name":"salt","type":"bytes32","internalType":"bytes32"},{"name":"extensions","type":"uint256[]","internalType":"uint256[]"}],"stateMutability":"view"},{"type":"function","name":"mint","inputs":[{"name":"amount","type":"uint256","internalType":"uint256"}],"outputs":[],"stateMutability":"nonpayable"},{"type":"function","name":"name","inputs":[],"outputs":[{"name":"","type":"string","internalType":"string"}],"stateMutability":"view"},{"type":"function","name":"nonces","inputs":[{"name":"owner","type":"address","internalType":"address"}],"outputs":[{"name":"","type":"uint256","internalType":"uint256"}],"stateMutability":"view"},{"type":"function","name":"permit","inputs":[{"name":"owner","type":"address","internalType":"address"},{"name":"spender","type":"address","internalType":"address"},{"name":"value","type":"uint256","internalType":"uint256"},{"name":"deadline","type":"uint256","internalType":"uint256"},{"name":"v","type":"uint8","internalType":"uint8"},{"name":"r","type":"bytes32","internalType":"bytes32"},{"name":"s","type":"bytes32","internalType":"bytes32"}],"outputs":[],"stateMutability":"nonpayable"},{"type":"function","name":"symbol","inputs":[],"outputs":[{"name":"","type":"string","internalType":"string"}],"stateMutability":"view"},{"type":"function","name":"totalSupply","inputs":[],"outputs":[{"name":"","type":"uint256","internalType":"uint256"}],"stateMutability":"view"},{"type":"function","name":"transfer","inputs":[{"name":"to","type":"address","internalType":"address"},{"name":"value","type":"uint256","internalType":"uint256"}],"outputs":[{"name":"","type":"bool","internalType":"bool"}],"stateMutability":"nonpayable"},{"type":"function","name":"transferFrom","inputs":[{"name":"from","type":"address","internalType":"address"},{"name":"to","type":"address","internalType":"address"},{"name":"value","type":"uint256","internalType":"uint256"}],"outputs":[{"name":"","type":"bool","internalType":"bool"}],"stateMutability":"nonpayable"},{"type":"event","name":"Approval","inputs":[{"name":"owner","type":"address","indexed":true,"internalType":"address"},{"name":"spender","type":"address","indexed":true,"internalType":"address"},{"name":"value","type":"uint256","indexed":false,"internalType":"uint256"}],"anonymous":false},{"type":"event","name":"EIP712DomainChanged","inputs":[],"anonymous":false},{"type":"event","name":"Transfer","inputs":[{"name":"from","type":"address","indexed":true,"internalType":"address"},{"name":"to","type":"address","indexed":true,"internalType":"address"},{"name":"value","type":"uint256","indexed":false,"internalType":"uint256"}],"anonymous":false},{"type":"error","name":"ECDSAInvalidSignature","inputs":[]},{"type":"error","name":"ECDSAInvalidSignatureLength","inputs":[{"name":"length","type":"uint256","internalType":"uint256"}]},{"type":"error","name":"ECDSAInvalidSignatureS","inputs":[{"name":"s","type":"bytes32","internalType":"bytes32"}]},{"type":"error","name":"ERC20InsufficientAllowance","inputs":[{"name":"spender","type":"address","internalType":"address"},{"name":"allowance","type":"uint256","internalType":"uint256"},{"name":"needed","type":"uint256","internalType":"uint256"}]},{"type":"error","name":"ERC20InsufficientBalance","inputs":[{"name":"sender","type":"address","internalType":"address"},{"name":"balance","type":"uint256","internalType":"uint256"},{"name":"needed","type":"uint256","internalType":"uint256"}]},{"type":"error","name":"ERC20InvalidApprover","inputs":[{"name":"approver","type":"address","internalType":"address"}]},{"type":"error","name":"ERC20InvalidReceiver","inputs":[{"name":"receiver","type":"address","internalType":"address"}]},{"type":"error","name":"ERC20InvalidSender","inputs":[{"name":"sender","type":"address","internalType":"address"}]},{"type":"error","name":"ERC20InvalidSpender","inputs":[{"name":"spender","type":"address","internalType":"address"}]},{"type":"error","name":"InvalidShortString","inputs":[]},{"type":"error","name":"StringTooLong","inputs":[{"name":"str","type":"string","internalType":"string"}]}],"bytecode":{"object":"0x610160604052348015610010575f5ffd5b50604051612625380380612625833981810160405281019061003291906103a0565b816040518060400160405280600181526020017f31000000000000000000000000000000000000000000000000000000000000008152508383816003908161007a9190610637565b50806004908161008a9190610637565b5050506100a160058361013e60201b90919060201c565b61012081815250506100bd60068261013e60201b90919060201c565b6101408181525050818051906020012060e08181525050808051906020012061010081815250504660a081815250506100fa61018b60201b60201c565b608081815250503073ffffffffffffffffffffffffffffffffffffffff1660c08173ffffffffffffffffffffffffffffffffffffffff1681525050505050506108b8565b5f60208351101561015f57610158836101e560201b60201c565b9050610185565b8261016f8361024a60201b60201c565b5f01908161017d9190610637565b5060ff5f1b90505b92915050565b5f7f8b73c3c69bb8fe3d512ecc4cf759cc79239f7b179b0ffacaa9a75d522b39400f60e0516101005146306040516020016101ca95949392919061076c565b60405160208183030381529060405280519060200120905090565b5f5f829050601f8151111561023157826040517f305a27a90000000000000000000000000000000000000000000000000000000081526004016102289190610805565b60405180910390fd5b80518161023d90610852565b5f1c175f1b915050919050565b5f819050919050565b5f604051905090565b5f5ffd5b5f5ffd5b5f5ffd5b5f5ffd5b5f601f19601f8301169050919050565b7f4e487b71000000000000000000000000000000000000000000000000000000005f52604160045260245ffd5b6102b28261026c565b810181811067ffffffffffffffff821117156102d1576102d061027c565b5b80604052505050565b5f6102e3610253565b90506102ef82826102a9565b919050565b5f67ffffffffffffffff82111561030e5761030d61027c565b5b6103178261026c565b9050602081019050919050565b8281835e5f83830152505050565b5f61034461033f846102f4565b6102da565b9050828152602081018484840111156103605761035f610268565b5b61036b848285610324565b509392505050565b5f82601f83011261038757610386610264565b5b8151610397848260208601610332565b91505092915050565b5f5f604083850312156103b6576103b561025c565b5b5f83015167ffffffffffffffff8111156103d3576103d2610260565b5b6103df85828601610373565b925050602083015167ffffffffffffffff811115610400576103ff610260565b5b61040c85828601610373565b9150509250929050565b5f81519050919050565b7f4e487b71000000000000000000000000000000000000000000000000000000005f52602260045260245ffd5b5f600282049050600182168061046457607f821691505b60208210810361047757610476610420565b5b50919050565b5f819050815f5260205f209050919050565b5f6020601f8301049050919050565b5f82821b905092915050565b5f600883026104d97fffffffffffffffffffffffffffffffffffffffffffffffffffffffffffffffff8261049e565b6104e3868361049e565b95508019841693508086168417925050509392505050565b5f819050919050565b5f819050919050565b5f61052761052261051d846104fb565b610504565b6104fb565b9050919050565b5f819050919050565b6105408361050d565b61055461054c8261052e565b8484546104aa565b825550505050565b5f5f905090565b61056b61055c565b610576818484610537565b505050565b5f5b8281101561059c576105915f828401610563565b60018101905061057d565b505050565b601f8211156105ef57828211156105ee576105bb8161047d565b6105c48361048f565b6105cd8561048f565b60208610156105da575f90505b8083016105e98284038261057b565b505050505b5b505050565b5f82821c905092915050565b5f61060f5f19846008026105f4565b1980831691505092915050565b5f6106278383610600565b9150826002028217905092915050565b61064082610416565b67ffffffffffffffff8111156106595761065861027c565b5b610663825461044d565b61066e8282856105a1565b5f60209050601f83116001811461069f575f841561068d578287015190505b610697858261061c565b8655506106fe565b601f1984166106ad8661047d565b5f5b828110156106d4578489015182556001820191506020850194506020810190506106af565b868310156106f157848901516106ed601f891682610600565b8355505b6001600288020188555050505b505050505050565b5f819050919050565b61071881610706565b82525050565b610727816104fb565b82525050565b5f73ffffffffffffffffffffffffffffffffffffffff82169050919050565b5f6107568261072d565b9050919050565b6107668161074c565b82525050565b5f60a08201905061077f5f83018861070f565b61078c602083018761070f565b610799604083018661070f565b6107a6606083018561071e565b6107b3608083018461075d565b9695505050505050565b5f82825260208201905092915050565b5f6107d782610416565b6107e181856107bd565b93506107f1818560208601610324565b6107fa8161026c565b840191505092915050565b5f6020820190508181035f83015261081d81846107cd565b905092915050565b5f81519050919050565b5f819050602082019050919050565b5f6108498251610706565b80915050919050565b5f61085c82610825565b826108668461082f565b90506108718161083e565b925060208210156108b1576108ac7fffffffffffffffffffffffffffffffffffffffffffffffffffffffffffffffff8360200360080261049e565b831692505b5050919050565b60805160a05160c05160e051610100516101205161014051611d1c6109095f395f610a4301525f610a0801525f61100201525f610fe101525f61094c01525f6109a201525f6109cb0152611d1c5ff3fe608060405234801561000f575f5ffd5b50600436106100e8575f3560e01c80637ecebe001161008a578063a0712d6811610064578063a0712d6814610266578063a9059cbb14610282578063d505accf146102b2578063dd62ed3e146102ce576100e8565b80637ecebe00146101f457806384b0196e1461022457806395d89b4114610248576100e8565b806323b872dd116100c657806323b872dd14610158578063313ce567146101885780633644e515146101a657806370a08231146101c4576100e8565b806306fdde03146100ec578063095ea7b31461010a57806318160ddd1461013a575b5f5ffd5b6100f46102fe565b60405161010191906114b8565b60405180910390f35b610124600480360381019061011f9190611569565b61038e565b60405161013191906115c1565b60405180910390f35b6101426103b0565b60405161014f91906115e9565b60405180910390f35b610172600480360381019061016d9190611602565b6103b9565b60405161017f91906115c1565b60405180910390f35b6101906103e7565b60405161019d919061166d565b60405180910390f35b6101ae6103ef565b6040516101bb919061169e565b60405180910390f35b6101de60048036038101906101d991906116b7565b6103fd565b6040516101eb91906115e9565b60405180910390f35b61020e600480360381019061020991906116b7565b610442565b60405161021b91906115e9565b60405180910390f35b61022c610488565b60405161023f97969594939291906117e2565b60405180910390f35b61025061052d565b60405161025d91906114b8565b60405180910390f35b610280600480360381019061027b9190611864565b6105bd565b005b61029c60048036038101906102979190611569565b6105ca565b6040516102a991906115c1565b60405180910390f35b6102cc60048036038101906102c791906118e3565b6105ec565b005b6102e860048036038101906102e39190611980565b61072b565b6040516102f591906115e9565b60405180910390f35b60606003805461030d906119eb565b80601f0160208091040260200160405190810160405280929190818152602001828054610339906119eb565b80156103845780601f1061035b57610100808354040283529160200191610384565b820191905f5260205f20905b81548152906001019060200180831161036757829003601f168201915b5050505050905090565b5f5f6103986107ad565b90506103a58185856107b4565b600191505092915050565b5f600254905090565b5f5f6103c36107ad565b90506103d08582856107c6565b6103db858585610859565b60019150509392505050565b5f6012905090565b5f6103f8610949565b905090565b5f5f5f8373ffffffffffffffffffffffffffffffffffffffff1673ffffffffffffffffffffffffffffffffffffffff1681526020019081526020015f20549050919050565b5f60075f8373ffffffffffffffffffffffffffffffffffffffff1673ffffffffffffffffffffffffffffffffffffffff1681526020019081526020015f20549050919050565b5f6060805f5f5f60606104996109ff565b6104a1610a3a565b46305f5f1b5f67ffffffffffffffff8111156104c0576104bf611a1b565b5b6040519080825280602002602001820160405280156104ee5781602001602082028036833780820191505090505b507f0f00000000000000000000000000000000000000000000000000000000000000959493929190965096509650965096509650965090919293949596565b60606004805461053c906119eb565b80601f0160208091040260200160405190810160405280929190818152602001828054610568906119eb565b80156105b35780601f1061058a576101008083540402835291602001916105b3565b820191905f5260205f20905b81548152906001019060200180831161059657829003601f168201915b5050505050905090565b6105c73382610a75565b50565b5f5f6105d46107ad565b90506105e1818585610859565b600191505092915050565b8342111561062f576040517f08c379a000000000000000000000000000000000000000000000000000000000815260040161062690611a92565b60405180910390fd5b5f7f6e71edae12b1b97f4d1f60370fef10105fa2faae0126114a169c64845d6126c988888861065d8c610af4565b8960405160200161067396959493929190611ab0565b6040516020818303038152906040528051906020012090505f61069582610b8e565b90505f6106a482878787610ba7565b90508973ffffffffffffffffffffffffffffffffffffffff168173ffffffffffffffffffffffffffffffffffffffff1614610714576040517f08c379a000000000000000000000000000000000000000000000000000000000815260040161070b90611b59565b60405180910390fd5b61071f8a8a8a6107b4565b50505050505050505050565b5f60015f8473ffffffffffffffffffffffffffffffffffffffff1673ffffffffffffffffffffffffffffffffffffffff1681526020019081526020015f205f8373ffffffffffffffffffffffffffffffffffffffff1673ffffffffffffffffffffffffffffffffffffffff1681526020019081526020015f2054905092915050565b5f33905090565b6107c18383836001610bd5565b505050565b5f6107d1848461072b565b90507fffffffffffffffffffffffffffffffffffffffffffffffffffffffffffffffff8110156108535781811015610844578281836040517ffb8f41b200000000000000000000000000000000000000000000000000000000815260040161083b93929190611b77565b60405180910390fd5b61085284848484035f610bd5565b5b50505050565b5f73ffffffffffffffffffffffffffffffffffffffff168373ffffffffffffffffffffffffffffffffffffffff16036108c9575f6040517f96c6fd1e0000000000000000000000000000000000000000000000000000000081526004016108c09190611bac565b60405180910390fd5b5f73ffffffffffffffffffffffffffffffffffffffff168273ffffffffffffffffffffffffffffffffffffffff1603610939575f6040517fec442f050000000000000000000000000000000000000000000000000000000081526004016109309190611bac565b60405180910390fd5b610944838383610da4565b505050565b5f7f000000000000000000000000000000000000000000000000000000000000000073ffffffffffffffffffffffffffffffffffffffff163073ffffffffffffffffffffffffffffffffffffffff161480156109c457507f000000000000000000000000000000000000000000000000000000000000000046145b156109f1577f000000000000000000000000000000000000000000000000000000000000000090506109fc565b6109f9610fbd565b90505b90565b6060610a3560057f000000000000000000000000000000000000000000000000000000000000000061105290919063ffffffff16565b905090565b6060610a7060067f000000000000000000000000000000000000000000000000000000000000000061105290919063ffffffff16565b905090565b5f73ffffffffffffffffffffffffffffffffffffffff168273ffffffffffffffffffffffffffffffffffffffff1603610ae5575f6040517fec442f05000000000000000000000000000000000000000000000000000000008152600401610adc9190611bac565b60405180910390fd5b610af05f8383610da4565b5050565b5f60075f8373ffffffffffffffffffffffffffffffffffffffff1673ffffffffffffffffffffffffffffffffffffffff1681526020019081526020015f20549050600160075f8473ffffffffffffffffffffffffffffffffffffffff1673ffffffffffffffffffffffffffffffffffffffff1681526020019081526020015f205f828254610b829190611bf2565b92505081905550919050565b5f610ba0610b9a610949565b836110ff565b9050919050565b5f5f5f5f610bb78888888861113f565b925092509250610bc78282611226565b829350505050949350505050565b5f73ffffffffffffffffffffffffffffffffffffffff168473ffffffffffffffffffffffffffffffffffffffff1603610c45575f6040517fe602df05000000000000000000000000000000000000000000000000000000008152600401610c3c9190611bac565b60405180910390fd5b5f73ffffffffffffffffffffffffffffffffffffffff168373ffffffffffffffffffffffffffffffffffffffff1603610cb5575f6040517f94280d62000000000000000000000000000000000000000000000000000000008152600401610cac9190611bac565b60405180910390fd5b8160015f8673ffffffffffffffffffffffffffffffffffffffff1673ffffffffffffffffffffffffffffffffffffffff1681526020019081526020015f205f8573ffffffffffffffffffffffffffffffffffffffff1673ffffffffffffffffffffffffffffffffffffffff1681526020019081526020015f20819055508015610d9e578273ffffffffffffffffffffffffffffffffffffffff168473ffffffffffffffffffffffffffffffffffffffff167f8c5be1e5ebec7d5bd14f71427d1e84f3dd0314c0f7b2291e5b200ac8c7c3b92584604051610d9591906115e9565b60405180910390a35b50505050565b5f73ffffffffffffffffffffffffffffffffffffffff168373ffffffffffffffffffffffffffffffffffffffff1603610df4578060025f828254610de89190611bf2565b92505081905550610ec2565b5f5f5f8573ffffffffffffffffffffffffffffffffffffffff1673ffffffffffffffffffffffffffffffffffffffff1681526020019081526020015f2054905081811015610e7d578381836040517fe450d38c000000000000000000000000000000000000000000000000000000008152600401610e7493929190611b77565b60405180910390fd5b8181035f5f8673ffffffffffffffffffffffffffffffffffffffff1673ffffffffffffffffffffffffffffffffffffffff1681526020019081526020015f2081905550505b5f73ffffffffffffffffffffffffffffffffffffffff168273ffffffffffffffffffffffffffffffffffffffff1603610f09578060025f8282540392505081905550610f53565b805f5f8473ffffffffffffffffffffffffffffffffffffffff1673ffffffffffffffffffffffffffffffffffffffff1681526020019081526020015f205f82825401925050819055505b8173ffffffffffffffffffffffffffffffffffffffff168373ffffffffffffffffffffffffffffffffffffffff167fddf252ad1be2c89b69c2b068fc378daa952ba7f163c4a11628f55a4df523b3ef83604051610fb091906115e9565b60405180910390a3505050565b5f7f8b73c3c69bb8fe3d512ecc4cf759cc79239f7b179b0ffacaa9a75d522b39400f7f00000000000000000000000000000000000000000000000000000000000000007f00000000000000000000000000000000000000000000000000000000000000004630604051602001611037959493929190611c25565b60405160208183030381529060405280519060200120905090565b606060ff5f1b831461106e5761106783611388565b90506110f9565b81805461107a906119eb565b80601f01602080910402602001604051908101604052809291908181526020018280546110a6906119eb565b80156110f15780601f106110c8576101008083540402835291602001916110f1565b820191905f5260205f20905b8154815290600101906020018083116110d457829003601f168201915b505050505090505b92915050565b5f6040517f190100000000000000000000000000000000000000000000000000000000000081528360028201528260228201526042812091505092915050565b5f5f5f7f7fffffffffffffffffffffffffffffff5d576e7357a4501ddfe92f46681b20a0845f1c111561117b575f60038592509250925061121c565b5f6001888888886040515f815260200160405260405161119e9493929190611c76565b6020604051602081039080840390855afa1580156111be573d5f5f3e3d5ffd5b5050506020604051035190505f73ffffffffffffffffffffffffffffffffffffffff168173ffffffffffffffffffffffffffffffffffffffff160361120f575f60015f5f1b9350935093505061121c565b805f5f5f1b935093509350505b9450945094915050565b5f600381111561123957611238611cb9565b5b82600381111561124c5761124b611cb9565b5b0315611384576001600381111561126657611265611cb9565b5b82600381111561127957611278611cb9565b5b036112b0576040517ff645eedf00000000000000000000000000000000000000000000000000000000815260040160405180910390fd5b600260038111156112c4576112c3611cb9565b5b8260038111156112d7576112d6611cb9565b5b0361131b57805f1c6040517ffce698f700000000000000000000000000000000000000000000000000000000815260040161131291906115e9565b60405180910390fd5b60038081111561132e5761132d611cb9565b5b82600381111561134157611340611cb9565b5b0361138357806040517fd78bce0c00000000000000000000000000000000000000000000000000000000815260040161137a919061169e565b60405180910390fd5b5b5050565b60605f611394836113fa565b90505f602067ffffffffffffffff8111156113b2576113b1611a1b565b5b6040519080825280601f01601f1916602001820160405280156113e45781602001600182028036833780820191505090505b5090508181528360208201528092505050919050565b5f5f60ff835f1c169050601f81111561143f576040517fb3512b0c00000000000000000000000000000000000000000000000000000000815260040160405180910390fd5b80915050919050565b5f81519050919050565b5f82825260208201905092915050565b8281835e5f83830152505050565b5f601f19601f8301169050919050565b5f61148a82611448565b6114948185611452565b93506114a4818560208601611462565b6114ad81611470565b840191505092915050565b5f6020820190508181035f8301526114d08184611480565b905092915050565b5f5ffd5b5f73ffffffffffffffffffffffffffffffffffffffff82169050919050565b5f611505826114dc565b9050919050565b611515816114fb565b811461151f575f5ffd5b50565b5f813590506115308161150c565b92915050565b5f819050919050565b61154881611536565b8114611552575f5ffd5b50565b5f813590506115638161153f565b92915050565b5f5f6040838503121561157f5761157e6114d8565b5b5f61158c85828601611522565b925050602061159d85828601611555565b9150509250929050565b5f8115159050919050565b6115bb816115a7565b82525050565b5f6020820190506115d45f8301846115b2565b92915050565b6115e381611536565b82525050565b5f6020820190506115fc5f8301846115da565b92915050565b5f5f5f60608486031215611619576116186114d8565b5b5f61162686828701611522565b935050602061163786828701611522565b925050604061164886828701611555565b9150509250925092565b5f60ff82169050919050565b61166781611652565b82525050565b5f6020820190506116805f83018461165e565b92915050565b5f819050919050565b61169881611686565b82525050565b5f6020820190506116b15f83018461168f565b92915050565b5f602082840312156116cc576116cb6114d8565b5b5f6116d984828501611522565b91505092915050565b5f7fff0000000000000000000000000000000000000000000000000000000000000082169050919050565b611716816116e2565b82525050565b611725816114fb565b82525050565b5f81519050919050565b5f82825260208201905092915050565b5f819050602082019050919050565b61175d81611536565b82525050565b5f61176e8383611754565b60208301905092915050565b5f602082019050919050565b5f6117908261172b565b61179a8185611735565b93506117a583611745565b805f5b838110156117d55781516117bc8882611763565b97506117c78361177a565b9250506001810190506117a8565b5085935050505092915050565b5f60e0820190506117f55f83018a61170d565b81810360208301526118078189611480565b9050818103604083015261181b8188611480565b905061182a60608301876115da565b611837608083018661171c565b61184460a083018561168f565b81810360c08301526118568184611786565b905098975050505050505050565b5f60208284031215611879576118786114d8565b5b5f61188684828501611555565b91505092915050565b61189881611652565b81146118a2575f5ffd5b50565b5f813590506118b38161188f565b92915050565b6118c281611686565b81146118cc575f5ffd5b50565b5f813590506118dd816118b9565b92915050565b5f5f5f5f5f5f5f60e0888a0312156118fe576118fd6114d8565b5b5f61190b8a828b01611522565b975050602061191c8a828b01611522565b965050604061192d8a828b01611555565b955050606061193e8a828b01611555565b945050608061194f8a828b016118a5565b93505060a06119608a828b016118cf565b92505060c06119718a828b016118cf565b91505092959891949750929550565b5f5f60408385031215611996576119956114d8565b5b5f6119a385828601611522565b92505060206119b485828601611522565b9150509250929050565b7f4e487b71000000000000000000000000000000000000000000000000000000005f52602260045260245ffd5b5f6002820490506001821680611a0257607f821691505b602082108103611a1557611a146119be565b5b50919050565b7f4e487b71000000000000000000000000000000000000000000000000000000005f52604160045260245ffd5b7f45524332305065726d69743a206578706972656420646561646c696e650000005f82015250565b5f611a7c601d83611452565b9150611a8782611a48565b602082019050919050565b5f6020820190508181035f830152611aa981611a70565b9050919050565b5f60c082019050611ac35f83018961168f565b611ad0602083018861171c565b611add604083018761171c565b611aea60608301866115da565b611af760808301856115da565b611b0460a08301846115da565b979650505050505050565b7f45524332305065726d69743a20696e76616c6964207369676e617475726500005f82015250565b5f611b43601e83611452565b9150611b4e82611b0f565b602082019050919050565b5f6020820190508181035f830152611b7081611b37565b9050919050565b5f606082019050611b8a5f83018661171c565b611b9760208301856115da565b611ba460408301846115da565b949350505050565b5f602082019050611bbf5f83018461171c565b92915050565b7f4e487b71000000000000000000000000000000000000000000000000000000005f52601160045260245ffd5b5f611bfc82611536565b9150611c0783611536565b9250828201905080821115611c1f57611c1e611bc5565b5b92915050565b5f60a082019050611c385f83018861168f565b611c45602083018761168f565b611c52604083018661168f565b611c5f60608301856115da565b611c6c608083018461171c565b9695505050505050565b5f608082019050611c895f83018761168f565b611c96602083018661165e565b611ca3604083018561168f565b611cb0606083018461168f565b95945050505050565b7f4e487b71000000000000000000000000000000000000000000000000000000005f52602160045260245ffdfea264697066735822122035be5e114192c70d04db0a69786bde45c880a417193c438659b36f9b5f06ec9564736f6c63430008220033","linkReferences":{}},"methodIdentifiers":{"DOMAIN_SEPARATOR()":"3644e515","allowance(address,address)":"dd62ed3e","approve(address,uint256)":"095ea7b3","balanceOf(address)":"70a08231","decimals()":"313ce567","eip712Domain()":"84b0196e","mint(uint256)":"a0712d68","name()":"06fdde03","nonces(address)":"7ecebe00","permit(address,address,uint256,uint256,uint8,bytes32,bytes32)":"d505accf","symbol()":"95d89b41","totalSupply()":"18160ddd","transfer(address,uint256)":"a9059cbb","transferFrom(address,address,uint256)":"23b872dd"},"id":108}