{"abi":[{"type":"function","name":"idToAddress","inputs":[{"name":"","type":"uint256","internalType":"uint256"}],"outputs":[{"name":"","type":"address","internalType":"address"}],"stateMutability":"view"},{"type":"function","name":"swapPair","inputs":[{"name":"","type":"address","internalType":"address"}],"outputs":[{"name":"","type":"address","internalType":"address"}],"stateMutability":"view"},{"type":"function","name":"writeMap","inputs":[{"name":"_Key","type":"uint256","internalType":"uint256"},{"name":"_Value","type":"address","internalType":"address"}],"outputs":[],"stateMutability":"nonpayable"}],"bytecode":{"object":"0x6080604052348015600e575f5ffd5b506102f38061001c5f395ff3fe608060405234801561000f575f5ffd5b506004361061003f575f3560e01c8063072721601461004357806314605b4a1461005f5780632a2d0c471461008f575b5f5ffd5b61005d60048036038101906100589190610201565b6100bf565b005b6100796004803603810190610074919061023f565b610111565b6040516100869190610279565b60405180910390f35b6100a960048036038101906100a49190610292565b610141565b6040516100b69190610279565b60405180910390f35b805f5f8481526020019081526020015f205f6101000a81548173ffffffffffffffffffffffffffffffffffffffff021916908373ffffffffffffffffffffffffffffffffffffffff1602179055505050565b6001602052805f5260405f205f915054906101000a900473ffffffffffffffffffffffffffffffffffffffff1681565b5f602052805f5260405f205f915054906101000a900473ffffffffffffffffffffffffffffffffffffffff1681565b5f5ffd5b5f819050919050565b61018681610174565b8114610190575f5ffd5b50565b5f813590506101a18161017d565b92915050565b5f73ffffffffffffffffffffffffffffffffffffffff82169050919050565b5f6101d0826101a7565b9050919050565b6101e0816101c6565b81146101ea575f5ffd5b50565b5f813590506101fb816101d7565b92915050565b5f5f6040838503121561021757610216610170565b5b5f61022485828601610193565b9250506020610235858286016101ed565b9150509250929050565b5f6020828403121561025457610253610170565b5b5f610261848285016101ed565b91505092915050565b610273816101c6565b82525050565b5f60208201905061028c5f83018461026a565b92915050565b5f602082840312156102a7576102a6610170565b5b5f6102b484828501610193565b9150509291505056fea2646970667358221220781c3636d911823e3ef4e094c4c96107e5bf17581c28d22d10ec4ff4b4d74c1464736f6c63430008220033","linkReferences":{}},"methodIdentifiers":{"idToAddress(uint256)":"2a2d0c47","swapPair(address)":"14605b4a","writeMap(uint256,address)":"07272160"},"id":50}