{"abi":[{"type":"function","name":"balance","inputs":[],"outputs":[{"name":"","type":"uint256","internalType":"uint256"}],"stateMutability":"view"},{"type":"function","name":"balanceOf","inputs":[{"name":"","type":"address","internalType":"address"}],"outputs":[{"name":"","type":"uint256","internalType":"uint256"}],"stateMutability":"view"},{"type":"function","name":"deposit","inputs":[],"outputs":[],"stateMutability":"payable"},{"type":"function","name":"players","inputs":[{"name":"","type":"uint256","internalType":"uint256"}],"outputs":[{"name":"","type":"address","internalType":"address"}],"stateMutability":"view"},{"type":"function","name":"refund","inputs":[],"outputs":[],"stateMutability":"nonpayable"},{"type":"function","name":"refundFinished","inputs":[],"outputs":[{"name":"","type":"bool","internalType":"bool"}],"stateMutability":"view"}],"bytecode":{"object":"0x6080604052348015600e575f5ffd5b5061082e8061001c5f395ff3fe608060405260043610610054575f3560e01c8063590e1ae31461005857806370a082311461006e57806373e1dd14146100aa578063b69ef8a8146100d4578063d0e30db0146100fe578063f71d96cb14610108575b5f5ffd5b348015610063575f5ffd5b5061006c610144565b005b348015610079575f5ffd5b50610094600480360381019061008f9190610536565b61033c565b6040516100a19190610579565b60405180910390f35b3480156100b5575f5ffd5b506100be610351565b6040516100cb91906105ac565b60405180910390f35b3480156100df575f5ffd5b506100e8610362565b6040516100f59190610579565b60405180910390f35b610106610369565b005b348015610113575f5ffd5b5061012e600480360381019061012991906105ef565b61049d565b60405161013b9190610629565b60405180910390f35b5f5f9054906101000a900460ff1615610192576040517f08c379a00000000000000000000000000000000000000000000000000000000081526004016101899061069c565b60405180910390fd5b5f60028054905090505f5b8181101561031f575f600282815481106101ba576101b96106ba565b5b905f5260205f20015f9054906101000a900473ffffffffffffffffffffffffffffffffffffffff1690505f60015f8373ffffffffffffffffffffffffffffffffffffffff1673ffffffffffffffffffffffffffffffffffffffff1681526020019081526020015f205490505f8273ffffffffffffffffffffffffffffffffffffffff168260405161024a90610714565b5f6040518083038185875af1925050503d805f8114610284576040519150601f19603f3d011682016040523d82523d5f602084013e610289565b606091505b50509050806102cd576040517f08c379a00000000000000000000000000000000000000000000000000000000081526004016102c490610772565b60405180910390fd5b5f60015f8573ffffffffffffffffffffffffffffffffffffffff1673ffffffffffffffffffffffffffffffffffffffff1681526020019081526020015f2081905550505050808060010191505061019d565b5060015f5f6101000a81548160ff02191690831515021790555050565b6001602052805f5260405f205f915090505481565b5f5f9054906101000a900460ff1681565b5f47905090565b5f5f9054906101000a900460ff16156103b7576040517f08c379a00000000000000000000000000000000000000000000000000000000081526004016103ae9061069c565b60405180910390fd5b5f34116103f9576040517f08c379a00000000000000000000000000000000000000000000000000000000081526004016103f0906107da565b60405180910390fd5b3460015f3373ffffffffffffffffffffffffffffffffffffffff1673ffffffffffffffffffffffffffffffffffffffff1681526020019081526020015f2081905550600233908060018154018082558091505060019003905f5260205f20015f9091909190916101000a81548173ffffffffffffffffffffffffffffffffffffffff021916908373ffffffffffffffffffffffffffffffffffffffff160217905550565b600281815481106104ac575f80fd5b905f5260205f20015f915054906101000a900473ffffffffffffffffffffffffffffffffffffffff1681565b5f5ffd5b5f73ffffffffffffffffffffffffffffffffffffffff82169050919050565b5f610505826104dc565b9050919050565b610515816104fb565b811461051f575f5ffd5b50565b5f813590506105308161050c565b92915050565b5f6020828403121561054b5761054a6104d8565b5b5f61055884828501610522565b91505092915050565b5f819050919050565b61057381610561565b82525050565b5f60208201905061058c5f83018461056a565b92915050565b5f8115159050919050565b6105a681610592565b82525050565b5f6020820190506105bf5f83018461059d565b92915050565b6105ce81610561565b81146105d8575f5ffd5b50565b5f813590506105e9816105c5565b92915050565b5f60208284031215610604576106036104d8565b5b5f610611848285016105db565b91505092915050565b610623816104fb565b82525050565b5f60208201905061063c5f83018461061a565b92915050565b5f82825260208201905092915050565b7f47616d65204f76657200000000000000000000000000000000000000000000005f82015250565b5f610686600983610642565b915061069182610652565b602082019050919050565b5f6020820190508181035f8301526106b38161067a565b9050919050565b7f4e487b71000000000000000000000000000000000000000000000000000000005f52603260045260245ffd5b5f81905092915050565b50565b5f6106ff5f836106e7565b915061070a826106f1565b5f82019050919050565b5f61071e826106f4565b9150819050919050565b7f526566756e64204661696c2100000000000000000000000000000000000000005f82015250565b5f61075c600c83610642565b915061076782610728565b602082019050919050565b5f6020820190508181035f83015261078981610750565b9050919050565b7f506c6561736520646f6e617465204554480000000000000000000000000000005f82015250565b5f6107c4601183610642565b91506107cf82610790565b602082019050919050565b5f6020820190508181035f8301526107f1816107b8565b905091905056fea264697066735822122068ac97fbde680a6e351de51467bcb13591efa2407b60acc9a155551d6437623064736f6c63430008220033","linkReferences":{}},"methodIdentifiers":{"balance()":"b69ef8a8","balanceOf(address)":"70a08231","deposit()":"d0e30db0","players(uint256)":"f71d96cb","refund()":"590e1ae3","refundFinished()":"73e1dd14"},"id":129}