{"abi":[{"type":"constructor","inputs":[],"stateMutability":"payable"},{"type":"receive","stateMutability":"payable"},{"type":"function","name":"deleteContract","inputs":[],"outputs":[],"stateMutability":"nonpayable"},{"type":"function","name":"getBalance","inputs":[],"outputs":[{"name":"balance","type":"uint256","internalType":"uint256"}],"stateMutability":"view"},{"type":"function","name":"value","inputs":[],"outputs":[{"name":"","type":"uint256","internalType":"uint256"}],"stateMutability":"view"}],"bytecode":{"object":"0x6080604052600a5f55610121806100155f395ff3fe6080604052600436106032575f3560e01c806312065fe014603c5780633fa4f2451460615780635a58cd4c146086576038565b36603857005b5f5ffd5b3480156046575f5ffd5b50604d6099565b6040516058919060d4565b60405180910390f35b348015606b575f5ffd5b50607260a0565b604051607d919060d4565b60405180910390f35b3480156090575f5ffd5b50609760a5565b005b5f47905090565b5f5481565b3373ffffffffffffffffffffffffffffffffffffffff16ff5b5f819050919050565b60ce8160be565b82525050565b5f60208201905060e55f83018460c7565b9291505056fea2646970667358221220248e1c402a964bf3d82f85931fb4ed9602fbfcfeeedce6c1fe08c510795476d264736f6c63430008220033","linkReferences":{}},"methodIdentifiers":{"deleteContract()":"5a58cd4c","getBalance()":"12065fe0","value()":"3fa4f245"},"id":66}