{"abi":[{"type":"constructor","inputs":[],"stateMutability":"nonpayable"},{"type":"function","name":"allowance","inputs":[{"name":"owner","type":"address","internalType":"address"},{"name":"spender","type":"address","internalType":"address"}],"outputs":[{"name":"","type":"uint256","internalType":"uint256"}],"stateMutability":"view"},{"type":"function","name":"approve","inputs":[{"name":"spender","type":"address","internalType":"address"},{"name":"value","type":"uint256","internalType":"uint256"}],"outputs":[{"name":"","type":"bool","internalType":"bool"}],"stateMutability":"nonpayable"},{"type":"function","name":"badMint","inputs":[{"name":"to","type":"address","internalType":"address"},{"name":"amount","type":"uint256","internalType":"uint256"},{"name":"signature","type":"bytes","internalType":"bytes"}],"outputs":[],"stateMutability":"nonpayable"},{"type":"function","name":"balanceOf","inputs":[{"name":"account","type":"address","internalType":"address"}],"outputs":[{"name":"","type":"uint256","internalType":"uint256"}],"stateMutability":"view"},{"type":"function","name":"decimals","inputs":[],"outputs":[{"name":"","type":"uint8","internalType":"uint8"}],"stateMutability":"view"},{"type":"function","name":"getMessageHash","inputs":[{"name":"to","type":"address","internalType":"address"},{"name":"amount","type":"uint256","internalType":"uint256"}],"outputs":[{"name":"","type":"bytes32","internalType":"bytes32"}],"stateMutability":"pure"},{"type":"function","name":"goodMint","inputs":[{"name":"to","type":"address","internalType":"address"},{"name":"amount","type":"uint256","internalType":"uint256"},{"name":"signature","type":"bytes","internalType":"bytes"}],"outputs":[],"stateMutability":"nonpayable"},{"type":"function","name":"mintedAddress","inputs":[{"name":"","type":"address","internalType":"address"}],"outputs":[{"name":"","type":"bool","internalType":"bool"}],"stateMutability":"view"},{"type":"function","name":"name","inputs":[],"outputs":[{"name":"","type":"string","internalType":"string"}],"stateMutability":"view"},{"type":"function","name":"nonceMint","inputs":[{"name":"to","type":"address","internalType":"address"},{"name":"amount","type":"uint256","internalType":"uint256"},{"name":"signature","type":"bytes","internalType":"bytes"}],"outputs":[],"stateMutability":"nonpayable"},{"type":"function","name":"signer","inputs":[],"outputs":[{"name":"","type":"address","internalType":"address"}],"stateMutability":"view"},{"type":"function","name":"symbol","inputs":[],"outputs":[{"name":"","type":"string","internalType":"string"}],"stateMutability":"view"},{"type":"function","name":"toEthSignedMessageHash","inputs":[{"name":"hash","type":"bytes32","internalType":"bytes32"}],"outputs":[{"name":"","type":"bytes32","internalType":"bytes32"}],"stateMutability":"pure"},{"type":"function","name":"totalSupply","inputs":[],"outputs":[{"name":"","type":"uint256","internalType":"uint256"}],"stateMutability":"view"},{"type":"function","name":"transfer","inputs":[{"name":"to","type":"address","internalType":"address"},{"name":"value","type":"uint256","internalType":"uint256"}],"outputs":[{"name":"","type":"bool","internalType":"bool"}],"stateMutability":"nonpayable"},{"type":"function","name":"transferFrom","inputs":[{"name":"from","type":"address","internalType":"address"},{"name":"to","type":"address","internalType":"address"},{"name":"value","type":"uint256","internalType":"uint256"}],"outputs":[{"name":"","type":"bool","internalType":"bool"}],"stateMutability":"nonpayable"},{"type":"function","name":"verify","inputs":[{"name":"_msgHash","type":"bytes32","internalType":"bytes32"},{"name":"_signature","type":"bytes","internalType":"bytes"}],"outputs":[{"name":"","type":"bool","internalType":"bool"}],"stateMutability":"view"},{"type":"event","name":"Approval","inputs":[{"name":"owner","type":"address","indexed":true,"internalType":"address"},{"name":"spender","type":"address","indexed":true,"internalType":"address"},{"name":"value","type":"uint256","indexed":false,"internalType":"uint256"}],"anonymous":false},{"type":"event","name":"Transfer","inputs":[{"name":"from","type":"address","indexed":true,"internalType":"address"},{"name":"to","type":"address","indexed":true,"internalType":"address"},{"name":"value","type":"uint256","indexed":false,"internalType":"uint256"}],"anonymous":false},{"type":"error","name":"ECDSAInvalidSignature","inputs":[]},{"type":"error","name":"ECDSAInvalidSignatureLength","inputs":[{"name":"length","type":"uint256","internalType":"uint256"}]},{"type":"error","name":"ECDSAInvalidSignatureS","inputs":[{"name":"s","type":"bytes32","internalType":"bytes32"}]},{"type":"error","name":"ERC20InsufficientAllowance","inputs":[{"name":"spender","type":"address","internalType":"address"},{"name":"allowance","type":"uint256","internalType":"uint256"},{"name":"needed","type":"uint256","internalType":"uint256"}]},{"type":"error","name":"ERC20InsufficientBalance","inputs":[{"name":"sender","type":"address","internalType":"address"},{"name":"balance","type":"uint256","internalType":"uint256"},{"name":"needed","type":"uint256","internalType":"uint256"}]},{"type":"error","name":"ERC20InvalidApprover","inputs":[{"name":"approver","type":"address","internalType":"address"}]},{"type":"error","name":"ERC20InvalidReceiver","inputs":[{"name":"receiver","type":"address","internalType":"address"}]},{"type":"error","name":"ERC20InvalidSender","inputs":[{"name":"sender","type":"address","internalType":"address"}]},{"type":"error","name":"ERC20InvalidSpender","inputs":[{"name":"spender","type":"address","internalType":"address"}]}],"bytecode":{"object":"0x608060405234801561000f575f5ffd5b506040518060400160405280600981526020017f5369675265706c617900000000000000000000000000000000000000000000008152506040518060400160405280600681526020017f5265706c61790000000000000000000000000000000000000000000000000000815250816003908161008b9190610331565b50806004908161009b9190610331565b5050503360055f6101000a81548173ffffffffffffffffffffffffffffffffffffffff021916908373ffffffffffffffffffffffffffffffffffffffff160217905550610400565b5f81519050919050565b7f4e487b71000000000000000000000000000000000000000000000000000000005f52604160045260245ffd5b7f4e487b71000000000000000000000000000000000000000000000000000000005f52602260045260245ffd5b5f600282049050600182168061015e57607f821691505b6020821081036101715761017061011a565b5b50919050565b5f819050815f5260205f209050919050565b5f6020601f8301049050919050565b5f82821b905092915050565b5f600883026101d37fffffffffffffffffffffffffffffffffffffffffffffffffffffffffffffffff82610198565b6101dd8683610198565b95508019841693508086168417925050509392505050565b5f819050919050565b5f819050919050565b5f61022161021c610217846101f5565b6101fe565b6101f5565b9050919050565b5f819050919050565b61023a83610207565b61024e61024682610228565b8484546101a4565b825550505050565b5f5f905090565b610265610256565b610270818484610231565b505050565b5f5b828110156102965761028b5f82840161025d565b600181019050610277565b505050565b601f8211156102e957828211156102e8576102b581610177565b6102be83610189565b6102c785610189565b60208610156102d4575f90505b8083016102e382840382610275565b505050505b5b505050565b5f82821c905092915050565b5f6103095f19846008026102ee565b1980831691505092915050565b5f61032183836102fa565b9150826002028217905092915050565b61033a826100e3565b67ffffffffffffffff811115610353576103526100ed565b5b61035d8254610147565b61036882828561029b565b5f60209050601f831160018114610399575f8415610387578287015190505b6103918582610316565b8655506103f8565b601f1984166103a786610177565b5f5b828110156103ce578489015182556001820191506020850194506020810190506103a9565b868310156103eb57848901516103e7601f8916826102fa565b8355505b6001600288020188555050505b505050505050565b611bbe8061040d5f395ff3fe608060405234801561000f575f5ffd5b5060043610610108575f3560e01c8063512c91df116100a0578063918a15cf1161006f578063918a15cf146102dc57806395d89b411461030c578063a9059cbb1461032a578063dd62ed3e1461035a578063f9c7cb751461038a57610108565b8063512c91df14610230578063630303c61461026057806370a08231146102905780637ce19002146102c057610108565b8063238ac933116100dc578063238ac9331461019457806323b872dd146101b2578063258ae582146101e2578063313ce5671461021257610108565b80623920731461010c57806306fdde0314610128578063095ea7b31461014657806318160ddd14610176575b5f5ffd5b6101266004803603810190610121919061141f565b6103a6565b005b6101306104f3565b60405161013d91906114eb565b60405180910390f35b610160600480360381019061015b919061150b565b610583565b60405161016d9190611563565b60405180910390f35b61017e6105a5565b60405161018b919061158b565b60405180910390f35b61019c6105ae565b6040516101a991906115b3565b60405180910390f35b6101cc60048036038101906101c791906115cc565b6105d3565b6040516101d99190611563565b60405180910390f35b6101fc60048036038101906101f7919061164f565b610601565b6040516102099190611563565b60405180910390f35b61021a610663565b60405161022791906116c4565b60405180910390f35b61024a6004803603810190610245919061150b565b61066b565b60405161025791906116ec565b60405180910390f35b61027a60048036038101906102759190611705565b61069d565b6040516102879190611563565b60405180910390f35b6102aa60048036038101906102a59190611705565b6106ba565b6040516102b7919061158b565b60405180910390f35b6102da60048036038101906102d5919061141f565b6106ff565b005b6102f660048036038101906102f19190611730565b6107a9565b60405161030391906116ec565b60405180910390f35b6103146107d8565b60405161032191906114eb565b60405180910390f35b610344600480360381019061033f919061150b565b610868565b6040516103519190611563565b60405180910390f35b610374600480360381019061036f919061175b565b61088a565b604051610381919061158b565b60405180910390f35b6103a4600480360381019061039f919061141f565b61090c565b005b5f6103b96103b4858561066b565b6107a9565b90506103c58183610601565b610404576040517f08c379a00000000000000000000000000000000000000000000000000000000081526004016103fb906117e3565b60405180910390fd5b60065f8573ffffffffffffffffffffffffffffffffffffffff1673ffffffffffffffffffffffffffffffffffffffff1681526020019081526020015f205f9054906101000a900460ff161561048e576040517f08c379a00000000000000000000000000000000000000000000000000000000081526004016104859061184b565b60405180910390fd5b600160065f8673ffffffffffffffffffffffffffffffffffffffff1673ffffffffffffffffffffffffffffffffffffffff1681526020019081526020015f205f6101000a81548160ff0219169083151502179055506104ed848461097a565b50505050565b60606003805461050290611896565b80601f016020809104026020016040519081016040528092919081815260200182805461052e90611896565b80156105795780601f1061055057610100808354040283529160200191610579565b820191905f5260205f20905b81548152906001019060200180831161055c57829003601f168201915b5050505050905090565b5f5f61058d6109f9565b905061059a818585610a00565b600191505092915050565b5f600254905090565b60055f9054906101000a900473ffffffffffffffffffffffffffffffffffffffff1681565b5f5f6105dd6109f9565b90506105ea858285610a12565b6105f5858585610aa5565b60019150509392505050565b5f60055f9054906101000a900473ffffffffffffffffffffffffffffffffffffffff1673ffffffffffffffffffffffffffffffffffffffff166106448484610b95565b73ffffffffffffffffffffffffffffffffffffffff1614905092915050565b5f6012905090565b5f828260405160200161067f92919061192b565b60405160208183030381529060405280519060200120905092915050565b6006602052805f5260405f205f915054906101000a900460ff1681565b5f5f5f8373ffffffffffffffffffffffffffffffffffffffff1673ffffffffffffffffffffffffffffffffffffffff1681526020019081526020015f20549050919050565b5f61073784846007544660405160200161071c9493929190611956565b604051602081830303815290604052805190602001206107a9565b90506107438183610601565b610782576040517f08c379a0000000000000000000000000000000000000000000000000000000008152600401610779906117e3565b60405180910390fd5b61078c848461097a565b60075f81548092919061079e906119d0565b919050555050505050565b5f816040516020016107bb9190611a8b565b604051602081830303815290604052805190602001209050919050565b6060600480546107e790611896565b80601f016020809104026020016040519081016040528092919081815260200182805461081390611896565b801561085e5780601f106108355761010080835404028352916020019161085e565b820191905f5260205f20905b81548152906001019060200180831161084157829003601f168201915b5050505050905090565b5f5f6108726109f9565b905061087f818585610aa5565b600191505092915050565b5f60015f8473ffffffffffffffffffffffffffffffffffffffff1673ffffffffffffffffffffffffffffffffffffffff1681526020019081526020015f205f8373ffffffffffffffffffffffffffffffffffffffff1673ffffffffffffffffffffffffffffffffffffffff1681526020019081526020015f2054905092915050565b5f61091f61091a858561066b565b6107a9565b905061092b8183610601565b61096a576040517f08c379a0000000000000000000000000000000000000000000000000000000008152600401610961906117e3565b60405180910390fd5b610974848461097a565b50505050565b5f73ffffffffffffffffffffffffffffffffffffffff168273ffffffffffffffffffffffffffffffffffffffff16036109ea575f6040517fec442f050000000000000000000000000000000000000000000000000000000081526004016109e191906115b3565b60405180910390fd5b6109f55f8383610bbf565b5050565b5f33905090565b610a0d8383836001610dd8565b505050565b5f610a1d848461088a565b90507fffffffffffffffffffffffffffffffffffffffffffffffffffffffffffffffff811015610a9f5781811015610a90578281836040517ffb8f41b2000000000000000000000000000000000000000000000000000000008152600401610a8793929190611ab0565b60405180910390fd5b610a9e84848484035f610dd8565b5b50505050565b5f73ffffffffffffffffffffffffffffffffffffffff168373ffffffffffffffffffffffffffffffffffffffff1603610b15575f6040517f96c6fd1e000000000000000000000000000000000000000000000000000000008152600401610b0c91906115b3565b60405180910390fd5b5f73ffffffffffffffffffffffffffffffffffffffff168273ffffffffffffffffffffffffffffffffffffffff1603610b85575f6040517fec442f05000000000000000000000000000000000000000000000000000000008152600401610b7c91906115b3565b60405180910390fd5b610b90838383610bbf565b505050565b5f5f5f5f610ba38686610fa7565b925092509250610bb38282610ffc565b82935050505092915050565b5f73ffffffffffffffffffffffffffffffffffffffff168373ffffffffffffffffffffffffffffffffffffffff1603610c0f578060025f828254610c039190611ae5565b92505081905550610cdd565b5f5f5f8573ffffffffffffffffffffffffffffffffffffffff1673ffffffffffffffffffffffffffffffffffffffff1681526020019081526020015f2054905081811015610c98578381836040517fe450d38c000000000000000000000000000000000000000000000000000000008152600401610c8f93929190611ab0565b60405180910390fd5b8181035f5f8673ffffffffffffffffffffffffffffffffffffffff1673ffffffffffffffffffffffffffffffffffffffff1681526020019081526020015f2081905550505b5f73ffffffffffffffffffffffffffffffffffffffff168273ffffffffffffffffffffffffffffffffffffffff1603610d24578060025f8282540392505081905550610d6e565b805f5f8473ffffffffffffffffffffffffffffffffffffffff1673ffffffffffffffffffffffffffffffffffffffff1681526020019081526020015f205f82825401925050819055505b8173ffffffffffffffffffffffffffffffffffffffff168373ffffffffffffffffffffffffffffffffffffffff167fddf252ad1be2c89b69c2b068fc378daa952ba7f163c4a11628f55a4df523b3ef83604051610dcb919061158b565b60405180910390a3505050565b5f73ffffffffffffffffffffffffffffffffffffffff168473ffffffffffffffffffffffffffffffffffffffff1603610e48575f6040517fe602df05000000000000000000000000000000000000000000000000000000008152600401610e3f91906115b3565b60405180910390fd5b5f73ffffffffffffffffffffffffffffffffffffffff168373ffffffffffffffffffffffffffffffffffffffff1603610eb8575f6040517f94280d62000000000000000000000000000000000000000000000000000000008152600401610eaf91906115b3565b60405180910390fd5b8160015f8673ffffffffffffffffffffffffffffffffffffffff1673ffffffffffffffffffffffffffffffffffffffff1681526020019081526020015f205f8573ffffffffffffffffffffffffffffffffffffffff1673ffffffffffffffffffffffffffffffffffffffff1681526020019081526020015f20819055508015610fa1578273ffffffffffffffffffffffffffffffffffffffff168473ffffffffffffffffffffffffffffffffffffffff167f8c5be1e5ebec7d5bd14f71427d1e84f3dd0314c0f7b2291e5b200ac8c7c3b92584604051610f98919061158b565b60405180910390a35b50505050565b5f5f5f6041845103610fe7575f5f5f602087015192506040870151915060608701515f1a9050610fd98882858561115e565b955095509550505050610ff5565b5f600285515f1b9250925092505b9250925092565b5f600381111561100f5761100e611b18565b5b82600381111561102257611021611b18565b5b031561115a576001600381111561103c5761103b611b18565b5b82600381111561104f5761104e611b18565b5b03611086576040517ff645eedf00000000000000000000000000000000000000000000000000000000815260040160405180910390fd5b6002600381111561109a57611099611b18565b5b8260038111156110ad576110ac611b18565b5b036110f157805f1c6040517ffce698f70000000000000000000000000000000000000000000000000000000081526004016110e8919061158b565b60405180910390fd5b60038081111561110457611103611b18565b5b82600381111561111757611116611b18565b5b0361115957806040517fd78bce0c00000000000000000000000000000000000000000000000000000000815260040161115091906116ec565b60405180910390fd5b5b5050565b5f5f5f7f7fffffffffffffffffffffffffffffff5d576e7357a4501ddfe92f46681b20a0845f1c111561119a575f60038592509250925061123b565b5f6001888888886040515f81526020016040526040516111bd9493929190611b45565b6020604051602081039080840390855afa1580156111dd573d5f5f3e3d5ffd5b5050506020604051035190505f73ffffffffffffffffffffffffffffffffffffffff168173ffffffffffffffffffffffffffffffffffffffff160361122e575f60015f5f1b9350935093505061123b565b805f5f5f1b935093509350505b9450945094915050565b5f604051905090565b5f5ffd5b5f5ffd5b5f73ffffffffffffffffffffffffffffffffffffffff82169050919050565b5f61127f82611256565b9050919050565b61128f81611275565b8114611299575f5ffd5b50565b5f813590506112aa81611286565b92915050565b5f819050919050565b6112c2816112b0565b81146112cc575f5ffd5b50565b5f813590506112dd816112b9565b92915050565b5f5ffd5b5f5ffd5b5f601f19601f8301169050919050565b7f4e487b71000000000000000000000000000000000000000000000000000000005f52604160045260245ffd5b611331826112eb565b810181811067ffffffffffffffff821117156113505761134f6112fb565b5b80604052505050565b5f611362611245565b905061136e8282611328565b919050565b5f67ffffffffffffffff82111561138d5761138c6112fb565b5b611396826112eb565b9050602081019050919050565b828183375f83830152505050565b5f6113c36113be84611373565b611359565b9050828152602081018484840111156113df576113de6112e7565b5b6113ea8482856113a3565b509392505050565b5f82601f830112611406576114056112e3565b5b81356114168482602086016113b1565b91505092915050565b5f5f5f606084860312156114365761143561124e565b5b5f6114438682870161129c565b9350506020611454868287016112cf565b925050604084013567ffffffffffffffff81111561147557611474611252565b5b611481868287016113f2565b9150509250925092565b5f81519050919050565b5f82825260208201905092915050565b8281835e5f83830152505050565b5f6114bd8261148b565b6114c78185611495565b93506114d78185602086016114a5565b6114e0816112eb565b840191505092915050565b5f6020820190508181035f83015261150381846114b3565b905092915050565b5f5f604083850312156115215761152061124e565b5b5f61152e8582860161129c565b925050602061153f858286016112cf565b9150509250929050565b5f8115159050919050565b61155d81611549565b82525050565b5f6020820190506115765f830184611554565b92915050565b611585816112b0565b82525050565b5f60208201905061159e5f83018461157c565b92915050565b6115ad81611275565b82525050565b5f6020820190506115c65f8301846115a4565b92915050565b5f5f5f606084860312156115e3576115e261124e565b5b5f6115f08682870161129c565b93505060206116018682870161129c565b9250506040611612868287016112cf565b9150509250925092565b5f819050919050565b61162e8161161c565b8114611638575f5ffd5b50565b5f8135905061164981611625565b92915050565b5f5f604083850312156116655761166461124e565b5b5f6116728582860161163b565b925050602083013567ffffffffffffffff81111561169357611692611252565b5b61169f858286016113f2565b9150509250929050565b5f60ff82169050919050565b6116be816116a9565b82525050565b5f6020820190506116d75f8301846116b5565b92915050565b6116e68161161c565b82525050565b5f6020820190506116ff5f8301846116dd565b92915050565b5f6020828403121561171a5761171961124e565b5b5f6117278482850161129c565b91505092915050565b5f602082840312156117455761174461124e565b5b5f6117528482850161163b565b91505092915050565b5f5f604083850312156117715761177061124e565b5b5f61177e8582860161129c565b925050602061178f8582860161129c565b9150509250929050565b7f496e76616c6964205369676e65722100000000000000000000000000000000005f82015250565b5f6117cd600f83611495565b91506117d882611799565b602082019050919050565b5f6020820190508181035f8301526117fa816117c1565b9050919050565b7f416c7265616479206d696e7465640000000000000000000000000000000000005f82015250565b5f611835600e83611495565b915061184082611801565b602082019050919050565b5f6020820190508181035f83015261186281611829565b9050919050565b7f4e487b71000000000000000000000000000000000000000000000000000000005f52602260045260245ffd5b5f60028204905060018216806118ad57607f821691505b6020821081036118c0576118bf611869565b5b50919050565b5f8160601b9050919050565b5f6118dc826118c6565b9050919050565b5f6118ed826118d2565b9050919050565b61190561190082611275565b6118e3565b82525050565b5f819050919050565b611925611920826112b0565b61190b565b82525050565b5f61193682856118f4565b6014820191506119468284611914565b6020820191508190509392505050565b5f61196182876118f4565b6014820191506119718286611914565b6020820191506119818285611914565b6020820191506119918284611914565b60208201915081905095945050505050565b7f4e487b71000000000000000000000000000000000000000000000000000000005f52601160045260245ffd5b5f6119da826112b0565b91507fffffffffffffffffffffffffffffffffffffffffffffffffffffffffffffffff8203611a0c57611a0b6119a3565b5b600182019050919050565b5f81905092915050565b7f19457468657265756d205369676e6564204d6573736167653a0a3332000000005f82015250565b5f611a55601c83611a17565b9150611a6082611a21565b601c82019050919050565b5f819050919050565b611a85611a808261161c565b611a6b565b82525050565b5f611a9582611a49565b9150611aa18284611a74565b60208201915081905092915050565b5f606082019050611ac35f8301866115a4565b611ad0602083018561157c565b611add604083018461157c565b949350505050565b5f611aef826112b0565b9150611afa836112b0565b9250828201905080821115611b1257611b116119a3565b5b92915050565b7f4e487b71000000000000000000000000000000000000000000000000000000005f52602160045260245ffd5b5f608082019050611b585f8301876116dd565b611b6560208301866116b5565b611b7260408301856116dd565b611b7f60608301846116dd565b9594505050505056fea26469706673582212201b8a94a13a37e711f335cbc8fde3483148deafcddb6e73435b71baf47a7ac10464736f6c63430008220033","linkReferences":{}},"methodIdentifiers":{"allowance(address,address)":"dd62ed3e","approve(address,uint256)":"095ea7b3","badMint(address,uint256,bytes)":"f9c7cb75","balanceOf(address)":"70a08231","decimals()":"313ce567","getMessageHash(address,uint256)":"512c91df","goodMint(address,uint256,bytes)":"00392073","mintedAddress(address)":"630303c6","name()":"06fdde03","nonceMint(address,uint256,bytes)":"7ce19002","signer()":"238ac933","symbol()":"95d89b41","toEthSignedMessageHash(bytes32)":"918a15cf","totalSupply()":"18160ddd","transfer(address,uint256)":"a9059cbb","transferFrom(address,address,uint256)":"23b872dd","verify(bytes32,bytes)":"258ae582"},"id":126}