{"abi":[{"type":"function","name":"decode","inputs":[{"name":"data","type":"bytes","internalType":"bytes"}],"outputs":[{"name":"dx","type":"uint256","internalType":"uint256"},{"name":"daddr","type":"address","internalType":"address"},{"name":"dname","type":"string","internalType":"string"},{"name":"darray","type":"uint256[2]","internalType":"uint256[2]"}],"stateMutability":"pure"},{"type":"function","name":"encode","inputs":[],"outputs":[{"name":"result","type":"bytes","internalType":"bytes"}],"stateMutability":"view"},{"type":"function","name":"encodePacked","inputs":[],"outputs":[{"name":"result","type":"bytes","internalType":"bytes"}],"stateMutability":"view"},{"type":"function","name":"encodeWithSelector","inputs":[],"outputs":[{"name":"result","type":"bytes","internalType":"bytes"}],"stateMutability":"view"},{"type":"function","name":"encodeWithSignature","inputs":[],"outputs":[{"name":"result","type":"bytes","internalType":"bytes"}],"stateMutability":"view"}],"bytecode":{"object":"0x6080604052600a5f55737a58c0be72be218b41c608b7fe7c5bb630736c7160015f6101000a81548173ffffffffffffffffffffffffffffffffffffffff021916908373ffffffffffffffffffffffffffffffffffffffff1602179055506040518060400160405280600481526020017f3078414100000000000000000000000000000000000000000000000000000000815250600290816100a0919061032c565b506040518060400160405280600560ff168152602001600660ff16815250600390816100cc91906104ea565b503480156100d8575f5ffd5b5061056e565b5f81519050919050565b7f4e487b71000000000000000000000000000000000000000000000000000000005f52604160045260245ffd5b7f4e487b71000000000000000000000000000000000000000000000000000000005f52602260045260245ffd5b5f600282049050600182168061015957607f821691505b60208210810361016c5761016b610115565b5b50919050565b5f819050815f5260205f209050919050565b5f6020601f8301049050919050565b5f82821b905092915050565b5f600883026101ce7fffffffffffffffffffffffffffffffffffffffffffffffffffffffffffffffff82610193565b6101d88683610193565b95508019841693508086168417925050509392505050565b5f819050919050565b5f819050919050565b5f61021c610217610212846101f0565b6101f9565b6101f0565b9050919050565b5f819050919050565b61023583610202565b61024961024182610223565b84845461019f565b825550505050565b5f5f905090565b610260610251565b61026b81848461022c565b505050565b5f5b82811015610291576102865f828401610258565b600181019050610272565b505050565b601f8211156102e457828211156102e3576102b081610172565b6102b983610184565b6102c285610184565b60208610156102cf575f90505b8083016102de82840382610270565b505050505b5b505050565b5f82821c905092915050565b5f6103045f19846008026102e9565b1980831691505092915050565b5f61031c83836102f5565b9150826002028217905092915050565b610335826100de565b67ffffffffffffffff81111561034e5761034d6100e8565b5b6103588254610142565b610363828285610296565b5f60209050601f831160018114610394575f8415610382578287015190505b61038c8582610311565b8655506103f3565b601f1984166103a286610172565b5f5b828110156103c9578489015182556001820191506020850194506020810190506103a4565b868310156103e657848901516103e2601f8916826102f5565b8355505b6001600288020188555050505b505050505050565b5f60029050919050565b5f8190506001806001038301049050919050565b5f819050919050565b5f5b82811015610443576104385f828401610258565b600181019050610424565b505050565b8183101561047f5761045982610405565b61046284610405565b61046b83610419565b81810161047a83850382610422565b505050505b505050565b6801000000000000000082111561049e5761049d6100e8565b5b6104a7816103fb565b6104b2838284610448565b505050565b5f60029050919050565b5f60ff82169050919050565b5f6104d882516104c1565b80915050919050565b5f819050919050565b6104f3826104b7565b67ffffffffffffffff81111561050c5761050b6100e8565b5b6105168183610484565b61051f836104e1565b61052883610419565b600183045f5b81811015610565575f610540856104cd565b61054981610223565b809250602087019650505080828501555060018101905061052e565b50505050505050565b610d4f8061057b5f395ff3fe608060405234801561000f575f5ffd5b5060043610610055575f3560e01c806353d9c50614610059578063bd14598f14610077578063d1bd363d14610095578063e4f2a84a146100b3578063e5c5e9a3146100d1575b5f5ffd5b610061610104565b60405161006e91906103ee565b60405180910390f35b61007f610155565b60405161008c91906103ee565b60405180910390f35b61009d6101a6565b6040516100aa91906103ee565b60405180910390f35b6100bb610266565b6040516100c891906103ee565b60405180910390f35b6100eb60048036038101906100e6919061054b565b610325565b6040516100fb94939291906106e0565b60405180910390f35b60605f5460015f9054906101000a900473ffffffffffffffffffffffffffffffffffffffff16600260036040516020016101419493929190610973565b604051602081830303815290604052905090565b60605f5460015f9054906101000a900473ffffffffffffffffffffffffffffffffffffffff16600260036040516020016101929493929190610a9a565b604051602081830303815290604052905090565b60607fe87082f1450a46f8f3150d7bda55bda41a2b08d68abde6797ccc68be305673355f5460015f9054906101000a900473ffffffffffffffffffffffffffffffffffffffff16600260036040516024016102049493929190610a9a565b604051602081830303815290604052907bffffffffffffffffffffffffffffffffffffffffffffffffffffffff19166020820180517bffffffffffffffffffffffffffffffffffffffffffffffffffffffff8381831617835250505050905090565b60605f5460015f9054906101000a900473ffffffffffffffffffffffffffffffffffffffff16600260036040516024016102a39493929190610a9a565b6040516020818303038152906040527fe87082f1000000000000000000000000000000000000000000000000000000007bffffffffffffffffffffffffffffffffffffffffffffffffffffffff19166020820180517bffffffffffffffffffffffffffffffffffffffffffffffffffffffff8381831617835250505050905090565b5f5f606061033161035c565b848060200190518101906103459190610c99565b809450819550829650839750505050509193509193565b6040518060400160405280600290602082028036833780820191505090505090565b5f81519050919050565b5f82825260208201905092915050565b8281835e5f83830152505050565b5f601f19601f8301169050919050565b5f6103c08261037e565b6103ca8185610388565b93506103da818560208601610398565b6103e3816103a6565b840191505092915050565b5f6020820190508181035f83015261040681846103b6565b905092915050565b5f604051905090565b5f5ffd5b5f5ffd5b5f5ffd5b5f5ffd5b7f4e487b71000000000000000000000000000000000000000000000000000000005f52604160045260245ffd5b61045d826103a6565b810181811067ffffffffffffffff8211171561047c5761047b610427565b5b80604052505050565b5f61048e61040e565b905061049a8282610454565b919050565b5f67ffffffffffffffff8211156104b9576104b8610427565b5b6104c2826103a6565b9050602081019050919050565b828183375f83830152505050565b5f6104ef6104ea8461049f565b610485565b90508281526020810184848401111561050b5761050a610423565b5b6105168482856104cf565b509392505050565b5f82601f8301126105325761053161041f565b5b81356105428482602086016104dd565b91505092915050565b5f602082840312156105605761055f610417565b5b5f82013567ffffffffffffffff81111561057d5761057c61041b565b5b6105898482850161051e565b91505092915050565b5f819050919050565b6105a481610592565b82525050565b5f73ffffffffffffffffffffffffffffffffffffffff82169050919050565b5f6105d3826105aa565b9050919050565b6105e3816105c9565b82525050565b5f81519050919050565b5f82825260208201905092915050565b5f61060d826105e9565b61061781856105f3565b9350610627818560208601610398565b610630816103a6565b840191505092915050565b5f60029050919050565b5f81905092915050565b5f819050919050565b61066181610592565b82525050565b5f6106728383610658565b60208301905092915050565b5f602082019050919050565b6106938161063b565b61069d8184610645565b92506106a88261064f565b805f5b838110156106d85781516106bf8782610667565b96506106ca8361067e565b9250506001810190506106ab565b505050505050565b5f60a0820190506106f35f83018761059b565b61070060208301866105da565b81810360408301526107128185610603565b9050610721606083018461068a565b95945050505050565b5f819050919050565b61074461073f82610592565b61072a565b82525050565b5f8160601b9050919050565b5f6107608261074a565b9050919050565b5f61077182610756565b9050919050565b610789610784826105c9565b610767565b82525050565b7f4e487b71000000000000000000000000000000000000000000000000000000005f52602260045260245ffd5b5f60028204905060018216806107d357607f821691505b6020821081036107e6576107e561078f565b5b50919050565b5f81905092915050565b5f819050815f5260205f209050919050565b5f8154610814816107bc565b61081e81866107ec565b9450600182165f8114610838576001811461084d5761087f565b60ff198316865281151582028601935061087f565b610856856107f6565b5f5b8381101561087757815481890152600182019150602081019050610858565b838801955050505b50505092915050565b5f60029050919050565b5f81905092915050565b5f819050919050565b6108ae81610592565b82525050565b5f6108bf83836108a5565b60208301905092915050565b5f815f1c9050919050565b5f819050919050565b5f6108f16108ec836108cb565b6108d6565b9050919050565b5f61090382546108df565b9050919050565b5f600182019050919050565b61091f81610888565b6109298184610892565b92506109348261089c565b805f5b8381101561096b57610948826108f8565b61095287826108b4565b965061095d8361090a565b925050600181019050610937565b505050505050565b5f61097e8287610733565b60208201915061098e8286610778565b60148201915061099e8285610808565b91506109aa8284610916565b60408201915081905095945050505050565b5f81546109c8816107bc565b6109d281866105f3565b9450600182165f81146109ec5760018114610a0257610a34565b60ff198316865281151560200286019350610a34565b610a0b856107f6565b5f5b83811015610a2c57815481890152600182019150602081019050610a0d565b808801955050505b50505092915050565b610a4681610888565b610a508184610645565b9250610a5b8261089c565b805f5b83811015610a9257610a6f826108f8565b610a798782610667565b9650610a848361090a565b925050600181019050610a5e565b505050505050565b5f60a082019050610aad5f83018761059b565b610aba60208301866105da565b8181036040830152610acc81856109bc565b9050610adb6060830184610a3d565b95945050505050565b610aed81610592565b8114610af7575f5ffd5b50565b5f81519050610b0881610ae4565b92915050565b5f610b18826105aa565b9050919050565b610b2881610b0e565b8114610b32575f5ffd5b50565b5f81519050610b4381610b1f565b92915050565b5f67ffffffffffffffff821115610b6357610b62610427565b5b610b6c826103a6565b9050602081019050919050565b5f610b8b610b8684610b49565b610485565b905082815260208101848484011115610ba757610ba6610423565b5b610bb2848285610398565b509392505050565b5f82601f830112610bce57610bcd61041f565b5b8151610bde848260208601610b79565b91505092915050565b5f67ffffffffffffffff821115610c0157610c00610427565b5b602082029050919050565b5f5ffd5b5f610c22610c1d84610be7565b610485565b90508060208402830185811115610c3c57610c3b610c0c565b5b835b81811015610c655780610c518882610afa565b845260208401935050602081019050610c3e565b5050509392505050565b5f82601f830112610c8357610c8261041f565b5b6002610c90848285610c10565b91505092915050565b5f5f5f5f60a08587031215610cb157610cb0610417565b5b5f610cbe87828801610afa565b9450506020610ccf87828801610b35565b935050604085015167ffffffffffffffff811115610cf057610cef61041b565b5b610cfc87828801610bba565b9250506060610d0d87828801610c6f565b9150509295919450925056fea26469706673582212205fbf5a61e8b9f35acc45b10b90f096500ea8ec75a57955691656247c8f9a948864736f6c63430008220033","linkReferences":{}},"methodIdentifiers":{"decode(bytes)":"e5c5e9a3","encode()":"bd14598f","encodePacked()":"53d9c506","encodeWithSelector()":"d1bd363d","encodeWithSignature()":"e4f2a84a"},"id":68}