{"abi":[{"type":"function","name":"callGetX","inputs":[{"name":"_Address","type":"address","internalType":"contract OtherContract"}],"outputs":[{"name":"x","type":"uint256","internalType":"uint256"}],"stateMutability":"view"},{"type":"function","name":"callGetX2","inputs":[{"name":"_Address","type":"address","internalType":"address"}],"outputs":[{"name":"x","type":"uint256","internalType":"uint256"}],"stateMutability":"view"},{"type":"function","name":"callSetX","inputs":[{"name":"_Address","type":"address","internalType":"address"},{"name":"x","type":"uint256","internalType":"uint256"}],"outputs":[],"stateMutability":"nonpayable"},{"type":"function","name":"setXTransferETH","inputs":[{"name":"otherContract","type":"address","internalType":"address"},{"name":"x","type":"uint256","internalType":"uint256"}],"outputs":[],"stateMutability":"payable"}],"bytecode":{"object":"0x6080604052348015600e575f5ffd5b506104c08061001c5f395ff3fe60806040526004361061003e575f3560e01c80633004b163146100425780633ca065bb1461005e57806366563e691461008657806394a7b4f4146100c2575b5f5ffd5b61005c60048036038101906100579190610354565b6100fe565b005b348015610069575f5ffd5b50610084600480360381019061007f9190610354565b61016a565b005b348015610091575f5ffd5b506100ac60048036038101906100a791906103cd565b6101d4565b6040516100b99190610407565b60405180910390f35b3480156100cd575f5ffd5b506100e860048036038101906100e39190610420565b610249565b6040516100f59190610407565b60405180910390f35b8173ffffffffffffffffffffffffffffffffffffffff16634018d9aa34836040518363ffffffff1660e01b81526004016101389190610407565b5f604051808303818588803b15801561014f575f5ffd5b505af1158015610161573d5f5f3e3d5ffd5b50505050505050565b8173ffffffffffffffffffffffffffffffffffffffff16634018d9aa826040518263ffffffff1660e01b81526004016101a39190610407565b5f604051808303815f87803b1580156101ba575f5ffd5b505af11580156101cc573d5f5f3e3d5ffd5b505050505050565b5f8173ffffffffffffffffffffffffffffffffffffffff16635197c7aa6040518163ffffffff1660e01b8152600401602060405180830381865afa15801561021e573d5f5f3e3d5ffd5b505050506040513d601f19601f82011682018060405250810190610242919061045f565b9050919050565b5f5f8290508073ffffffffffffffffffffffffffffffffffffffff16635197c7aa6040518163ffffffff1660e01b8152600401602060405180830381865afa158015610297573d5f5f3e3d5ffd5b505050506040513d601f19601f820116820180604052508101906102bb919061045f565b915050919050565b5f5ffd5b5f73ffffffffffffffffffffffffffffffffffffffff82169050919050565b5f6102f0826102c7565b9050919050565b610300816102e6565b811461030a575f5ffd5b50565b5f8135905061031b816102f7565b92915050565b5f819050919050565b61033381610321565b811461033d575f5ffd5b50565b5f8135905061034e8161032a565b92915050565b5f5f6040838503121561036a576103696102c3565b5b5f6103778582860161030d565b925050602061038885828601610340565b9150509250929050565b5f61039c826102e6565b9050919050565b6103ac81610392565b81146103b6575f5ffd5b50565b5f813590506103c7816103a3565b92915050565b5f602082840312156103e2576103e16102c3565b5b5f6103ef848285016103b9565b91505092915050565b61040181610321565b82525050565b5f60208201905061041a5f8301846103f8565b92915050565b5f60208284031215610435576104346102c3565b5b5f6104428482850161030d565b91505092915050565b5f815190506104598161032a565b92915050565b5f60208284031215610474576104736102c3565b5b5f6104818482850161044b565b9150509291505056fea26469706673582212206f2a50bed59220094cd6e117d3991bf7528f18e2dd5f94dcb522ec29a8cfb33564736f6c63430008220033","linkReferences":{}},"methodIdentifiers":{"callGetX(address)":"66563e69","callGetX2(address)":"94a7b4f4","callSetX(address,uint256)":"3ca065bb","setXTransferETH(address,uint256)":"3004b163"},"id":63}