{"abi":[{"type":"function","name":"getBalance","inputs":[],"outputs":[{"name":"","type":"uint256","internalType":"uint256"}],"stateMutability":"view"},{"type":"function","name":"getX","inputs":[],"outputs":[{"name":"x","type":"uint256","internalType":"uint256"}],"stateMutability":"view"},{"type":"function","name":"setX","inputs":[{"name":"x","type":"uint256","internalType":"uint256"}],"outputs":[],"stateMutability":"payable"},{"type":"event","name":"Log","inputs":[{"name":"amount","type":"uint256","indexed":false,"internalType":"uint256"},{"name":"gas","type":"uint256","indexed":false,"internalType":"uint256"}],"anonymous":false}],"bytecode":{"object":"0x60806040525f5f553480156011575f5ffd5b506101e88061001f5f395ff3fe608060405260043610610033575f3560e01c806312065fe0146100375780634018d9aa146100615780635197c7aa1461007d575b5f5ffd5b348015610042575f5ffd5b5061004b6100a7565b6040516100589190610119565b60405180910390f35b61007b60048036038101906100769190610160565b6100ae565b005b348015610088575f5ffd5b506100916100f9565b60405161009e9190610119565b60405180910390f35b5f47905090565b805f819055505f3411156100f6577fbd0faddf87043dd749c1b9d4dca8a12589b8cb5e2106832111ce23f219b14367345a6040516100ed92919061018b565b60405180910390a15b50565b5f5f54905090565b5f819050919050565b61011381610101565b82525050565b5f60208201905061012c5f83018461010a565b92915050565b5f5ffd5b61013f81610101565b8114610149575f5ffd5b50565b5f8135905061015a81610136565b92915050565b5f6020828403121561017557610174610132565b5b5f6101828482850161014c565b91505092915050565b5f60408201905061019e5f83018561010a565b6101ab602083018461010a565b939250505056fea2646970667358221220019cb4c153a6d2f7cbfc79202278e777f8f322d117651d255a2cc07c0671147f64736f6c63430008220033","linkReferences":{}},"methodIdentifiers":{"getBalance()":"12065fe0","getX()":"5197c7aa","setX(uint256)":"4018d9aa"},"id":63}