{"abi":[{"type":"function","name":"toEthSignedMessageHash","inputs":[{"name":"hash","type":"bytes32","internalType":"bytes32"}],"outputs":[{"name":"","type":"bytes32","internalType":"bytes32"}],"stateMutability":"pure"}],"bytecode":{"object":"0x6101f061004d600b8282823980515f1a6073146041577f4e487b71000000000000000000000000000000000000000000000000000000005f525f60045260245ffd5b305f52607381538281f3fe7300000000000000000000000000000000000000003014608060405260043610610034575f3560e01c8063918a15cf14610038575b5f5ffd5b610052600480360381019061004d91906100ce565b610068565b60405161005f9190610108565b60405180910390f35b5f8160405160200161007a9190610195565b604051602081830303815290604052805190602001209050919050565b5f5ffd5b5f819050919050565b6100ad8161009b565b81146100b7575f5ffd5b50565b5f813590506100c8816100a4565b92915050565b5f602082840312156100e3576100e2610097565b5b5f6100f0848285016100ba565b91505092915050565b6101028161009b565b82525050565b5f60208201905061011b5f8301846100f9565b92915050565b5f81905092915050565b7f19457468657265756d205369676e6564204d6573736167653a0a3332000000005f82015250565b5f61015f601c83610121565b915061016a8261012b565b601c82019050919050565b5f819050919050565b61018f61018a8261009b565b610175565b82525050565b5f61019f82610153565b91506101ab828461017e565b6020820191508190509291505056fea2646970667358221220cee33e9fdf492a06d84673b329df2ff2123fee66d16b9e409dced7372a5b464564736f6c63430008220033","linkReferences":{}},"methodIdentifiers":{"toEthSignedMessageHash(bytes32)":"918a15cf"},"id":87}