{"abi":[{"type":"constructor","inputs":[{"name":"_name","type":"string","internalType":"string"},{"name":"_symbol","type":"string","internalType":"string"},{"name":"_signer","type":"address","internalType":"address"}],"stateMutability":"nonpayable"},{"type":"function","name":"approve","inputs":[{"name":"to","type":"address","internalType":"address"},{"name":"tokenId","type":"uint256","internalType":"uint256"}],"outputs":[],"stateMutability":"nonpayable"},{"type":"function","name":"balanceOf","inputs":[{"name":"owner","type":"address","internalType":"address"}],"outputs":[{"name":"","type":"uint256","internalType":"uint256"}],"stateMutability":"view"},{"type":"function","name":"getApproved","inputs":[{"name":"tokenId","type":"uint256","internalType":"uint256"}],"outputs":[{"name":"","type":"address","internalType":"address"}],"stateMutability":"view"},{"type":"function","name":"getMessageHash","inputs":[{"name":"_account","type":"address","internalType":"address"},{"name":"_tokenId","type":"uint256","internalType":"uint256"}],"outputs":[{"name":"","type":"bytes32","internalType":"bytes32"}],"stateMutability":"pure"},{"type":"function","name":"isApprovedForAll","inputs":[{"name":"owner","type":"address","internalType":"address"},{"name":"operator","type":"address","internalType":"address"}],"outputs":[{"name":"","type":"bool","internalType":"bool"}],"stateMutability":"view"},{"type":"function","name":"mint","inputs":[{"name":"_account","type":"address","internalType":"address"},{"name":"_tokenId","type":"uint256","internalType":"uint256"},{"name":"_signature","type":"bytes","internalType":"bytes"}],"outputs":[],"stateMutability":"nonpayable"},{"type":"function","name":"mintedAddress","inputs":[{"name":"","type":"address","internalType":"address"}],"outputs":[{"name":"","type":"bool","internalType":"bool"}],"stateMutability":"view"},{"type":"function","name":"name","inputs":[],"outputs":[{"name":"","type":"string","internalType":"string"}],"stateMutability":"view"},{"type":"function","name":"ownerOf","inputs":[{"name":"tokenId","type":"uint256","internalType":"uint256"}],"outputs":[{"name":"owner","type":"address","internalType":"address"}],"stateMutability":"view"},{"type":"function","name":"safeTransferFrom","inputs":[{"name":"from","type":"address","internalType":"address"},{"name":"to","type":"address","internalType":"address"},{"name":"tokenId","type":"uint256","internalType":"uint256"}],"outputs":[],"stateMutability":"nonpayable"},{"type":"function","name":"safeTransferFrom","inputs":[{"name":"from","type":"address","internalType":"address"},{"name":"to","type":"address","internalType":"address"},{"name":"tokenId","type":"uint256","internalType":"uint256"},{"name":"_data","type":"bytes","internalType":"bytes"}],"outputs":[],"stateMutability":"nonpayable"},{"type":"function","name":"setApprovalForAll","inputs":[{"name":"operator","type":"address","internalType":"address"},{"name":"approved","type":"bool","internalType":"bool"}],"outputs":[],"stateMutability":"nonpayable"},{"type":"function","name":"signer","inputs":[],"outputs":[{"name":"","type":"address","internalType":"address"}],"stateMutability":"view"},{"type":"function","name":"supportsInterface","inputs":[{"name":"interfaceId","type":"bytes4","internalType":"bytes4"}],"outputs":[{"name":"","type":"bool","internalType":"bool"}],"stateMutability":"pure"},{"type":"function","name":"symbol","inputs":[],"outputs":[{"name":"","type":"string","internalType":"string"}],"stateMutability":"view"},{"type":"function","name":"tokenURI","inputs":[{"name":"tokenId","type":"uint256","internalType":"uint256"}],"outputs":[{"name":"","type":"string","internalType":"string"}],"stateMutability":"view"},{"type":"function","name":"transferFrom","inputs":[{"name":"from","type":"address","internalType":"address"},{"name":"to","type":"address","internalType":"address"},{"name":"tokenId","type":"uint256","internalType":"uint256"}],"outputs":[],"stateMutability":"nonpayable"},{"type":"function","name":"verify","inputs":[{"name":"_msgHash","type":"bytes32","internalType":"bytes32"},{"name":"_signature","type":"bytes","internalType":"bytes"}],"outputs":[{"name":"","type":"bool","internalType":"bool"}],"stateMutability":"view"},{"type":"event","name":"Approval","inputs":[{"name":"owner","type":"address","indexed":true,"internalType":"address"},{"name":"approved","type":"address","indexed":true,"internalType":"address"},{"name":"tokenId","type":"uint256","indexed":true,"internalType":"uint256"}],"anonymous":false},{"type":"event","name":"ApprovalForAll","inputs":[{"name":"owner","type":"address","indexed":true,"internalType":"address"},{"name":"operator","type":"address","indexed":true,"internalType":"address"},{"name":"approved","type":"bool","indexed":false,"internalType":"bool"}],"anonymous":false},{"type":"event","name":"Transfer","inputs":[{"name":"from","type":"address","indexed":true,"internalType":"address"},{"name":"to","type":"address","indexed":true,"internalType":"address"},{"name":"tokenId","type":"uint256","indexed":true,"internalType":"uint256"}],"anonymous":false},{"type":"error","name":"ERC721InvalidReceiver","inputs":[{"name":"receiver","type":"address","internalType":"address"}]}],"bytecode":{"object":"0x60a060405234801561000f575f5ffd5b50604051612fa3380380612fa383398181016040528101906100319190610237565b8282815f908161004191906104e0565b50806001908161005191906104e0565b5050508073ffffffffffffffffffffffffffffffffffffffff1660808173ffffffffffffffffffffffffffffffffffffffff16815250505050506105af565b5f604051905090565b5f5ffd5b5f5ffd5b5f5ffd5b5f5ffd5b5f601f19601f8301169050919050565b7f4e487b71000000000000000000000000000000000000000000000000000000005f52604160045260245ffd5b6100ef826100a9565b810181811067ffffffffffffffff8211171561010e5761010d6100b9565b5b80604052505050565b5f610120610090565b905061012c82826100e6565b919050565b5f67ffffffffffffffff82111561014b5761014a6100b9565b5b610154826100a9565b9050602081019050919050565b8281835e5f83830152505050565b5f61018161017c84610131565b610117565b90508281526020810184848401111561019d5761019c6100a5565b5b6101a8848285610161565b509392505050565b5f82601f8301126101c4576101c36100a1565b5b81516101d484826020860161016f565b91505092915050565b5f73ffffffffffffffffffffffffffffffffffffffff82169050919050565b5f610206826101dd565b9050919050565b610216816101fc565b8114610220575f5ffd5b50565b5f815190506102318161020d565b92915050565b5f5f5f6060848603121561024e5761024d610099565b5b5f84015167ffffffffffffffff81111561026b5761026a61009d565b5b610277868287016101b0565b935050602084015167ffffffffffffffff8111156102985761029761009d565b5b6102a4868287016101b0565b92505060406102b586828701610223565b9150509250925092565b5f81519050919050565b7f4e487b71000000000000000000000000000000000000000000000000000000005f52602260045260245ffd5b5f600282049050600182168061030d57607f821691505b6020821081036103205761031f6102c9565b5b50919050565b5f819050815f5260205f209050919050565b5f6020601f8301049050919050565b5f82821b905092915050565b5f600883026103827fffffffffffffffffffffffffffffffffffffffffffffffffffffffffffffffff82610347565b61038c8683610347565b95508019841693508086168417925050509392505050565b5f819050919050565b5f819050919050565b5f6103d06103cb6103c6846103a4565b6103ad565b6103a4565b9050919050565b5f819050919050565b6103e9836103b6565b6103fd6103f5826103d7565b848454610353565b825550505050565b5f5f905090565b610414610405565b61041f8184846103e0565b505050565b5f5b828110156104455761043a5f82840161040c565b600181019050610426565b505050565b601f82111561049857828211156104975761046481610326565b61046d83610338565b61047685610338565b6020861015610483575f90505b80830161049282840382610424565b505050505b5b505050565b5f82821c905092915050565b5f6104b85f198460080261049d565b1980831691505092915050565b5f6104d083836104a9565b9150826002028217905092915050565b6104e9826102bf565b67ffffffffffffffff811115610502576105016100b9565b5b61050c82546102f6565b61051782828561044a565b5f60209050601f831160018114610548575f8415610536578287015190505b61054085826104c5565b8655506105a7565b601f19841661055686610326565b5f5b8281101561057d57848901518255600182019150602085019450602081019050610558565b8683101561059a5784890151610596601f8916826104a9565b8355505b6001600288020188555050505b505050505050565b6080516129d56105ce5f395f81816107a5015261083701526129d55ff3fe608060405234801561000f575f5ffd5b5060043610610114575f3560e01c8063630303c6116100a057806395d89b411161006f57806395d89b4114610314578063a22cb46514610332578063b88d4fde1461034e578063c87b56dd1461036a578063e985e9c51461039a57610114565b8063630303c6146102685780636352211e1461029857806370a08231146102c857806394d008ef146102f857610114565b8063238ac933116100e7578063238ac933146101b257806323b872dd146101d0578063258ae582146101ec57806342842e0e1461021c578063512c91df1461023857610114565b806301ffc9a71461011857806306fdde0314610148578063081812fc14610166578063095ea7b314610196575b5f5ffd5b610132600480360381019061012d9190611a1f565b6103ca565b60405161013f9190611a64565b60405180910390f35b610150610503565b60405161015d9190611aed565b60405180910390f35b610180600480360381019061017b9190611b40565b61058e565b60405161018d9190611baa565b60405180910390f35b6101b060048036038101906101ab9190611bed565b610665565b005b6101ba6107a3565b6040516101c79190611baa565b60405180910390f35b6101ea60048036038101906101e59190611c2b565b6107c7565b005b61020660048036038101906102019190611dda565b61082f565b6040516102139190611a64565b60405180910390f35b61023660048036038101906102319190611c2b565b610863565b005b610252600480360381019061024d9190611bed565b610882565b60405161025f9190611e43565b60405180910390f35b610282600480360381019061027d9190611e5c565b6108b4565b60405161028f9190611a64565b60405180910390f35b6102b260048036038101906102ad9190611b40565b6108d1565b6040516102bf9190611baa565b60405180910390f35b6102e260048036038101906102dd9190611e5c565b610978565b6040516102ef9190611e96565b60405180910390f35b610312600480360381019061030d9190611eaf565b610a2c565b005b61031c610beb565b6040516103299190611aed565b60405180910390f35b61034c60048036038101906103479190611f45565b610c77565b005b61036860048036038101906103639190611f83565b610d6f565b005b610384600480360381019061037f9190611b40565b610dd9565b6040516103919190611aed565b60405180910390f35b6103b460048036038101906103af9190612003565b610ed3565b6040516103c19190611a64565b60405180910390f35b5f7f80ac58cd000000000000000000000000000000000000000000000000000000007bffffffffffffffffffffffffffffffffffffffffffffffffffffffff1916827bffffffffffffffffffffffffffffffffffffffffffffffffffffffff1916148061049457507f01ffc9a7000000000000000000000000000000000000000000000000000000007bffffffffffffffffffffffffffffffffffffffffffffffffffffffff1916827bffffffffffffffffffffffffffffffffffffffffffffffffffffffff1916145b806104fc57507f5b5e139f000000000000000000000000000000000000000000000000000000007bffffffffffffffffffffffffffffffffffffffffffffffffffffffff1916827bffffffffffffffffffffffffffffffffffffffffffffffffffffffff1916145b9050919050565b5f805461050f9061206e565b80601f016020809104026020016040519081016040528092919081815260200182805461053b9061206e565b80156105865780601f1061055d57610100808354040283529160200191610586565b820191905f5260205f20905b81548152906001019060200180831161056957829003601f168201915b505050505081565b5f5f73ffffffffffffffffffffffffffffffffffffffff1660025f8481526020019081526020015f205f9054906101000a900473ffffffffffffffffffffffffffffffffffffffff1673ffffffffffffffffffffffffffffffffffffffff160361062d576040517f08c379a0000000000000000000000000000000000000000000000000000000008152600401610624906120e8565b60405180910390fd5b60045f8381526020019081526020015f205f9054906101000a900473ffffffffffffffffffffffffffffffffffffffff169050919050565b5f60025f8381526020019081526020015f205f9054906101000a900473ffffffffffffffffffffffffffffffffffffffff1690508073ffffffffffffffffffffffffffffffffffffffff163373ffffffffffffffffffffffffffffffffffffffff161480610754575060055f8273ffffffffffffffffffffffffffffffffffffffff1673ffffffffffffffffffffffffffffffffffffffff1681526020019081526020015f205f3373ffffffffffffffffffffffffffffffffffffffff1673ffffffffffffffffffffffffffffffffffffffff1681526020019081526020015f205f9054906101000a900460ff165b610793576040517f08c379a000000000000000000000000000000000000000000000000000000000815260040161078a90612150565b60405180910390fd5b61079e818484610f61565b505050565b7f000000000000000000000000000000000000000000000000000000000000000081565b5f6107d1826108d1565b90506107de813384611010565b61081d576040517f08c379a0000000000000000000000000000000000000000000000000000000008152600401610814906121b8565b60405180910390fd5b6108298185858561113b565b50505050565b5f61085b83837f000000000000000000000000000000000000000000000000000000000000000061137a565b905092915050565b61087d83838360405180602001604052805f815250610d6f565b505050565b5f828260405160200161089692919061223b565b60405160208183030381529060405280519060200120905092915050565b6006602052805f5260405f205f915054906101000a900460ff1681565b5f60025f8381526020019081526020015f205f9054906101000a900473ffffffffffffffffffffffffffffffffffffffff1690505f73ffffffffffffffffffffffffffffffffffffffff168173ffffffffffffffffffffffffffffffffffffffff1603610973576040517f08c379a000000000000000000000000000000000000000000000000000000000815260040161096a906120e8565b60405180910390fd5b919050565b5f5f73ffffffffffffffffffffffffffffffffffffffff168273ffffffffffffffffffffffffffffffffffffffff16036109e7576040517f08c379a00000000000000000000000000000000000000000000000000000000081526004016109de906122b0565b60405180910390fd5b60035f8373ffffffffffffffffffffffffffffffffffffffff1673ffffffffffffffffffffffffffffffffffffffff1681526020019081526020015f20549050919050565b5f610a378484610882565b90505f73__$e3d8e53151ebe0b7203e2d17c613eec2e4$__63918a15cf836040518263ffffffff1660e01b8152600401610a7191906122dd565b602060405180830381865af4158015610a8c573d5f5f3e3d5ffd5b505050506040513d601f19601f82011682018060405250810190610ab0919061230a565b9050610abc818461082f565b610afb576040517f08c379a0000000000000000000000000000000000000000000000000000000008152600401610af29061237f565b60405180910390fd5b60065f8673ffffffffffffffffffffffffffffffffffffffff1673ffffffffffffffffffffffffffffffffffffffff1681526020019081526020015f205f9054906101000a900460ff1615610b85576040517f08c379a0000000000000000000000000000000000000000000000000000000008152600401610b7c906123e7565b60405180910390fd5b600160065f8773ffffffffffffffffffffffffffffffffffffffff1673ffffffffffffffffffffffffffffffffffffffff1681526020019081526020015f205f6101000a81548160ff021916908315150217905550610be485856113bc565b5050505050565b60018054610bf89061206e565b80601f0160208091040260200160405190810160405280929190818152602001828054610c249061206e565b8015610c6f5780601f10610c4657610100808354040283529160200191610c6f565b820191905f5260205f20905b815481529060010190602001808311610c5257829003601f168201915b505050505081565b8060055f3373ffffffffffffffffffffffffffffffffffffffff1673ffffffffffffffffffffffffffffffffffffffff1681526020019081526020015f205f8473ffffffffffffffffffffffffffffffffffffffff1673ffffffffffffffffffffffffffffffffffffffff1681526020019081526020015f205f6101000a81548160ff0219169083151502179055508173ffffffffffffffffffffffffffffffffffffffff163373ffffffffffffffffffffffffffffffffffffffff167f17307eab39ab6107e8899845ad3d59bd9653f200f220920489ca2b5937696c3183604051610d639190611a64565b60405180910390a35050565b5f610d79836108d1565b9050610d86813385611010565b610dc5576040517f08c379a0000000000000000000000000000000000000000000000000000000008152600401610dbc906121b8565b60405180910390fd5b610dd281868686866115ca565b5050505050565b60605f73ffffffffffffffffffffffffffffffffffffffff1660025f8481526020019081526020015f205f9054906101000a900473ffffffffffffffffffffffffffffffffffffffff1673ffffffffffffffffffffffffffffffffffffffff1603610e79576040517f08c379a0000000000000000000000000000000000000000000000000000000008152600401610e709061244f565b60405180910390fd5b5f610e826115e9565b90505f815111610ea05760405180602001604052805f815250610ecb565b80610eaa846115ff565b604051602001610ebb9291906124a7565b6040516020818303038152906040525b915050919050565b5f60055f8473ffffffffffffffffffffffffffffffffffffffff1673ffffffffffffffffffffffffffffffffffffffff1681526020019081526020015f205f8373ffffffffffffffffffffffffffffffffffffffff1673ffffffffffffffffffffffffffffffffffffffff1681526020019081526020015f205f9054906101000a900460ff16905092915050565b8160045f8381526020019081526020015f205f6101000a81548173ffffffffffffffffffffffffffffffffffffffff021916908373ffffffffffffffffffffffffffffffffffffffff160217905550808273ffffffffffffffffffffffffffffffffffffffff168473ffffffffffffffffffffffffffffffffffffffff167f8c5be1e5ebec7d5bd14f71427d1e84f3dd0314c0f7b2291e5b200ac8c7c3b92560405160405180910390a4505050565b5f8373ffffffffffffffffffffffffffffffffffffffff168373ffffffffffffffffffffffffffffffffffffffff1614806110a657508273ffffffffffffffffffffffffffffffffffffffff1660045f8481526020019081526020015f205f9054906101000a900473ffffffffffffffffffffffffffffffffffffffff1673ffffffffffffffffffffffffffffffffffffffff16145b80611132575060055f8573ffffffffffffffffffffffffffffffffffffffff1673ffffffffffffffffffffffffffffffffffffffff1681526020019081526020015f205f8473ffffffffffffffffffffffffffffffffffffffff1673ffffffffffffffffffffffffffffffffffffffff1681526020019081526020015f205f9054906101000a900460ff165b90509392505050565b8373ffffffffffffffffffffffffffffffffffffffff168373ffffffffffffffffffffffffffffffffffffffff16146111a9576040517f08c379a00000000000000000000000000000000000000000000000000000000081526004016111a090612514565b60405180910390fd5b5f73ffffffffffffffffffffffffffffffffffffffff168273ffffffffffffffffffffffffffffffffffffffff1603611217576040517f08c379a000000000000000000000000000000000000000000000000000000000815260040161120e9061257c565b60405180910390fd5b611222845f83610f61565b600160035f8573ffffffffffffffffffffffffffffffffffffffff1673ffffffffffffffffffffffffffffffffffffffff1681526020019081526020015f205f82825461126f91906125c7565b92505081905550600160035f8473ffffffffffffffffffffffffffffffffffffffff1673ffffffffffffffffffffffffffffffffffffffff1681526020019081526020015f205f8282546112c391906125fa565b925050819055508160025f8381526020019081526020015f205f6101000a81548173ffffffffffffffffffffffffffffffffffffffff021916908373ffffffffffffffffffffffffffffffffffffffff160217905550808273ffffffffffffffffffffffffffffffffffffffff168473ffffffffffffffffffffffffffffffffffffffff167fddf252ad1be2c89b69c2b068fc378daa952ba7f163c4a11628f55a4df523b3ef60405160405180910390a450505050565b5f8173ffffffffffffffffffffffffffffffffffffffff1661139c8585611758565b73ffffffffffffffffffffffffffffffffffffffff161490509392505050565b5f73ffffffffffffffffffffffffffffffffffffffff168273ffffffffffffffffffffffffffffffffffffffff160361142a576040517f08c379a000000000000000000000000000000000000000000000000000000000815260040161142190612677565b60405180910390fd5b5f73ffffffffffffffffffffffffffffffffffffffff1660025f8381526020019081526020015f205f9054906101000a900473ffffffffffffffffffffffffffffffffffffffff1673ffffffffffffffffffffffffffffffffffffffff16146114c8576040517f08c379a00000000000000000000000000000000000000000000000000000000081526004016114bf906126df565b60405180910390fd5b600160035f8473ffffffffffffffffffffffffffffffffffffffff1673ffffffffffffffffffffffffffffffffffffffff1681526020019081526020015f205f82825461151591906125fa565b925050819055508160025f8381526020019081526020015f205f6101000a81548173ffffffffffffffffffffffffffffffffffffffff021916908373ffffffffffffffffffffffffffffffffffffffff160217905550808273ffffffffffffffffffffffffffffffffffffffff165f73ffffffffffffffffffffffffffffffffffffffff167fddf252ad1be2c89b69c2b068fc378daa952ba7f163c4a11628f55a4df523b3ef60405160405180910390a45050565b6115d68585858561113b565b6115e28484848461180e565b5050505050565b606060405180602001604052805f815250905090565b60605f8203611645576040518060400160405280600181526020017f30000000000000000000000000000000000000000000000000000000000000008152509050611753565b5f8290505f5b5f821461167457808061165d906126fd565b915050600a8261166d9190612771565b915061164b565b5f8167ffffffffffffffff81111561168f5761168e611cb6565b5b6040519080825280601f01601f1916602001820160405280156116c15781602001600182028036833780820191505090505b5090505b5f851461174c576001826116d991906125c7565b9150600a856116e891906127a1565b60306116f491906125fa565b60f81b81838151811061170a576117096127d1565b5b60200101907effffffffffffffffffffffffffffffffffffffffffffffffffffffffffffff191690815f1a905350600a856117459190612771565b94506116c5565b8093505050505b919050565b5f604182511461179d576040517f08c379a000000000000000000000000000000000000000000000000000000000815260040161179490612848565b60405180910390fd5b5f5f5f602085015192506040850151915060608501515f1a90506001868285856040515f81526020016040526040516117d99493929190612881565b6020604051602081039080840390855afa1580156117f9573d5f5f3e3d5ffd5b50505060206040510351935050505092915050565b5f8373ffffffffffffffffffffffffffffffffffffffff163b11156119b3578273ffffffffffffffffffffffffffffffffffffffff1663150b7a02338685856040518563ffffffff1660e01b815260040161186c9493929190612916565b6020604051808303815f875af19250505080156118a757506040513d601f19601f820116820180604052508101906118a49190612974565b60015b611928573d805f81146118d5576040519150601f19603f3d011682016040523d82523d5f602084013e6118da565b606091505b505f81510361192057836040517f64a0ae920000000000000000000000000000000000000000000000000000000081526004016119179190611baa565b60405180910390fd5b805181602001fd5b63150b7a0260e01b7bffffffffffffffffffffffffffffffffffffffffffffffffffffffff1916817bffffffffffffffffffffffffffffffffffffffffffffffffffffffff1916146119b157836040517f64a0ae920000000000000000000000000000000000000000000000000000000081526004016119a89190611baa565b60405180910390fd5b505b50505050565b5f604051905090565b5f5ffd5b5f5ffd5b5f7fffffffff0000000000000000000000000000000000000000000000000000000082169050919050565b6119fe816119ca565b8114611a08575f5ffd5b50565b5f81359050611a19816119f5565b92915050565b5f60208284031215611a3457611a336119c2565b5b5f611a4184828501611a0b565b91505092915050565b5f8115159050919050565b611a5e81611a4a565b82525050565b5f602082019050611a775f830184611a55565b92915050565b5f81519050919050565b5f82825260208201905092915050565b8281835e5f83830152505050565b5f601f19601f8301169050919050565b5f611abf82611a7d565b611ac98185611a87565b9350611ad9818560208601611a97565b611ae281611aa5565b840191505092915050565b5f6020820190508181035f830152611b058184611ab5565b905092915050565b5f819050919050565b611b1f81611b0d565b8114611b29575f5ffd5b50565b5f81359050611b3a81611b16565b92915050565b5f60208284031215611b5557611b546119c2565b5b5f611b6284828501611b2c565b91505092915050565b5f73ffffffffffffffffffffffffffffffffffffffff82169050919050565b5f611b9482611b6b565b9050919050565b611ba481611b8a565b82525050565b5f602082019050611bbd5f830184611b9b565b92915050565b611bcc81611b8a565b8114611bd6575f5ffd5b50565b5f81359050611be781611bc3565b92915050565b5f5f60408385031215611c0357611c026119c2565b5b5f611c1085828601611bd9565b9250506020611c2185828601611b2c565b9150509250929050565b5f5f5f60608486031215611c4257611c416119c2565b5b5f611c4f86828701611bd9565b9350506020611c6086828701611bd9565b9250506040611c7186828701611b2c565b9150509250925092565b5f819050919050565b611c8d81611c7b565b8114611c97575f5ffd5b50565b5f81359050611ca881611c84565b92915050565b5f5ffd5b5f5ffd5b7f4e487b71000000000000000000000000000000000000000000000000000000005f52604160045260245ffd5b611cec82611aa5565b810181811067ffffffffffffffff82111715611d0b57611d0a611cb6565b5b80604052505050565b5f611d1d6119b9565b9050611d298282611ce3565b919050565b5f67ffffffffffffffff821115611d4857611d47611cb6565b5b611d5182611aa5565b9050602081019050919050565b828183375f83830152505050565b5f611d7e611d7984611d2e565b611d14565b905082815260208101848484011115611d9a57611d99611cb2565b5b611da5848285611d5e565b509392505050565b5f82601f830112611dc157611dc0611cae565b5b8135611dd1848260208601611d6c565b91505092915050565b5f5f60408385031215611df057611def6119c2565b5b5f611dfd85828601611c9a565b925050602083013567ffffffffffffffff811115611e1e57611e1d6119c6565b5b611e2a85828601611dad565b9150509250929050565b611e3d81611c7b565b82525050565b5f602082019050611e565f830184611e34565b92915050565b5f60208284031215611e7157611e706119c2565b5b5f611e7e84828501611bd9565b91505092915050565b611e9081611b0d565b82525050565b5f602082019050611ea95f830184611e87565b92915050565b5f5f5f60608486031215611ec657611ec56119c2565b5b5f611ed386828701611bd9565b9350506020611ee486828701611b2c565b925050604084013567ffffffffffffffff811115611f0557611f046119c6565b5b611f1186828701611dad565b9150509250925092565b611f2481611a4a565b8114611f2e575f5ffd5b50565b5f81359050611f3f81611f1b565b92915050565b5f5f60408385031215611f5b57611f5a6119c2565b5b5f611f6885828601611bd9565b9250506020611f7985828601611f31565b9150509250929050565b5f5f5f5f60808587031215611f9b57611f9a6119c2565b5b5f611fa887828801611bd9565b9450506020611fb987828801611bd9565b9350506040611fca87828801611b2c565b925050606085013567ffffffffffffffff811115611feb57611fea6119c6565b5b611ff787828801611dad565b91505092959194509250565b5f5f60408385031215612019576120186119c2565b5b5f61202685828601611bd9565b925050602061203785828601611bd9565b9150509250929050565b7f4e487b71000000000000000000000000000000000000000000000000000000005f52602260045260245ffd5b5f600282049050600182168061208557607f821691505b60208210810361209857612097612041565b5b50919050565b7f746f6b656e20646f65736e2774206578697374000000000000000000000000005f82015250565b5f6120d2601383611a87565b91506120dd8261209e565b602082019050919050565b5f6020820190508181035f8301526120ff816120c6565b9050919050565b7f6e6f74206f776e6572206e6f7220617070726f76656420666f7220616c6c00005f82015250565b5f61213a601e83611a87565b915061214582612106565b602082019050919050565b5f6020820190508181035f8301526121678161212e565b9050919050565b7f6e6f74206f776e6572206e6f7220617070726f766564000000000000000000005f82015250565b5f6121a2601683611a87565b91506121ad8261216e565b602082019050919050565b5f6020820190508181035f8301526121cf81612196565b9050919050565b5f8160601b9050919050565b5f6121ec826121d6565b9050919050565b5f6121fd826121e2565b9050919050565b61221561221082611b8a565b6121f3565b82525050565b5f819050919050565b61223561223082611b0d565b61221b565b82525050565b5f6122468285612204565b6014820191506122568284612224565b6020820191508190509392505050565b7f6f776e6572203d207a65726f20616464726573730000000000000000000000005f82015250565b5f61229a601483611a87565b91506122a582612266565b602082019050919050565b5f6020820190508181035f8301526122c78161228e565b9050919050565b6122d781611c7b565b82525050565b5f6020820190506122f05f8301846122ce565b92915050565b5f8151905061230481611c84565b92915050565b5f6020828403121561231f5761231e6119c2565b5b5f61232c848285016122f6565b91505092915050565b7f496e76616c6964207369676e61747572650000000000000000000000000000005f82015250565b5f612369601183611a87565b915061237482612335565b602082019050919050565b5f6020820190508181035f8301526123968161235d565b9050919050565b7f416c7265616479206d696e7465642100000000000000000000000000000000005f82015250565b5f6123d1600f83611a87565b91506123dc8261239d565b602082019050919050565b5f6020820190508181035f8301526123fe816123c5565b9050919050565b7f546f6b656e204e6f7420457869737400000000000000000000000000000000005f82015250565b5f612439600f83611a87565b915061244482612405565b602082019050919050565b5f6020820190508181035f8301526124668161242d565b9050919050565b5f81905092915050565b5f61248182611a7d565b61248b818561246d565b935061249b818560208601611a97565b80840191505092915050565b5f6124b28285612477565b91506124be8284612477565b91508190509392505050565b7f6e6f74206f776e657200000000000000000000000000000000000000000000005f82015250565b5f6124fe600983611a87565b9150612509826124ca565b602082019050919050565b5f6020820190508181035f83015261252b816124f2565b9050919050565b7f7472616e7366657220746f20746865207a65726f2061646472657373000000005f82015250565b5f612566601c83611a87565b915061257182612532565b602082019050919050565b5f6020820190508181035f8301526125938161255a565b9050919050565b7f4e487b71000000000000000000000000000000000000000000000000000000005f52601160045260245ffd5b5f6125d182611b0d565b91506125dc83611b0d565b92508282039050818111156125f4576125f361259a565b5b92915050565b5f61260482611b0d565b915061260f83611b0d565b92508282019050808211156126275761262661259a565b5b92915050565b7f6d696e7420746f207a65726f20616464726573730000000000000000000000005f82015250565b5f612661601483611a87565b915061266c8261262d565b602082019050919050565b5f6020820190508181035f83015261268e81612655565b9050919050565b7f746f6b656e20616c7265616479206d696e7465640000000000000000000000005f82015250565b5f6126c9601483611a87565b91506126d482612695565b602082019050919050565b5f6020820190508181035f8301526126f6816126bd565b9050919050565b5f61270782611b0d565b91507fffffffffffffffffffffffffffffffffffffffffffffffffffffffffffffffff82036127395761273861259a565b5b600182019050919050565b7f4e487b71000000000000000000000000000000000000000000000000000000005f52601260045260245ffd5b5f61277b82611b0d565b915061278683611b0d565b92508261279657612795612744565b5b828204905092915050565b5f6127ab82611b0d565b91506127b683611b0d565b9250826127c6576127c5612744565b5b828206905092915050565b7f4e487b71000000000000000000000000000000000000000000000000000000005f52603260045260245ffd5b7f696e76616c6964207369676e6174757265206c656e67746800000000000000005f82015250565b5f612832601883611a87565b915061283d826127fe565b602082019050919050565b5f6020820190508181035f83015261285f81612826565b9050919050565b5f60ff82169050919050565b61287b81612866565b82525050565b5f6080820190506128945f830187611e34565b6128a16020830186612872565b6128ae6040830185611e34565b6128bb6060830184611e34565b95945050505050565b5f81519050919050565b5f82825260208201905092915050565b5f6128e8826128c4565b6128f281856128ce565b9350612902818560208601611a97565b61290b81611aa5565b840191505092915050565b5f6080820190506129295f830187611b9b565b6129366020830186611b9b565b6129436040830185611e87565b818103606083015261295581846128de565b905095945050505050565b5f8151905061296e816119f5565b92915050565b5f60208284031215612989576129886119c2565b5b5f61299684828501612960565b9150509291505056fea2646970667358221220fea806b4d99ed734e06294ec7a872e1624962d92800f3f23b30d68f1728f2d2f64736f6c63430008220033","linkReferences":{"src/37_Signature/Signature.sol":{"ECDSA":[{"start":4106,"length":20}]}}},"methodIdentifiers":{"approve(address,uint256)":"095ea7b3","balanceOf(address)":"70a08231","getApproved(uint256)":"081812fc","getMessageHash(address,uint256)":"512c91df","isApprovedForAll(address,address)":"e985e9c5","mint(address,uint256,bytes)":"94d008ef","mintedAddress(address)":"630303c6","name()":"06fdde03","ownerOf(uint256)":"6352211e","safeTransferFrom(address,address,uint256)":"42842e0e","safeTransferFrom(address,address,uint256,bytes)":"b88d4fde","setApprovalForAll(address,bool)":"a22cb465","signer()":"238ac933","supportsInterface(bytes4)":"01ffc9a7","symbol()":"95d89b41","tokenURI(uint256)":"c87b56dd","transferFrom(address,address,uint256)":"23b872dd","verify(bytes32,bytes)":"258ae582"},"id":87}