{"abi":[{"type":"function","name":"getEthSignedMessageHash","inputs":[{"name":"_messageHash","type":"bytes32","internalType":"bytes32"}],"outputs":[{"name":"","type":"bytes32","internalType":"bytes32"}],"stateMutability":"pure"},{"type":"function","name":"getMessageHash","inputs":[{"name":"_addr","type":"address","internalType":"address"},{"name":"_tokenId","type":"uint256","internalType":"uint256"}],"outputs":[{"name":"","type":"bytes32","internalType":"bytes32"}],"stateMutability":"pure"},{"type":"function","name":"recoverSigner","inputs":[{"name":"_ethSignedMessageHash","type":"bytes32","internalType":"bytes32"},{"name":"_signature","type":"bytes","internalType":"bytes"}],"outputs":[{"name":"","type":"address","internalType":"address"}],"stateMutability":"pure"},{"type":"function","name":"splitSignature","inputs":[{"name":"sig","type":"bytes","internalType":"bytes"}],"outputs":[{"name":"r","type":"bytes32","internalType":"bytes32"},{"name":"s","type":"bytes32","internalType":"bytes32"},{"name":"v","type":"uint8","internalType":"uint8"}],"stateMutability":"pure"},{"type":"function","name":"verify","inputs":[{"name":"_signer","type":"address","internalType":"address"},{"name":"_addr","type":"address","internalType":"address"},{"name":"_tokenId","type":"uint256","internalType":"uint256"},{"name":"signature","type":"bytes","internalType":"bytes"}],"outputs":[{"name":"","type":"bool","internalType":"bool"}],"stateMutability":"pure"}],"bytecode":{"object":"0x6080604052348015600e575f5ffd5b5061095d8061001c5f395ff3fe608060405234801561000f575f5ffd5b5060043610610055575f3560e01c8063512c91df1461005957806393e9f8fc1461008957806397aba7f9146100b9578063a7bb5803146100e9578063fa5408011461011b575b5f5ffd5b610073600480360381019061006e9190610377565b61014b565b60405161008091906103cd565b60405180910390f35b6100a3600480360381019061009e9190610522565b61017d565b6040516100b091906105bc565b60405180910390f35b6100d360048036038101906100ce91906105ff565b6101db565b6040516100e09190610668565b60405180910390f35b61010360048036038101906100fe9190610681565b610245565b604051610112939291906106e3565b60405180910390f35b61013560048036038101906101309190610718565b6102aa565b60405161014291906103cd565b60405180910390f35b5f828260405160200161015f9291906107a8565b60405160208183030381529060405280519060200120905092915050565b5f5f610189858561014b565b90505f610195826102aa565b90508673ffffffffffffffffffffffffffffffffffffffff166101b882866101db565b73ffffffffffffffffffffffffffffffffffffffff161492505050949350505050565b5f5f5f5f6101e885610245565b9250925092506001868285856040515f815260200160405260405161021094939291906107d3565b6020604051602081039080840390855afa158015610230573d5f5f3e3d5ffd5b50505060206040510351935050505092915050565b5f5f5f604184511461028c576040517f08c379a000000000000000000000000000000000000000000000000000000000815260040161028390610870565b60405180910390fd5b602084015192506040840151915060608401515f1a90509193909250565b5f816040516020016102bc9190610902565b604051602081830303815290604052805190602001209050919050565b5f604051905090565b5f5ffd5b5f5ffd5b5f73ffffffffffffffffffffffffffffffffffffffff82169050919050565b5f610313826102ea565b9050919050565b61032381610309565b811461032d575f5ffd5b50565b5f8135905061033e8161031a565b92915050565b5f819050919050565b61035681610344565b8114610360575f5ffd5b50565b5f813590506103718161034d565b92915050565b5f5f6040838503121561038d5761038c6102e2565b5b5f61039a85828601610330565b92505060206103ab85828601610363565b9150509250929050565b5f819050919050565b6103c7816103b5565b82525050565b5f6020820190506103e05f8301846103be565b92915050565b5f5ffd5b5f5ffd5b5f601f19601f8301169050919050565b7f4e487b71000000000000000000000000000000000000000000000000000000005f52604160045260245ffd5b610434826103ee565b810181811067ffffffffffffffff82111715610453576104526103fe565b5b80604052505050565b5f6104656102d9565b9050610471828261042b565b919050565b5f67ffffffffffffffff8211156104905761048f6103fe565b5b610499826103ee565b9050602081019050919050565b828183375f83830152505050565b5f6104c66104c184610476565b61045c565b9050828152602081018484840111156104e2576104e16103ea565b5b6104ed8482856104a6565b509392505050565b5f82601f830112610509576105086103e6565b5b81356105198482602086016104b4565b91505092915050565b5f5f5f5f6080858703121561053a576105396102e2565b5b5f61054787828801610330565b945050602061055887828801610330565b935050604061056987828801610363565b925050606085013567ffffffffffffffff81111561058a576105896102e6565b5b610596878288016104f5565b91505092959194509250565b5f8115159050919050565b6105b6816105a2565b82525050565b5f6020820190506105cf5f8301846105ad565b92915050565b6105de816103b5565b81146105e8575f5ffd5b50565b5f813590506105f9816105d5565b92915050565b5f5f60408385031215610615576106146102e2565b5b5f610622858286016105eb565b925050602083013567ffffffffffffffff811115610643576106426102e6565b5b61064f858286016104f5565b9150509250929050565b61066281610309565b82525050565b5f60208201905061067b5f830184610659565b92915050565b5f60208284031215610696576106956102e2565b5b5f82013567ffffffffffffffff8111156106b3576106b26102e6565b5b6106bf848285016104f5565b91505092915050565b5f60ff82169050919050565b6106dd816106c8565b82525050565b5f6060820190506106f65f8301866103be565b61070360208301856103be565b61071060408301846106d4565b949350505050565b5f6020828403121561072d5761072c6102e2565b5b5f61073a848285016105eb565b91505092915050565b5f8160601b9050919050565b5f61075982610743565b9050919050565b5f61076a8261074f565b9050919050565b61078261077d82610309565b610760565b82525050565b5f819050919050565b6107a261079d82610344565b610788565b82525050565b5f6107b38285610771565b6014820191506107c38284610791565b6020820191508190509392505050565b5f6080820190506107e65f8301876103be565b6107f360208301866106d4565b61080060408301856103be565b61080d60608301846103be565b95945050505050565b5f82825260208201905092915050565b7f696e76616c6964207369676e6174757265206c656e67746800000000000000005f82015250565b5f61085a601883610816565b915061086582610826565b602082019050919050565b5f6020820190508181035f8301526108878161084e565b9050919050565b5f81905092915050565b7f19457468657265756d205369676e6564204d6573736167653a0a3332000000005f82015250565b5f6108cc601c8361088e565b91506108d782610898565b601c82019050919050565b5f819050919050565b6108fc6108f7826103b5565b6108e2565b82525050565b5f61090c826108c0565b915061091882846108eb565b6020820191508190509291505056fea26469706673582212206103b0ffb7395183469f1287b34d19b041647c988f26d746c057c061e1637d2764736f6c63430008220033","linkReferences":{}},"methodIdentifiers":{"getEthSignedMessageHash(bytes32)":"fa540801","getMessageHash(address,uint256)":"512c91df","recoverSigner(bytes32,bytes)":"97aba7f9","splitSignature(bytes)":"a7bb5803","verify(address,address,uint256,bytes)":"93e9f8fc"},"id":87}