{"abi":[{"type":"constructor","inputs":[],"stateMutability":"nonpayable"},{"type":"function","name":"balanceOf","inputs":[{"name":"account","type":"address","internalType":"address"},{"name":"id","type":"uint256","internalType":"uint256"}],"outputs":[{"name":"","type":"uint256","internalType":"uint256"}],"stateMutability":"view"},{"type":"function","name":"balanceOfBatch","inputs":[{"name":"accounts","type":"address[]","internalType":"address[]"},{"name":"ids","type":"uint256[]","internalType":"uint256[]"}],"outputs":[{"name":"","type":"uint256[]","internalType":"uint256[]"}],"stateMutability":"view"},{"type":"function","name":"isApprovedForAll","inputs":[{"name":"account","type":"address","internalType":"address"},{"name":"operator","type":"address","internalType":"address"}],"outputs":[{"name":"","type":"bool","internalType":"bool"}],"stateMutability":"view"},{"type":"function","name":"mint","inputs":[{"name":"to","type":"address","internalType":"address"},{"name":"id","type":"uint256","internalType":"uint256"},{"name":"amount","type":"uint256","internalType":"uint256"}],"outputs":[],"stateMutability":"nonpayable"},{"type":"function","name":"mintBatch","inputs":[{"name":"to","type":"address","internalType":"address"},{"name":"ids","type":"uint256[]","internalType":"uint256[]"},{"name":"amounts","type":"uint256[]","internalType":"uint256[]"}],"outputs":[],"stateMutability":"nonpayable"},{"type":"function","name":"name","inputs":[],"outputs":[{"name":"","type":"string","internalType":"string"}],"stateMutability":"view"},{"type":"function","name":"safeBatchTransferFrom","inputs":[{"name":"from","type":"address","internalType":"address"},{"name":"to","type":"address","internalType":"address"},{"name":"ids","type":"uint256[]","internalType":"uint256[]"},{"name":"amounts","type":"uint256[]","internalType":"uint256[]"},{"name":"data","type":"bytes","internalType":"bytes"}],"outputs":[],"stateMutability":"nonpayable"},{"type":"function","name":"safeTransferFrom","inputs":[{"name":"from","type":"address","internalType":"address"},{"name":"to","type":"address","internalType":"address"},{"name":"id","type":"uint256","internalType":"uint256"},{"name":"amount","type":"uint256","internalType":"uint256"},{"name":"data","type":"bytes","internalType":"bytes"}],"outputs":[],"stateMutability":"nonpayable"},{"type":"function","name":"setApprovalForAll","inputs":[{"name":"operator","type":"address","internalType":"address"},{"name":"approved","type":"bool","internalType":"bool"}],"outputs":[],"stateMutability":"nonpayable"},{"type":"function","name":"supportsInterface","inputs":[{"name":"interfaceId","type":"bytes4","internalType":"bytes4"}],"outputs":[{"name":"","type":"bool","internalType":"bool"}],"stateMutability":"view"},{"type":"function","name":"symbol","inputs":[],"outputs":[{"name":"","type":"string","internalType":"string"}],"stateMutability":"view"},{"type":"function","name":"uri","inputs":[{"name":"id","type":"uint256","internalType":"uint256"}],"outputs":[{"name":"","type":"string","internalType":"string"}],"stateMutability":"view"},{"type":"event","name":"ApprovalForAll","inputs":[{"name":"account","type":"address","indexed":true,"internalType":"address"},{"name":"operator","type":"address","indexed":true,"internalType":"address"},{"name":"approved","type":"bool","indexed":false,"internalType":"bool"}],"anonymous":false},{"type":"event","name":"TransferBatch","inputs":[{"name":"operator","type":"address","indexed":true,"internalType":"address"},{"name":"from","type":"address","indexed":true,"internalType":"address"},{"name":"to","type":"address","indexed":true,"internalType":"address"},{"name":"ids","type":"uint256[]","indexed":false,"internalType":"uint256[]"},{"name":"values","type":"uint256[]","indexed":false,"internalType":"uint256[]"}],"anonymous":false},{"type":"event","name":"TransferSingle","inputs":[{"name":"operator","type":"address","indexed":true,"internalType":"address"},{"name":"from","type":"address","indexed":true,"internalType":"address"},{"name":"to","type":"address","indexed":true,"internalType":"address"},{"name":"id","type":"uint256","indexed":false,"internalType":"uint256"},{"name":"value","type":"uint256","indexed":false,"internalType":"uint256"}],"anonymous":false},{"type":"event","name":"URI","inputs":[{"name":"value","type":"string","indexed":false,"internalType":"string"},{"name":"id","type":"uint256","indexed":true,"internalType":"uint256"}],"anonymous":false},{"type":"error","name":"ERC1155InvalidReceiver","inputs":[{"name":"receiver","type":"address","internalType":"address"}]}],"bytecode":{"object":"0x608060405234801561000f575f5ffd5b506040518060400160405280600881526020017f42415943313135350000000000000000000000000000000000000000000000008152506040518060400160405280600881526020017f4241594331313535000000000000000000000000000000000000000000000000815250815f908161008a91906102f0565b50806001908161009a91906102f0565b5050506103bf565b5f81519050919050565b7f4e487b71000000000000000000000000000000000000000000000000000000005f52604160045260245ffd5b7f4e487b71000000000000000000000000000000000000000000000000000000005f52602260045260245ffd5b5f600282049050600182168061011d57607f821691505b6020821081036101305761012f6100d9565b5b50919050565b5f819050815f5260205f209050919050565b5f6020601f8301049050919050565b5f82821b905092915050565b5f600883026101927fffffffffffffffffffffffffffffffffffffffffffffffffffffffffffffffff82610157565b61019c8683610157565b95508019841693508086168417925050509392505050565b5f819050919050565b5f819050919050565b5f6101e06101db6101d6846101b4565b6101bd565b6101b4565b9050919050565b5f819050919050565b6101f9836101c6565b61020d610205826101e7565b848454610163565b825550505050565b5f5f905090565b610224610215565b61022f8184846101f0565b505050565b5f5b828110156102555761024a5f82840161021c565b600181019050610236565b505050565b601f8211156102a857828211156102a75761027481610136565b61027d83610148565b61028685610148565b6020861015610293575f90505b8083016102a282840382610234565b505050505b5b505050565b5f82821c905092915050565b5f6102c85f19846008026102ad565b1980831691505092915050565b5f6102e083836102b9565b9150826002028217905092915050565b6102f9826100a2565b67ffffffffffffffff811115610312576103116100ac565b5b61031c8254610106565b61032782828561025a565b5f60209050601f831160018114610358575f8415610346578287015190505b61035085826102d5565b8655506103b7565b601f19841661036686610136565b5f5b8281101561038d57848901518255600182019150602085019450602081019050610368565b868310156103aa57848901516103a6601f8916826102b9565b8355505b6001600288020188555050505b505050505050565b612b02806103cc5f395ff3fe608060405234801561000f575f5ffd5b50600436106100b1575f3560e01c80634e1273f41161006f5780634e1273f41461019b57806395d89b41146101cb578063a22cb465146101e9578063d81d0a1514610205578063e985e9c514610221578063f242432a14610251576100b1565b8062fdd58e146100b557806301ffc9a7146100e557806306fdde03146101155780630e89341c14610133578063156e29f6146101635780632eb2c2d61461017f575b5f5ffd5b6100cf60048036038101906100ca91906118f0565b61026d565b6040516100dc919061193d565b60405180910390f35b6100ff60048036038101906100fa91906119ab565b610331565b60405161010c91906119f0565b60405180910390f35b61011d61046a565b60405161012a9190611a79565b60405180910390f35b61014d60048036038101906101489190611a99565b6104f5565b60405161015a9190611a79565b60405180910390f35b61017d60048036038101906101789190611ac4565b610551565b005b61019960048036038101906101949190611d04565b6105b4565b005b6101b560048036038101906101b09190611e8f565b61091e565b6040516101c29190611fbc565b60405180910390f35b6101d3610a32565b6040516101e09190611a79565b60405180910390f35b61020360048036038101906101fe9190612006565b610abe565b005b61021f600480360381019061021a9190612044565b610c24565b005b61023b600480360381019061023691906120cc565b610cbd565b60405161024891906119f0565b60405180910390f35b61026b6004803603810190610266919061210a565b610d4b565b005b5f5f73ffffffffffffffffffffffffffffffffffffffff168373ffffffffffffffffffffffffffffffffffffffff16036102dc576040517f08c379a00000000000000000000000000000000000000000000000000000000081526004016102d39061220d565b60405180910390fd5b60025f8381526020019081526020015f205f8473ffffffffffffffffffffffffffffffffffffffff1673ffffffffffffffffffffffffffffffffffffffff1681526020019081526020015f2054905092915050565b5f7fd9b67a26000000000000000000000000000000000000000000000000000000007bffffffffffffffffffffffffffffffffffffffffffffffffffffffff1916827bffffffffffffffffffffffffffffffffffffffffffffffffffffffff191614806103fb57507f0e89341c000000000000000000000000000000000000000000000000000000007bffffffffffffffffffffffffffffffffffffffffffffffffffffffff1916827bffffffffffffffffffffffffffffffffffffffffffffffffffffffff1916145b8061046357507f01ffc9a7000000000000000000000000000000000000000000000000000000007bffffffffffffffffffffffffffffffffffffffffffffffffffffffff1916827bffffffffffffffffffffffffffffffffffffffffffffffffffffffff1916145b9050919050565b5f805461047690612258565b80601f01602080910402602001604051908101604052809291908181526020018280546104a290612258565b80156104ed5780601f106104c4576101008083540402835291602001916104ed565b820191905f5260205f20905b8154815290600101906020018083116104d057829003601f168201915b505050505081565b60605f610500611019565b90505f81511161051e5760405180602001604052805f815250610549565b8061052884611039565b6040516020016105399291906122c2565b6040516020818303038152906040525b915050919050565b6127108210610595576040517f08c379a000000000000000000000000000000000000000000000000000000000815260040161058c9061232f565b60405180910390fd5b6105af83838360405180602001604052805f815250611192565b505050565b5f3390508073ffffffffffffffffffffffffffffffffffffffff168673ffffffffffffffffffffffffffffffffffffffff1614806105f857506105f78682610cbd565b5b610637576040517f08c379a000000000000000000000000000000000000000000000000000000000815260040161062e906123bd565b60405180910390fd5b825184511461067b576040517f08c379a00000000000000000000000000000000000000000000000000000000081526004016106729061244b565b60405180910390fd5b5f73ffffffffffffffffffffffffffffffffffffffff168573ffffffffffffffffffffffffffffffffffffffff16036106e9576040517f08c379a00000000000000000000000000000000000000000000000000000000081526004016106e0906124d9565b60405180910390fd5b5f5f90505b8451811015610889575f85828151811061070b5761070a6124f7565b5b602002602001015190505f858381518110610729576107286124f7565b5b602002602001015190505f60025f8481526020019081526020015f205f8b73ffffffffffffffffffffffffffffffffffffffff1673ffffffffffffffffffffffffffffffffffffffff1681526020019081526020015f20549050818110156107c6576040517f08c379a00000000000000000000000000000000000000000000000000000000081526004016107bd90612594565b60405180910390fd5b81810360025f8581526020019081526020015f205f8c73ffffffffffffffffffffffffffffffffffffffff1673ffffffffffffffffffffffffffffffffffffffff1681526020019081526020015f20819055508160025f8581526020019081526020015f205f8b73ffffffffffffffffffffffffffffffffffffffff1673ffffffffffffffffffffffffffffffffffffffff1681526020019081526020015f205f82825461087491906125df565b925050819055505050508060010190506106ee565b508473ffffffffffffffffffffffffffffffffffffffff168673ffffffffffffffffffffffffffffffffffffffff168273ffffffffffffffffffffffffffffffffffffffff167f4a39dc06d4c0dbc64b70af90fd698a233a518aa5d07e595d983b8c0526c8f7fb8787604051610900929190612612565b60405180910390a46109168187878787876112f9565b505050505050565b60608151835114610964576040517f08c379a000000000000000000000000000000000000000000000000000000000815260040161095b906126b7565b60405180910390fd5b5f835167ffffffffffffffff8111156109805761097f611b18565b5b6040519080825280602002602001820160405280156109ae5781602001602082028036833780820191505090505b5090505f5f90505b8451811015610a27576109fd8582815181106109d5576109d46124f7565b5b60200260200101518583815181106109f0576109ef6124f7565b5b602002602001015161026d565b828281518110610a1057610a0f6124f7565b5b6020026020010181815250508060010190506109b6565b508091505092915050565b60018054610a3f90612258565b80601f0160208091040260200160405190810160405280929190818152602001828054610a6b90612258565b8015610ab65780601f10610a8d57610100808354040283529160200191610ab6565b820191905f5260205f20905b815481529060010190602001808311610a9957829003601f168201915b505050505081565b8173ffffffffffffffffffffffffffffffffffffffff163373ffffffffffffffffffffffffffffffffffffffff1603610b2c576040517f08c379a0000000000000000000000000000000000000000000000000000000008152600401610b2390612745565b60405180910390fd5b8060035f3373ffffffffffffffffffffffffffffffffffffffff1673ffffffffffffffffffffffffffffffffffffffff1681526020019081526020015f205f8473ffffffffffffffffffffffffffffffffffffffff1673ffffffffffffffffffffffffffffffffffffffff1681526020019081526020015f205f6101000a81548160ff0219169083151502179055508173ffffffffffffffffffffffffffffffffffffffff163373ffffffffffffffffffffffffffffffffffffffff167f17307eab39ab6107e8899845ad3d59bd9653f200f220920489ca2b5937696c3183604051610c1891906119f0565b60405180910390a35050565b5f5f90505b8251811015610c9d57612710838281518110610c4857610c476124f7565b5b602002602001015110610c90576040517f08c379a0000000000000000000000000000000000000000000000000000000008152600401610c879061232f565b60405180910390fd5b8080600101915050610c29565b50610cb883838360405180602001604052805f8152506114a8565b505050565b5f60035f8473ffffffffffffffffffffffffffffffffffffffff1673ffffffffffffffffffffffffffffffffffffffff1681526020019081526020015f205f8373ffffffffffffffffffffffffffffffffffffffff1673ffffffffffffffffffffffffffffffffffffffff1681526020019081526020015f205f9054906101000a900460ff16905092915050565b5f3390508073ffffffffffffffffffffffffffffffffffffffff168673ffffffffffffffffffffffffffffffffffffffff161480610d8f5750610d8e8682610cbd565b5b610dce576040517f08c379a0000000000000000000000000000000000000000000000000000000008152600401610dc5906123bd565b60405180910390fd5b5f73ffffffffffffffffffffffffffffffffffffffff168573ffffffffffffffffffffffffffffffffffffffff1603610e3c576040517f08c379a0000000000000000000000000000000000000000000000000000000008152600401610e33906124d9565b60405180910390fd5b5f60025f8681526020019081526020015f205f8873ffffffffffffffffffffffffffffffffffffffff1673ffffffffffffffffffffffffffffffffffffffff1681526020019081526020015f2054905083811015610ecf576040517f08c379a0000000000000000000000000000000000000000000000000000000008152600401610ec690612594565b60405180910390fd5b83810360025f8781526020019081526020015f205f8973ffffffffffffffffffffffffffffffffffffffff1673ffffffffffffffffffffffffffffffffffffffff1681526020019081526020015f20819055508360025f8781526020019081526020015f205f8873ffffffffffffffffffffffffffffffffffffffff1673ffffffffffffffffffffffffffffffffffffffff1681526020019081526020015f205f828254610f7d91906125df565b925050819055508573ffffffffffffffffffffffffffffffffffffffff168773ffffffffffffffffffffffffffffffffffffffff168373ffffffffffffffffffffffffffffffffffffffff167fc3d58168c5ae7397731d063d5bbf3d657854427343f4c083240f7aacaa2d0f628888604051610ffa929190612763565b60405180910390a46110108288888888886116a3565b50505050505050565b6060604051806060016040528060368152602001612a9760369139905090565b60605f820361107f576040518060400160405280600181526020017f3000000000000000000000000000000000000000000000000000000000000000815250905061118d565b5f8290505f5b5f82146110ae5780806110979061278a565b915050600a826110a791906127fe565b9150611085565b5f8167ffffffffffffffff8111156110c9576110c8611b18565b5b6040519080825280601f01601f1916602001820160405280156110fb5781602001600182028036833780820191505090505b5090505b5f851461118657600182611113919061282e565b9150600a856111229190612861565b603061112e91906125df565b60f81b818381518110611144576111436124f7565b5b60200101907effffffffffffffffffffffffffffffffffffffffffffffffffffffffffffff191690815f1a905350600a8561117f91906127fe565b94506110ff565b8093505050505b919050565b5f73ffffffffffffffffffffffffffffffffffffffff168473ffffffffffffffffffffffffffffffffffffffff1603611200576040517f08c379a00000000000000000000000000000000000000000000000000000000081526004016111f790612901565b60405180910390fd5b5f3390508260025f8681526020019081526020015f205f8773ffffffffffffffffffffffffffffffffffffffff1673ffffffffffffffffffffffffffffffffffffffff1681526020019081526020015f205f82825461125f91906125df565b925050819055508473ffffffffffffffffffffffffffffffffffffffff165f73ffffffffffffffffffffffffffffffffffffffff168273ffffffffffffffffffffffffffffffffffffffff167fc3d58168c5ae7397731d063d5bbf3d657854427343f4c083240f7aacaa2d0f6287876040516112dc929190612763565b60405180910390a46112f2815f878787876116a3565b5050505050565b5f8473ffffffffffffffffffffffffffffffffffffffff163b11156114a0578373ffffffffffffffffffffffffffffffffffffffff1663bc197c8187878686866040518663ffffffff1660e01b8152600401611359959493929190612980565b6020604051808303815f875af192505050801561139457506040513d601f19601f8201168201806040525081019061139191906129fa565b60015b611415573d805f81146113c2576040519150601f19603f3d011682016040523d82523d5f602084013e6113c7565b606091505b505f81510361140d57846040517f57f447ce0000000000000000000000000000000000000000000000000000000081526004016114049190612a25565b60405180910390fd5b805181602001fd5b63bc197c8160e01b7bffffffffffffffffffffffffffffffffffffffffffffffffffffffff1916817bffffffffffffffffffffffffffffffffffffffffffffffffffffffff19161461149e57846040517f57f447ce0000000000000000000000000000000000000000000000000000000081526004016114959190612a25565b60405180910390fd5b505b505050505050565b5f73ffffffffffffffffffffffffffffffffffffffff168473ffffffffffffffffffffffffffffffffffffffff1603611516576040517f08c379a000000000000000000000000000000000000000000000000000000000815260040161150d90612901565b60405180910390fd5b815183511461155a576040517f08c379a00000000000000000000000000000000000000000000000000000000081526004016115519061244b565b60405180910390fd5b5f3390505f5f90505b845181101561160f5783818151811061157f5761157e6124f7565b5b602002602001015160025f87848151811061159d5761159c6124f7565b5b602002602001015181526020019081526020015f205f8873ffffffffffffffffffffffffffffffffffffffff1673ffffffffffffffffffffffffffffffffffffffff1681526020019081526020015f205f8282546115fb91906125df565b925050819055508080600101915050611563565b508473ffffffffffffffffffffffffffffffffffffffff165f73ffffffffffffffffffffffffffffffffffffffff168273ffffffffffffffffffffffffffffffffffffffff167f4a39dc06d4c0dbc64b70af90fd698a233a518aa5d07e595d983b8c0526c8f7fb8787604051611686929190612612565b60405180910390a461169c815f878787876112f9565b5050505050565b5f8473ffffffffffffffffffffffffffffffffffffffff163b111561184a578373ffffffffffffffffffffffffffffffffffffffff1663f23a6e6187878686866040518663ffffffff1660e01b8152600401611703959493929190612a3e565b6020604051808303815f875af192505050801561173e57506040513d601f19601f8201168201806040525081019061173b91906129fa565b60015b6117bf573d805f811461176c576040519150601f19603f3d011682016040523d82523d5f602084013e611771565b606091505b505f8151036117b757846040517f57f447ce0000000000000000000000000000000000000000000000000000000081526004016117ae9190612a25565b60405180910390fd5b805181602001fd5b63f23a6e6160e01b7bffffffffffffffffffffffffffffffffffffffffffffffffffffffff1916817bffffffffffffffffffffffffffffffffffffffffffffffffffffffff19161461184857846040517f57f447ce00000000000000000000000000000000000000000000000000000000815260040161183f9190612a25565b60405180910390fd5b505b505050505050565b5f604051905090565b5f5ffd5b5f5ffd5b5f73ffffffffffffffffffffffffffffffffffffffff82169050919050565b5f61188c82611863565b9050919050565b61189c81611882565b81146118a6575f5ffd5b50565b5f813590506118b781611893565b92915050565b5f819050919050565b6118cf816118bd565b81146118d9575f5ffd5b50565b5f813590506118ea816118c6565b92915050565b5f5f604083850312156119065761190561185b565b5b5f611913858286016118a9565b9250506020611924858286016118dc565b9150509250929050565b611937816118bd565b82525050565b5f6020820190506119505f83018461192e565b92915050565b5f7fffffffff0000000000000000000000000000000000000000000000000000000082169050919050565b61198a81611956565b8114611994575f5ffd5b50565b5f813590506119a581611981565b92915050565b5f602082840312156119c0576119bf61185b565b5b5f6119cd84828501611997565b91505092915050565b5f8115159050919050565b6119ea816119d6565b82525050565b5f602082019050611a035f8301846119e1565b92915050565b5f81519050919050565b5f82825260208201905092915050565b8281835e5f83830152505050565b5f601f19601f8301169050919050565b5f611a4b82611a09565b611a558185611a13565b9350611a65818560208601611a23565b611a6e81611a31565b840191505092915050565b5f6020820190508181035f830152611a918184611a41565b905092915050565b5f60208284031215611aae57611aad61185b565b5b5f611abb848285016118dc565b91505092915050565b5f5f5f60608486031215611adb57611ada61185b565b5b5f611ae8868287016118a9565b9350506020611af9868287016118dc565b9250506040611b0a868287016118dc565b9150509250925092565b5f5ffd5b7f4e487b71000000000000000000000000000000000000000000000000000000005f52604160045260245ffd5b611b4e82611a31565b810181811067ffffffffffffffff82111715611b6d57611b6c611b18565b5b80604052505050565b5f611b7f611852565b9050611b8b8282611b45565b919050565b5f67ffffffffffffffff821115611baa57611ba9611b18565b5b602082029050602081019050919050565b5f5ffd5b5f611bd1611bcc84611b90565b611b76565b90508083825260208201905060208402830185811115611bf457611bf3611bbb565b5b835b81811015611c1d5780611c0988826118dc565b845260208401935050602081019050611bf6565b5050509392505050565b5f82601f830112611c3b57611c3a611b14565b5b8135611c4b848260208601611bbf565b91505092915050565b5f5ffd5b5f67ffffffffffffffff821115611c7257611c71611b18565b5b611c7b82611a31565b9050602081019050919050565b828183375f83830152505050565b5f611ca8611ca384611c58565b611b76565b905082815260208101848484011115611cc457611cc3611c54565b5b611ccf848285611c88565b509392505050565b5f82601f830112611ceb57611cea611b14565b5b8135611cfb848260208601611c96565b91505092915050565b5f5f5f5f5f60a08688031215611d1d57611d1c61185b565b5b5f611d2a888289016118a9565b9550506020611d3b888289016118a9565b945050604086013567ffffffffffffffff811115611d5c57611d5b61185f565b5b611d6888828901611c27565b935050606086013567ffffffffffffffff811115611d8957611d8861185f565b5b611d9588828901611c27565b925050608086013567ffffffffffffffff811115611db657611db561185f565b5b611dc288828901611cd7565b9150509295509295909350565b5f67ffffffffffffffff821115611de957611de8611b18565b5b602082029050602081019050919050565b5f611e0c611e0784611dcf565b611b76565b90508083825260208201905060208402830185811115611e2f57611e2e611bbb565b5b835b81811015611e585780611e4488826118a9565b845260208401935050602081019050611e31565b5050509392505050565b5f82601f830112611e7657611e75611b14565b5b8135611e86848260208601611dfa565b91505092915050565b5f5f60408385031215611ea557611ea461185b565b5b5f83013567ffffffffffffffff811115611ec257611ec161185f565b5b611ece85828601611e62565b925050602083013567ffffffffffffffff811115611eef57611eee61185f565b5b611efb85828601611c27565b9150509250929050565b5f81519050919050565b5f82825260208201905092915050565b5f819050602082019050919050565b611f37816118bd565b82525050565b5f611f488383611f2e565b60208301905092915050565b5f602082019050919050565b5f611f6a82611f05565b611f748185611f0f565b9350611f7f83611f1f565b805f5b83811015611faf578151611f968882611f3d565b9750611fa183611f54565b925050600181019050611f82565b5085935050505092915050565b5f6020820190508181035f830152611fd48184611f60565b905092915050565b611fe5816119d6565b8114611fef575f5ffd5b50565b5f8135905061200081611fdc565b92915050565b5f5f6040838503121561201c5761201b61185b565b5b5f612029858286016118a9565b925050602061203a85828601611ff2565b9150509250929050565b5f5f5f6060848603121561205b5761205a61185b565b5b5f612068868287016118a9565b935050602084013567ffffffffffffffff8111156120895761208861185f565b5b61209586828701611c27565b925050604084013567ffffffffffffffff8111156120b6576120b561185f565b5b6120c286828701611c27565b9150509250925092565b5f5f604083850312156120e2576120e161185b565b5b5f6120ef858286016118a9565b9250506020612100858286016118a9565b9150509250929050565b5f5f5f5f5f60a086880312156121235761212261185b565b5b5f612130888289016118a9565b9550506020612141888289016118a9565b9450506040612152888289016118dc565b9350506060612163888289016118dc565b925050608086013567ffffffffffffffff8111156121845761218361185f565b5b61219088828901611cd7565b9150509295509295909350565b7f455243313135353a2061646472657373207a65726f206973206e6f74206120765f8201527f616c6964206f776e657200000000000000000000000000000000000000000000602082015250565b5f6121f7602a83611a13565b91506122028261219d565b604082019050919050565b5f6020820190508181035f830152612224816121eb565b9050919050565b7f4e487b71000000000000000000000000000000000000000000000000000000005f52602260045260245ffd5b5f600282049050600182168061226f57607f821691505b6020821081036122825761228161222b565b5b50919050565b5f81905092915050565b5f61229c82611a09565b6122a68185612288565b93506122b6818560208601611a23565b80840191505092915050565b5f6122cd8285612292565b91506122d98284612292565b91508190509392505050565b7f6964206f766572666c6f770000000000000000000000000000000000000000005f82015250565b5f612319600b83611a13565b9150612324826122e5565b602082019050919050565b5f6020820190508181035f8301526123468161230d565b9050919050565b7f455243313135353a2063616c6c6572206973206e6f7420746f6b656e206f776e5f8201527f6572206e6f7220617070726f7665640000000000000000000000000000000000602082015250565b5f6123a7602f83611a13565b91506123b28261234d565b604082019050919050565b5f6020820190508181035f8301526123d48161239b565b9050919050565b7f455243313135353a2069647320616e6420616d6f756e7473206c656e677468205f8201527f6d69736d61746368000000000000000000000000000000000000000000000000602082015250565b5f612435602883611a13565b9150612440826123db565b604082019050919050565b5f6020820190508181035f83015261246281612429565b9050919050565b7f455243313135353a207472616e7366657220746f20746865207a65726f2061645f8201527f6472657373000000000000000000000000000000000000000000000000000000602082015250565b5f6124c3602583611a13565b91506124ce82612469565b604082019050919050565b5f6020820190508181035f8301526124f0816124b7565b9050919050565b7f4e487b71000000000000000000000000000000000000000000000000000000005f52603260045260245ffd5b7f455243313135353a20696e73756666696369656e742062616c616e636520666f5f8201527f72207472616e7366657200000000000000000000000000000000000000000000602082015250565b5f61257e602a83611a13565b915061258982612524565b604082019050919050565b5f6020820190508181035f8301526125ab81612572565b9050919050565b7f4e487b71000000000000000000000000000000000000000000000000000000005f52601160045260245ffd5b5f6125e9826118bd565b91506125f4836118bd565b925082820190508082111561260c5761260b6125b2565b5b92915050565b5f6040820190508181035f83015261262a8185611f60565b9050818103602083015261263e8184611f60565b90509392505050565b7f455243313135353a206163636f756e747320616e6420696473206c656e6774685f8201527f206d69736d617463680000000000000000000000000000000000000000000000602082015250565b5f6126a1602983611a13565b91506126ac82612647565b604082019050919050565b5f6020820190508181035f8301526126ce81612695565b9050919050565b7f455243313135353a2073657474696e6720617070726f76616c207374617475735f8201527f20666f722073656c660000000000000000000000000000000000000000000000602082015250565b5f61272f602983611a13565b915061273a826126d5565b604082019050919050565b5f6020820190508181035f83015261275c81612723565b9050919050565b5f6040820190506127765f83018561192e565b612783602083018461192e565b9392505050565b5f612794826118bd565b91507fffffffffffffffffffffffffffffffffffffffffffffffffffffffffffffffff82036127c6576127c56125b2565b5b600182019050919050565b7f4e487b71000000000000000000000000000000000000000000000000000000005f52601260045260245ffd5b5f612808826118bd565b9150612813836118bd565b925082612823576128226127d1565b5b828204905092915050565b5f612838826118bd565b9150612843836118bd565b925082820390508181111561285b5761285a6125b2565b5b92915050565b5f61286b826118bd565b9150612876836118bd565b925082612886576128856127d1565b5b828206905092915050565b7f455243313135353a206d696e7420746f20746865207a65726f206164647265735f8201527f7300000000000000000000000000000000000000000000000000000000000000602082015250565b5f6128eb602183611a13565b91506128f682612891565b604082019050919050565b5f6020820190508181035f830152612918816128df565b9050919050565b61292881611882565b82525050565b5f81519050919050565b5f82825260208201905092915050565b5f6129528261292e565b61295c8185612938565b935061296c818560208601611a23565b61297581611a31565b840191505092915050565b5f60a0820190506129935f83018861291f565b6129a0602083018761291f565b81810360408301526129b28186611f60565b905081810360608301526129c68185611f60565b905081810360808301526129da8184612948565b90509695505050505050565b5f815190506129f481611981565b92915050565b5f60208284031215612a0f57612a0e61185b565b5b5f612a1c848285016129e6565b91505092915050565b5f602082019050612a385f83018461291f565b92915050565b5f60a082019050612a515f83018861291f565b612a5e602083018761291f565b612a6b604083018661192e565b612a78606083018561192e565b8181036080830152612a8a8184612948565b9050969550505050505056fe697066733a2f2f516d65536a53696e4870506e6d586d73704d6a776958794e367a533445397a63636172694752336a7863615774712fa26469706673582212205714af1fe822619b8c9ac05e49434765f25ef1f0d876df96d5efe49a3e33b0ce64736f6c63430008220033","linkReferences":{}},"methodIdentifiers":{"balanceOf(address,uint256)":"00fdd58e","balanceOfBatch(address[],uint256[])":"4e1273f4","isApprovedForAll(address,address)":"e985e9c5","mint(address,uint256,uint256)":"156e29f6","mintBatch(address,uint256[],uint256[])":"d81d0a15","name()":"06fdde03","safeBatchTransferFrom(address,address,uint256[],uint256[],bytes)":"2eb2c2d6","safeTransferFrom(address,address,uint256,uint256,bytes)":"f242432a","setApprovalForAll(address,bool)":"a22cb465","supportsInterface(bytes4)":"01ffc9a7","symbol()":"95d89b41","uri(uint256)":"0e89341c"},"id":89}