{"abi":[{"type":"constructor","inputs":[{"name":"name","type":"string","internalType":"string"},{"name":"symbol","type":"string","internalType":"string"},{"name":"merkleroot","type":"bytes32","internalType":"bytes32"}],"stateMutability":"nonpayable"},{"type":"function","name":"approve","inputs":[{"name":"to","type":"address","internalType":"address"},{"name":"tokenId","type":"uint256","internalType":"uint256"}],"outputs":[],"stateMutability":"nonpayable"},{"type":"function","name":"balanceOf","inputs":[{"name":"owner","type":"address","internalType":"address"}],"outputs":[{"name":"","type":"uint256","internalType":"uint256"}],"stateMutability":"view"},{"type":"function","name":"getApproved","inputs":[{"name":"tokenId","type":"uint256","internalType":"uint256"}],"outputs":[{"name":"","type":"address","internalType":"address"}],"stateMutability":"view"},{"type":"function","name":"isApprovedForAll","inputs":[{"name":"owner","type":"address","internalType":"address"},{"name":"operator","type":"address","internalType":"address"}],"outputs":[{"name":"","type":"bool","internalType":"bool"}],"stateMutability":"view"},{"type":"function","name":"mint","inputs":[{"name":"account","type":"address","internalType":"address"},{"name":"tokenId","type":"uint256","internalType":"uint256"},{"name":"proof","type":"bytes32[]","internalType":"bytes32[]"}],"outputs":[],"stateMutability":"nonpayable"},{"type":"function","name":"mintedAddress","inputs":[{"name":"","type":"address","internalType":"address"}],"outputs":[{"name":"","type":"bool","internalType":"bool"}],"stateMutability":"view"},{"type":"function","name":"name","inputs":[],"outputs":[{"name":"","type":"string","internalType":"string"}],"stateMutability":"view"},{"type":"function","name":"ownerOf","inputs":[{"name":"tokenId","type":"uint256","internalType":"uint256"}],"outputs":[{"name":"owner","type":"address","internalType":"address"}],"stateMutability":"view"},{"type":"function","name":"root","inputs":[],"outputs":[{"name":"","type":"bytes32","internalType":"bytes32"}],"stateMutability":"view"},{"type":"function","name":"safeTransferFrom","inputs":[{"name":"from","type":"address","internalType":"address"},{"name":"to","type":"address","internalType":"address"},{"name":"tokenId","type":"uint256","internalType":"uint256"}],"outputs":[],"stateMutability":"nonpayable"},{"type":"function","name":"safeTransferFrom","inputs":[{"name":"from","type":"address","internalType":"address"},{"name":"to","type":"address","internalType":"address"},{"name":"tokenId","type":"uint256","internalType":"uint256"},{"name":"_data","type":"bytes","internalType":"bytes"}],"outputs":[],"stateMutability":"nonpayable"},{"type":"function","name":"setApprovalForAll","inputs":[{"name":"operator","type":"address","internalType":"address"},{"name":"approved","type":"bool","internalType":"bool"}],"outputs":[],"stateMutability":"nonpayable"},{"type":"function","name":"supportsInterface","inputs":[{"name":"interfaceId","type":"bytes4","internalType":"bytes4"}],"outputs":[{"name":"","type":"bool","internalType":"bool"}],"stateMutability":"pure"},{"type":"function","name":"symbol","inputs":[],"outputs":[{"name":"","type":"string","internalType":"string"}],"stateMutability":"view"},{"type":"function","name":"tokenURI","inputs":[{"name":"tokenId","type":"uint256","internalType":"uint256"}],"outputs":[{"name":"","type":"string","internalType":"string"}],"stateMutability":"view"},{"type":"function","name":"transferFrom","inputs":[{"name":"from","type":"address","internalType":"address"},{"name":"to","type":"address","internalType":"address"},{"name":"tokenId","type":"uint256","internalType":"uint256"}],"outputs":[],"stateMutability":"nonpayable"},{"type":"event","name":"Approval","inputs":[{"name":"owner","type":"address","indexed":true,"internalType":"address"},{"name":"approved","type":"address","indexed":true,"internalType":"address"},{"name":"tokenId","type":"uint256","indexed":true,"internalType":"uint256"}],"anonymous":false},{"type":"event","name":"ApprovalForAll","inputs":[{"name":"owner","type":"address","indexed":true,"internalType":"address"},{"name":"operator","type":"address","indexed":true,"internalType":"address"},{"name":"approved","type":"bool","indexed":false,"internalType":"bool"}],"anonymous":false},{"type":"event","name":"Transfer","inputs":[{"name":"from","type":"address","indexed":true,"internalType":"address"},{"name":"to","type":"address","indexed":true,"internalType":"address"},{"name":"tokenId","type":"uint256","indexed":true,"internalType":"uint256"}],"anonymous":false},{"type":"error","name":"ERC721InvalidReceiver","inputs":[{"name":"receiver","type":"address","internalType":"address"}]}],"bytecode":{"object":"0x60a060405234801561000f575f5ffd5b50604051612d3a380380612d3a833981810160405281019061003191906101e4565b8282815f9081610041919061048d565b508060019081610051919061048d565b505050806080818152505050505061055c565b5f604051905090565b5f5ffd5b5f5ffd5b5f5ffd5b5f5ffd5b5f601f19601f8301169050919050565b7f4e487b71000000000000000000000000000000000000000000000000000000005f52604160045260245ffd5b6100c38261007d565b810181811067ffffffffffffffff821117156100e2576100e161008d565b5b80604052505050565b5f6100f4610064565b905061010082826100ba565b919050565b5f67ffffffffffffffff82111561011f5761011e61008d565b5b6101288261007d565b9050602081019050919050565b8281835e5f83830152505050565b5f61015561015084610105565b6100eb565b90508281526020810184848401111561017157610170610079565b5b61017c848285610135565b509392505050565b5f82601f83011261019857610197610075565b5b81516101a8848260208601610143565b91505092915050565b5f819050919050565b6101c3816101b1565b81146101cd575f5ffd5b50565b5f815190506101de816101ba565b92915050565b5f5f5f606084860312156101fb576101fa61006d565b5b5f84015167ffffffffffffffff81111561021857610217610071565b5b61022486828701610184565b935050602084015167ffffffffffffffff81111561024557610244610071565b5b61025186828701610184565b9250506040610262868287016101d0565b9150509250925092565b5f81519050919050565b7f4e487b71000000000000000000000000000000000000000000000000000000005f52602260045260245ffd5b5f60028204905060018216806102ba57607f821691505b6020821081036102cd576102cc610276565b5b50919050565b5f819050815f5260205f209050919050565b5f6020601f8301049050919050565b5f82821b905092915050565b5f6008830261032f7fffffffffffffffffffffffffffffffffffffffffffffffffffffffffffffffff826102f4565b61033986836102f4565b95508019841693508086168417925050509392505050565b5f819050919050565b5f819050919050565b5f61037d61037861037384610351565b61035a565b610351565b9050919050565b5f819050919050565b61039683610363565b6103aa6103a282610384565b848454610300565b825550505050565b5f5f905090565b6103c16103b2565b6103cc81848461038d565b505050565b5f5b828110156103f2576103e75f8284016103b9565b6001810190506103d3565b505050565b601f821115610445578282111561044457610411816102d3565b61041a836102e5565b610423856102e5565b6020861015610430575f90505b80830161043f828403826103d1565b505050505b5b505050565b5f82821c905092915050565b5f6104655f198460080261044a565b1980831691505092915050565b5f61047d8383610456565b9150826002028217905092915050565b6104968261026c565b67ffffffffffffffff8111156104af576104ae61008d565b5b6104b982546102a3565b6104c48282856103f7565b5f60209050601f8311600181146104f5575f84156104e3578287015190505b6104ed8582610472565b865550610554565b601f198416610503866102d3565b5f5b8281101561052a57848901518255600182019150602085019450602081019050610505565b868310156105475784890151610543601f891682610456565b8355505b6001600288020188555050505b505050505050565b6080516127bf61057b5f395f8181610e24015261129501526127bf5ff3fe608060405234801561000f575f5ffd5b50600436106100fe575f3560e01c8063641ce14011610095578063b88d4fde11610064578063b88d4fde146102ba578063c87b56dd146102d6578063e985e9c514610306578063ebf0c71714610336576100fe565b8063641ce1401461023457806370a082311461025057806395d89b4114610280578063a22cb4651461029e576100fe565b806323b872dd116100d157806323b872dd1461019c57806342842e0e146101b8578063630303c6146101d45780636352211e14610204576100fe565b806301ffc9a71461010257806306fdde0314610132578063081812fc14610150578063095ea7b314610180575b5f5ffd5b61011c6004803603810190610117919061193e565b610354565b6040516101299190611983565b60405180910390f35b61013a61048d565b6040516101479190611a0c565b60405180910390f35b61016a60048036038101906101659190611a5f565b610518565b6040516101779190611ac9565b60405180910390f35b61019a60048036038101906101959190611b0c565b6105ef565b005b6101b660048036038101906101b19190611b4a565b61072d565b005b6101d260048036038101906101cd9190611b4a565b610795565b005b6101ee60048036038101906101e99190611b9a565b6107b4565b6040516101fb9190611983565b60405180910390f35b61021e60048036038101906102199190611a5f565b6107d1565b60405161022b9190611ac9565b60405180910390f35b61024e60048036038101906102499190611c26565b610878565b005b61026a60048036038101906102659190611b9a565b6109f8565b6040516102779190611ca6565b60405180910390f35b610288610aac565b6040516102959190611a0c565b60405180910390f35b6102b860048036038101906102b39190611ce9565b610b38565b005b6102d460048036038101906102cf9190611e4f565b610c30565b005b6102f060048036038101906102eb9190611a5f565b610c9a565b6040516102fd9190611a0c565b60405180910390f35b610320600480360381019061031b9190611ecf565b610d94565b60405161032d9190611983565b60405180910390f35b61033e610e22565b60405161034b9190611f25565b60405180910390f35b5f7f80ac58cd000000000000000000000000000000000000000000000000000000007bffffffffffffffffffffffffffffffffffffffffffffffffffffffff1916827bffffffffffffffffffffffffffffffffffffffffffffffffffffffff1916148061041e57507f01ffc9a7000000000000000000000000000000000000000000000000000000007bffffffffffffffffffffffffffffffffffffffffffffffffffffffff1916827bffffffffffffffffffffffffffffffffffffffffffffffffffffffff1916145b8061048657507f5b5e139f000000000000000000000000000000000000000000000000000000007bffffffffffffffffffffffffffffffffffffffffffffffffffffffff1916827bffffffffffffffffffffffffffffffffffffffffffffffffffffffff1916145b9050919050565b5f805461049990611f6b565b80601f01602080910402602001604051908101604052809291908181526020018280546104c590611f6b565b80156105105780601f106104e757610100808354040283529160200191610510565b820191905f5260205f20905b8154815290600101906020018083116104f357829003601f168201915b505050505081565b5f5f73ffffffffffffffffffffffffffffffffffffffff1660025f8481526020019081526020015f205f9054906101000a900473ffffffffffffffffffffffffffffffffffffffff1673ffffffffffffffffffffffffffffffffffffffff16036105b7576040517f08c379a00000000000000000000000000000000000000000000000000000000081526004016105ae90611fe5565b60405180910390fd5b60045f8381526020019081526020015f205f9054906101000a900473ffffffffffffffffffffffffffffffffffffffff169050919050565b5f60025f8381526020019081526020015f205f9054906101000a900473ffffffffffffffffffffffffffffffffffffffff1690508073ffffffffffffffffffffffffffffffffffffffff163373ffffffffffffffffffffffffffffffffffffffff1614806106de575060055f8273ffffffffffffffffffffffffffffffffffffffff1673ffffffffffffffffffffffffffffffffffffffff1681526020019081526020015f205f3373ffffffffffffffffffffffffffffffffffffffff1673ffffffffffffffffffffffffffffffffffffffff1681526020019081526020015f205f9054906101000a900460ff165b61071d576040517f08c379a00000000000000000000000000000000000000000000000000000000081526004016107149061204d565b60405180910390fd5b610728818484610e46565b505050565b5f610737826107d1565b9050610744813384610ef5565b610783576040517f08c379a000000000000000000000000000000000000000000000000000000000815260040161077a906120b5565b60405180910390fd5b61078f81858585611020565b50505050565b6107af83838360405180602001604052805f815250610c30565b505050565b6006602052805f5260405f205f915054906101000a900460ff1681565b5f60025f8381526020019081526020015f205f9054906101000a900473ffffffffffffffffffffffffffffffffffffffff1690505f73ffffffffffffffffffffffffffffffffffffffff168173ffffffffffffffffffffffffffffffffffffffff1603610873576040517f08c379a000000000000000000000000000000000000000000000000000000000815260040161086a90611fe5565b60405180910390fd5b919050565b6108ca6108848561125f565b8383808060200260200160405190810160405280939291908181526020018383602002808284375f81840152601f19601f8201169050808301925050505050505061128e565b610909576040517f08c379a00000000000000000000000000000000000000000000000000000000081526004016109009061211d565b60405180910390fd5b60065f8573ffffffffffffffffffffffffffffffffffffffff1673ffffffffffffffffffffffffffffffffffffffff1681526020019081526020015f205f9054906101000a900460ff1615610993576040517f08c379a000000000000000000000000000000000000000000000000000000000815260040161098a90612185565b60405180910390fd5b600160065f8673ffffffffffffffffffffffffffffffffffffffff1673ffffffffffffffffffffffffffffffffffffffff1681526020019081526020015f205f6101000a81548160ff0219169083151502179055506109f284846112c2565b50505050565b5f5f73ffffffffffffffffffffffffffffffffffffffff168273ffffffffffffffffffffffffffffffffffffffff1603610a67576040517f08c379a0000000000000000000000000000000000000000000000000000000008152600401610a5e906121ed565b60405180910390fd5b60035f8373ffffffffffffffffffffffffffffffffffffffff1673ffffffffffffffffffffffffffffffffffffffff1681526020019081526020015f20549050919050565b60018054610ab990611f6b565b80601f0160208091040260200160405190810160405280929190818152602001828054610ae590611f6b565b8015610b305780601f10610b0757610100808354040283529160200191610b30565b820191905f5260205f20905b815481529060010190602001808311610b1357829003601f168201915b505050505081565b8060055f3373ffffffffffffffffffffffffffffffffffffffff1673ffffffffffffffffffffffffffffffffffffffff1681526020019081526020015f205f8473ffffffffffffffffffffffffffffffffffffffff1673ffffffffffffffffffffffffffffffffffffffff1681526020019081526020015f205f6101000a81548160ff0219169083151502179055508173ffffffffffffffffffffffffffffffffffffffff163373ffffffffffffffffffffffffffffffffffffffff167f17307eab39ab6107e8899845ad3d59bd9653f200f220920489ca2b5937696c3183604051610c249190611983565b60405180910390a35050565b5f610c3a836107d1565b9050610c47813385610ef5565b610c86576040517f08c379a0000000000000000000000000000000000000000000000000000000008152600401610c7d906120b5565b60405180910390fd5b610c9381868686866114d0565b5050505050565b60605f73ffffffffffffffffffffffffffffffffffffffff1660025f8481526020019081526020015f205f9054906101000a900473ffffffffffffffffffffffffffffffffffffffff1673ffffffffffffffffffffffffffffffffffffffff1603610d3a576040517f08c379a0000000000000000000000000000000000000000000000000000000008152600401610d3190612255565b60405180910390fd5b5f610d436114ef565b90505f815111610d615760405180602001604052805f815250610d8c565b80610d6b84611505565b604051602001610d7c9291906122ad565b6040516020818303038152906040525b915050919050565b5f60055f8473ffffffffffffffffffffffffffffffffffffffff1673ffffffffffffffffffffffffffffffffffffffff1681526020019081526020015f205f8373ffffffffffffffffffffffffffffffffffffffff1673ffffffffffffffffffffffffffffffffffffffff1681526020019081526020015f205f9054906101000a900460ff16905092915050565b7f000000000000000000000000000000000000000000000000000000000000000081565b8160045f8381526020019081526020015f205f6101000a81548173ffffffffffffffffffffffffffffffffffffffff021916908373ffffffffffffffffffffffffffffffffffffffff160217905550808273ffffffffffffffffffffffffffffffffffffffff168473ffffffffffffffffffffffffffffffffffffffff167f8c5be1e5ebec7d5bd14f71427d1e84f3dd0314c0f7b2291e5b200ac8c7c3b92560405160405180910390a4505050565b5f8373ffffffffffffffffffffffffffffffffffffffff168373ffffffffffffffffffffffffffffffffffffffff161480610f8b57508273ffffffffffffffffffffffffffffffffffffffff1660045f8481526020019081526020015f205f9054906101000a900473ffffffffffffffffffffffffffffffffffffffff1673ffffffffffffffffffffffffffffffffffffffff16145b80611017575060055f8573ffffffffffffffffffffffffffffffffffffffff1673ffffffffffffffffffffffffffffffffffffffff1681526020019081526020015f205f8473ffffffffffffffffffffffffffffffffffffffff1673ffffffffffffffffffffffffffffffffffffffff1681526020019081526020015f205f9054906101000a900460ff165b90509392505050565b8373ffffffffffffffffffffffffffffffffffffffff168373ffffffffffffffffffffffffffffffffffffffff161461108e576040517f08c379a00000000000000000000000000000000000000000000000000000000081526004016110859061231a565b60405180910390fd5b5f73ffffffffffffffffffffffffffffffffffffffff168273ffffffffffffffffffffffffffffffffffffffff16036110fc576040517f08c379a00000000000000000000000000000000000000000000000000000000081526004016110f390612382565b60405180910390fd5b611107845f83610e46565b600160035f8573ffffffffffffffffffffffffffffffffffffffff1673ffffffffffffffffffffffffffffffffffffffff1681526020019081526020015f205f82825461115491906123cd565b92505081905550600160035f8473ffffffffffffffffffffffffffffffffffffffff1673ffffffffffffffffffffffffffffffffffffffff1681526020019081526020015f205f8282546111a89190612400565b925050819055508160025f8381526020019081526020015f205f6101000a81548173ffffffffffffffffffffffffffffffffffffffff021916908373ffffffffffffffffffffffffffffffffffffffff160217905550808273ffffffffffffffffffffffffffffffffffffffff168473ffffffffffffffffffffffffffffffffffffffff167fddf252ad1be2c89b69c2b068fc378daa952ba7f163c4a11628f55a4df523b3ef60405160405180910390a450505050565b5f816040516020016112719190612478565b604051602081830303815290604052805190602001209050919050565b5f6112ba827f00000000000000000000000000000000000000000000000000000000000000008561165e565b905092915050565b5f73ffffffffffffffffffffffffffffffffffffffff168273ffffffffffffffffffffffffffffffffffffffff1603611330576040517f08c379a0000000000000000000000000000000000000000000000000000000008152600401611327906124dc565b60405180910390fd5b5f73ffffffffffffffffffffffffffffffffffffffff1660025f8381526020019081526020015f205f9054906101000a900473ffffffffffffffffffffffffffffffffffffffff1673ffffffffffffffffffffffffffffffffffffffff16146113ce576040517f08c379a00000000000000000000000000000000000000000000000000000000081526004016113c590612544565b60405180910390fd5b600160035f8473ffffffffffffffffffffffffffffffffffffffff1673ffffffffffffffffffffffffffffffffffffffff1681526020019081526020015f205f82825461141b9190612400565b925050819055508160025f8381526020019081526020015f205f6101000a81548173ffffffffffffffffffffffffffffffffffffffff021916908373ffffffffffffffffffffffffffffffffffffffff160217905550808273ffffffffffffffffffffffffffffffffffffffff165f73ffffffffffffffffffffffffffffffffffffffff167fddf252ad1be2c89b69c2b068fc378daa952ba7f163c4a11628f55a4df523b3ef60405160405180910390a45050565b6114dc85858585611020565b6114e884848484611674565b5050505050565b606060405180602001604052805f815250905090565b60605f820361154b576040518060400160405280600181526020017f30000000000000000000000000000000000000000000000000000000000000008152509050611659565b5f8290505f5b5f821461157a57808061156390612562565b915050600a8261157391906125d6565b9150611551565b5f8167ffffffffffffffff81111561159557611594611d2b565b5b6040519080825280601f01601f1916602001820160405280156115c75781602001600182028036833780820191505090505b5090505b5f8514611652576001826115df91906123cd565b9150600a856115ee9190612606565b60306115fa9190612400565b60f81b8183815181106116105761160f612636565b5b60200101907effffffffffffffffffffffffffffffffffffffffffffffffffffffffffffff191690815f1a905350600a8561164b91906125d6565b94506115cb565b8093505050505b919050565b5f8261166a858461181f565b1490509392505050565b5f8373ffffffffffffffffffffffffffffffffffffffff163b1115611819578273ffffffffffffffffffffffffffffffffffffffff1663150b7a02338685856040518563ffffffff1660e01b81526004016116d294939291906126b5565b6020604051808303815f875af192505050801561170d57506040513d601f19601f8201168201806040525081019061170a9190612713565b60015b61178e573d805f811461173b576040519150601f19603f3d011682016040523d82523d5f602084013e611740565b606091505b505f81510361178657836040517f64a0ae9200000000000000000000000000000000000000000000000000000000815260040161177d9190611ac9565b60405180910390fd5b805181602001fd5b63150b7a0260e01b7bffffffffffffffffffffffffffffffffffffffffffffffffffffffff1916817bffffffffffffffffffffffffffffffffffffffffffffffffffffffff19161461181757836040517f64a0ae9200000000000000000000000000000000000000000000000000000000815260040161180e9190611ac9565b60405180910390fd5b505b50505050565b5f5f8290505f5f90505b8451811015611865576118568286838151811061184957611848612636565b5b6020026020010151611870565b91508080600101915050611829565b508091505092915050565b5f8183106118a657818360405160200161188b92919061275e565b604051602081830303815290604052805190602001206118d0565b82826040516020016118b992919061275e565b604051602081830303815290604052805190602001205b905092915050565b5f604051905090565b5f5ffd5b5f5ffd5b5f7fffffffff0000000000000000000000000000000000000000000000000000000082169050919050565b61191d816118e9565b8114611927575f5ffd5b50565b5f8135905061193881611914565b92915050565b5f60208284031215611953576119526118e1565b5b5f6119608482850161192a565b91505092915050565b5f8115159050919050565b61197d81611969565b82525050565b5f6020820190506119965f830184611974565b92915050565b5f81519050919050565b5f82825260208201905092915050565b8281835e5f83830152505050565b5f601f19601f8301169050919050565b5f6119de8261199c565b6119e881856119a6565b93506119f88185602086016119b6565b611a01816119c4565b840191505092915050565b5f6020820190508181035f830152611a2481846119d4565b905092915050565b5f819050919050565b611a3e81611a2c565b8114611a48575f5ffd5b50565b5f81359050611a5981611a35565b92915050565b5f60208284031215611a7457611a736118e1565b5b5f611a8184828501611a4b565b91505092915050565b5f73ffffffffffffffffffffffffffffffffffffffff82169050919050565b5f611ab382611a8a565b9050919050565b611ac381611aa9565b82525050565b5f602082019050611adc5f830184611aba565b92915050565b611aeb81611aa9565b8114611af5575f5ffd5b50565b5f81359050611b0681611ae2565b92915050565b5f5f60408385031215611b2257611b216118e1565b5b5f611b2f85828601611af8565b9250506020611b4085828601611a4b565b9150509250929050565b5f5f5f60608486031215611b6157611b606118e1565b5b5f611b6e86828701611af8565b9350506020611b7f86828701611af8565b9250506040611b9086828701611a4b565b9150509250925092565b5f60208284031215611baf57611bae6118e1565b5b5f611bbc84828501611af8565b91505092915050565b5f5ffd5b5f5ffd5b5f5ffd5b5f5f83601f840112611be657611be5611bc5565b5b8235905067ffffffffffffffff811115611c0357611c02611bc9565b5b602083019150836020820283011115611c1f57611c1e611bcd565b5b9250929050565b5f5f5f5f60608587031215611c3e57611c3d6118e1565b5b5f611c4b87828801611af8565b9450506020611c5c87828801611a4b565b935050604085013567ffffffffffffffff811115611c7d57611c7c6118e5565b5b611c8987828801611bd1565b925092505092959194509250565b611ca081611a2c565b82525050565b5f602082019050611cb95f830184611c97565b92915050565b611cc881611969565b8114611cd2575f5ffd5b50565b5f81359050611ce381611cbf565b92915050565b5f5f60408385031215611cff57611cfe6118e1565b5b5f611d0c85828601611af8565b9250506020611d1d85828601611cd5565b9150509250929050565b5f5ffd5b7f4e487b71000000000000000000000000000000000000000000000000000000005f52604160045260245ffd5b611d61826119c4565b810181811067ffffffffffffffff82111715611d8057611d7f611d2b565b5b80604052505050565b5f611d926118d8565b9050611d9e8282611d58565b919050565b5f67ffffffffffffffff821115611dbd57611dbc611d2b565b5b611dc6826119c4565b9050602081019050919050565b828183375f83830152505050565b5f611df3611dee84611da3565b611d89565b905082815260208101848484011115611e0f57611e0e611d27565b5b611e1a848285611dd3565b509392505050565b5f82601f830112611e3657611e35611bc5565b5b8135611e46848260208601611de1565b91505092915050565b5f5f5f5f60808587031215611e6757611e666118e1565b5b5f611e7487828801611af8565b9450506020611e8587828801611af8565b9350506040611e9687828801611a4b565b925050606085013567ffffffffffffffff811115611eb757611eb66118e5565b5b611ec387828801611e22565b91505092959194509250565b5f5f60408385031215611ee557611ee46118e1565b5b5f611ef285828601611af8565b9250506020611f0385828601611af8565b9150509250929050565b5f819050919050565b611f1f81611f0d565b82525050565b5f602082019050611f385f830184611f16565b92915050565b7f4e487b71000000000000000000000000000000000000000000000000000000005f52602260045260245ffd5b5f6002820490506001821680611f8257607f821691505b602082108103611f9557611f94611f3e565b5b50919050565b7f746f6b656e20646f65736e2774206578697374000000000000000000000000005f82015250565b5f611fcf6013836119a6565b9150611fda82611f9b565b602082019050919050565b5f6020820190508181035f830152611ffc81611fc3565b9050919050565b7f6e6f74206f776e6572206e6f7220617070726f76656420666f7220616c6c00005f82015250565b5f612037601e836119a6565b915061204282612003565b602082019050919050565b5f6020820190508181035f8301526120648161202b565b9050919050565b7f6e6f74206f776e6572206e6f7220617070726f766564000000000000000000005f82015250565b5f61209f6016836119a6565b91506120aa8261206b565b602082019050919050565b5f6020820190508181035f8301526120cc81612093565b9050919050565b7f496e76616c6964206d65726b6c652070726f6f660000000000000000000000005f82015250565b5f6121076014836119a6565b9150612112826120d3565b602082019050919050565b5f6020820190508181035f830152612134816120fb565b9050919050565b7f416c7265616479206d696e7465642100000000000000000000000000000000005f82015250565b5f61216f600f836119a6565b915061217a8261213b565b602082019050919050565b5f6020820190508181035f83015261219c81612163565b9050919050565b7f6f776e6572203d207a65726f20616464726573730000000000000000000000005f82015250565b5f6121d76014836119a6565b91506121e2826121a3565b602082019050919050565b5f6020820190508181035f830152612204816121cb565b9050919050565b7f546f6b656e204e6f7420457869737400000000000000000000000000000000005f82015250565b5f61223f600f836119a6565b915061224a8261220b565b602082019050919050565b5f6020820190508181035f83015261226c81612233565b9050919050565b5f81905092915050565b5f6122878261199c565b6122918185612273565b93506122a18185602086016119b6565b80840191505092915050565b5f6122b8828561227d565b91506122c4828461227d565b91508190509392505050565b7f6e6f74206f776e657200000000000000000000000000000000000000000000005f82015250565b5f6123046009836119a6565b915061230f826122d0565b602082019050919050565b5f6020820190508181035f830152612331816122f8565b9050919050565b7f7472616e7366657220746f20746865207a65726f2061646472657373000000005f82015250565b5f61236c601c836119a6565b915061237782612338565b602082019050919050565b5f6020820190508181035f83015261239981612360565b9050919050565b7f4e487b71000000000000000000000000000000000000000000000000000000005f52601160045260245ffd5b5f6123d782611a2c565b91506123e283611a2c565b92508282039050818111156123fa576123f96123a0565b5b92915050565b5f61240a82611a2c565b915061241583611a2c565b925082820190508082111561242d5761242c6123a0565b5b92915050565b5f8160601b9050919050565b5f61244982612433565b9050919050565b5f61245a8261243f565b9050919050565b61247261246d82611aa9565b612450565b82525050565b5f6124838284612461565b60148201915081905092915050565b7f6d696e7420746f207a65726f20616464726573730000000000000000000000005f82015250565b5f6124c66014836119a6565b91506124d182612492565b602082019050919050565b5f6020820190508181035f8301526124f3816124ba565b9050919050565b7f746f6b656e20616c7265616479206d696e7465640000000000000000000000005f82015250565b5f61252e6014836119a6565b9150612539826124fa565b602082019050919050565b5f6020820190508181035f83015261255b81612522565b9050919050565b5f61256c82611a2c565b91507fffffffffffffffffffffffffffffffffffffffffffffffffffffffffffffffff820361259e5761259d6123a0565b5b600182019050919050565b7f4e487b71000000000000000000000000000000000000000000000000000000005f52601260045260245ffd5b5f6125e082611a2c565b91506125eb83611a2c565b9250826125fb576125fa6125a9565b5b828204905092915050565b5f61261082611a2c565b915061261b83611a2c565b92508261262b5761262a6125a9565b5b828206905092915050565b7f4e487b71000000000000000000000000000000000000000000000000000000005f52603260045260245ffd5b5f81519050919050565b5f82825260208201905092915050565b5f61268782612663565b612691818561266d565b93506126a18185602086016119b6565b6126aa816119c4565b840191505092915050565b5f6080820190506126c85f830187611aba565b6126d56020830186611aba565b6126e26040830185611c97565b81810360608301526126f4818461267d565b905095945050505050565b5f8151905061270d81611914565b92915050565b5f60208284031215612728576127276118e1565b5b5f612735848285016126ff565b91505092915050565b5f819050919050565b61275861275382611f0d565b61273e565b82525050565b5f6127698285612747565b6020820191506127798284612747565b602082019150819050939250505056fea264697066735822122010ea1879b50c985b3f190a6c8f972e01c1017f6a7c419e7d7b7493477e13940b64736f6c63430008220033","linkReferences":{}},"methodIdentifiers":{"approve(address,uint256)":"095ea7b3","balanceOf(address)":"70a08231","getApproved(uint256)":"081812fc","isApprovedForAll(address,address)":"e985e9c5","mint(address,uint256,bytes32[])":"641ce140","mintedAddress(address)":"630303c6","name()":"06fdde03","ownerOf(uint256)":"6352211e","root()":"ebf0c717","safeTransferFrom(address,address,uint256)":"42842e0e","safeTransferFrom(address,address,uint256,bytes)":"b88d4fde","setApprovalForAll(address,bool)":"a22cb465","supportsInterface(bytes4)":"01ffc9a7","symbol()":"95d89b41","tokenURI(uint256)":"c87b56dd","transferFrom(address,address,uint256)":"23b872dd"},"id":86}