{"abi":[{"type":"constructor","inputs":[],"stateMutability":"nonpayable"},{"type":"function","name":"permitStore","inputs":[{"name":"_num","type":"uint256","internalType":"uint256"},{"name":"_signature","type":"bytes","internalType":"bytes"}],"outputs":[],"stateMutability":"nonpayable"},{"type":"function","name":"retrieve","inputs":[],"outputs":[{"name":"","type":"uint256","internalType":"uint256"}],"stateMutability":"view"},{"type":"error","name":"ECDSAInvalidSignature","inputs":[]},{"type":"error","name":"ECDSAInvalidSignatureLength","inputs":[{"name":"length","type":"uint256","internalType":"uint256"}]},{"type":"error","name":"ECDSAInvalidSignatureS","inputs":[{"name":"s","type":"bytes32","internalType":"bytes32"}]}],"bytecode":{"object":"0x608060405234801561000f575f5ffd5b507f8b73c3c69bb8fe3d512ecc4cf759cc79239f7b179b0ffacaa9a75d522b39400f6040518060400160405280600d81526020017f45495037313253746f7261676500000000000000000000000000000000000000815250805190602001206040518060400160405280600181526020017f31000000000000000000000000000000000000000000000000000000000000008152508051906020012046306040516020016100c1959493929190610190565b604051602081830303815290604052805190602001205f819055503360025f6101000a81548173ffffffffffffffffffffffffffffffffffffffff021916908373ffffffffffffffffffffffffffffffffffffffff1602179055506101e1565b5f819050919050565b61013381610121565b82525050565b5f819050919050565b61014b81610139565b82525050565b5f73ffffffffffffffffffffffffffffffffffffffff82169050919050565b5f61017a82610151565b9050919050565b61018a81610170565b82525050565b5f60a0820190506101a35f83018861012a565b6101b0602083018761012a565b6101bd604083018661012a565b6101ca6060830185610142565b6101d76080830184610181565b9695505050505050565b610972806101ee5f395ff3fe608060405234801561000f575f5ffd5b5060043610610034575f3560e01c80632e64cec1146100385780637fb4bf2a14610056575b5f5ffd5b610040610072565b60405161004d9190610498565b60405180910390f35b610070600480360381019061006b9190610628565b61007b565b005b5f600154905090565b60418151146100bf576040517f08c379a00000000000000000000000000000000000000000000000000000000081526004016100b6906106dc565b60405180910390fd5b5f5f5f602084015192506040840151915060608401515f1a90505f5f547fd0424b76ec7a3227309117de6d952e26508aa80cc81ccac30dc95ed1419924cd338860405160200161011193929190610751565b604051602081830303815290604052805190602001206040516020016101389291906107fa565b6040516020818303038152906040528051906020012090505f61016883868685610209909392919063ffffffff16565b905060025f9054906101000a900473ffffffffffffffffffffffffffffffffffffffff1673ffffffffffffffffffffffffffffffffffffffff168173ffffffffffffffffffffffffffffffffffffffff16146101f9576040517f08c379a00000000000000000000000000000000000000000000000000000000081526004016101f09061087a565b60405180910390fd5b8660018190555050505050505050565b5f5f5f5f61021988888888610237565b925092509250610229828261031e565b829350505050949350505050565b5f5f5f7f7fffffffffffffffffffffffffffffff5d576e7357a4501ddfe92f46681b20a0845f1c1115610273575f600385925092509250610314565b5f6001888888886040515f815260200160405260405161029694939291906108b3565b6020604051602081039080840390855afa1580156102b6573d5f5f3e3d5ffd5b5050506020604051035190505f73ffffffffffffffffffffffffffffffffffffffff168173ffffffffffffffffffffffffffffffffffffffff1603610307575f60015f5f1b93509350935050610314565b805f5f5f1b935093509350505b9450945094915050565b5f6003811115610331576103306108f6565b5b826003811115610344576103436108f6565b5b031561047c576001600381111561035e5761035d6108f6565b5b826003811115610371576103706108f6565b5b036103a8576040517ff645eedf00000000000000000000000000000000000000000000000000000000815260040160405180910390fd5b600260038111156103bc576103bb6108f6565b5b8260038111156103cf576103ce6108f6565b5b0361041357805f1c6040517ffce698f700000000000000000000000000000000000000000000000000000000815260040161040a9190610498565b60405180910390fd5b600380811115610426576104256108f6565b5b826003811115610439576104386108f6565b5b0361047b57806040517fd78bce0c0000000000000000000000000000000000000000000000000000000081526004016104729190610923565b60405180910390fd5b5b5050565b5f819050919050565b61049281610480565b82525050565b5f6020820190506104ab5f830184610489565b92915050565b5f604051905090565b5f5ffd5b5f5ffd5b6104cb81610480565b81146104d5575f5ffd5b50565b5f813590506104e6816104c2565b92915050565b5f5ffd5b5f5ffd5b5f601f19601f8301169050919050565b7f4e487b71000000000000000000000000000000000000000000000000000000005f52604160045260245ffd5b61053a826104f4565b810181811067ffffffffffffffff8211171561055957610558610504565b5b80604052505050565b5f61056b6104b1565b90506105778282610531565b919050565b5f67ffffffffffffffff82111561059657610595610504565b5b61059f826104f4565b9050602081019050919050565b828183375f83830152505050565b5f6105cc6105c78461057c565b610562565b9050828152602081018484840111156105e8576105e76104f0565b5b6105f38482856105ac565b509392505050565b5f82601f83011261060f5761060e6104ec565b5b813561061f8482602086016105ba565b91505092915050565b5f5f6040838503121561063e5761063d6104ba565b5b5f61064b858286016104d8565b925050602083013567ffffffffffffffff81111561066c5761066b6104be565b5b610678858286016105fb565b9150509250929050565b5f82825260208201905092915050565b7f696e76616c6964207369676e6174757265206c656e67746800000000000000005f82015250565b5f6106c6601883610682565b91506106d182610692565b602082019050919050565b5f6020820190508181035f8301526106f3816106ba565b9050919050565b5f819050919050565b61070c816106fa565b82525050565b5f73ffffffffffffffffffffffffffffffffffffffff82169050919050565b5f61073b82610712565b9050919050565b61074b81610731565b82525050565b5f6060820190506107645f830186610703565b6107716020830185610742565b61077e6040830184610489565b949350505050565b5f81905092915050565b7f19010000000000000000000000000000000000000000000000000000000000005f82015250565b5f6107c4600283610786565b91506107cf82610790565b600282019050919050565b5f819050919050565b6107f46107ef826106fa565b6107da565b82525050565b5f610804826107b8565b915061081082856107e3565b60208201915061082082846107e3565b6020820191508190509392505050565b7f45495037313253746f726167653a20496e76616c6964207369676e61747572655f82015250565b5f610864602083610682565b915061086f82610830565b602082019050919050565b5f6020820190508181035f83015261089181610858565b9050919050565b5f60ff82169050919050565b6108ad81610898565b82525050565b5f6080820190506108c65f830187610703565b6108d360208301866108a4565b6108e06040830185610703565b6108ed6060830184610703565b95945050505050565b7f4e487b71000000000000000000000000000000000000000000000000000000005f52602160045260245ffd5b5f6020820190506109365f830184610703565b9291505056fea264697066735822122010fedfa07ac14e8a42598d1b0a3ebb4b27fe9d851e03c368b542798b7faf58c664736f6c63430008220033","linkReferences":{}},"methodIdentifiers":{"permitStore(uint256,bytes)":"7fb4bf2a","retrieve()":"2e64cec1"},"id":107}