{"abi":[{"type":"constructor","inputs":[{"name":"name_","type":"string","internalType":"string"},{"name":"symbol_","type":"string","internalType":"string"}],"stateMutability":"nonpayable"},{"type":"function","name":"balanceOf","inputs":[{"name":"account","type":"address","internalType":"address"},{"name":"id","type":"uint256","internalType":"uint256"}],"outputs":[{"name":"","type":"uint256","internalType":"uint256"}],"stateMutability":"view"},{"type":"function","name":"balanceOfBatch","inputs":[{"name":"accounts","type":"address[]","internalType":"address[]"},{"name":"ids","type":"uint256[]","internalType":"uint256[]"}],"outputs":[{"name":"","type":"uint256[]","internalType":"uint256[]"}],"stateMutability":"view"},{"type":"function","name":"isApprovedForAll","inputs":[{"name":"account","type":"address","internalType":"address"},{"name":"operator","type":"address","internalType":"address"}],"outputs":[{"name":"","type":"bool","internalType":"bool"}],"stateMutability":"view"},{"type":"function","name":"name","inputs":[],"outputs":[{"name":"","type":"string","internalType":"string"}],"stateMutability":"view"},{"type":"function","name":"safeBatchTransferFrom","inputs":[{"name":"from","type":"address","internalType":"address"},{"name":"to","type":"address","internalType":"address"},{"name":"ids","type":"uint256[]","internalType":"uint256[]"},{"name":"amounts","type":"uint256[]","internalType":"uint256[]"},{"name":"data","type":"bytes","internalType":"bytes"}],"outputs":[],"stateMutability":"nonpayable"},{"type":"function","name":"safeTransferFrom","inputs":[{"name":"from","type":"address","internalType":"address"},{"name":"to","type":"address","internalType":"address"},{"name":"id","type":"uint256","internalType":"uint256"},{"name":"amount","type":"uint256","internalType":"uint256"},{"name":"data","type":"bytes","internalType":"bytes"}],"outputs":[],"stateMutability":"nonpayable"},{"type":"function","name":"setApprovalForAll","inputs":[{"name":"operator","type":"address","internalType":"address"},{"name":"approved","type":"bool","internalType":"bool"}],"outputs":[],"stateMutability":"nonpayable"},{"type":"function","name":"supportsInterface","inputs":[{"name":"interfaceId","type":"bytes4","internalType":"bytes4"}],"outputs":[{"name":"","type":"bool","internalType":"bool"}],"stateMutability":"view"},{"type":"function","name":"symbol","inputs":[],"outputs":[{"name":"","type":"string","internalType":"string"}],"stateMutability":"view"},{"type":"function","name":"uri","inputs":[{"name":"id","type":"uint256","internalType":"uint256"}],"outputs":[{"name":"","type":"string","internalType":"string"}],"stateMutability":"view"},{"type":"event","name":"ApprovalForAll","inputs":[{"name":"account","type":"address","indexed":true,"internalType":"address"},{"name":"operator","type":"address","indexed":true,"internalType":"address"},{"name":"approved","type":"bool","indexed":false,"internalType":"bool"}],"anonymous":false},{"type":"event","name":"TransferBatch","inputs":[{"name":"operator","type":"address","indexed":true,"internalType":"address"},{"name":"from","type":"address","indexed":true,"internalType":"address"},{"name":"to","type":"address","indexed":true,"internalType":"address"},{"name":"ids","type":"uint256[]","indexed":false,"internalType":"uint256[]"},{"name":"values","type":"uint256[]","indexed":false,"internalType":"uint256[]"}],"anonymous":false},{"type":"event","name":"TransferSingle","inputs":[{"name":"operator","type":"address","indexed":true,"internalType":"address"},{"name":"from","type":"address","indexed":true,"internalType":"address"},{"name":"to","type":"address","indexed":true,"internalType":"address"},{"name":"id","type":"uint256","indexed":false,"internalType":"uint256"},{"name":"value","type":"uint256","indexed":false,"internalType":"uint256"}],"anonymous":false},{"type":"event","name":"URI","inputs":[{"name":"value","type":"string","indexed":false,"internalType":"string"},{"name":"id","type":"uint256","indexed":true,"internalType":"uint256"}],"anonymous":false},{"type":"error","name":"ERC1155InvalidReceiver","inputs":[{"name":"receiver","type":"address","internalType":"address"}]}],"bytecode":{"object":"0x608060405234801561000f575f5ffd5b5060405161295f38038061295f833981810160405281019061003191906101a4565b815f908161003f919061043b565b50806001908161004f919061043b565b50505061050a565b5f604051905090565b5f5ffd5b5f5ffd5b5f5ffd5b5f5ffd5b5f601f19601f8301169050919050565b7f4e487b71000000000000000000000000000000000000000000000000000000005f52604160045260245ffd5b6100b682610070565b810181811067ffffffffffffffff821117156100d5576100d4610080565b5b80604052505050565b5f6100e7610057565b90506100f382826100ad565b919050565b5f67ffffffffffffffff82111561011257610111610080565b5b61011b82610070565b9050602081019050919050565b8281835e5f83830152505050565b5f610148610143846100f8565b6100de565b9050828152602081018484840111156101645761016361006c565b5b61016f848285610128565b509392505050565b5f82601f83011261018b5761018a610068565b5b815161019b848260208601610136565b91505092915050565b5f5f604083850312156101ba576101b9610060565b5b5f83015167ffffffffffffffff8111156101d7576101d6610064565b5b6101e385828601610177565b925050602083015167ffffffffffffffff81111561020457610203610064565b5b61021085828601610177565b9150509250929050565b5f81519050919050565b7f4e487b71000000000000000000000000000000000000000000000000000000005f52602260045260245ffd5b5f600282049050600182168061026857607f821691505b60208210810361027b5761027a610224565b5b50919050565b5f819050815f5260205f209050919050565b5f6020601f8301049050919050565b5f82821b905092915050565b5f600883026102dd7fffffffffffffffffffffffffffffffffffffffffffffffffffffffffffffffff826102a2565b6102e786836102a2565b95508019841693508086168417925050509392505050565b5f819050919050565b5f819050919050565b5f61032b610326610321846102ff565b610308565b6102ff565b9050919050565b5f819050919050565b61034483610311565b61035861035082610332565b8484546102ae565b825550505050565b5f5f905090565b61036f610360565b61037a81848461033b565b505050565b5f5b828110156103a0576103955f828401610367565b600181019050610381565b505050565b601f8211156103f357828211156103f2576103bf81610281565b6103c883610293565b6103d185610293565b60208610156103de575f90505b8083016103ed8284038261037f565b505050505b5b505050565b5f82821c905092915050565b5f6104135f19846008026103f8565b1980831691505092915050565b5f61042b8383610404565b9150826002028217905092915050565b6104448261021a565b67ffffffffffffffff81111561045d5761045c610080565b5b6104678254610251565b6104728282856103a5565b5f60209050601f8311600181146104a3575f8415610491578287015190505b61049b8582610420565b865550610502565b601f1984166104b186610281565b5f5b828110156104d8578489015182556001820191506020850194506020810190506104b3565b868310156104f557848901516104f1601f891682610404565b8355505b6001600288020188555050505b505050505050565b612448806105175f395ff3fe608060405234801561000f575f5ffd5b506004361061009b575f3560e01c80634e1273f4116100645780634e1273f41461016957806395d89b4114610199578063a22cb465146101b7578063e985e9c5146101d3578063f242432a146102035761009b565b8062fdd58e1461009f57806301ffc9a7146100cf57806306fdde03146100ff5780630e89341c1461011d5780632eb2c2d61461014d575b5f5ffd5b6100b960048036038101906100b4919061143a565b61021f565b6040516100c69190611487565b60405180910390f35b6100e960048036038101906100e491906114f5565b6102e3565b6040516100f6919061153a565b60405180910390f35b61010761041c565b60405161011491906115c3565b60405180910390f35b610137600480360381019061013291906115e3565b6104a7565b60405161014491906115c3565b60405180910390f35b610167600480360381019061016291906117fe565b610503565b005b610183600480360381019061017e9190611989565b61086d565b6040516101909190611ab6565b60405180910390f35b6101a1610981565b6040516101ae91906115c3565b60405180910390f35b6101d160048036038101906101cc9190611b00565b610a0d565b005b6101ed60048036038101906101e89190611b3e565b610b73565b6040516101fa919061153a565b60405180910390f35b61021d60048036038101906102189190611b7c565b610c01565b005b5f5f73ffffffffffffffffffffffffffffffffffffffff168373ffffffffffffffffffffffffffffffffffffffff160361028e576040517f08c379a000000000000000000000000000000000000000000000000000000000815260040161028590611c7f565b60405180910390fd5b60025f8381526020019081526020015f205f8473ffffffffffffffffffffffffffffffffffffffff1673ffffffffffffffffffffffffffffffffffffffff1681526020019081526020015f2054905092915050565b5f7fd9b67a26000000000000000000000000000000000000000000000000000000007bffffffffffffffffffffffffffffffffffffffffffffffffffffffff1916827bffffffffffffffffffffffffffffffffffffffffffffffffffffffff191614806103ad57507f0e89341c000000000000000000000000000000000000000000000000000000007bffffffffffffffffffffffffffffffffffffffffffffffffffffffff1916827bffffffffffffffffffffffffffffffffffffffffffffffffffffffff1916145b8061041557507f01ffc9a7000000000000000000000000000000000000000000000000000000007bffffffffffffffffffffffffffffffffffffffffffffffffffffffff1916827bffffffffffffffffffffffffffffffffffffffffffffffffffffffff1916145b9050919050565b5f805461042890611cca565b80601f016020809104026020016040519081016040528092919081815260200182805461045490611cca565b801561049f5780601f106104765761010080835404028352916020019161049f565b820191905f5260205f20905b81548152906001019060200180831161048257829003601f168201915b505050505081565b60605f6104b2610ecf565b90505f8151116104d05760405180602001604052805f8152506104fb565b806104da84610ee5565b6040516020016104eb929190611d34565b6040516020818303038152906040525b915050919050565b5f3390508073ffffffffffffffffffffffffffffffffffffffff168673ffffffffffffffffffffffffffffffffffffffff16148061054757506105468682610b73565b5b610586576040517f08c379a000000000000000000000000000000000000000000000000000000000815260040161057d90611dc7565b60405180910390fd5b82518451146105ca576040517f08c379a00000000000000000000000000000000000000000000000000000000081526004016105c190611e55565b60405180910390fd5b5f73ffffffffffffffffffffffffffffffffffffffff168573ffffffffffffffffffffffffffffffffffffffff1603610638576040517f08c379a000000000000000000000000000000000000000000000000000000000815260040161062f90611ee3565b60405180910390fd5b5f5f90505b84518110156107d8575f85828151811061065a57610659611f01565b5b602002602001015190505f85838151811061067857610677611f01565b5b602002602001015190505f60025f8481526020019081526020015f205f8b73ffffffffffffffffffffffffffffffffffffffff1673ffffffffffffffffffffffffffffffffffffffff1681526020019081526020015f2054905081811015610715576040517f08c379a000000000000000000000000000000000000000000000000000000000815260040161070c90611f9e565b60405180910390fd5b81810360025f8581526020019081526020015f205f8c73ffffffffffffffffffffffffffffffffffffffff1673ffffffffffffffffffffffffffffffffffffffff1681526020019081526020015f20819055508160025f8581526020019081526020015f205f8b73ffffffffffffffffffffffffffffffffffffffff1673ffffffffffffffffffffffffffffffffffffffff1681526020019081526020015f205f8282546107c39190611fe9565b9250508190555050505080600101905061063d565b508473ffffffffffffffffffffffffffffffffffffffff168673ffffffffffffffffffffffffffffffffffffffff168273ffffffffffffffffffffffffffffffffffffffff167f4a39dc06d4c0dbc64b70af90fd698a233a518aa5d07e595d983b8c0526c8f7fb878760405161084f92919061201c565b60405180910390a461086581878787878761103e565b505050505050565b606081518351146108b3576040517f08c379a00000000000000000000000000000000000000000000000000000000081526004016108aa906120c1565b60405180910390fd5b5f835167ffffffffffffffff8111156108cf576108ce611612565b5b6040519080825280602002602001820160405280156108fd5781602001602082028036833780820191505090505b5090505f5f90505b84518110156109765761094c85828151811061092457610923611f01565b5b602002602001015185838151811061093f5761093e611f01565b5b602002602001015161021f565b82828151811061095f5761095e611f01565b5b602002602001018181525050806001019050610905565b508091505092915050565b6001805461098e90611cca565b80601f01602080910402602001604051908101604052809291908181526020018280546109ba90611cca565b8015610a055780601f106109dc57610100808354040283529160200191610a05565b820191905f5260205f20905b8154815290600101906020018083116109e857829003601f168201915b505050505081565b8173ffffffffffffffffffffffffffffffffffffffff163373ffffffffffffffffffffffffffffffffffffffff1603610a7b576040517f08c379a0000000000000000000000000000000000000000000000000000000008152600401610a729061214f565b60405180910390fd5b8060035f3373ffffffffffffffffffffffffffffffffffffffff1673ffffffffffffffffffffffffffffffffffffffff1681526020019081526020015f205f8473ffffffffffffffffffffffffffffffffffffffff1673ffffffffffffffffffffffffffffffffffffffff1681526020019081526020015f205f6101000a81548160ff0219169083151502179055508173ffffffffffffffffffffffffffffffffffffffff163373ffffffffffffffffffffffffffffffffffffffff167f17307eab39ab6107e8899845ad3d59bd9653f200f220920489ca2b5937696c3183604051610b67919061153a565b60405180910390a35050565b5f60035f8473ffffffffffffffffffffffffffffffffffffffff1673ffffffffffffffffffffffffffffffffffffffff1681526020019081526020015f205f8373ffffffffffffffffffffffffffffffffffffffff1673ffffffffffffffffffffffffffffffffffffffff1681526020019081526020015f205f9054906101000a900460ff16905092915050565b5f3390508073ffffffffffffffffffffffffffffffffffffffff168673ffffffffffffffffffffffffffffffffffffffff161480610c455750610c448682610b73565b5b610c84576040517f08c379a0000000000000000000000000000000000000000000000000000000008152600401610c7b90611dc7565b60405180910390fd5b5f73ffffffffffffffffffffffffffffffffffffffff168573ffffffffffffffffffffffffffffffffffffffff1603610cf2576040517f08c379a0000000000000000000000000000000000000000000000000000000008152600401610ce990611ee3565b60405180910390fd5b5f60025f8681526020019081526020015f205f8873ffffffffffffffffffffffffffffffffffffffff1673ffffffffffffffffffffffffffffffffffffffff1681526020019081526020015f2054905083811015610d85576040517f08c379a0000000000000000000000000000000000000000000000000000000008152600401610d7c90611f9e565b60405180910390fd5b83810360025f8781526020019081526020015f205f8973ffffffffffffffffffffffffffffffffffffffff1673ffffffffffffffffffffffffffffffffffffffff1681526020019081526020015f20819055508360025f8781526020019081526020015f205f8873ffffffffffffffffffffffffffffffffffffffff1673ffffffffffffffffffffffffffffffffffffffff1681526020019081526020015f205f828254610e339190611fe9565b925050819055508573ffffffffffffffffffffffffffffffffffffffff168773ffffffffffffffffffffffffffffffffffffffff168373ffffffffffffffffffffffffffffffffffffffff167fc3d58168c5ae7397731d063d5bbf3d657854427343f4c083240f7aacaa2d0f628888604051610eb092919061216d565b60405180910390a4610ec68288888888886111ed565b50505050505050565b606060405180602001604052805f815250905090565b60605f8203610f2b576040518060400160405280600181526020017f30000000000000000000000000000000000000000000000000000000000000008152509050611039565b5f8290505f5b5f8214610f5a578080610f4390612194565b915050600a82610f539190612208565b9150610f31565b5f8167ffffffffffffffff811115610f7557610f74611612565b5b6040519080825280601f01601f191660200182016040528015610fa75781602001600182028036833780820191505090505b5090505b5f851461103257600182610fbf9190612238565b9150600a85610fce919061226b565b6030610fda9190611fe9565b60f81b818381518110610ff057610fef611f01565b5b60200101907effffffffffffffffffffffffffffffffffffffffffffffffffffffffffffff191690815f1a905350600a8561102b9190612208565b9450610fab565b8093505050505b919050565b5f8473ffffffffffffffffffffffffffffffffffffffff163b11156111e5578373ffffffffffffffffffffffffffffffffffffffff1663bc197c8187878686866040518663ffffffff1660e01b815260040161109e9594939291906122fc565b6020604051808303815f875af19250505080156110d957506040513d601f19601f820116820180604052508101906110d69190612376565b60015b61115a573d805f8114611107576040519150601f19603f3d011682016040523d82523d5f602084013e61110c565b606091505b505f81510361115257846040517f57f447ce00000000000000000000000000000000000000000000000000000000815260040161114991906123a1565b60405180910390fd5b805181602001fd5b63bc197c8160e01b7bffffffffffffffffffffffffffffffffffffffffffffffffffffffff1916817bffffffffffffffffffffffffffffffffffffffffffffffffffffffff1916146111e357846040517f57f447ce0000000000000000000000000000000000000000000000000000000081526004016111da91906123a1565b60405180910390fd5b505b505050505050565b5f8473ffffffffffffffffffffffffffffffffffffffff163b1115611394578373ffffffffffffffffffffffffffffffffffffffff1663f23a6e6187878686866040518663ffffffff1660e01b815260040161124d9594939291906123ba565b6020604051808303815f875af192505050801561128857506040513d601f19601f820116820180604052508101906112859190612376565b60015b611309573d805f81146112b6576040519150601f19603f3d011682016040523d82523d5f602084013e6112bb565b606091505b505f81510361130157846040517f57f447ce0000000000000000000000000000000000000000000000000000000081526004016112f891906123a1565b60405180910390fd5b805181602001fd5b63f23a6e6160e01b7bffffffffffffffffffffffffffffffffffffffffffffffffffffffff1916817bffffffffffffffffffffffffffffffffffffffffffffffffffffffff19161461139257846040517f57f447ce00000000000000000000000000000000000000000000000000000000815260040161138991906123a1565b60405180910390fd5b505b505050505050565b5f604051905090565b5f5ffd5b5f5ffd5b5f73ffffffffffffffffffffffffffffffffffffffff82169050919050565b5f6113d6826113ad565b9050919050565b6113e6816113cc565b81146113f0575f5ffd5b50565b5f81359050611401816113dd565b92915050565b5f819050919050565b61141981611407565b8114611423575f5ffd5b50565b5f8135905061143481611410565b92915050565b5f5f604083850312156114505761144f6113a5565b5b5f61145d858286016113f3565b925050602061146e85828601611426565b9150509250929050565b61148181611407565b82525050565b5f60208201905061149a5f830184611478565b92915050565b5f7fffffffff0000000000000000000000000000000000000000000000000000000082169050919050565b6114d4816114a0565b81146114de575f5ffd5b50565b5f813590506114ef816114cb565b92915050565b5f6020828403121561150a576115096113a5565b5b5f611517848285016114e1565b91505092915050565b5f8115159050919050565b61153481611520565b82525050565b5f60208201905061154d5f83018461152b565b92915050565b5f81519050919050565b5f82825260208201905092915050565b8281835e5f83830152505050565b5f601f19601f8301169050919050565b5f61159582611553565b61159f818561155d565b93506115af81856020860161156d565b6115b88161157b565b840191505092915050565b5f6020820190508181035f8301526115db818461158b565b905092915050565b5f602082840312156115f8576115f76113a5565b5b5f61160584828501611426565b91505092915050565b5f5ffd5b7f4e487b71000000000000000000000000000000000000000000000000000000005f52604160045260245ffd5b6116488261157b565b810181811067ffffffffffffffff8211171561166757611666611612565b5b80604052505050565b5f61167961139c565b9050611685828261163f565b919050565b5f67ffffffffffffffff8211156116a4576116a3611612565b5b602082029050602081019050919050565b5f5ffd5b5f6116cb6116c68461168a565b611670565b905080838252602082019050602084028301858111156116ee576116ed6116b5565b5b835b8181101561171757806117038882611426565b8452602084019350506020810190506116f0565b5050509392505050565b5f82601f8301126117355761173461160e565b5b81356117458482602086016116b9565b91505092915050565b5f5ffd5b5f67ffffffffffffffff82111561176c5761176b611612565b5b6117758261157b565b9050602081019050919050565b828183375f83830152505050565b5f6117a261179d84611752565b611670565b9050828152602081018484840111156117be576117bd61174e565b5b6117c9848285611782565b509392505050565b5f82601f8301126117e5576117e461160e565b5b81356117f5848260208601611790565b91505092915050565b5f5f5f5f5f60a08688031215611817576118166113a5565b5b5f611824888289016113f3565b9550506020611835888289016113f3565b945050604086013567ffffffffffffffff811115611856576118556113a9565b5b61186288828901611721565b935050606086013567ffffffffffffffff811115611883576118826113a9565b5b61188f88828901611721565b925050608086013567ffffffffffffffff8111156118b0576118af6113a9565b5b6118bc888289016117d1565b9150509295509295909350565b5f67ffffffffffffffff8211156118e3576118e2611612565b5b602082029050602081019050919050565b5f611906611901846118c9565b611670565b90508083825260208201905060208402830185811115611929576119286116b5565b5b835b81811015611952578061193e88826113f3565b84526020840193505060208101905061192b565b5050509392505050565b5f82601f8301126119705761196f61160e565b5b81356119808482602086016118f4565b91505092915050565b5f5f6040838503121561199f5761199e6113a5565b5b5f83013567ffffffffffffffff8111156119bc576119bb6113a9565b5b6119c88582860161195c565b925050602083013567ffffffffffffffff8111156119e9576119e86113a9565b5b6119f585828601611721565b9150509250929050565b5f81519050919050565b5f82825260208201905092915050565b5f819050602082019050919050565b611a3181611407565b82525050565b5f611a428383611a28565b60208301905092915050565b5f602082019050919050565b5f611a64826119ff565b611a6e8185611a09565b9350611a7983611a19565b805f5b83811015611aa9578151611a908882611a37565b9750611a9b83611a4e565b925050600181019050611a7c565b5085935050505092915050565b5f6020820190508181035f830152611ace8184611a5a565b905092915050565b611adf81611520565b8114611ae9575f5ffd5b50565b5f81359050611afa81611ad6565b92915050565b5f5f60408385031215611b1657611b156113a5565b5b5f611b23858286016113f3565b9250506020611b3485828601611aec565b9150509250929050565b5f5f60408385031215611b5457611b536113a5565b5b5f611b61858286016113f3565b9250506020611b72858286016113f3565b9150509250929050565b5f5f5f5f5f60a08688031215611b9557611b946113a5565b5b5f611ba2888289016113f3565b9550506020611bb3888289016113f3565b9450506040611bc488828901611426565b9350506060611bd588828901611426565b925050608086013567ffffffffffffffff811115611bf657611bf56113a9565b5b611c02888289016117d1565b9150509295509295909350565b7f455243313135353a2061646472657373207a65726f206973206e6f74206120765f8201527f616c6964206f776e657200000000000000000000000000000000000000000000602082015250565b5f611c69602a8361155d565b9150611c7482611c0f565b604082019050919050565b5f6020820190508181035f830152611c9681611c5d565b9050919050565b7f4e487b71000000000000000000000000000000000000000000000000000000005f52602260045260245ffd5b5f6002820490506001821680611ce157607f821691505b602082108103611cf457611cf3611c9d565b5b50919050565b5f81905092915050565b5f611d0e82611553565b611d188185611cfa565b9350611d2881856020860161156d565b80840191505092915050565b5f611d3f8285611d04565b9150611d4b8284611d04565b91508190509392505050565b7f455243313135353a2063616c6c6572206973206e6f7420746f6b656e206f776e5f8201527f6572206e6f7220617070726f7665640000000000000000000000000000000000602082015250565b5f611db1602f8361155d565b9150611dbc82611d57565b604082019050919050565b5f6020820190508181035f830152611dde81611da5565b9050919050565b7f455243313135353a2069647320616e6420616d6f756e7473206c656e677468205f8201527f6d69736d61746368000000000000000000000000000000000000000000000000602082015250565b5f611e3f60288361155d565b9150611e4a82611de5565b604082019050919050565b5f6020820190508181035f830152611e6c81611e33565b9050919050565b7f455243313135353a207472616e7366657220746f20746865207a65726f2061645f8201527f6472657373000000000000000000000000000000000000000000000000000000602082015250565b5f611ecd60258361155d565b9150611ed882611e73565b604082019050919050565b5f6020820190508181035f830152611efa81611ec1565b9050919050565b7f4e487b71000000000000000000000000000000000000000000000000000000005f52603260045260245ffd5b7f455243313135353a20696e73756666696369656e742062616c616e636520666f5f8201527f72207472616e7366657200000000000000000000000000000000000000000000602082015250565b5f611f88602a8361155d565b9150611f9382611f2e565b604082019050919050565b5f6020820190508181035f830152611fb581611f7c565b9050919050565b7f4e487b71000000000000000000000000000000000000000000000000000000005f52601160045260245ffd5b5f611ff382611407565b9150611ffe83611407565b925082820190508082111561201657612015611fbc565b5b92915050565b5f6040820190508181035f8301526120348185611a5a565b905081810360208301526120488184611a5a565b90509392505050565b7f455243313135353a206163636f756e747320616e6420696473206c656e6774685f8201527f206d69736d617463680000000000000000000000000000000000000000000000602082015250565b5f6120ab60298361155d565b91506120b682612051565b604082019050919050565b5f6020820190508181035f8301526120d88161209f565b9050919050565b7f455243313135353a2073657474696e6720617070726f76616c207374617475735f8201527f20666f722073656c660000000000000000000000000000000000000000000000602082015250565b5f61213960298361155d565b9150612144826120df565b604082019050919050565b5f6020820190508181035f8301526121668161212d565b9050919050565b5f6040820190506121805f830185611478565b61218d6020830184611478565b9392505050565b5f61219e82611407565b91507fffffffffffffffffffffffffffffffffffffffffffffffffffffffffffffffff82036121d0576121cf611fbc565b5b600182019050919050565b7f4e487b71000000000000000000000000000000000000000000000000000000005f52601260045260245ffd5b5f61221282611407565b915061221d83611407565b92508261222d5761222c6121db565b5b828204905092915050565b5f61224282611407565b915061224d83611407565b925082820390508181111561226557612264611fbc565b5b92915050565b5f61227582611407565b915061228083611407565b9250826122905761228f6121db565b5b828206905092915050565b6122a4816113cc565b82525050565b5f81519050919050565b5f82825260208201905092915050565b5f6122ce826122aa565b6122d881856122b4565b93506122e881856020860161156d565b6122f18161157b565b840191505092915050565b5f60a08201905061230f5f83018861229b565b61231c602083018761229b565b818103604083015261232e8186611a5a565b905081810360608301526123428185611a5a565b9050818103608083015261235681846122c4565b90509695505050505050565b5f81519050612370816114cb565b92915050565b5f6020828403121561238b5761238a6113a5565b5b5f61239884828501612362565b91505092915050565b5f6020820190506123b45f83018461229b565b92915050565b5f60a0820190506123cd5f83018861229b565b6123da602083018761229b565b6123e76040830186611478565b6123f46060830185611478565b818103608083015261240681846122c4565b9050969550505050505056fea2646970667358221220aa1eb468b1a21bdd1dcbe8a8e06e2f822c829b2d18e4e68a56b0f9906b94777164736f6c63430008220033","linkReferences":{}},"methodIdentifiers":{"balanceOf(address,uint256)":"00fdd58e","balanceOfBatch(address[],uint256[])":"4e1273f4","isApprovedForAll(address,address)":"e985e9c5","name()":"06fdde03","safeBatchTransferFrom(address,address,uint256[],uint256[],bytes)":"2eb2c2d6","safeTransferFrom(address,address,uint256,uint256,bytes)":"f242432a","setApprovalForAll(address,bool)":"a22cb465","supportsInterface(bytes4)":"01ffc9a7","symbol()":"95d89b41","uri(uint256)":"0e89341c"},"id":90}