{"abi":[{"type":"function","name":"_address","inputs":[],"outputs":[{"name":"","type":"address","internalType":"address"}],"stateMutability":"view"},{"type":"function","name":"_bool","inputs":[],"outputs":[{"name":"","type":"bool","internalType":"bool"}],"stateMutability":"view"},{"type":"function","name":"_bool2","inputs":[],"outputs":[{"name":"","type":"bool","internalType":"bool"}],"stateMutability":"view"},{"type":"function","name":"_dynamicArray","inputs":[{"name":"","type":"uint256","internalType":"uint256"}],"outputs":[{"name":"","type":"uint256","internalType":"uint256"}],"stateMutability":"view"},{"type":"function","name":"_enum","inputs":[],"outputs":[{"name":"","type":"uint8","internalType":"enum InitialValue.ActionSet"}],"stateMutability":"view"},{"type":"function","name":"_int","inputs":[],"outputs":[{"name":"","type":"int256","internalType":"int256"}],"stateMutability":"view"},{"type":"function","name":"_mapping","inputs":[{"name":"","type":"uint256","internalType":"uint256"}],"outputs":[{"name":"","type":"address","internalType":"address"}],"stateMutability":"view"},{"type":"function","name":"_staticArray","inputs":[{"name":"","type":"uint256","internalType":"uint256"}],"outputs":[{"name":"","type":"uint256","internalType":"uint256"}],"stateMutability":"view"},{"type":"function","name":"_string","inputs":[],"outputs":[{"name":"","type":"string","internalType":"string"}],"stateMutability":"view"},{"type":"function","name":"_uint","inputs":[],"outputs":[{"name":"","type":"uint256","internalType":"uint256"}],"stateMutability":"view"},{"type":"function","name":"d","inputs":[],"outputs":[],"stateMutability":"nonpayable"},{"type":"function","name":"fe","inputs":[],"outputs":[],"stateMutability":"nonpayable"},{"type":"function","name":"student","inputs":[],"outputs":[{"name":"id","type":"uint256","internalType":"uint256"},{"name":"score","type":"uint256","internalType":"uint256"}],"stateMutability":"view"}],"bytecode":{"object":"0x6080604052600160115f6101000a81548160ff0219169083151502179055503480156028575f5ffd5b50610704806100365f395ff3fe608060405234801561000f575f5ffd5b50600436106100cd575f3560e01c80638a054ac21161008a578063a2ba3ee411610064578063a2ba3ee4146101ca578063a2e7fe8a146101fa578063af45869e14610218578063ea8e4fd114610236576100cd565b80638a054ac2146101845780639b267f091461018e5780639e6ba9c2146101ac576100cd565b806312b7b142146100d157806318bad217146101015780632543135b1461011f57806330c0826f1461013d578063699450e81461015b57806386ed6eac1461017a575b5f5ffd5b6100eb60048036038101906100e6919061041f565b610266565b6040516100f89190610459565b60405180910390f35b61010961027f565b60405161011691906104b1565b60405180910390f35b6101276102a4565b6040516101349190610459565b60405180910390f35b6101456102aa565b604051610152919061053d565b60405180910390f35b6101636102bd565b604051610171929190610556565b60405180910390f35b6101826102ce565b005b61018c6102d0565b005b6101966102e3565b6040516101a391906105ed565b60405180910390f35b6101b461036f565b6040516101c19190610627565b60405180910390f35b6101e460048036038101906101df919061041f565b610380565b6040516101f191906104b1565b60405180910390f35b6102026103b0565b60405161020f9190610627565b60405180910390f35b6102206103c2565b60405161022d9190610658565b60405180910390f35b610250600480360381019061024b919061041f565b6103c8565b60405161025d9190610459565b60405180910390f35b60058160088110610275575f80fd5b015f915090505481565b60045f9054906101000a900473ffffffffffffffffffffffffffffffffffffffff1681565b60035481565b600460149054906101000a900460ff1681565b600f805f0154908060010154905082565b565b60115f6101000a81549060ff0219169055565b600180546102f09061069e565b80601f016020809104026020016040519081016040528092919081815260200182805461031c9061069e565b80156103675780601f1061033e57610100808354040283529160200191610367565b820191905f5260205f20905b81548152906001019060200180831161034a57829003601f168201915b505050505081565b5f5f9054906101000a900460ff1681565b600e602052805f5260405f205f915054906101000a900473ffffffffffffffffffffffffffffffffffffffff1681565b60115f9054906101000a900460ff1681565b60025481565b600d81815481106103d7575f80fd5b905f5260205f20015f915090505481565b5f5ffd5b5f819050919050565b6103fe816103ec565b8114610408575f5ffd5b50565b5f81359050610419816103f5565b92915050565b5f60208284031215610434576104336103e8565b5b5f6104418482850161040b565b91505092915050565b610453816103ec565b82525050565b5f60208201905061046c5f83018461044a565b92915050565b5f73ffffffffffffffffffffffffffffffffffffffff82169050919050565b5f61049b82610472565b9050919050565b6104ab81610491565b82525050565b5f6020820190506104c45f8301846104a2565b92915050565b7f4e487b71000000000000000000000000000000000000000000000000000000005f52602160045260245ffd5b60038110610508576105076104ca565b5b50565b5f819050610518826104f7565b919050565b5f6105278261050b565b9050919050565b6105378161051d565b82525050565b5f6020820190506105505f83018461052e565b92915050565b5f6040820190506105695f83018561044a565b610576602083018461044a565b9392505050565b5f81519050919050565b5f82825260208201905092915050565b8281835e5f83830152505050565b5f601f19601f8301169050919050565b5f6105bf8261057d565b6105c98185610587565b93506105d9818560208601610597565b6105e2816105a5565b840191505092915050565b5f6020820190508181035f83015261060581846105b5565b905092915050565b5f8115159050919050565b6106218161060d565b82525050565b5f60208201905061063a5f830184610618565b92915050565b5f819050919050565b61065281610640565b82525050565b5f60208201905061066b5f830184610649565b92915050565b7f4e487b71000000000000000000000000000000000000000000000000000000005f52602260045260245ffd5b5f60028204905060018216806106b557607f821691505b6020821081036106c8576106c7610671565b5b5091905056fea2646970667358221220c9ed9912df6f4bf860ba3fc7fb3595047f4a7478a48c58de9011ed7d1a651f8564736f6c63430008220033","linkReferences":{}},"methodIdentifiers":{"_address()":"18bad217","_bool()":"9e6ba9c2","_bool2()":"a2e7fe8a","_dynamicArray(uint256)":"ea8e4fd1","_enum()":"30c0826f","_int()":"af45869e","_mapping(uint256)":"a2ba3ee4","_staticArray(uint256)":"12b7b142","_string()":"9b267f09","_uint()":"2543135b","d()":"8a054ac2","fe()":"86ed6eac","student()":"699450e8"},"id":51}