{"abi":[{"type":"constructor","inputs":[{"name":"delay_","type":"uint256","internalType":"uint256"}],"stateMutability":"nonpayable"},{"type":"function","name":"GRACE_PERIOD","inputs":[],"outputs":[{"name":"","type":"uint256","internalType":"uint256"}],"stateMutability":"view"},{"type":"function","name":"admin","inputs":[],"outputs":[{"name":"","type":"address","internalType":"address"}],"stateMutability":"view"},{"type":"function","name":"cancelTransaction","inputs":[{"name":"target","type":"address","internalType":"address"},{"name":"value","type":"uint256","internalType":"uint256"},{"name":"signature","type":"string","internalType":"string"},{"name":"data","type":"bytes","internalType":"bytes"},{"name":"executeTime","type":"uint256","internalType":"uint256"}],"outputs":[],"stateMutability":"nonpayable"},{"type":"function","name":"changeAdmin","inputs":[{"name":"newAdmin","type":"address","internalType":"address"}],"outputs":[],"stateMutability":"nonpayable"},{"type":"function","name":"delay","inputs":[],"outputs":[{"name":"","type":"uint256","internalType":"uint256"}],"stateMutability":"view"},{"type":"function","name":"executeTransaction","inputs":[{"name":"target","type":"address","internalType":"address"},{"name":"value","type":"uint256","internalType":"uint256"},{"name":"signature","type":"string","internalType":"string"},{"name":"data","type":"bytes","internalType":"bytes"},{"name":"executeTime","type":"uint256","internalType":"uint256"}],"outputs":[{"name":"","type":"bytes","internalType":"bytes"}],"stateMutability":"payable"},{"type":"function","name":"getBlockTimestamp","inputs":[],"outputs":[{"name":"","type":"uint256","internalType":"uint256"}],"stateMutability":"view"},{"type":"function","name":"getTxHash","inputs":[{"name":"target","type":"address","internalType":"address"},{"name":"value","type":"uint256","internalType":"uint256"},{"name":"signature","type":"string","internalType":"string"},{"name":"data","type":"bytes","internalType":"bytes"},{"name":"executeTime","type":"uint256","internalType":"uint256"}],"outputs":[{"name":"","type":"bytes32","internalType":"bytes32"}],"stateMutability":"pure"},{"type":"function","name":"queueTransaction","inputs":[{"name":"target","type":"address","internalType":"address"},{"name":"value","type":"uint256","internalType":"uint256"},{"name":"signature","type":"string","internalType":"string"},{"name":"data","type":"bytes","internalType":"bytes"},{"name":"executeTime","type":"uint256","internalType":"uint256"}],"outputs":[{"name":"","type":"bytes32","internalType":"bytes32"}],"stateMutability":"nonpayable"},{"type":"function","name":"queuedTransactions","inputs":[{"name":"","type":"bytes32","internalType":"bytes32"}],"outputs":[{"name":"","type":"bool","internalType":"bool"}],"stateMutability":"view"},{"type":"event","name":"CancelTransaction","inputs":[{"name":"txHash","type":"bytes32","indexed":true,"internalType":"bytes32"},{"name":"target","type":"address","indexed":true,"internalType":"address"},{"name":"value","type":"uint256","indexed":false,"internalType":"uint256"},{"name":"signature","type":"string","indexed":false,"internalType":"string"},{"name":"data","type":"bytes","indexed":false,"internalType":"bytes"},{"name":"executeTime","type":"uint256","indexed":false,"internalType":"uint256"}],"anonymous":false},{"type":"event","name":"ExecuteTransaction","inputs":[{"name":"txHash","type":"bytes32","indexed":true,"internalType":"bytes32"},{"name":"target","type":"address","indexed":true,"internalType":"address"},{"name":"value","type":"uint256","indexed":false,"internalType":"uint256"},{"name":"signature","type":"string","indexed":false,"internalType":"string"},{"name":"data","type":"bytes","indexed":false,"internalType":"bytes"},{"name":"executeTime","type":"uint256","indexed":false,"internalType":"uint256"}],"anonymous":false},{"type":"event","name":"NewAdmin","inputs":[{"name":"newAdmin","type":"address","indexed":true,"internalType":"address"}],"anonymous":false},{"type":"event","name":"QueueTransaction","inputs":[{"name":"txHash","type":"bytes32","indexed":true,"internalType":"bytes32"},{"name":"target","type":"address","indexed":true,"internalType":"address"},{"name":"value","type":"uint256","indexed":false,"internalType":"uint256"},{"name":"signature","type":"string","indexed":false,"internalType":"string"},{"name":"data","type":"bytes","indexed":false,"internalType":"bytes"},{"name":"executeTime","type":"uint256","indexed":false,"internalType":"uint256"}],"anonymous":false}],"bytecode":{"object":"0x6080604052348015600e575f5ffd5b5060405161168d38038061168d8339818101604052810190602e919060ab565b80600181905550335f5f6101000a81548173ffffffffffffffffffffffffffffffffffffffff021916908373ffffffffffffffffffffffffffffffffffffffff1602179055505060d1565b5f5ffd5b5f819050919050565b608d81607d565b81146096575f5ffd5b50565b5f8151905060a5816086565b92915050565b5f6020828403121560bd5760bc6079565b5b5f60c8848285016099565b91505092915050565b6115af806100de5f395ff3fe608060405260043610610090575f3560e01c8063796b89b911610058578063796b89b91461018e5780638f283970146101b8578063c1a287e2146101e0578063f2b065371461020a578063f851a4401461024657610090565b806304a71576146100945780630825f38f146100d05780633a66f90114610100578063591fcdfe1461013c5780636a42b8f814610164575b5f5ffd5b34801561009f575f5ffd5b506100ba60048036038101906100b59190610c82565b610270565b6040516100c79190610d49565b60405180910390f35b6100ea60048036038101906100e59190610c82565b6102ab565b6040516100f79190610dc2565b60405180910390f35b34801561010b575f5ffd5b5061012660048036038101906101219190610c82565b6105c1565b6040516101339190610d49565b60405180910390f35b348015610147575f5ffd5b50610162600480360381019061015d9190610c82565b610742565b005b34801561016f575f5ffd5b506101786108c2565b6040516101859190610df1565b60405180910390f35b348015610199575f5ffd5b506101a26108c8565b6040516101af9190610df1565b60405180910390f35b3480156101c3575f5ffd5b506101de60048036038101906101d99190610e0a565b6108cf565b005b3480156101eb575f5ffd5b506101f46109c2565b6040516102019190610df1565b60405180910390f35b348015610215575f5ffd5b50610230600480360381019061022b9190610e5f565b6109c9565b60405161023d9190610ea4565b60405180910390f35b348015610251575f5ffd5b5061025a6109e6565b6040516102679190610ecc565b60405180910390f35b5f858585858560405160200161028a959493929190610f37565b60405160208183030381529060405280519060200120905095945050505050565b60605f5f9054906101000a900473ffffffffffffffffffffffffffffffffffffffff1673ffffffffffffffffffffffffffffffffffffffff163373ffffffffffffffffffffffffffffffffffffffff161461033b576040517f08c379a000000000000000000000000000000000000000000000000000000000815260040161033290610fe0565b60405180910390fd5b5f6103498787878787610270565b905060025f8281526020019081526020015f205f9054906101000a900460ff166103a8576040517f08c379a000000000000000000000000000000000000000000000000000000000815260040161039f9061106e565b60405180910390fd5b826103b16108c8565b10156103f2576040517f08c379a00000000000000000000000000000000000000000000000000000000081526004016103e990611122565b60405180910390fd5b62093a8083610401919061116d565b6104096108c8565b111561044a576040517f08c379a000000000000000000000000000000000000000000000000000000000815260040161044190611210565b60405180910390fd5b5f60025f8381526020019081526020015f205f6101000a81548160ff02191690831515021790555060605f865103610484578490506104b0565b85805190602001208560405160200161049e9291906112b3565b60405160208183030381529060405290505b5f5f8973ffffffffffffffffffffffffffffffffffffffff1689846040516104d891906112da565b5f6040518083038185875af1925050503d805f8114610512576040519150601f19603f3d011682016040523d82523d5f602084013e610517565b606091505b50915091508161055c576040517f08c379a000000000000000000000000000000000000000000000000000000000815260040161055390611360565b60405180910390fd5b8973ffffffffffffffffffffffffffffffffffffffff16847fa560e3198060a2f10670c1ec5b403077ea6ae93ca8de1c32b451dc1a943cd6e78b8b8b8b6040516105a9949392919061137e565b60405180910390a38094505050505095945050505050565b5f5f5f9054906101000a900473ffffffffffffffffffffffffffffffffffffffff1673ffffffffffffffffffffffffffffffffffffffff163373ffffffffffffffffffffffffffffffffffffffff1614610650576040517f08c379a000000000000000000000000000000000000000000000000000000000815260040161064790610fe0565b60405180910390fd5b60015461065b6108c8565b610665919061116d565b8210156106a7576040517f08c379a000000000000000000000000000000000000000000000000000000000815260040161069e90611465565b60405180910390fd5b5f6106b58787878787610270565b9050600160025f8381526020019081526020015f205f6101000a81548160ff0219169083151502179055508673ffffffffffffffffffffffffffffffffffffffff16817f76e2796dc3a81d57b0e8504b647febcbeeb5f4af818e164f11eef8131a6a763f8888888860405161072d949392919061137e565b60405180910390a38091505095945050505050565b5f5f9054906101000a900473ffffffffffffffffffffffffffffffffffffffff1673ffffffffffffffffffffffffffffffffffffffff163373ffffffffffffffffffffffffffffffffffffffff16146107d0576040517f08c379a00000000000000000000000000000000000000000000000000000000081526004016107c790610fe0565b60405180910390fd5b5f6107de8686868686610270565b905060025f8281526020019081526020015f205f9054906101000a900460ff1661083d576040517f08c379a0000000000000000000000000000000000000000000000000000000008152600401610834906114f3565b60405180910390fd5b5f60025f8381526020019081526020015f205f6101000a81548160ff0219169083151502179055508573ffffffffffffffffffffffffffffffffffffffff16817f2fffc091a501fd91bfbff27141450d3acb40fb8e6d8382b243ec7a812a3aaf87878787876040516108b2949392919061137e565b60405180910390a3505050505050565b60015481565b5f42905090565b3073ffffffffffffffffffffffffffffffffffffffff163373ffffffffffffffffffffffffffffffffffffffff161461093d576040517f08c379a00000000000000000000000000000000000000000000000000000000081526004016109349061155b565b60405180910390fd5b805f5f6101000a81548173ffffffffffffffffffffffffffffffffffffffff021916908373ffffffffffffffffffffffffffffffffffffffff1602179055508073ffffffffffffffffffffffffffffffffffffffff167f71614071b88dee5e0b2ae578a9dd7b2ebbe9ae832ba419dc0242cd065a290b6c60405160405180910390a250565b62093a8081565b6002602052805f5260405f205f915054906101000a900460ff1681565b5f5f9054906101000a900473ffffffffffffffffffffffffffffffffffffffff1681565b5f604051905090565b5f5ffd5b5f5ffd5b5f73ffffffffffffffffffffffffffffffffffffffff82169050919050565b5f610a4482610a1b565b9050919050565b610a5481610a3a565b8114610a5e575f5ffd5b50565b5f81359050610a6f81610a4b565b92915050565b5f819050919050565b610a8781610a75565b8114610a91575f5ffd5b50565b5f81359050610aa281610a7e565b92915050565b5f5ffd5b5f5ffd5b5f601f19601f8301169050919050565b7f4e487b71000000000000000000000000000000000000000000000000000000005f52604160045260245ffd5b610af682610ab0565b810181811067ffffffffffffffff82111715610b1557610b14610ac0565b5b80604052505050565b5f610b27610a0a565b9050610b338282610aed565b919050565b5f67ffffffffffffffff821115610b5257610b51610ac0565b5b610b5b82610ab0565b9050602081019050919050565b828183375f83830152505050565b5f610b88610b8384610b38565b610b1e565b905082815260208101848484011115610ba457610ba3610aac565b5b610baf848285610b68565b509392505050565b5f82601f830112610bcb57610bca610aa8565b5b8135610bdb848260208601610b76565b91505092915050565b5f67ffffffffffffffff821115610bfe57610bfd610ac0565b5b610c0782610ab0565b9050602081019050919050565b5f610c26610c2184610be4565b610b1e565b905082815260208101848484011115610c4257610c41610aac565b5b610c4d848285610b68565b509392505050565b5f82601f830112610c6957610c68610aa8565b5b8135610c79848260208601610c14565b91505092915050565b5f5f5f5f5f60a08688031215610c9b57610c9a610a13565b5b5f610ca888828901610a61565b9550506020610cb988828901610a94565b945050604086013567ffffffffffffffff811115610cda57610cd9610a17565b5b610ce688828901610bb7565b935050606086013567ffffffffffffffff811115610d0757610d06610a17565b5b610d1388828901610c55565b9250506080610d2488828901610a94565b9150509295509295909350565b5f819050919050565b610d4381610d31565b82525050565b5f602082019050610d5c5f830184610d3a565b92915050565b5f81519050919050565b5f82825260208201905092915050565b8281835e5f83830152505050565b5f610d9482610d62565b610d9e8185610d6c565b9350610dae818560208601610d7c565b610db781610ab0565b840191505092915050565b5f6020820190508181035f830152610dda8184610d8a565b905092915050565b610deb81610a75565b82525050565b5f602082019050610e045f830184610de2565b92915050565b5f60208284031215610e1f57610e1e610a13565b5b5f610e2c84828501610a61565b91505092915050565b610e3e81610d31565b8114610e48575f5ffd5b50565b5f81359050610e5981610e35565b92915050565b5f60208284031215610e7457610e73610a13565b5b5f610e8184828501610e4b565b91505092915050565b5f8115159050919050565b610e9e81610e8a565b82525050565b5f602082019050610eb75f830184610e95565b92915050565b610ec681610a3a565b82525050565b5f602082019050610edf5f830184610ebd565b92915050565b5f81519050919050565b5f82825260208201905092915050565b5f610f0982610ee5565b610f138185610eef565b9350610f23818560208601610d7c565b610f2c81610ab0565b840191505092915050565b5f60a082019050610f4a5f830188610ebd565b610f576020830187610de2565b8181036040830152610f698186610eff565b90508181036060830152610f7d8185610d8a565b9050610f8c6080830184610de2565b9695505050505050565b7f54696d656c6f636b3a2043616c6c6572206e6f742061646d696e0000000000005f82015250565b5f610fca601a83610eef565b9150610fd582610f96565b602082019050919050565b5f6020820190508181035f830152610ff781610fbe565b9050919050565b7f54696d656c6f636b3a3a657865637574655472616e73616374696f6e3a2054725f8201527f616e73616374696f6e206861736e2774206265656e207175657565642e000000602082015250565b5f611058603d83610eef565b915061106382610ffe565b604082019050919050565b5f6020820190508181035f8301526110858161104c565b9050919050565b7f54696d656c6f636b3a3a657865637574655472616e73616374696f6e3a2054725f8201527f616e73616374696f6e206861736e2774207375727061737365642074696d652060208201527f6c6f636b2e000000000000000000000000000000000000000000000000000000604082015250565b5f61110c604583610eef565b91506111178261108c565b606082019050919050565b5f6020820190508181035f83015261113981611100565b9050919050565b7f4e487b71000000000000000000000000000000000000000000000000000000005f52601160045260245ffd5b5f61117782610a75565b915061118283610a75565b925082820190508082111561119a57611199611140565b5b92915050565b7f54696d656c6f636b3a3a657865637574655472616e73616374696f6e3a2054725f8201527f616e73616374696f6e206973207374616c652e00000000000000000000000000602082015250565b5f6111fa603383610eef565b9150611205826111a0565b604082019050919050565b5f6020820190508181035f830152611227816111ee565b9050919050565b5f7fffffffff0000000000000000000000000000000000000000000000000000000082169050919050565b5f819050919050565b61127361126e8261122e565b611259565b82525050565b5f81905092915050565b5f61128d82610d62565b6112978185611279565b93506112a7818560208601610d7c565b80840191505092915050565b5f6112be8285611262565b6004820191506112ce8284611283565b91508190509392505050565b5f6112e58284611283565b915081905092915050565b7f54696d656c6f636b3a3a657865637574655472616e73616374696f6e3a2054725f8201527f616e73616374696f6e20657865637574696f6e2072657665727465642e000000602082015250565b5f61134a603d83610eef565b9150611355826112f0565b604082019050919050565b5f6020820190508181035f8301526113778161133e565b9050919050565b5f6080820190506113915f830187610de2565b81810360208301526113a38186610eff565b905081810360408301526113b78185610d8a565b90506113c66060830184610de2565b95945050505050565b7f54696d656c6f636b3a3a71756575655472616e73616374696f6e3a20457374695f8201527f6d6174656420657865637574696f6e20626c6f636b206d75737420736174697360208201527f66792064656c61792e0000000000000000000000000000000000000000000000604082015250565b5f61144f604983610eef565b915061145a826113cf565b606082019050919050565b5f6020820190508181035f83015261147c81611443565b9050919050565b7f54696d656c6f636b3a3a63616e63656c5472616e73616374696f6e3a205472615f8201527f6e73616374696f6e206861736e2774206265656e207175657565642e00000000602082015250565b5f6114dd603c83610eef565b91506114e882611483565b604082019050919050565b5f6020820190508181035f83015261150a816114d1565b9050919050565b7f54696d656c6f636b3a2043616c6c6572206e6f742054696d656c6f636b0000005f82015250565b5f611545601d83610eef565b915061155082611511565b602082019050919050565b5f6020820190508181035f83015261157281611539565b905091905056fea264697066735822122005fca8fe397772333edfacb3e12ce4575c03d45548aa399da95db3f705ef637964736f6c63430008220033","linkReferences":{}},"methodIdentifiers":{"GRACE_PERIOD()":"c1a287e2","admin()":"f851a440","cancelTransaction(address,uint256,string,bytes,uint256)":"591fcdfe","changeAdmin(address)":"8f283970","delay()":"6a42b8f8","executeTransaction(address,uint256,string,bytes,uint256)":"0825f38f","getBlockTimestamp()":"796b89b9","getTxHash(address,uint256,string,bytes,uint256)":"04a71576","queueTransaction(address,uint256,string,bytes,uint256)":"3a66f901","queuedTransactions(bytes32)":"f2b06537"},"id":98}