{"abi":[{"type":"function","name":"getFirstName","inputs":[],"outputs":[{"name":"","type":"string","internalType":"string"}],"stateMutability":"pure"},{"type":"function","name":"getLastName","inputs":[],"outputs":[{"name":"","type":"string","internalType":"string"}],"stateMutability":"pure"}],"bytecode":{"object":"0x6080604052348015600e575f5ffd5b506101b48061001c5f395ff3fe608060405234801561000f575f5ffd5b5060043610610034575f3560e01c80636b10928214610038578063932997f114610056575b5f5ffd5b610040610074565b60405161004d919061015e565b60405180910390f35b61005e6100b1565b60405161006b919061015e565b60405180910390f35b60606040518060400160405280600381526020017f416e670000000000000000000000000000000000000000000000000000000000815250905090565b60606040518060400160405280600781526020017f416d617a696e6700000000000000000000000000000000000000000000000000815250905090565b5f81519050919050565b5f82825260208201905092915050565b8281835e5f83830152505050565b5f601f19601f8301169050919050565b5f610130826100ee565b61013a81856100f8565b935061014a818560208601610108565b61015381610116565b840191505092915050565b5f6020820190508181035f8301526101768184610126565b90509291505056fea2646970667358221220cdf9e6dcf8316bf10afec61a9ac2704306adcdbff993589693b09bd5bb55a10364736f6c63430008220033","linkReferences":{}},"methodIdentifiers":{"getFirstName()":"932997f1","getLastName()":"6b109282"},"id":57}