{"abi":[{"type":"constructor","inputs":[],"stateMutability":"nonpayable"},{"type":"function","name":"flashloan","inputs":[{"name":"wethAmount","type":"uint256","internalType":"uint256"}],"outputs":[],"stateMutability":"nonpayable"},{"type":"function","name":"getPool","inputs":[{"name":"_token0","type":"address","internalType":"address"},{"name":"_token1","type":"address","internalType":"address"},{"name":"_fee","type":"uint24","internalType":"uint24"}],"outputs":[{"name":"","type":"address","internalType":"address"}],"stateMutability":"pure"},{"type":"function","name":"uniswapV3FlashCallback","inputs":[{"name":"fee0","type":"uint256","internalType":"uint256"},{"name":"fee1","type":"uint256","internalType":"uint256"},{"name":"data","type":"bytes","internalType":"bytes"}],"outputs":[],"stateMutability":"nonpayable"}],"bytecode":{"object":"0x60a060405234801561000f575f5ffd5b5061004b736b175474e89094c44da98b954eedeac495271d0f73c02aaa39b223fe8d0a0e5c4f27ead9083c756cc2610bb861008360201b60201c565b73ffffffffffffffffffffffffffffffffffffffff1660808173ffffffffffffffffffffffffffffffffffffffff1681525050610416565b5f5f6100968585856100c660201b60201c565b90506100bc731f98431c8ad98523631ae4a59f267346ea31f9848261016260201b60201c565b9150509392505050565b6100ce61022d565b8273ffffffffffffffffffffffffffffffffffffffff168473ffffffffffffffffffffffffffffffffffffffff16111561010d57828480945081955050505b60405180606001604052808573ffffffffffffffffffffffffffffffffffffffff1681526020018473ffffffffffffffffffffffffffffffffffffffff1681526020018362ffffff1681525090509392505050565b5f816020015173ffffffffffffffffffffffffffffffffffffffff16825f015173ffffffffffffffffffffffffffffffffffffffff16106101a1575f5ffd5b82825f0151836020015184604001516040516020016101c2939291906102d8565b604051602081830303815290604052805190602001207fe34f199b19b2b4f47f68442619d555527d244f78a3297ea89325f843f87b8b545f1b60405160200161020d939291906103cf565b604051602081830303815290604052805190602001205f1c905092915050565b60405180606001604052805f73ffffffffffffffffffffffffffffffffffffffff1681526020015f73ffffffffffffffffffffffffffffffffffffffff1681526020015f62ffffff1681525090565b5f73ffffffffffffffffffffffffffffffffffffffff82169050919050565b5f6102a58261027c565b9050919050565b6102b58161029b565b82525050565b5f62ffffff82169050919050565b6102d2816102bb565b82525050565b5f6060820190506102eb5f8301866102ac565b6102f860208301856102ac565b61030560408301846102c9565b949350505050565b5f81905092915050565b7fff000000000000000000000000000000000000000000000000000000000000005f82015250565b5f61034b60018361030d565b915061035682610317565b600182019050919050565b5f8160601b9050919050565b5f61037782610361565b9050919050565b5f6103888261036d565b9050919050565b6103a061039b8261029b565b61037e565b82525050565b5f819050919050565b5f819050919050565b6103c96103c4826103a6565b6103af565b82525050565b5f6103d98261033f565b91506103e5828661038f565b6014820191506103f582856103b8565b60208201915061040582846103b8565b602082019150819050949350505050565b608051610c5961043c5f395f818161011d015281816101ad01526103020152610c595ff3fe608060405234801561000f575f5ffd5b506004361061003f575f3560e01c80631698ee821461004357806365b6c4f014610073578063e9cbafb01461008f575b5f5ffd5b61005d600480360381019061005891906105e3565b6100ab565b60405161006a9190610642565b60405180910390f35b61008d6004803603810190610088919061068e565b6100e2565b005b6100a960048036038101906100a4919061071a565b6101ab565b005b5f5f6100b8858585610393565b90506100d8731f98431c8ad98523631ae4a59f267346ea31f9848261042f565b9150509392505050565b5f73c02aaa39b223fe8d0a0e5c4f27ead9083c756cc28260405160200161010a92919061079a565b60405160208183030381529060405290507f000000000000000000000000000000000000000000000000000000000000000073ffffffffffffffffffffffffffffffffffffffff1663490e6cbc305f85856040518563ffffffff1660e01b815260040161017a9493929190610873565b5f604051808303815f87803b158015610191575f5ffd5b505af11580156101a3573d5f5f3e3d5ffd5b505050505050565b7f000000000000000000000000000000000000000000000000000000000000000073ffffffffffffffffffffffffffffffffffffffff163373ffffffffffffffffffffffffffffffffffffffff1614610239576040517f08c379a000000000000000000000000000000000000000000000000000000000815260040161023090610917565b60405180910390fd5b5f5f838381019061024a9190610970565b9150915073c02aaa39b223fe8d0a0e5c4f27ead9083c756cc273ffffffffffffffffffffffffffffffffffffffff168273ffffffffffffffffffffffffffffffffffffffff16146102d0576040517f08c379a00000000000000000000000000000000000000000000000000000000081526004016102c7906109f8565b60405180910390fd5b73c02aaa39b223fe8d0a0e5c4f27ead9083c756cc273ffffffffffffffffffffffffffffffffffffffff1663a9059cbb7f0000000000000000000000000000000000000000000000000000000000000000878461032d9190610a43565b6040518363ffffffff1660e01b815260040161034a92919061079a565b6020604051808303815f875af1158015610366573d5f5f3e3d5ffd5b505050506040513d601f19601f8201168201806040525081019061038a9190610aab565b50505050505050565b61039b6104fa565b8273ffffffffffffffffffffffffffffffffffffffff168473ffffffffffffffffffffffffffffffffffffffff1611156103da57828480945081955050505b60405180606001604052808573ffffffffffffffffffffffffffffffffffffffff1681526020018473ffffffffffffffffffffffffffffffffffffffff1681526020018362ffffff1681525090509392505050565b5f816020015173ffffffffffffffffffffffffffffffffffffffff16825f015173ffffffffffffffffffffffffffffffffffffffff161061046e575f5ffd5b82825f01518360200151846040015160405160200161048f93929190610ae5565b604051602081830303815290604052805190602001207fe34f199b19b2b4f47f68442619d555527d244f78a3297ea89325f843f87b8b545f1b6040516020016104da93929190610bdc565b604051602081830303815290604052805190602001205f1c905092915050565b60405180606001604052805f73ffffffffffffffffffffffffffffffffffffffff1681526020015f73ffffffffffffffffffffffffffffffffffffffff1681526020015f62ffffff1681525090565b5f5ffd5b5f5ffd5b5f73ffffffffffffffffffffffffffffffffffffffff82169050919050565b5f61057a82610551565b9050919050565b61058a81610570565b8114610594575f5ffd5b50565b5f813590506105a581610581565b92915050565b5f62ffffff82169050919050565b6105c2816105ab565b81146105cc575f5ffd5b50565b5f813590506105dd816105b9565b92915050565b5f5f5f606084860312156105fa576105f9610549565b5b5f61060786828701610597565b935050602061061886828701610597565b9250506040610629868287016105cf565b9150509250925092565b61063c81610570565b82525050565b5f6020820190506106555f830184610633565b92915050565b5f819050919050565b61066d8161065b565b8114610677575f5ffd5b50565b5f8135905061068881610664565b92915050565b5f602082840312156106a3576106a2610549565b5b5f6106b08482850161067a565b91505092915050565b5f5ffd5b5f5ffd5b5f5ffd5b5f5f83601f8401126106da576106d96106b9565b5b8235905067ffffffffffffffff8111156106f7576106f66106bd565b5b602083019150836001820283011115610713576107126106c1565b5b9250929050565b5f5f5f5f6060858703121561073257610731610549565b5b5f61073f8782880161067a565b94505060206107508782880161067a565b935050604085013567ffffffffffffffff8111156107715761077061054d565b5b61077d878288016106c5565b925092505092959194509250565b6107948161065b565b82525050565b5f6040820190506107ad5f830185610633565b6107ba602083018461078b565b9392505050565b5f819050919050565b5f819050919050565b5f6107ed6107e86107e3846107c1565b6107ca565b61065b565b9050919050565b6107fd816107d3565b82525050565b5f81519050919050565b5f82825260208201905092915050565b8281835e5f83830152505050565b5f601f19601f8301169050919050565b5f61084582610803565b61084f818561080d565b935061085f81856020860161081d565b6108688161082b565b840191505092915050565b5f6080820190506108865f830187610633565b61089360208301866107f4565b6108a0604083018561078b565b81810360608301526108b2818461083b565b905095945050505050565b5f82825260208201905092915050565b7f6e6f7420617574686f72697a65640000000000000000000000000000000000005f82015250565b5f610901600e836108bd565b915061090c826108cd565b602082019050919050565b5f6020820190508181035f83015261092e816108f5565b9050919050565b5f61093f82610551565b9050919050565b61094f81610935565b8114610959575f5ffd5b50565b5f8135905061096a81610946565b92915050565b5f5f6040838503121561098657610985610549565b5b5f6109938582860161095c565b92505060206109a48582860161067a565b9150509250929050565b7f746f6b656e20626f72726f7720213d20574554480000000000000000000000005f82015250565b5f6109e26014836108bd565b91506109ed826109ae565b602082019050919050565b5f6020820190508181035f830152610a0f816109d6565b9050919050565b7f4e487b71000000000000000000000000000000000000000000000000000000005f52601160045260245ffd5b5f610a4d8261065b565b9150610a588361065b565b9250828201905080821115610a7057610a6f610a16565b5b92915050565b5f8115159050919050565b610a8a81610a76565b8114610a94575f5ffd5b50565b5f81519050610aa581610a81565b92915050565b5f60208284031215610ac057610abf610549565b5b5f610acd84828501610a97565b91505092915050565b610adf816105ab565b82525050565b5f606082019050610af85f830186610633565b610b056020830185610633565b610b126040830184610ad6565b949350505050565b5f81905092915050565b7fff000000000000000000000000000000000000000000000000000000000000005f82015250565b5f610b58600183610b1a565b9150610b6382610b24565b600182019050919050565b5f8160601b9050919050565b5f610b8482610b6e565b9050919050565b5f610b9582610b7a565b9050919050565b610bad610ba882610570565b610b8b565b82525050565b5f819050919050565b5f819050919050565b610bd6610bd182610bb3565b610bbc565b82525050565b5f610be682610b4c565b9150610bf28286610b9c565b601482019150610c028285610bc5565b602082019150610c128284610bc5565b60208201915081905094935050505056fea2646970667358221220dce90cb54b397becc206066bfaf1b7f9c3601c6205e7052d7f8ba3ba1078a05864736f6c63430008220033","linkReferences":{}},"methodIdentifiers":{"flashloan(uint256)":"65b6c4f0","getPool(address,address,uint24)":"1698ee82","uniswapV3FlashCallback(uint256,uint256,bytes)":"e9cbafb0"},"id":117}