{"abi":[{"type":"function","name":"admin","inputs":[],"outputs":[{"name":"","type":"address","internalType":"address"}],"stateMutability":"view"},{"type":"function","name":"foo","inputs":[],"outputs":[],"stateMutability":"nonpayable"},{"type":"function","name":"implementation","inputs":[],"outputs":[{"name":"","type":"address","internalType":"address"}],"stateMutability":"view"},{"type":"function","name":"upgrade","inputs":[{"name":"newImplementation","type":"address","internalType":"address"}],"outputs":[],"stateMutability":"nonpayable"},{"type":"function","name":"words","inputs":[],"outputs":[{"name":"","type":"string","internalType":"string"}],"stateMutability":"view"}],"bytecode":{"object":"0x6080604052348015600e575f5ffd5b506107198061001c5f395ff3fe608060405234801561000f575f5ffd5b5060043610610055575f3560e01c80630900f010146100595780635c60da1b14610075578063c298557814610093578063f2c31bd91461009d578063f851a440146100bb575b5f5ffd5b610073600480360381019061006e91906102ed565b6100d9565b005b61007d610173565b60405161008a9190610327565b60405180910390f35b61009b610197565b005b6100a56101de565b6040516100b291906103b0565b60405180910390f35b6100c361026a565b6040516100d09190610327565b60405180910390f35b60015f9054906101000a900473ffffffffffffffffffffffffffffffffffffffff1673ffffffffffffffffffffffffffffffffffffffff163373ffffffffffffffffffffffffffffffffffffffff1614610131575f5ffd5b805f5f6101000a81548173ffffffffffffffffffffffffffffffffffffffff021916908373ffffffffffffffffffffffffffffffffffffffff16021790555050565b5f5f9054906101000a900473ffffffffffffffffffffffffffffffffffffffff1681565b6040518060400160405280600381526020017f6e65770000000000000000000000000000000000000000000000000000000000815250600290816101db9190610614565b50565b600280546101eb9061042a565b80601f01602080910402602001604051908101604052809291908181526020018280546102179061042a565b80156102625780601f1061023957610100808354040283529160200191610262565b820191905f5260205f20905b81548152906001019060200180831161024557829003601f168201915b505050505081565b60015f9054906101000a900473ffffffffffffffffffffffffffffffffffffffff1681565b5f5ffd5b5f73ffffffffffffffffffffffffffffffffffffffff82169050919050565b5f6102bc82610293565b9050919050565b6102cc816102b2565b81146102d6575f5ffd5b50565b5f813590506102e7816102c3565b92915050565b5f602082840312156103025761030161028f565b5b5f61030f848285016102d9565b91505092915050565b610321816102b2565b82525050565b5f60208201905061033a5f830184610318565b92915050565b5f81519050919050565b5f82825260208201905092915050565b8281835e5f83830152505050565b5f601f19601f8301169050919050565b5f61038282610340565b61038c818561034a565b935061039c81856020860161035a565b6103a581610368565b840191505092915050565b5f6020820190508181035f8301526103c88184610378565b905092915050565b7f4e487b71000000000000000000000000000000000000000000000000000000005f52604160045260245ffd5b7f4e487b71000000000000000000000000000000000000000000000000000000005f52602260045260245ffd5b5f600282049050600182168061044157607f821691505b602082108103610454576104536103fd565b5b50919050565b5f819050815f5260205f209050919050565b5f6020601f8301049050919050565b5f82821b905092915050565b5f600883026104b67fffffffffffffffffffffffffffffffffffffffffffffffffffffffffffffffff8261047b565b6104c0868361047b565b95508019841693508086168417925050509392505050565b5f819050919050565b5f819050919050565b5f6105046104ff6104fa846104d8565b6104e1565b6104d8565b9050919050565b5f819050919050565b61051d836104ea565b6105316105298261050b565b848454610487565b825550505050565b5f5f905090565b610548610539565b610553818484610514565b505050565b5f5b828110156105795761056e5f828401610540565b60018101905061055a565b505050565b601f8211156105cc57828211156105cb576105988161045a565b6105a18361046c565b6105aa8561046c565b60208610156105b7575f90505b8083016105c682840382610558565b505050505b5b505050565b5f82821c905092915050565b5f6105ec5f19846008026105d1565b1980831691505092915050565b5f61060483836105dd565b9150826002028217905092915050565b61061d82610340565b67ffffffffffffffff811115610636576106356103d0565b5b610640825461042a565b61064b82828561057e565b5f60209050601f83116001811461067c575f841561066a578287015190505b61067485826105f9565b8655506106db565b601f19841661068a8661045a565b5f5b828110156106b15784890151825560018201915060208501945060208101905061068c565b868310156106ce57848901516106ca601f8916826105dd565b8355505b6001600288020188555050505b50505050505056fea2646970667358221220f6b4cf4fc948895904235775124bdc60bd8194c3c44de31714498a30f5cefe7164736f6c63430008220033","linkReferences":{}},"methodIdentifiers":{"admin()":"f851a440","foo()":"c2985578","implementation()":"5c60da1b","upgrade(address)":"0900f010","words()":"f2c31bd9"},"id":102}