{"abi":[{"type":"constructor","inputs":[{"name":"_implementation","type":"address","internalType":"address"}],"stateMutability":"nonpayable"},{"type":"fallback","stateMutability":"payable"},{"type":"function","name":"admin","inputs":[],"outputs":[{"name":"","type":"address","internalType":"address"}],"stateMutability":"view"},{"type":"function","name":"implementation","inputs":[],"outputs":[{"name":"","type":"address","internalType":"address"}],"stateMutability":"view"},{"type":"function","name":"words","inputs":[],"outputs":[{"name":"","type":"string","internalType":"string"}],"stateMutability":"view"}],"bytecode":{"object":"0x608060405234801561000f575f5ffd5b5060405161052e38038061052e83398181016040528101906100319190610114565b3360015f6101000a81548173ffffffffffffffffffffffffffffffffffffffff021916908373ffffffffffffffffffffffffffffffffffffffff160217905550805f5f6101000a81548173ffffffffffffffffffffffffffffffffffffffff021916908373ffffffffffffffffffffffffffffffffffffffff1602179055505061013f565b5f5ffd5b5f73ffffffffffffffffffffffffffffffffffffffff82169050919050565b5f6100e3826100ba565b9050919050565b6100f3816100d9565b81146100fd575f5ffd5b50565b5f8151905061010e816100ea565b92915050565b5f60208284031215610129576101286100b6565b5b5f61013684828501610100565b91505092915050565b6103e28061014c5f395ff3fe608060405260043610610037575f3560e01c80635c60da1b146100c0578063f2c31bd9146100ea578063f851a4401461011457610038565b5b5f5f5f5f9054906101000a900473ffffffffffffffffffffffffffffffffffffffff1673ffffffffffffffffffffffffffffffffffffffff165f3660405161008192919061024f565b5f60405180830381855af49150503d805f81146100b9576040519150601f19603f3d011682016040523d82523d5f602084013e6100be565b606091505b005b3480156100cb575f5ffd5b506100d461013e565b6040516100e191906102a6565b60405180910390f35b3480156100f5575f5ffd5b506100fe610162565b60405161010b919061032f565b60405180910390f35b34801561011f575f5ffd5b506101286101ee565b60405161013591906102a6565b60405180910390f35b5f5f9054906101000a900473ffffffffffffffffffffffffffffffffffffffff1681565b6002805461016f9061037c565b80601f016020809104026020016040519081016040528092919081815260200182805461019b9061037c565b80156101e65780601f106101bd576101008083540402835291602001916101e6565b820191905f5260205f20905b8154815290600101906020018083116101c957829003601f168201915b505050505081565b60015f9054906101000a900473ffffffffffffffffffffffffffffffffffffffff1681565b5f81905092915050565b828183375f83830152505050565b5f6102368385610213565b935061024383858461021d565b82840190509392505050565b5f61025b82848661022b565b91508190509392505050565b5f73ffffffffffffffffffffffffffffffffffffffff82169050919050565b5f61029082610267565b9050919050565b6102a081610286565b82525050565b5f6020820190506102b95f830184610297565b92915050565b5f81519050919050565b5f82825260208201905092915050565b8281835e5f83830152505050565b5f601f19601f8301169050919050565b5f610301826102bf565b61030b81856102c9565b935061031b8185602086016102d9565b610324816102e7565b840191505092915050565b5f6020820190508181035f83015261034781846102f7565b905092915050565b7f4e487b71000000000000000000000000000000000000000000000000000000005f52602260045260245ffd5b5f600282049050600182168061039357607f821691505b6020821081036103a6576103a561034f565b5b5091905056fea2646970667358221220f92f89da1bdf075c64e2d2831a9a7c21833a994b231cb921e34445ab08c1b1f664736f6c63430008220033","linkReferences":{}},"methodIdentifiers":{"admin()":"f851a440","implementation()":"5c60da1b","words()":"f2c31bd9"},"id":102}