{"abi":[{"type":"constructor","inputs":[{"name":"_owners","type":"address[]","internalType":"address[]"},{"name":"_threshold","type":"uint256","internalType":"uint256"}],"stateMutability":"nonpayable"},{"type":"receive","stateMutability":"payable"},{"type":"function","name":"checkSignatures","inputs":[{"name":"dataHash","type":"bytes32","internalType":"bytes32"},{"name":"signatures","type":"bytes","internalType":"bytes"}],"outputs":[],"stateMutability":"view"},{"type":"function","name":"encodeTransactionData","inputs":[{"name":"to","type":"address","internalType":"address"},{"name":"value","type":"uint256","internalType":"uint256"},{"name":"data","type":"bytes","internalType":"bytes"},{"name":"_nonce","type":"uint256","internalType":"uint256"},{"name":"chainid","type":"uint256","internalType":"uint256"}],"outputs":[{"name":"","type":"bytes32","internalType":"bytes32"}],"stateMutability":"pure"},{"type":"function","name":"execTransaction","inputs":[{"name":"to","type":"address","internalType":"address"},{"name":"value","type":"uint256","internalType":"uint256"},{"name":"data","type":"bytes","internalType":"bytes"},{"name":"signatures","type":"bytes","internalType":"bytes"}],"outputs":[{"name":"success","type":"bool","internalType":"bool"}],"stateMutability":"payable"},{"type":"function","name":"isOwner","inputs":[{"name":"","type":"address","internalType":"address"}],"outputs":[{"name":"","type":"bool","internalType":"bool"}],"stateMutability":"view"},{"type":"function","name":"nonce","inputs":[],"outputs":[{"name":"","type":"uint256","internalType":"uint256"}],"stateMutability":"view"},{"type":"function","name":"ownerCount","inputs":[],"outputs":[{"name":"","type":"uint256","internalType":"uint256"}],"stateMutability":"view"},{"type":"function","name":"owners","inputs":[{"name":"","type":"uint256","internalType":"uint256"}],"outputs":[{"name":"","type":"address","internalType":"address"}],"stateMutability":"view"},{"type":"function","name":"threshold","inputs":[],"outputs":[{"name":"","type":"uint256","internalType":"uint256"}],"stateMutability":"view"},{"type":"event","name":"ExecutionFailure","inputs":[{"name":"txHash","type":"bytes32","indexed":false,"internalType":"bytes32"}],"anonymous":false},{"type":"event","name":"ExecutionSuccess","inputs":[{"name":"txHash","type":"bytes32","indexed":false,"internalType":"bytes32"}],"anonymous":false}],"bytecode":{"object":"0x608060405234801561000f575f5ffd5b506040516115df3803806115df833981810160405281019061003191906104fd565b610041828261004860201b60201c565b5050610734565b5f6003541461008c576040517f08c379a0000000000000000000000000000000000000000000000000000000008152600401610083906105b1565b60405180910390fd5b81518111156100d0576040517f08c379a00000000000000000000000000000000000000000000000000000000081526004016100c790610619565b60405180910390fd5b6001811015610114576040517f08c379a000000000000000000000000000000000000000000000000000000000815260040161010b90610681565b60405180910390fd5b5f5f90505b82518110156102fb575f8382815181106101365761013561069f565b5b602002602001015190505f73ffffffffffffffffffffffffffffffffffffffff168173ffffffffffffffffffffffffffffffffffffffff16141580156101a857503073ffffffffffffffffffffffffffffffffffffffff168173ffffffffffffffffffffffffffffffffffffffff1614155b80156101fb575060015f8273ffffffffffffffffffffffffffffffffffffffff1673ffffffffffffffffffffffffffffffffffffffff1681526020019081526020015f205f9054906101000a900460ff16155b61023a576040517f08c379a000000000000000000000000000000000000000000000000000000000815260040161023190610716565b60405180910390fd5b5f81908060018154018082558091505060019003905f5260205f20015f9091909190916101000a81548173ffffffffffffffffffffffffffffffffffffffff021916908373ffffffffffffffffffffffffffffffffffffffff1602179055506001805f8373ffffffffffffffffffffffffffffffffffffffff1673ffffffffffffffffffffffffffffffffffffffff1681526020019081526020015f205f6101000a81548160ff021916908315150217905550508080600101915050610119565b508151600281905550806003819055505050565b5f604051905090565b5f5ffd5b5f5ffd5b5f5ffd5b5f601f19601f8301169050919050565b7f4e487b71000000000000000000000000000000000000000000000000000000005f52604160045260245ffd5b61036a82610324565b810181811067ffffffffffffffff8211171561038957610388610334565b5b80604052505050565b5f61039b61030f565b90506103a78282610361565b919050565b5f67ffffffffffffffff8211156103c6576103c5610334565b5b602082029050602081019050919050565b5f5ffd5b5f73ffffffffffffffffffffffffffffffffffffffff82169050919050565b5f610404826103db565b9050919050565b610414816103fa565b811461041e575f5ffd5b50565b5f8151905061042f8161040b565b92915050565b5f610447610442846103ac565b610392565b9050808382526020820190506020840283018581111561046a576104696103d7565b5b835b81811015610493578061047f8882610421565b84526020840193505060208101905061046c565b5050509392505050565b5f82601f8301126104b1576104b0610320565b5b81516104c1848260208601610435565b91505092915050565b5f819050919050565b6104dc816104ca565b81146104e6575f5ffd5b50565b5f815190506104f7816104d3565b92915050565b5f5f6040838503121561051357610512610318565b5b5f83015167ffffffffffffffff8111156105305761052f61031c565b5b61053c8582860161049d565b925050602061054d858286016104e9565b9150509250929050565b5f82825260208201905092915050565b7f57544635303030000000000000000000000000000000000000000000000000005f82015250565b5f61059b600783610557565b91506105a682610567565b602082019050919050565b5f6020820190508181035f8301526105c88161058f565b9050919050565b7f57544635303031000000000000000000000000000000000000000000000000005f82015250565b5f610603600783610557565b915061060e826105cf565b602082019050919050565b5f6020820190508181035f830152610630816105f7565b9050919050565b7f57544635303032000000000000000000000000000000000000000000000000005f82015250565b5f61066b600783610557565b915061067682610637565b602082019050919050565b5f6020820190508181035f8301526106988161065f565b9050919050565b7f4e487b71000000000000000000000000000000000000000000000000000000005f52603260045260245ffd5b7f57544635303033000000000000000000000000000000000000000000000000005f82015250565b5f610700600783610557565b915061070b826106cc565b602082019050919050565b5f6020820190508181035f83015261072d816106f4565b9050919050565b610e9e806107415f395ff3fe60806040526004361061007e575f3560e01c8063a67dd5091161004d578063a67dd50914610155578063affed0e014610191578063d01aa318146101bb578063ed516d51146101eb57610085565b8063025e7c27146100895780630db02622146100c55780632f54bf6e146100ef57806342cde4e81461012b57610085565b3661008557005b5f5ffd5b348015610094575f5ffd5b506100af60048036038101906100aa9190610668565b610213565b6040516100bc91906106d2565b60405180910390f35b3480156100d0575f5ffd5b506100d961024d565b6040516100e691906106fa565b60405180910390f35b3480156100fa575f5ffd5b506101156004803603810190610110919061073d565b610253565b6040516101229190610782565b60405180910390f35b348015610136575f5ffd5b5061013f610270565b60405161014c91906106fa565b60405180910390f35b348015610160575f5ffd5b5061017b600480360381019061017691906108d7565b610276565b6040516101889190610982565b60405180910390f35b34801561019c575f5ffd5b506101a56102bd565b6040516101b291906106fa565b60405180910390f35b6101d560048036038101906101d0919061099b565b6102c3565b6040516101e29190610782565b60405180910390f35b3480156101f6575f5ffd5b50610211600480360381019061020c9190610a61565b6103e5565b005b5f8181548110610221575f80fd5b905f5260205f20015f915054906101000a900473ffffffffffffffffffffffffffffffffffffffff1681565b60025481565b6001602052805f5260405f205f915054906101000a900460ff1681565b60035481565b5f5f868686805190602001208686604051602001610298959493929190610abb565b6040516020818303038152906040528051906020012090508091505095945050505050565b60045481565b5f5f6102d486868660045446610276565b905060045f8154809291906102e890610b39565b91905055506102f781846103e5565b8573ffffffffffffffffffffffffffffffffffffffff16858560405161031d9190610bd2565b5f6040518083038185875af1925050503d805f8114610357576040519150601f19603f3d011682016040523d82523d5f602084013e61035c565b606091505b50508092505081156103a4577fdc29884a71d2bb98d3c53dc09718be05c7bfd142b7773a5c5cf2517629290ac0816040516103979190610982565b60405180910390a16103dc565b7fdbe42d02a4e07d7eeff2874efe172540c93b297d206f6d691c9782a257323e32816040516103d39190610982565b60405180910390a15b50949350505050565b5f60035490505f811161042d576040517f08c379a000000000000000000000000000000000000000000000000000000000815260040161042490610c42565b60405180910390fd5b60418161043a9190610c60565b8251101561047d576040517f08c379a000000000000000000000000000000000000000000000000000000000815260040161047490610ceb565b60405180910390fd5b5f5f90505f5f5f5f5f5f90505b868110156105ec5761049c88826105f7565b8094508195508296505050506001896040516020016104bb9190610d7d565b604051602081830303815290604052805190602001208585856040515f81526020016040526040516104f09493929190610dbd565b6020604051602081039080840390855afa158015610510573d5f5f3e3d5ffd5b5050506020604051035194508573ffffffffffffffffffffffffffffffffffffffff168573ffffffffffffffffffffffffffffffffffffffff1611801561059d575060015f8673ffffffffffffffffffffffffffffffffffffffff1673ffffffffffffffffffffffffffffffffffffffff1681526020019081526020015f205f9054906101000a900460ff165b6105dc576040517f08c379a00000000000000000000000000000000000000000000000000000000081526004016105d390610e4a565b60405180910390fd5b849550808060010191505061048a565b505050505050505050565b5f5f5f8360410260208101860151925060408101860151915060ff60418201870151169350509250925092565b5f604051905090565b5f5ffd5b5f5ffd5b5f819050919050565b61064781610635565b8114610651575f5ffd5b50565b5f813590506106628161063e565b92915050565b5f6020828403121561067d5761067c61062d565b5b5f61068a84828501610654565b91505092915050565b5f73ffffffffffffffffffffffffffffffffffffffff82169050919050565b5f6106bc82610693565b9050919050565b6106cc816106b2565b82525050565b5f6020820190506106e55f8301846106c3565b92915050565b6106f481610635565b82525050565b5f60208201905061070d5f8301846106eb565b92915050565b61071c816106b2565b8114610726575f5ffd5b50565b5f8135905061073781610713565b92915050565b5f602082840312156107525761075161062d565b5b5f61075f84828501610729565b91505092915050565b5f8115159050919050565b61077c81610768565b82525050565b5f6020820190506107955f830184610773565b92915050565b5f5ffd5b5f5ffd5b5f601f19601f8301169050919050565b7f4e487b71000000000000000000000000000000000000000000000000000000005f52604160045260245ffd5b6107e9826107a3565b810181811067ffffffffffffffff82111715610808576108076107b3565b5b80604052505050565b5f61081a610624565b905061082682826107e0565b919050565b5f67ffffffffffffffff821115610845576108446107b3565b5b61084e826107a3565b9050602081019050919050565b828183375f83830152505050565b5f61087b6108768461082b565b610811565b9050828152602081018484840111156108975761089661079f565b5b6108a284828561085b565b509392505050565b5f82601f8301126108be576108bd61079b565b5b81356108ce848260208601610869565b91505092915050565b5f5f5f5f5f60a086880312156108f0576108ef61062d565b5b5f6108fd88828901610729565b955050602061090e88828901610654565b945050604086013567ffffffffffffffff81111561092f5761092e610631565b5b61093b888289016108aa565b935050606061094c88828901610654565b925050608061095d88828901610654565b9150509295509295909350565b5f819050919050565b61097c8161096a565b82525050565b5f6020820190506109955f830184610973565b92915050565b5f5f5f5f608085870312156109b3576109b261062d565b5b5f6109c087828801610729565b94505060206109d187828801610654565b935050604085013567ffffffffffffffff8111156109f2576109f1610631565b5b6109fe878288016108aa565b925050606085013567ffffffffffffffff811115610a1f57610a1e610631565b5b610a2b878288016108aa565b91505092959194509250565b610a408161096a565b8114610a4a575f5ffd5b50565b5f81359050610a5b81610a37565b92915050565b5f5f60408385031215610a7757610a7661062d565b5b5f610a8485828601610a4d565b925050602083013567ffffffffffffffff811115610aa557610aa4610631565b5b610ab1858286016108aa565b9150509250929050565b5f60a082019050610ace5f8301886106c3565b610adb60208301876106eb565b610ae86040830186610973565b610af560608301856106eb565b610b0260808301846106eb565b9695505050505050565b7f4e487b71000000000000000000000000000000000000000000000000000000005f52601160045260245ffd5b5f610b4382610635565b91507fffffffffffffffffffffffffffffffffffffffffffffffffffffffffffffffff8203610b7557610b74610b0c565b5b600182019050919050565b5f81519050919050565b5f81905092915050565b8281835e5f83830152505050565b5f610bac82610b80565b610bb68185610b8a565b9350610bc6818560208601610b94565b80840191505092915050565b5f610bdd8284610ba2565b915081905092915050565b5f82825260208201905092915050565b7f57544635303035000000000000000000000000000000000000000000000000005f82015250565b5f610c2c600783610be8565b9150610c3782610bf8565b602082019050919050565b5f6020820190508181035f830152610c5981610c20565b9050919050565b5f610c6a82610635565b9150610c7583610635565b9250828202610c8381610635565b91508282048414831517610c9a57610c99610b0c565b5b5092915050565b7f57544635303036000000000000000000000000000000000000000000000000005f82015250565b5f610cd5600783610be8565b9150610ce082610ca1565b602082019050919050565b5f6020820190508181035f830152610d0281610cc9565b9050919050565b5f81905092915050565b7f19457468657265756d205369676e6564204d6573736167653a0a3332000000005f82015250565b5f610d47601c83610d09565b9150610d5282610d13565b601c82019050919050565b5f819050919050565b610d77610d728261096a565b610d5d565b82525050565b5f610d8782610d3b565b9150610d938284610d66565b60208201915081905092915050565b5f60ff82169050919050565b610db781610da2565b82525050565b5f608082019050610dd05f830187610973565b610ddd6020830186610dae565b610dea6040830185610973565b610df76060830184610973565b95945050505050565b7f57544635303037000000000000000000000000000000000000000000000000005f82015250565b5f610e34600783610be8565b9150610e3f82610e00565b602082019050919050565b5f6020820190508181035f830152610e6181610e28565b905091905056fea2646970667358221220ca5f7c0dc896ff97815753b3b75fbb0d662b0592c18d416b84eb37faf453dfc464736f6c63430008220033","linkReferences":{}},"methodIdentifiers":{"checkSignatures(bytes32,bytes)":"ed516d51","encodeTransactionData(address,uint256,bytes,uint256,uint256)":"a67dd509","execTransaction(address,uint256,bytes,bytes)":"d01aa318","isOwner(address)":"2f54bf6e","nonce()":"affed0e0","ownerCount()":"0db02622","owners(uint256)":"025e7c27","threshold()":"42cde4e8"},"id":103}