{"abi":[{"type":"function","name":"callGetX","inputs":[{"name":"_addr","type":"address","internalType":"address"}],"outputs":[{"name":"","type":"uint256","internalType":"uint256"}],"stateMutability":"nonpayable"},{"type":"function","name":"callNonExist","inputs":[{"name":"_addr","type":"address","internalType":"address"}],"outputs":[],"stateMutability":"nonpayable"},{"type":"function","name":"callSetX","inputs":[{"name":"_addr","type":"address","internalType":"address payable"},{"name":"x","type":"uint256","internalType":"uint256"}],"outputs":[],"stateMutability":"payable"},{"type":"event","name":"Response","inputs":[{"name":"success","type":"bool","indexed":false,"internalType":"bool"},{"name":"data","type":"bytes","indexed":false,"internalType":"bytes"}],"anonymous":false}],"bytecode":{"object":"0x6080604052348015600e575f5ffd5b506107368061001c5f395ff3fe608060405260043610610033575f3560e01c80630c49c74b146100375780633ca065bb1461005f57806366563e691461007b575b5f5ffd5b348015610042575f5ffd5b5061005d600480360381019061005891906104ba565b6100b7565b005b61007960048036038101906100749190610553565b6101e1565b005b348015610086575f5ffd5b506100a1600480360381019061009c91906104ba565b610319565b6040516100ae91906105a0565b60405180910390f35b5f5f8273ffffffffffffffffffffffffffffffffffffffff166040516024016040516020818303038152906040527f2fbebd38000000000000000000000000000000000000000000000000000000007bffffffffffffffffffffffffffffffffffffffffffffffffffffffff19166020820180517bffffffffffffffffffffffffffffffffffffffffffffffffffffffff8381831617835250505050604051610160919061060b565b5f604051808303815f865af19150503d805f8114610199576040519150601f19603f3d011682016040523d82523d5f602084013e61019e565b606091505b50915091507f13848c3e38f8886f3f5d2ad9dff80d8092c2bbb8efd5b887a99c2c6cfc09ac2a82826040516101d4929190610693565b60405180910390a1505050565b5f5f8373ffffffffffffffffffffffffffffffffffffffff16348460405160240161020c91906105a0565b6040516020818303038152906040527f4018d9aa000000000000000000000000000000000000000000000000000000007bffffffffffffffffffffffffffffffffffffffffffffffffffffffff19166020820180517bffffffffffffffffffffffffffffffffffffffffffffffffffffffff8381831617835250505050604051610296919061060b565b5f6040518083038185875af1925050503d805f81146102d0576040519150601f19603f3d011682016040523d82523d5f602084013e6102d5565b606091505b50915091507f13848c3e38f8886f3f5d2ad9dff80d8092c2bbb8efd5b887a99c2c6cfc09ac2a828260405161030b929190610693565b60405180910390a150505050565b5f5f5f8373ffffffffffffffffffffffffffffffffffffffff166040516024016040516020818303038152906040527f5197c7aa000000000000000000000000000000000000000000000000000000007bffffffffffffffffffffffffffffffffffffffffffffffffffffffff19166020820180517bffffffffffffffffffffffffffffffffffffffffffffffffffffffff83818316178352505050506040516103c3919061060b565b5f604051808303815f865af19150503d805f81146103fc576040519150601f19603f3d011682016040523d82523d5f602084013e610401565b606091505b50915091507f13848c3e38f8886f3f5d2ad9dff80d8092c2bbb8efd5b887a99c2c6cfc09ac2a8282604051610437929190610693565b60405180910390a18080602001905181019061045391906106d5565b92505050919050565b5f5ffd5b5f73ffffffffffffffffffffffffffffffffffffffff82169050919050565b5f61048982610460565b9050919050565b6104998161047f565b81146104a3575f5ffd5b50565b5f813590506104b481610490565b92915050565b5f602082840312156104cf576104ce61045c565b5b5f6104dc848285016104a6565b91505092915050565b5f6104ef82610460565b9050919050565b6104ff816104e5565b8114610509575f5ffd5b50565b5f8135905061051a816104f6565b92915050565b5f819050919050565b61053281610520565b811461053c575f5ffd5b50565b5f8135905061054d81610529565b92915050565b5f5f604083850312156105695761056861045c565b5b5f6105768582860161050c565b92505060206105878582860161053f565b9150509250929050565b61059a81610520565b82525050565b5f6020820190506105b35f830184610591565b92915050565b5f81519050919050565b5f81905092915050565b8281835e5f83830152505050565b5f6105e5826105b9565b6105ef81856105c3565b93506105ff8185602086016105cd565b80840191505092915050565b5f61061682846105db565b915081905092915050565b5f8115159050919050565b61063581610621565b82525050565b5f82825260208201905092915050565b5f601f19601f8301169050919050565b5f610665826105b9565b61066f818561063b565b935061067f8185602086016105cd565b6106888161064b565b840191505092915050565b5f6040820190506106a65f83018561062c565b81810360208301526106b8818461065b565b90509392505050565b5f815190506106cf81610529565b92915050565b5f602082840312156106ea576106e961045c565b5b5f6106f7848285016106c1565b9150509291505056fea264697066735822122025fd8c870b4c6f002e53ba2dd00c6abe48485f6105a9bc2b300098f56e9f20bb64736f6c63430008220033","linkReferences":{}},"methodIdentifiers":{"callGetX(address)":"66563e69","callNonExist(address)":"0c49c74b","callSetX(address,uint256)":"3ca065bb"},"id":64}