{"abi":[{"type":"fallback","stateMutability":"payable"},{"type":"function","name":"getBalance","inputs":[],"outputs":[{"name":"","type":"uint256","internalType":"uint256"}],"stateMutability":"view"},{"type":"function","name":"getX","inputs":[],"outputs":[{"name":"x","type":"uint256","internalType":"uint256"}],"stateMutability":"view"},{"type":"function","name":"setX","inputs":[{"name":"x","type":"uint256","internalType":"uint256"}],"outputs":[],"stateMutability":"payable"},{"type":"event","name":"Log","inputs":[{"name":"amount","type":"uint256","indexed":false,"internalType":"uint256"},{"name":"gas","type":"uint256","indexed":false,"internalType":"uint256"}],"anonymous":false}],"bytecode":{"object":"0x60806040525f5f553480156011575f5ffd5b506101eb8061001f5f395ff3fe608060405260043610610037575f3560e01c806312065fe01461003a5780634018d9aa146100645780635197c7aa1461008057610038565b5b005b348015610045575f5ffd5b5061004e6100aa565b60405161005b919061011c565b60405180910390f35b61007e60048036038101906100799190610163565b6100b1565b005b34801561008b575f5ffd5b506100946100fc565b6040516100a1919061011c565b60405180910390f35b5f47905090565b805f819055505f3411156100f9577fbd0faddf87043dd749c1b9d4dca8a12589b8cb5e2106832111ce23f219b14367345a6040516100f092919061018e565b60405180910390a15b50565b5f5f54905090565b5f819050919050565b61011681610104565b82525050565b5f60208201905061012f5f83018461010d565b92915050565b5f5ffd5b61014281610104565b811461014c575f5ffd5b50565b5f8135905061015d81610139565b92915050565b5f6020828403121561017857610177610135565b5b5f6101858482850161014f565b91505092915050565b5f6040820190506101a15f83018561010d565b6101ae602083018461010d565b939250505056fea2646970667358221220c6a6284d4e5eb2968f258df0005926db85da99595179aeeb4f1147efc6de844c64736f6c63430008220033","linkReferences":{}},"methodIdentifiers":{"getBalance()":"12065fe0","getX()":"5197c7aa","setX(uint256)":"4018d9aa"},"id":64}