{"abi":[{"type":"function","name":"admin","inputs":[],"outputs":[{"name":"","type":"address","internalType":"address"}],"stateMutability":"view"},{"type":"function","name":"foo","inputs":[],"outputs":[],"stateMutability":"nonpayable"},{"type":"function","name":"implementation","inputs":[],"outputs":[{"name":"","type":"address","internalType":"address"}],"stateMutability":"view"},{"type":"function","name":"words","inputs":[],"outputs":[{"name":"","type":"string","internalType":"string"}],"stateMutability":"view"}],"bytecode":{"object":"0x6080604052348015600e575f5ffd5b506105ff8061001c5f395ff3fe608060405234801561000f575f5ffd5b506004361061004a575f3560e01c80635c60da1b1461004e578063c29855781461006c578063f2c31bd914610076578063f851a44014610094575b5f5ffd5b6100566100b2565b604051610063919061020d565b60405180910390f35b6100746100d6565b005b61007e61011d565b60405161008b9190610296565b60405180910390f35b61009c6101a9565b6040516100a9919061020d565b60405180910390f35b5f5f9054906101000a900473ffffffffffffffffffffffffffffffffffffffff1681565b6040518060400160405280600381526020017f6e657700000000000000000000000000000000000000000000000000000000008152506002908161011a91906104fa565b50565b6002805461012a90610310565b80601f016020809104026020016040519081016040528092919081815260200182805461015690610310565b80156101a15780601f10610178576101008083540402835291602001916101a1565b820191905f5260205f20905b81548152906001019060200180831161018457829003601f168201915b505050505081565b60015f9054906101000a900473ffffffffffffffffffffffffffffffffffffffff1681565b5f73ffffffffffffffffffffffffffffffffffffffff82169050919050565b5f6101f7826101ce565b9050919050565b610207816101ed565b82525050565b5f6020820190506102205f8301846101fe565b92915050565b5f81519050919050565b5f82825260208201905092915050565b8281835e5f83830152505050565b5f601f19601f8301169050919050565b5f61026882610226565b6102728185610230565b9350610282818560208601610240565b61028b8161024e565b840191505092915050565b5f6020820190508181035f8301526102ae818461025e565b905092915050565b7f4e487b71000000000000000000000000000000000000000000000000000000005f52604160045260245ffd5b7f4e487b71000000000000000000000000000000000000000000000000000000005f52602260045260245ffd5b5f600282049050600182168061032757607f821691505b60208210810361033a576103396102e3565b5b50919050565b5f819050815f5260205f209050919050565b5f6020601f8301049050919050565b5f82821b905092915050565b5f6008830261039c7fffffffffffffffffffffffffffffffffffffffffffffffffffffffffffffffff82610361565b6103a68683610361565b95508019841693508086168417925050509392505050565b5f819050919050565b5f819050919050565b5f6103ea6103e56103e0846103be565b6103c7565b6103be565b9050919050565b5f819050919050565b610403836103d0565b61041761040f826103f1565b84845461036d565b825550505050565b5f5f905090565b61042e61041f565b6104398184846103fa565b505050565b5f5b8281101561045f576104545f828401610426565b600181019050610440565b505050565b601f8211156104b257828211156104b15761047e81610340565b61048783610352565b61049085610352565b602086101561049d575f90505b8083016104ac8284038261043e565b505050505b5b505050565b5f82821c905092915050565b5f6104d25f19846008026104b7565b1980831691505092915050565b5f6104ea83836104c3565b9150826002028217905092915050565b61050382610226565b67ffffffffffffffff81111561051c5761051b6102b6565b5b6105268254610310565b610531828285610464565b5f60209050601f831160018114610562575f8415610550578287015190505b61055a85826104df565b8655506105c1565b601f19841661057086610340565b5f5b8281101561059757848901518255600182019150602085019450602081019050610572565b868310156105b457848901516105b0601f8916826104c3565b8355505b6001600288020188555050505b50505050505056fea2646970667358221220ca25babf22b40d8e4f4cf73df72f45d8813c9228d747da8a4b0d4616ad5ed63d64736f6c63430008220033","linkReferences":{}},"methodIdentifiers":{"admin()":"f851a440","foo()":"c2985578","implementation()":"5c60da1b","words()":"f2c31bd9"},"id":100}