{"abi":[{"type":"constructor","inputs":[{"name":"_implementation","type":"address","internalType":"address"}],"stateMutability":"nonpayable"},{"type":"fallback","stateMutability":"payable"},{"type":"function","name":"admin","inputs":[],"outputs":[{"name":"","type":"address","internalType":"address"}],"stateMutability":"view"},{"type":"function","name":"implementation","inputs":[],"outputs":[{"name":"","type":"address","internalType":"address"}],"stateMutability":"view"},{"type":"function","name":"upgrade","inputs":[{"name":"newImplementation","type":"address","internalType":"address"}],"outputs":[],"stateMutability":"nonpayable"},{"type":"function","name":"words","inputs":[],"outputs":[{"name":"","type":"string","internalType":"string"}],"stateMutability":"view"}],"bytecode":{"object":"0x608060405234801561000f575f5ffd5b5060405161065438038061065483398181016040528101906100319190610114565b3360015f6101000a81548173ffffffffffffffffffffffffffffffffffffffff021916908373ffffffffffffffffffffffffffffffffffffffff160217905550805f5f6101000a81548173ffffffffffffffffffffffffffffffffffffffff021916908373ffffffffffffffffffffffffffffffffffffffff1602179055505061013f565b5f5ffd5b5f73ffffffffffffffffffffffffffffffffffffffff82169050919050565b5f6100e3826100ba565b9050919050565b6100f3816100d9565b81146100fd575f5ffd5b50565b5f8151905061010e816100ea565b92915050565b5f60208284031215610129576101286100b6565b5b5f61013684828501610100565b91505092915050565b6105088061014c5f395ff3fe608060405260043610610042575f3560e01c80630900f010146100cb5780635c60da1b146100f3578063f2c31bd91461011d578063f851a4401461014757610043565b5b5f5f5f5f9054906101000a900473ffffffffffffffffffffffffffffffffffffffff1673ffffffffffffffffffffffffffffffffffffffff165f3660405161008c92919061031c565b5f60405180830381855af49150503d805f81146100c4576040519150601f19603f3d011682016040523d82523d5f602084013e6100c9565b606091505b005b3480156100d6575f5ffd5b506100f160048036038101906100ec9190610392565b610171565b005b3480156100fe575f5ffd5b5061010761020b565b60405161011491906103cc565b60405180910390f35b348015610128575f5ffd5b5061013161022f565b60405161013e9190610455565b60405180910390f35b348015610152575f5ffd5b5061015b6102bb565b60405161016891906103cc565b60405180910390f35b60015f9054906101000a900473ffffffffffffffffffffffffffffffffffffffff1673ffffffffffffffffffffffffffffffffffffffff163373ffffffffffffffffffffffffffffffffffffffff16146101c9575f5ffd5b805f5f6101000a81548173ffffffffffffffffffffffffffffffffffffffff021916908373ffffffffffffffffffffffffffffffffffffffff16021790555050565b5f5f9054906101000a900473ffffffffffffffffffffffffffffffffffffffff1681565b6002805461023c906104a2565b80601f0160208091040260200160405190810160405280929190818152602001828054610268906104a2565b80156102b35780601f1061028a576101008083540402835291602001916102b3565b820191905f5260205f20905b81548152906001019060200180831161029657829003601f168201915b505050505081565b60015f9054906101000a900473ffffffffffffffffffffffffffffffffffffffff1681565b5f81905092915050565b828183375f83830152505050565b5f61030383856102e0565b93506103108385846102ea565b82840190509392505050565b5f6103288284866102f8565b91508190509392505050565b5f5ffd5b5f73ffffffffffffffffffffffffffffffffffffffff82169050919050565b5f61036182610338565b9050919050565b61037181610357565b811461037b575f5ffd5b50565b5f8135905061038c81610368565b92915050565b5f602082840312156103a7576103a6610334565b5b5f6103b48482850161037e565b91505092915050565b6103c681610357565b82525050565b5f6020820190506103df5f8301846103bd565b92915050565b5f81519050919050565b5f82825260208201905092915050565b8281835e5f83830152505050565b5f601f19601f8301169050919050565b5f610427826103e5565b61043181856103ef565b93506104418185602086016103ff565b61044a8161040d565b840191505092915050565b5f6020820190508181035f83015261046d818461041d565b905092915050565b7f4e487b71000000000000000000000000000000000000000000000000000000005f52602260045260245ffd5b5f60028204905060018216806104b957607f821691505b6020821081036104cc576104cb610475565b5b5091905056fea2646970667358221220e8e6502f47f2ece7f371611fb3b232df8a0ca7c6f2682ed4d6fbcff0deef6c7e64736f6c63430008220033","linkReferences":{}},"methodIdentifiers":{"admin()":"f851a440","implementation()":"5c60da1b","upgrade(address)":"0900f010","words()":"f2c31bd9"},"id":100}