{"abi":[{"type":"constructor","inputs":[],"stateMutability":"nonpayable"},{"type":"function","name":"execute","inputs":[{"name":"amount","type":"uint256","internalType":"uint256"}],"outputs":[{"name":"success","type":"bool","internalType":"bool"}],"stateMutability":"nonpayable"},{"type":"function","name":"executeNew","inputs":[{"name":"a","type":"uint256","internalType":"uint256"}],"outputs":[{"name":"success","type":"bool","internalType":"bool"}],"stateMutability":"nonpayable"},{"type":"function","name":"executeRevert","inputs":[],"outputs":[],"stateMutability":"nonpayable"},{"type":"function","name":"executeRevert2","inputs":[],"outputs":[{"name":"success","type":"bool","internalType":"bool"}],"stateMutability":"nonpayable"},{"type":"event","name":"CatchByte","inputs":[{"name":"data","type":"bytes","indexed":false,"internalType":"bytes"}],"anonymous":false},{"type":"event","name":"CatchEvent","inputs":[{"name":"message","type":"string","indexed":false,"internalType":"string"}],"anonymous":false},{"type":"event","name":"SuccessEvent","inputs":[],"anonymous":false}],"bytecode":{"object":"0x608060405234801561000f575f5ffd5b50600260405161001e90610085565b61002891906100dd565b604051809103905ff080158015610041573d5f5f3e3d5ffd5b505f5f6101000a81548173ffffffffffffffffffffffffffffffffffffffff021916908373ffffffffffffffffffffffffffffffffffffffff1602179055506100f6565b6103f3806113b883390190565b5f819050919050565b5f819050919050565b5f819050919050565b5f6100c76100c26100bd84610092565b6100a4565b61009b565b9050919050565b6100d7816100ad565b82525050565b5f6020820190506100f05f8301846100ce565b92915050565b6112b5806101035f395ff3fe608060405234801561000f575f5ffd5b506004361061004a575f3560e01c806360ebc1721461004e578063617a691c1461007e5780637e3b0c571461009c578063fe0d94c1146100a6575b5f5ffd5b61006860048036038101906100639190610703565b6100d6565b6040516100759190610748565b60405180910390f35b610086610285565b6040516100939190610748565b60405180910390f35b6100a46103e7565b005b6100c060048036038101906100bb9190610703565b610563565b6040516100cd9190610748565b60405180910390f35b5f816040516100e4906106a9565b6100ee9190610770565b604051809103905ff080156101005760015b6101d85761010c610795565b806308c379a0036101685750610120610822565b8061012b575061016a565b7fb761112ad379c509744de8d585702b0d2694d4ceaef85ad50d452ff06821a6a68160405161015a9190610911565b60405180910390a1506101d3565b505b3d805f8114610194576040519150601f19603f3d011682016040523d82523d5f602084013e610199565b606091505b507fb6f66868478aebcea8c7a15c8c7dd37a513a4127424642ee3573117b52fa3e39816040516101c99190610983565b60405180910390a1505b610280565b7ffd76336752e93f2cc77cf13a41be8b6c156731030376354d634d28a9a87b916260405160405180910390a18073ffffffffffffffffffffffffffffffffffffffff1663ce0b4213846040518263ffffffff1660e01b815260040161023d9190610770565b602060405180830381865afa158015610258573d5f5f3e3d5ffd5b505050506040513d601f19601f8201168201806040525081019061027c91906109cd565b9150505b919050565b5f5f6002604051610295906106b6565b61029f9190610a3a565b604051809103905ff0801580156102b8573d5f5f3e3d5ffd5b5090505f600290508173ffffffffffffffffffffffffffffffffffffffff1663ce0b4213826040518263ffffffff1660e01b81526004016102f99190610770565b602060405180830381865afa92505050801561033357506040513d601f19601f8201168201806040525081019061033091906109cd565b60015b6103aa5761033f610795565b806308c379a00361039b5750610353610822565b8061035e575061039d565b7fb761112ad379c509744de8d585702b0d2694d4ceaef85ad50d452ff06821a6a68160405161038d9190610911565b60405180910390a1506103a5565b505b3d5f5f3e3d5ffd5b6103e1565b7ffd76336752e93f2cc77cf13a41be8b6c156731030376354d634d28a9a87b916260405160405180910390a18093505050506103e4565b50505b90565b5f73ffffffffffffffffffffffffffffffffffffffff1663ce0b421360016040518263ffffffff1660e01b81526004016104219190610a8c565b602060405180830381865afa92505050801561045b57506040513d601f19601f8201168201806040525081019061045891906109cd565b60015b61053357610467610795565b806308c379a0036104c3575061047b610822565b8061048657506104c5565b7fb761112ad379c509744de8d585702b0d2694d4ceaef85ad50d452ff06821a6a6816040516104b59190610911565b60405180910390a15061052e565b505b3d805f81146104ef576040519150601f19603f3d011682016040523d82523d5f602084013e6104f4565b606091505b507fb6f66868478aebcea8c7a15c8c7dd37a513a4127424642ee3573117b52fa3e39816040516105249190610983565b60405180910390a1505b610561565b507ffd76336752e93f2cc77cf13a41be8b6c156731030376354d634d28a9a87b916260405160405180910390a15b565b5f5f5f9054906101000a900473ffffffffffffffffffffffffffffffffffffffff1673ffffffffffffffffffffffffffffffffffffffff1663ce0b4213836040518263ffffffff1660e01b81526004016105bd9190610770565b602060405180830381865afa9250505080156105f757506040513d601f19601f820116820180604052508101906105f491906109cd565b60015b61066e57610603610795565b806308c379a00361065f5750610617610822565b806106225750610661565b7fb761112ad379c509744de8d585702b0d2694d4ceaef85ad50d452ff06821a6a6816040516106519190610911565b60405180910390a150610669565b505b3d5f5f3e3d5ffd5b6106a3565b7ffd76336752e93f2cc77cf13a41be8b6c156731030376354d634d28a9a87b916260405160405180910390a1809150506106a4565b5b919050565b6103f380610aa683390190565b6103e780610e9983390190565b5f604051905090565b5f5ffd5b5f819050919050565b6106e2816106d0565b81146106ec575f5ffd5b50565b5f813590506106fd816106d9565b92915050565b5f60208284031215610718576107176106cc565b5b5f610725848285016106ef565b91505092915050565b5f8115159050919050565b6107428161072e565b82525050565b5f60208201905061075b5f830184610739565b92915050565b61076a816106d0565b82525050565b5f6020820190506107835f830184610761565b92915050565b5f8160e01c9050919050565b5f60033d11156107b15760045f5f3e6107ae5f51610789565b90505b90565b5f601f19601f8301169050919050565b7f4e487b71000000000000000000000000000000000000000000000000000000005f52604160045260245ffd5b6107fa826107b4565b810181811067ffffffffffffffff82111715610819576108186107c4565b5b80604052505050565b5f60443d106108ae576108336106c3565b60043d036004823e80513d602482011167ffffffffffffffff8211171561085b5750506108ae565b808201805167ffffffffffffffff81111561087957505050506108ae565b80602083010160043d0385018111156108965750505050506108ae565b6108a5826020018501866107f1565b82955050505050505b90565b5f81519050919050565b5f82825260208201905092915050565b8281835e5f83830152505050565b5f6108e3826108b1565b6108ed81856108bb565b93506108fd8185602086016108cb565b610906816107b4565b840191505092915050565b5f6020820190508181035f83015261092981846108d9565b905092915050565b5f81519050919050565b5f82825260208201905092915050565b5f61095582610931565b61095f818561093b565b935061096f8185602086016108cb565b610978816107b4565b840191505092915050565b5f6020820190508181035f83015261099b818461094b565b905092915050565b6109ac8161072e565b81146109b6575f5ffd5b50565b5f815190506109c7816109a3565b92915050565b5f602082840312156109e2576109e16106cc565b5b5f6109ef848285016109b9565b91505092915050565b5f819050919050565b5f819050919050565b5f610a24610a1f610a1a846109f8565b610a01565b6106d0565b9050919050565b610a3481610a0a565b82525050565b5f602082019050610a4d5f830184610a2b565b92915050565b5f819050919050565b5f610a76610a71610a6c84610a53565b610a01565b6106d0565b9050919050565b610a8681610a5c565b82525050565b5f602082019050610a9f5f830184610a7d565b9291505056fe608060405234801561000f575f5ffd5b506040516103f33803806103f3833981810160405281019061003191906100c1565b5f8103610073576040517f08c379a000000000000000000000000000000000000000000000000000000000815260040161006a90610146565b60405180910390fd5b6001810361008457610083610164565b5b50610191565b5f5ffd5b5f819050919050565b6100a08161008e565b81146100aa575f5ffd5b50565b5f815190506100bb81610097565b92915050565b5f602082840312156100d6576100d561008a565b5b5f6100e3848285016100ad565b91505092915050565b5f82825260208201905092915050565b7f696e76616c6964206e756d6265720000000000000000000000000000000000005f82015250565b5f610130600e836100ec565b915061013b826100fc565b602082019050919050565b5f6020820190508181035f83015261015d81610124565b9050919050565b7f4e487b71000000000000000000000000000000000000000000000000000000005f52600160045260245ffd5b6102558061019e5f395ff3fe608060405234801561000f575f5ffd5b5060043610610029575f3560e01c8063ce0b42131461002d575b5f5ffd5b610047600480360381019061004291906100ec565b61005d565b6040516100549190610131565b60405180910390f35b5f5f60028361006c9190610177565b146100ac576040517f08c379a00000000000000000000000000000000000000000000000000000000081526004016100a390610201565b60405180910390fd5b60019050919050565b5f5ffd5b5f819050919050565b6100cb816100b9565b81146100d5575f5ffd5b50565b5f813590506100e6816100c2565b92915050565b5f60208284031215610101576101006100b5565b5b5f61010e848285016100d8565b91505092915050565b5f8115159050919050565b61012b81610117565b82525050565b5f6020820190506101445f830184610122565b92915050565b7f4e487b71000000000000000000000000000000000000000000000000000000005f52601260045260245ffd5b5f610181826100b9565b915061018c836100b9565b92508261019c5761019b61014a565b5b828206905092915050565b5f82825260208201905092915050565b7f5570732120526576657274696e670000000000000000000000000000000000005f82015250565b5f6101eb600e836101a7565b91506101f6826101b7565b602082019050919050565b5f6020820190508181035f830152610218816101df565b905091905056fea26469706673582212204970a9560791f2a84eb93de2608d6376ca87e6cdad52c1b72f3d9d3d8390f72764736f6c63430008220033608060405234801561000f575f5ffd5b506040516103e73803806103e7833981810160405281019061003191906100c1565b5f8103610073576040517f08c379a000000000000000000000000000000000000000000000000000000000815260040161006a90610146565b60405180910390fd5b6001810361008457610083610164565b5b50610191565b5f5ffd5b5f819050919050565b6100a08161008e565b81146100aa575f5ffd5b50565b5f815190506100bb81610097565b92915050565b5f602082840312156100d6576100d561008a565b5b5f6100e3848285016100ad565b91505092915050565b5f82825260208201905092915050565b7f696e76616c6964206e756d6265720000000000000000000000000000000000005f82015250565b5f610130600e836100ec565b915061013b826100fc565b602082019050919050565b5f6020820190508181035f83015261015d81610124565b9050919050565b7f4e487b71000000000000000000000000000000000000000000000000000000005f52600160045260245ffd5b6102498061019e5f395ff3fe608060405234801561000f575f5ffd5b5060043610610029575f3560e01c8063ce0b42131461002d575b5f5ffd5b610047600480360381019061004291906100eb565b61005d565b6040516100549190610125565b60405180910390f35b5f5f60028361006c919061016b565b146100ac576040517f08c379a00000000000000000000000000000000000000000000000000000000081526004016100a3906101f5565b60405180910390fd5b819050919050565b5f5ffd5b5f819050919050565b6100ca816100b8565b81146100d4575f5ffd5b50565b5f813590506100e5816100c1565b92915050565b5f60208284031215610100576100ff6100b4565b5b5f61010d848285016100d7565b91505092915050565b61011f816100b8565b82525050565b5f6020820190506101385f830184610116565b92915050565b7f4e487b71000000000000000000000000000000000000000000000000000000005f52601260045260245ffd5b5f610175826100b8565b9150610180836100b8565b9250826101905761018f61013e565b5b828206905092915050565b5f82825260208201905092915050565b7f5570732120526576657274696e670000000000000000000000000000000000005f82015250565b5f6101df600e8361019b565b91506101ea826101ab565b602082019050919050565b5f6020820190508181035f83015261020c816101d3565b905091905056fea264697066735822122092a527d04f6e7c91bc0dff53260df355cccd5da03fee2c177914a488532bd0a364736f6c63430008220033a2646970667358221220a4c3ee7c54fed7a89ff2f1412156741d62896cefe95b98cb0b853ccb492829a264736f6c63430008220033608060405234801561000f575f5ffd5b506040516103f33803806103f3833981810160405281019061003191906100c1565b5f8103610073576040517f08c379a000000000000000000000000000000000000000000000000000000000815260040161006a90610146565b60405180910390fd5b6001810361008457610083610164565b5b50610191565b5f5ffd5b5f819050919050565b6100a08161008e565b81146100aa575f5ffd5b50565b5f815190506100bb81610097565b92915050565b5f602082840312156100d6576100d561008a565b5b5f6100e3848285016100ad565b91505092915050565b5f82825260208201905092915050565b7f696e76616c6964206e756d6265720000000000000000000000000000000000005f82015250565b5f610130600e836100ec565b915061013b826100fc565b602082019050919050565b5f6020820190508181035f83015261015d81610124565b9050919050565b7f4e487b71000000000000000000000000000000000000000000000000000000005f52600160045260245ffd5b6102558061019e5f395ff3fe608060405234801561000f575f5ffd5b5060043610610029575f3560e01c8063ce0b42131461002d575b5f5ffd5b610047600480360381019061004291906100ec565b61005d565b6040516100549190610131565b60405180910390f35b5f5f60028361006c9190610177565b146100ac576040517f08c379a00000000000000000000000000000000000000000000000000000000081526004016100a390610201565b60405180910390fd5b60019050919050565b5f5ffd5b5f819050919050565b6100cb816100b9565b81146100d5575f5ffd5b50565b5f813590506100e6816100c2565b92915050565b5f60208284031215610101576101006100b5565b5b5f61010e848285016100d8565b91505092915050565b5f8115159050919050565b61012b81610117565b82525050565b5f6020820190506101445f830184610122565b92915050565b7f4e487b71000000000000000000000000000000000000000000000000000000005f52601260045260245ffd5b5f610181826100b9565b915061018c836100b9565b92508261019c5761019b61014a565b5b828206905092915050565b5f82825260208201905092915050565b7f5570732120526576657274696e670000000000000000000000000000000000005f82015250565b5f6101eb600e836101a7565b91506101f6826101b7565b602082019050919050565b5f6020820190508181035f830152610218816101df565b905091905056fea26469706673582212204970a9560791f2a84eb93de2608d6376ca87e6cdad52c1b72f3d9d3d8390f72764736f6c63430008220033","linkReferences":{}},"methodIdentifiers":{"execute(uint256)":"fe0d94c1","executeNew(uint256)":"60ebc172","executeRevert()":"7e3b0c57","executeRevert2()":"617a691c"},"id":71}