{"abi":[{"type":"function","name":"selector1","inputs":[],"outputs":[{"name":"","type":"bytes4","internalType":"bytes4"}],"stateMutability":"view"},{"type":"function","name":"selector2","inputs":[],"outputs":[{"name":"","type":"bytes4","internalType":"bytes4"}],"stateMutability":"view"}],"bytecode":{"object":"0x60806040527f42966c689b5afe9b9b3f8a7103b2a19980d59629bfd6a20a60972312ed41d8365f5f6101000a81548163ffffffff021916908360e01c02179055507f42966c684c869f2e2e56c232c00c827b4e8fcd1119259bd54a90d765bf17bbd65f60046101000a81548163ffffffff021916908360e01c02179055503480156087575f5ffd5b50610110806100955f395ff3fe6080604052348015600e575f5ffd5b50600436106030575f3560e01c806344c984a7146034578063e9b3317414604e575b5f5ffd5b603a6068565b6040516045919060c3565b60405180910390f35b6054607a565b604051605f919060c3565b60405180910390f35b5f60049054906101000a900460e01b81565b5f5f9054906101000a900460e01b81565b5f7fffffffff0000000000000000000000000000000000000000000000000000000082169050919050565b60bd81608b565b82525050565b5f60208201905060d45f83018460b6565b9291505056fea26469706673582212204c791f8d8e7c74d9e188e0e16515d7397d68f846be5e2d2136984dd2fd379f9a64736f6c63430008220033","linkReferences":{}},"methodIdentifiers":{"selector1()":"e9b33174","selector2()":"44c984a7"},"id":101}