{"abi":[{"type":"constructor","inputs":[{"name":"_implementation","type":"address","internalType":"address"}],"stateMutability":"nonpayable"},{"type":"fallback","stateMutability":"payable"},{"type":"function","name":"upgrade","inputs":[{"name":"newImplementation","type":"address","internalType":"address"}],"outputs":[],"stateMutability":"nonpayable"},{"type":"function","name":"words","inputs":[],"outputs":[{"name":"","type":"string","internalType":"string"}],"stateMutability":"view"}],"bytecode":{"object":"0x608060405234801561000f575f5ffd5b506040516105d13803806105d183398181016040528101906100319190610114565b3360015f6101000a81548173ffffffffffffffffffffffffffffffffffffffff021916908373ffffffffffffffffffffffffffffffffffffffff160217905550805f5f6101000a81548173ffffffffffffffffffffffffffffffffffffffff021916908373ffffffffffffffffffffffffffffffffffffffff1602179055505061013f565b5f5ffd5b5f73ffffffffffffffffffffffffffffffffffffffff82169050919050565b5f6100e3826100ba565b9050919050565b6100f3816100d9565b81146100fd575f5ffd5b50565b5f8151905061010e816100ea565b92915050565b5f60208284031215610129576101286100b6565b5b5f61013684828501610100565b91505092915050565b6104858061014c5f395ff3fe60806040526004361061002c575f3560e01c80630900f0101461010d578063f2c31bd9146101355761002d565b5b60015f9054906101000a900473ffffffffffffffffffffffffffffffffffffffff1673ffffffffffffffffffffffffffffffffffffffff163373ffffffffffffffffffffffffffffffffffffffff1603610085575f5ffd5b5f5f5f5f9054906101000a900473ffffffffffffffffffffffffffffffffffffffff1673ffffffffffffffffffffffffffffffffffffffff165f366040516100ce9291906102c1565b5f60405180830381855af49150503d805f8114610106576040519150601f19603f3d011682016040523d82523d5f602084013e61010b565b606091505b005b348015610118575f5ffd5b50610133600480360381019061012e9190610337565b61015f565b005b348015610140575f5ffd5b506101496101f9565b60405161015691906103d2565b60405180910390f35b60015f9054906101000a900473ffffffffffffffffffffffffffffffffffffffff1673ffffffffffffffffffffffffffffffffffffffff163373ffffffffffffffffffffffffffffffffffffffff16146101b7575f5ffd5b805f5f6101000a81548173ffffffffffffffffffffffffffffffffffffffff021916908373ffffffffffffffffffffffffffffffffffffffff16021790555050565b600280546102069061041f565b80601f01602080910402602001604051908101604052809291908181526020018280546102329061041f565b801561027d5780601f106102545761010080835404028352916020019161027d565b820191905f5260205f20905b81548152906001019060200180831161026057829003601f168201915b505050505081565b5f81905092915050565b828183375f83830152505050565b5f6102a88385610285565b93506102b583858461028f565b82840190509392505050565b5f6102cd82848661029d565b91508190509392505050565b5f5ffd5b5f73ffffffffffffffffffffffffffffffffffffffff82169050919050565b5f610306826102dd565b9050919050565b610316816102fc565b8114610320575f5ffd5b50565b5f813590506103318161030d565b92915050565b5f6020828403121561034c5761034b6102d9565b5b5f61035984828501610323565b91505092915050565b5f81519050919050565b5f82825260208201905092915050565b8281835e5f83830152505050565b5f601f19601f8301169050919050565b5f6103a482610362565b6103ae818561036c565b93506103be81856020860161037c565b6103c78161038a565b840191505092915050565b5f6020820190508181035f8301526103ea818461039a565b905092915050565b7f4e487b71000000000000000000000000000000000000000000000000000000005f52602260045260245ffd5b5f600282049050600182168061043657607f821691505b602082108103610449576104486103f2565b5b5091905056fea2646970667358221220208bbba80ee516e0d6a040307365a46889cc0683923296dc21cf049ef8baa6b764736f6c63430008220033","linkReferences":{}},"methodIdentifiers":{"upgrade(address)":"0900f010","words()":"f2c31bd9"},"id":101}