{"abi":[{"type":"constructor","inputs":[],"stateMutability":"nonpayable"},{"type":"function","name":"AUCTION_DROP_INTERVAL","inputs":[],"outputs":[{"name":"","type":"uint256","internalType":"uint256"}],"stateMutability":"view"},{"type":"function","name":"AUCTION_DROP_PER_STEP","inputs":[],"outputs":[{"name":"","type":"uint256","internalType":"uint256"}],"stateMutability":"view"},{"type":"function","name":"AUCTION_END_PRICE","inputs":[],"outputs":[{"name":"","type":"uint256","internalType":"uint256"}],"stateMutability":"view"},{"type":"function","name":"AUCTION_START_PRICE","inputs":[],"outputs":[{"name":"","type":"uint256","internalType":"uint256"}],"stateMutability":"view"},{"type":"function","name":"AUCTION_TIME","inputs":[],"outputs":[{"name":"","type":"uint256","internalType":"uint256"}],"stateMutability":"view"},{"type":"function","name":"COLLECTION_SIZE","inputs":[],"outputs":[{"name":"","type":"uint256","internalType":"uint256"}],"stateMutability":"view"},{"type":"function","name":"approve","inputs":[{"name":"to","type":"address","internalType":"address"},{"name":"tokenId","type":"uint256","internalType":"uint256"}],"outputs":[],"stateMutability":"nonpayable"},{"type":"function","name":"auctionMint","inputs":[{"name":"quantity","type":"uint256","internalType":"uint256"}],"outputs":[],"stateMutability":"payable"},{"type":"function","name":"auctionStartTime","inputs":[],"outputs":[{"name":"","type":"uint256","internalType":"uint256"}],"stateMutability":"view"},{"type":"function","name":"balanceOf","inputs":[{"name":"owner","type":"address","internalType":"address"}],"outputs":[{"name":"","type":"uint256","internalType":"uint256"}],"stateMutability":"view"},{"type":"function","name":"getApproved","inputs":[{"name":"tokenId","type":"uint256","internalType":"uint256"}],"outputs":[{"name":"","type":"address","internalType":"address"}],"stateMutability":"view"},{"type":"function","name":"getAuctionPrice","inputs":[],"outputs":[{"name":"","type":"uint256","internalType":"uint256"}],"stateMutability":"view"},{"type":"function","name":"isApprovedForAll","inputs":[{"name":"owner","type":"address","internalType":"address"},{"name":"operator","type":"address","internalType":"address"}],"outputs":[{"name":"","type":"bool","internalType":"bool"}],"stateMutability":"view"},{"type":"function","name":"name","inputs":[],"outputs":[{"name":"","type":"string","internalType":"string"}],"stateMutability":"view"},{"type":"function","name":"owner","inputs":[],"outputs":[{"name":"","type":"address","internalType":"address"}],"stateMutability":"view"},{"type":"function","name":"ownerOf","inputs":[{"name":"tokenId","type":"uint256","internalType":"uint256"}],"outputs":[{"name":"owner","type":"address","internalType":"address"}],"stateMutability":"view"},{"type":"function","name":"renounceOwnership","inputs":[],"outputs":[],"stateMutability":"nonpayable"},{"type":"function","name":"safeTransferFrom","inputs":[{"name":"from","type":"address","internalType":"address"},{"name":"to","type":"address","internalType":"address"},{"name":"tokenId","type":"uint256","internalType":"uint256"}],"outputs":[],"stateMutability":"nonpayable"},{"type":"function","name":"safeTransferFrom","inputs":[{"name":"from","type":"address","internalType":"address"},{"name":"to","type":"address","internalType":"address"},{"name":"tokenId","type":"uint256","internalType":"uint256"},{"name":"_data","type":"bytes","internalType":"bytes"}],"outputs":[],"stateMutability":"nonpayable"},{"type":"function","name":"setApprovalForAll","inputs":[{"name":"operator","type":"address","internalType":"address"},{"name":"approved","type":"bool","internalType":"bool"}],"outputs":[],"stateMutability":"nonpayable"},{"type":"function","name":"setAuctionStartTime","inputs":[{"name":"timestamp","type":"uint32","internalType":"uint32"}],"outputs":[],"stateMutability":"nonpayable"},{"type":"function","name":"setBaseURI","inputs":[{"name":"baseURI","type":"string","internalType":"string"}],"outputs":[],"stateMutability":"nonpayable"},{"type":"function","name":"supportsInterface","inputs":[{"name":"interfaceId","type":"bytes4","internalType":"bytes4"}],"outputs":[{"name":"","type":"bool","internalType":"bool"}],"stateMutability":"pure"},{"type":"function","name":"symbol","inputs":[],"outputs":[{"name":"","type":"string","internalType":"string"}],"stateMutability":"view"},{"type":"function","name":"tokenURI","inputs":[{"name":"tokenId","type":"uint256","internalType":"uint256"}],"outputs":[{"name":"","type":"string","internalType":"string"}],"stateMutability":"view"},{"type":"function","name":"totalSupply","inputs":[],"outputs":[{"name":"","type":"uint256","internalType":"uint256"}],"stateMutability":"view"},{"type":"function","name":"transferFrom","inputs":[{"name":"from","type":"address","internalType":"address"},{"name":"to","type":"address","internalType":"address"},{"name":"tokenId","type":"uint256","internalType":"uint256"}],"outputs":[],"stateMutability":"nonpayable"},{"type":"function","name":"transferOwnership","inputs":[{"name":"newOwner","type":"address","internalType":"address"}],"outputs":[],"stateMutability":"nonpayable"},{"type":"function","name":"withdrawMoney","inputs":[],"outputs":[],"stateMutability":"nonpayable"},{"type":"event","name":"Approval","inputs":[{"name":"owner","type":"address","indexed":true,"internalType":"address"},{"name":"approved","type":"address","indexed":true,"internalType":"address"},{"name":"tokenId","type":"uint256","indexed":true,"internalType":"uint256"}],"anonymous":false},{"type":"event","name":"ApprovalForAll","inputs":[{"name":"owner","type":"address","indexed":true,"internalType":"address"},{"name":"operator","type":"address","indexed":true,"internalType":"address"},{"name":"approved","type":"bool","indexed":false,"internalType":"bool"}],"anonymous":false},{"type":"event","name":"OwnershipTransferred","inputs":[{"name":"previousOwner","type":"address","indexed":true,"internalType":"address"},{"name":"newOwner","type":"address","indexed":true,"internalType":"address"}],"anonymous":false},{"type":"event","name":"Transfer","inputs":[{"name":"from","type":"address","indexed":true,"internalType":"address"},{"name":"to","type":"address","indexed":true,"internalType":"address"},{"name":"tokenId","type":"uint256","indexed":true,"internalType":"uint256"}],"anonymous":false},{"type":"error","name":"ERC721InvalidReceiver","inputs":[{"name":"receiver","type":"address","internalType":"address"}]},{"type":"error","name":"OwnableInvalidOwner","inputs":[{"name":"owner","type":"address","internalType":"address"}]},{"type":"error","name":"OwnableUnauthorizedAccount","inputs":[{"name":"account","type":"address","internalType":"address"}]}],"bytecode":{"object":"0x608060405234801561000f575f5ffd5b506040518060400160405280601181526020017f5754462044757463682041756374696f6e0000000000000000000000000000008152506040518060400160405280601181526020017f5754462044757463682041756374696f6e000000000000000000000000000000815250335f73ffffffffffffffffffffffffffffffffffffffff168173ffffffffffffffffffffffffffffffffffffffff16036100ed575f6040517f1e4fbdf70000000000000000000000000000000000000000000000000000000081526004016100e4919061022b565b60405180910390fd5b6100fc8161012b60201b60201c565b50816001908161010c9190610492565b50806002908161011c9190610492565b50505042600781905550610561565b5f5f5f9054906101000a900473ffffffffffffffffffffffffffffffffffffffff169050815f5f6101000a81548173ffffffffffffffffffffffffffffffffffffffff021916908373ffffffffffffffffffffffffffffffffffffffff1602179055508173ffffffffffffffffffffffffffffffffffffffff168173ffffffffffffffffffffffffffffffffffffffff167f8be0079c531659141344cd1fd0a4f28419497f9722a3daafe3b4186f6b6457e060405160405180910390a35050565b5f73ffffffffffffffffffffffffffffffffffffffff82169050919050565b5f610215826101ec565b9050919050565b6102258161020b565b82525050565b5f60208201905061023e5f83018461021c565b92915050565b5f81519050919050565b7f4e487b71000000000000000000000000000000000000000000000000000000005f52604160045260245ffd5b7f4e487b71000000000000000000000000000000000000000000000000000000005f52602260045260245ffd5b5f60028204905060018216806102bf57607f821691505b6020821081036102d2576102d161027b565b5b50919050565b5f819050815f5260205f209050919050565b5f6020601f8301049050919050565b5f82821b905092915050565b5f600883026103347fffffffffffffffffffffffffffffffffffffffffffffffffffffffffffffffff826102f9565b61033e86836102f9565b95508019841693508086168417925050509392505050565b5f819050919050565b5f819050919050565b5f61038261037d61037884610356565b61035f565b610356565b9050919050565b5f819050919050565b61039b83610368565b6103af6103a782610389565b848454610305565b825550505050565b5f5f905090565b6103c66103b7565b6103d1818484610392565b505050565b5f5b828110156103f7576103ec5f8284016103be565b6001810190506103d8565b505050565b601f82111561044a578282111561044957610416816102d8565b61041f836102ea565b610428856102ea565b6020861015610435575f90505b808301610444828403826103d6565b505050505b5b505050565b5f82821c905092915050565b5f61046a5f198460080261044f565b1980831691505092915050565b5f610482838361045b565b9150826002028217905092915050565b61049b82610244565b67ffffffffffffffff8111156104b4576104b361024e565b5b6104be82546102a8565b6104c98282856103fc565b5f60209050601f8311600181146104fa575f84156104e8578287015190505b6104f28582610477565b865550610559565b601f198416610508866102d8565b5f5b8281101561052f5784890151825560018201915060208501945060208101905061050a565b8683101561054c5784890151610548601f89168261045b565b8355505b6001600288020188555050505b505050505050565b61320f8061056e5f395ff3fe6080604052600436106101c1575f3560e01c806370a08231116100f6578063b88d4fde11610094578063e592301a11610063578063e592301a146105f5578063e985e9c51461061f578063eb54f9ec1461065b578063f2fde38b14610685576101c1565b8063b88d4fde1461053d578063c87b56dd14610565578063caf8a6d1146105a1578063d8258d95146105cb576101c1565b80638da5cb5b116100d05780638da5cb5b146104ab57806395d89b41146104d5578063a22cb465146104ff578063ac44600214610527576101c1565b806370a082311461042f578063715018a61461046b5780637a1c4a5614610481576101c1565b806342842e0e1161016357806355f804b31161013d57806355f804b31461037757806359f369fe1461039f5780635cae01d3146103c95780636352211e146103f3576101c1565b806342842e0e146103095780634bd25c6f146103315780634d3554c31461035b576101c1565b8063081812fc1161019f578063081812fc14610253578063095ea7b31461028f57806318160ddd146102b757806323b872dd146102e1576101c1565b806301ffc9a7146101c55780630697346f1461020157806306fdde0314610229575b5f5ffd5b3480156101d0575f5ffd5b506101eb60048036038101906101e69190612005565b6106ad565b6040516101f8919061204a565b60405180910390f35b34801561020c575f5ffd5b506102276004803603810190610222919061209c565b6107e6565b005b348015610234575f5ffd5b5061023d6107fe565b60405161024a9190612137565b60405180910390f35b34801561025e575f5ffd5b506102796004803603810190610274919061218a565b61088a565b60405161028691906121f4565b60405180910390f35b34801561029a575f5ffd5b506102b560048036038101906102b09190612237565b610961565b005b3480156102c2575f5ffd5b506102cb610a9f565b6040516102d89190612284565b60405180910390f35b3480156102ec575f5ffd5b506103076004803603810190610302919061229d565b610aab565b005b348015610314575f5ffd5b5061032f600480360381019061032a919061229d565b610b13565b005b34801561033c575f5ffd5b50610345610b32565b6040516103529190612284565b60405180910390f35b6103756004803603810190610370919061218a565b610bea565b005b348015610382575f5ffd5b5061039d6004803603810190610398919061234e565b610d86565b005b3480156103aa575f5ffd5b506103b3610da4565b6040516103c09190612284565b60405180910390f35b3480156103d4575f5ffd5b506103dd610ddc565b6040516103ea9190612284565b60405180910390f35b3480156103fe575f5ffd5b506104196004803603810190610414919061218a565b610de1565b60405161042691906121f4565b60405180910390f35b34801561043a575f5ffd5b5061045560048036038101906104509190612399565b610e88565b6040516104629190612284565b60405180910390f35b348015610476575f5ffd5b5061047f610f3c565b005b34801561048c575f5ffd5b50610495610f4f565b6040516104a29190612284565b60405180910390f35b3480156104b6575f5ffd5b506104bf610f5b565b6040516104cc91906121f4565b60405180910390f35b3480156104e0575f5ffd5b506104e9610f82565b6040516104f69190612137565b60405180910390f35b34801561050a575f5ffd5b50610525600480360381019061052091906123ee565b61100e565b005b348015610532575f5ffd5b5061053b611106565b005b348015610548575f5ffd5b50610563600480360381019061055e9190612554565b6111b9565b005b348015610570575f5ffd5b5061058b6004803603810190610586919061218a565b611223565b6040516105989190612137565b60405180910390f35b3480156105ac575f5ffd5b506105b561131d565b6040516105c29190612284565b60405180910390f35b3480156105d6575f5ffd5b506105df611329565b6040516105ec9190612284565b60405180910390f35b348015610600575f5ffd5b5061060961132f565b6040516106169190612284565b60405180910390f35b34801561062a575f5ffd5b50610645600480360381019061064091906125d4565b611335565b604051610652919061204a565b60405180910390f35b348015610666575f5ffd5b5061066f6113c3565b60405161067c9190612284565b60405180910390f35b348015610690575f5ffd5b506106ab60048036038101906106a69190612399565b6113c9565b005b5f7f80ac58cd000000000000000000000000000000000000000000000000000000007bffffffffffffffffffffffffffffffffffffffffffffffffffffffff1916827bffffffffffffffffffffffffffffffffffffffffffffffffffffffff1916148061077757507f01ffc9a7000000000000000000000000000000000000000000000000000000007bffffffffffffffffffffffffffffffffffffffffffffffffffffffff1916827bffffffffffffffffffffffffffffffffffffffffffffffffffffffff1916145b806107df57507f5b5e139f000000000000000000000000000000000000000000000000000000007bffffffffffffffffffffffffffffffffffffffffffffffffffffffff1916827bffffffffffffffffffffffffffffffffffffffffffffffffffffffff1916145b9050919050565b6107ee61144d565b8063ffffffff1660078190555050565b6001805461080b9061263f565b80601f01602080910402602001604051908101604052809291908181526020018280546108379061263f565b80156108825780601f1061085957610100808354040283529160200191610882565b820191905f5260205f20905b81548152906001019060200180831161086557829003601f168201915b505050505081565b5f5f73ffffffffffffffffffffffffffffffffffffffff1660035f8481526020019081526020015f205f9054906101000a900473ffffffffffffffffffffffffffffffffffffffff1673ffffffffffffffffffffffffffffffffffffffff1603610929576040517f08c379a0000000000000000000000000000000000000000000000000000000008152600401610920906126b9565b60405180910390fd5b60055f8381526020019081526020015f205f9054906101000a900473ffffffffffffffffffffffffffffffffffffffff169050919050565b5f60035f8381526020019081526020015f205f9054906101000a900473ffffffffffffffffffffffffffffffffffffffff1690508073ffffffffffffffffffffffffffffffffffffffff163373ffffffffffffffffffffffffffffffffffffffff161480610a50575060065f8273ffffffffffffffffffffffffffffffffffffffff1673ffffffffffffffffffffffffffffffffffffffff1681526020019081526020015f205f3373ffffffffffffffffffffffffffffffffffffffff1673ffffffffffffffffffffffffffffffffffffffff1681526020019081526020015f205f9054906101000a900460ff165b610a8f576040517f08c379a0000000000000000000000000000000000000000000000000000000008152600401610a8690612721565b60405180910390fd5b610a9a8184846114d4565b505050565b5f600980549050905090565b5f610ab582610de1565b9050610ac2813384611583565b610b01576040517f08c379a0000000000000000000000000000000000000000000000000000000008152600401610af890612789565b60405180910390fd5b610b0d818585856116ae565b50505050565b610b2d83838360405180602001604052805f8152506111b9565b505050565b5f600754421015610b4d57670de0b6b3a76400009050610be7565b61025860075442610b5e91906127d4565b10610b735767016345785d8a00009050610be7565b5f603c60075442610b8491906127d4565b610b8e9190612834565b9050603c610258610b9f9190612834565b67016345785d8a0000670de0b6b3a7640000610bbb91906127d4565b610bc59190612834565b81610bd09190612864565b670de0b6b3a7640000610be391906127d4565b9150505b90565b5f60075490505f8114158015610c005750804210155b610c3f576040517f08c379a0000000000000000000000000000000000000000000000000000000008152600401610c36906128ef565b60405180910390fd5b61271082610c4b610a9f565b610c55919061290d565b1115610c96576040517f08c379a0000000000000000000000000000000000000000000000000000000008152600401610c8d906129d6565b60405180910390fd5b5f82610ca0610b32565b610caa9190612864565b905080341015610cef576040517f08c379a0000000000000000000000000000000000000000000000000000000008152600401610ce690612a3e565b60405180910390fd5b5f5f90505b83811015610d28575f610d05610a9f565b9050610d1133826118ed565b610d1a81611afb565b508080600101915050610cf4565b5080341115610d81573373ffffffffffffffffffffffffffffffffffffffff166108fc8234610d5791906127d4565b90811502906040515f60405180830381858888f19350505050158015610d7f573d5f5f3e3d5ffd5b505b505050565b610d8e61144d565b818160089182610d9f929190612c17565b505050565b603c610258610db39190612834565b67016345785d8a0000670de0b6b3a7640000610dcf91906127d4565b610dd99190612834565b81565b603c81565b5f60035f8381526020019081526020015f205f9054906101000a900473ffffffffffffffffffffffffffffffffffffffff1690505f73ffffffffffffffffffffffffffffffffffffffff168173ffffffffffffffffffffffffffffffffffffffff1603610e83576040517f08c379a0000000000000000000000000000000000000000000000000000000008152600401610e7a906126b9565b60405180910390fd5b919050565b5f5f73ffffffffffffffffffffffffffffffffffffffff168273ffffffffffffffffffffffffffffffffffffffff1603610ef7576040517f08c379a0000000000000000000000000000000000000000000000000000000008152600401610eee90612d2e565b60405180910390fd5b60045f8373ffffffffffffffffffffffffffffffffffffffff1673ffffffffffffffffffffffffffffffffffffffff1681526020019081526020015f20549050919050565b610f4461144d565b610f4d5f611b24565b565b670de0b6b3a764000081565b5f5f5f9054906101000a900473ffffffffffffffffffffffffffffffffffffffff16905090565b60028054610f8f9061263f565b80601f0160208091040260200160405190810160405280929190818152602001828054610fbb9061263f565b80156110065780601f10610fdd57610100808354040283529160200191611006565b820191905f5260205f20905b815481529060010190602001808311610fe957829003601f168201915b505050505081565b8060065f3373ffffffffffffffffffffffffffffffffffffffff1673ffffffffffffffffffffffffffffffffffffffff1681526020019081526020015f205f8473ffffffffffffffffffffffffffffffffffffffff1673ffffffffffffffffffffffffffffffffffffffff1681526020019081526020015f205f6101000a81548160ff0219169083151502179055508173ffffffffffffffffffffffffffffffffffffffff163373ffffffffffffffffffffffffffffffffffffffff167f17307eab39ab6107e8899845ad3d59bd9653f200f220920489ca2b5937696c31836040516110fa919061204a565b60405180910390a35050565b61110e61144d565b5f3373ffffffffffffffffffffffffffffffffffffffff164760405161113390612d79565b5f6040518083038185875af1925050503d805f811461116d576040519150601f19603f3d011682016040523d82523d5f602084013e611172565b606091505b50509050806111b6576040517f08c379a00000000000000000000000000000000000000000000000000000000081526004016111ad90612dd7565b60405180910390fd5b50565b5f6111c383610de1565b90506111d0813385611583565b61120f576040517f08c379a000000000000000000000000000000000000000000000000000000000815260040161120690612789565b60405180910390fd5b61121c8186868686611be5565b5050505050565b60605f73ffffffffffffffffffffffffffffffffffffffff1660035f8481526020019081526020015f205f9054906101000a900473ffffffffffffffffffffffffffffffffffffffff1673ffffffffffffffffffffffffffffffffffffffff16036112c3576040517f08c379a00000000000000000000000000000000000000000000000000000000081526004016112ba90612e3f565b60405180910390fd5b5f6112cc611c04565b90505f8151116112ea5760405180602001604052805f815250611315565b806112f484611c94565b604051602001611305929190612e97565b6040516020818303038152906040525b915050919050565b67016345785d8a000081565b61271081565b61025881565b5f60065f8473ffffffffffffffffffffffffffffffffffffffff1673ffffffffffffffffffffffffffffffffffffffff1681526020019081526020015f205f8373ffffffffffffffffffffffffffffffffffffffff1673ffffffffffffffffffffffffffffffffffffffff1681526020019081526020015f205f9054906101000a900460ff16905092915050565b60075481565b6113d161144d565b5f73ffffffffffffffffffffffffffffffffffffffff168173ffffffffffffffffffffffffffffffffffffffff1603611441575f6040517f1e4fbdf700000000000000000000000000000000000000000000000000000000815260040161143891906121f4565b60405180910390fd5b61144a81611b24565b50565b611455611ded565b73ffffffffffffffffffffffffffffffffffffffff16611473610f5b565b73ffffffffffffffffffffffffffffffffffffffff16146114d257611496611ded565b6040517f118cdaa70000000000000000000000000000000000000000000000000000000081526004016114c991906121f4565b60405180910390fd5b565b8160055f8381526020019081526020015f205f6101000a81548173ffffffffffffffffffffffffffffffffffffffff021916908373ffffffffffffffffffffffffffffffffffffffff160217905550808273ffffffffffffffffffffffffffffffffffffffff168473ffffffffffffffffffffffffffffffffffffffff167f8c5be1e5ebec7d5bd14f71427d1e84f3dd0314c0f7b2291e5b200ac8c7c3b92560405160405180910390a4505050565b5f8373ffffffffffffffffffffffffffffffffffffffff168373ffffffffffffffffffffffffffffffffffffffff16148061161957508273ffffffffffffffffffffffffffffffffffffffff1660055f8481526020019081526020015f205f9054906101000a900473ffffffffffffffffffffffffffffffffffffffff1673ffffffffffffffffffffffffffffffffffffffff16145b806116a5575060065f8573ffffffffffffffffffffffffffffffffffffffff1673ffffffffffffffffffffffffffffffffffffffff1681526020019081526020015f205f8473ffffffffffffffffffffffffffffffffffffffff1673ffffffffffffffffffffffffffffffffffffffff1681526020019081526020015f205f9054906101000a900460ff165b90509392505050565b8373ffffffffffffffffffffffffffffffffffffffff168373ffffffffffffffffffffffffffffffffffffffff161461171c576040517f08c379a000000000000000000000000000000000000000000000000000000000815260040161171390612f04565b60405180910390fd5b5f73ffffffffffffffffffffffffffffffffffffffff168273ffffffffffffffffffffffffffffffffffffffff160361178a576040517f08c379a000000000000000000000000000000000000000000000000000000000815260040161178190612f6c565b60405180910390fd5b611795845f836114d4565b600160045f8573ffffffffffffffffffffffffffffffffffffffff1673ffffffffffffffffffffffffffffffffffffffff1681526020019081526020015f205f8282546117e291906127d4565b92505081905550600160045f8473ffffffffffffffffffffffffffffffffffffffff1673ffffffffffffffffffffffffffffffffffffffff1681526020019081526020015f205f828254611836919061290d565b925050819055508160035f8381526020019081526020015f205f6101000a81548173ffffffffffffffffffffffffffffffffffffffff021916908373ffffffffffffffffffffffffffffffffffffffff160217905550808273ffffffffffffffffffffffffffffffffffffffff168473ffffffffffffffffffffffffffffffffffffffff167fddf252ad1be2c89b69c2b068fc378daa952ba7f163c4a11628f55a4df523b3ef60405160405180910390a450505050565b5f73ffffffffffffffffffffffffffffffffffffffff168273ffffffffffffffffffffffffffffffffffffffff160361195b576040517f08c379a000000000000000000000000000000000000000000000000000000000815260040161195290612fd4565b60405180910390fd5b5f73ffffffffffffffffffffffffffffffffffffffff1660035f8381526020019081526020015f205f9054906101000a900473ffffffffffffffffffffffffffffffffffffffff1673ffffffffffffffffffffffffffffffffffffffff16146119f9576040517f08c379a00000000000000000000000000000000000000000000000000000000081526004016119f09061303c565b60405180910390fd5b600160045f8473ffffffffffffffffffffffffffffffffffffffff1673ffffffffffffffffffffffffffffffffffffffff1681526020019081526020015f205f828254611a46919061290d565b925050819055508160035f8381526020019081526020015f205f6101000a81548173ffffffffffffffffffffffffffffffffffffffff021916908373ffffffffffffffffffffffffffffffffffffffff160217905550808273ffffffffffffffffffffffffffffffffffffffff165f73ffffffffffffffffffffffffffffffffffffffff167fddf252ad1be2c89b69c2b068fc378daa952ba7f163c4a11628f55a4df523b3ef60405160405180910390a45050565b600981908060018154018082558091505060019003905f5260205f20015f909190919091505550565b5f5f5f9054906101000a900473ffffffffffffffffffffffffffffffffffffffff169050815f5f6101000a81548173ffffffffffffffffffffffffffffffffffffffff021916908373ffffffffffffffffffffffffffffffffffffffff1602179055508173ffffffffffffffffffffffffffffffffffffffff168173ffffffffffffffffffffffffffffffffffffffff167f8be0079c531659141344cd1fd0a4f28419497f9722a3daafe3b4186f6b6457e060405160405180910390a35050565b611bf1858585856116ae565b611bfd84848484611df4565b5050505050565b606060088054611c139061263f565b80601f0160208091040260200160405190810160405280929190818152602001828054611c3f9061263f565b8015611c8a5780601f10611c6157610100808354040283529160200191611c8a565b820191905f5260205f20905b815481529060010190602001808311611c6d57829003601f168201915b5050505050905090565b60605f8203611cda576040518060400160405280600181526020017f30000000000000000000000000000000000000000000000000000000000000008152509050611de8565b5f8290505f5b5f8214611d09578080611cf29061305a565b915050600a82611d029190612834565b9150611ce0565b5f8167ffffffffffffffff811115611d2457611d23612430565b5b6040519080825280601f01601f191660200182016040528015611d565781602001600182028036833780820191505090505b5090505b5f8514611de157600182611d6e91906127d4565b9150600a85611d7d91906130a1565b6030611d89919061290d565b60f81b818381518110611d9f57611d9e6130d1565b5b60200101907effffffffffffffffffffffffffffffffffffffffffffffffffffffffffffff191690815f1a905350600a85611dda9190612834565b9450611d5a565b8093505050505b919050565b5f33905090565b5f8373ffffffffffffffffffffffffffffffffffffffff163b1115611f99578273ffffffffffffffffffffffffffffffffffffffff1663150b7a02338685856040518563ffffffff1660e01b8152600401611e529493929190613150565b6020604051808303815f875af1925050508015611e8d57506040513d601f19601f82011682018060405250810190611e8a91906131ae565b60015b611f0e573d805f8114611ebb576040519150601f19603f3d011682016040523d82523d5f602084013e611ec0565b606091505b505f815103611f0657836040517f64a0ae92000000000000000000000000000000000000000000000000000000008152600401611efd91906121f4565b60405180910390fd5b805181602001fd5b63150b7a0260e01b7bffffffffffffffffffffffffffffffffffffffffffffffffffffffff1916817bffffffffffffffffffffffffffffffffffffffffffffffffffffffff191614611f9757836040517f64a0ae92000000000000000000000000000000000000000000000000000000008152600401611f8e91906121f4565b60405180910390fd5b505b50505050565b5f604051905090565b5f5ffd5b5f5ffd5b5f7fffffffff0000000000000000000000000000000000000000000000000000000082169050919050565b611fe481611fb0565b8114611fee575f5ffd5b50565b5f81359050611fff81611fdb565b92915050565b5f6020828403121561201a57612019611fa8565b5b5f61202784828501611ff1565b91505092915050565b5f8115159050919050565b61204481612030565b82525050565b5f60208201905061205d5f83018461203b565b92915050565b5f63ffffffff82169050919050565b61207b81612063565b8114612085575f5ffd5b50565b5f8135905061209681612072565b92915050565b5f602082840312156120b1576120b0611fa8565b5b5f6120be84828501612088565b91505092915050565b5f81519050919050565b5f82825260208201905092915050565b8281835e5f83830152505050565b5f601f19601f8301169050919050565b5f612109826120c7565b61211381856120d1565b93506121238185602086016120e1565b61212c816120ef565b840191505092915050565b5f6020820190508181035f83015261214f81846120ff565b905092915050565b5f819050919050565b61216981612157565b8114612173575f5ffd5b50565b5f8135905061218481612160565b92915050565b5f6020828403121561219f5761219e611fa8565b5b5f6121ac84828501612176565b91505092915050565b5f73ffffffffffffffffffffffffffffffffffffffff82169050919050565b5f6121de826121b5565b9050919050565b6121ee816121d4565b82525050565b5f6020820190506122075f8301846121e5565b92915050565b612216816121d4565b8114612220575f5ffd5b50565b5f813590506122318161220d565b92915050565b5f5f6040838503121561224d5761224c611fa8565b5b5f61225a85828601612223565b925050602061226b85828601612176565b9150509250929050565b61227e81612157565b82525050565b5f6020820190506122975f830184612275565b92915050565b5f5f5f606084860312156122b4576122b3611fa8565b5b5f6122c186828701612223565b93505060206122d286828701612223565b92505060406122e386828701612176565b9150509250925092565b5f5ffd5b5f5ffd5b5f5ffd5b5f5f83601f84011261230e5761230d6122ed565b5b8235905067ffffffffffffffff81111561232b5761232a6122f1565b5b602083019150836001820283011115612347576123466122f5565b5b9250929050565b5f5f6020838503121561236457612363611fa8565b5b5f83013567ffffffffffffffff81111561238157612380611fac565b5b61238d858286016122f9565b92509250509250929050565b5f602082840312156123ae576123ad611fa8565b5b5f6123bb84828501612223565b91505092915050565b6123cd81612030565b81146123d7575f5ffd5b50565b5f813590506123e8816123c4565b92915050565b5f5f6040838503121561240457612403611fa8565b5b5f61241185828601612223565b9250506020612422858286016123da565b9150509250929050565b5f5ffd5b7f4e487b71000000000000000000000000000000000000000000000000000000005f52604160045260245ffd5b612466826120ef565b810181811067ffffffffffffffff8211171561248557612484612430565b5b80604052505050565b5f612497611f9f565b90506124a3828261245d565b919050565b5f67ffffffffffffffff8211156124c2576124c1612430565b5b6124cb826120ef565b9050602081019050919050565b828183375f83830152505050565b5f6124f86124f3846124a8565b61248e565b9050828152602081018484840111156125145761251361242c565b5b61251f8482856124d8565b509392505050565b5f82601f83011261253b5761253a6122ed565b5b813561254b8482602086016124e6565b91505092915050565b5f5f5f5f6080858703121561256c5761256b611fa8565b5b5f61257987828801612223565b945050602061258a87828801612223565b935050604061259b87828801612176565b925050606085013567ffffffffffffffff8111156125bc576125bb611fac565b5b6125c887828801612527565b91505092959194509250565b5f5f604083850312156125ea576125e9611fa8565b5b5f6125f785828601612223565b925050602061260885828601612223565b9150509250929050565b7f4e487b71000000000000000000000000000000000000000000000000000000005f52602260045260245ffd5b5f600282049050600182168061265657607f821691505b60208210810361266957612668612612565b5b50919050565b7f746f6b656e20646f65736e2774206578697374000000000000000000000000005f82015250565b5f6126a36013836120d1565b91506126ae8261266f565b602082019050919050565b5f6020820190508181035f8301526126d081612697565b9050919050565b7f6e6f74206f776e6572206e6f7220617070726f76656420666f7220616c6c00005f82015250565b5f61270b601e836120d1565b9150612716826126d7565b602082019050919050565b5f6020820190508181035f830152612738816126ff565b9050919050565b7f6e6f74206f776e6572206e6f7220617070726f766564000000000000000000005f82015250565b5f6127736016836120d1565b915061277e8261273f565b602082019050919050565b5f6020820190508181035f8301526127a081612767565b9050919050565b7f4e487b71000000000000000000000000000000000000000000000000000000005f52601160045260245ffd5b5f6127de82612157565b91506127e983612157565b9250828203905081811115612801576128006127a7565b5b92915050565b7f4e487b71000000000000000000000000000000000000000000000000000000005f52601260045260245ffd5b5f61283e82612157565b915061284983612157565b92508261285957612858612807565b5b828204905092915050565b5f61286e82612157565b915061287983612157565b925082820261288781612157565b9150828204841483151761289e5761289d6127a7565b5b5092915050565b7f73616c6520686173206e6f7420737461727465642079657400000000000000005f82015250565b5f6128d96018836120d1565b91506128e4826128a5565b602082019050919050565b5f6020820190508181035f830152612906816128cd565b9050919050565b5f61291782612157565b915061292283612157565b925082820190508082111561293a576129396127a7565b5b92915050565b7f6e6f7420656e6f7567682072656d61696e696e6720726573657276656420666f5f8201527f722061756374696f6e20746f20737570706f72742064657369726564206d696e60208201527f7420616d6f756e74000000000000000000000000000000000000000000000000604082015250565b5f6129c06048836120d1565b91506129cb82612940565b606082019050919050565b5f6020820190508181035f8301526129ed816129b4565b9050919050565b7f4e65656420746f2073656e64206d6f7265204554482e000000000000000000005f82015250565b5f612a286016836120d1565b9150612a33826129f4565b602082019050919050565b5f6020820190508181035f830152612a5581612a1c565b9050919050565b5f82905092915050565b5f819050815f5260205f209050919050565b5f6020601f8301049050919050565b5f82821b905092915050565b5f60088302612ac27fffffffffffffffffffffffffffffffffffffffffffffffffffffffffffffffff82612a87565b612acc8683612a87565b95508019841693508086168417925050509392505050565b5f819050919050565b5f612b07612b02612afd84612157565b612ae4565b612157565b9050919050565b5f819050919050565b612b2083612aed565b612b34612b2c82612b0e565b848454612a93565b825550505050565b5f5f905090565b612b4b612b3c565b612b56818484612b17565b505050565b5f5b82811015612b7c57612b715f828401612b43565b600181019050612b5d565b505050565b601f821115612bcf5782821115612bce57612b9b81612a66565b612ba483612a78565b612bad85612a78565b6020861015612bba575f90505b808301612bc982840382612b5b565b505050505b5b505050565b5f82821c905092915050565b5f612bef5f1984600802612bd4565b1980831691505092915050565b5f612c078383612be0565b9150826002028217905092915050565b612c218383612a5c565b67ffffffffffffffff811115612c3a57612c39612430565b5b612c44825461263f565b612c4f828285612b81565b5f601f831160018114612c7c575f8415612c6a578287013590505b612c748582612bfc565b865550612cdb565b601f198416612c8a86612a66565b5f5b82811015612cb157848901358255600182019150602085019450602081019050612c8c565b86831015612cce5784890135612cca601f891682612be0565b8355505b6001600288020188555050505b50505050505050565b7f6f776e6572203d207a65726f20616464726573730000000000000000000000005f82015250565b5f612d186014836120d1565b9150612d2382612ce4565b602082019050919050565b5f6020820190508181035f830152612d4581612d0c565b9050919050565b5f81905092915050565b50565b5f612d645f83612d4c565b9150612d6f82612d56565b5f82019050919050565b5f612d8382612d59565b9150819050919050565b7f5472616e73666572206661696c65642e000000000000000000000000000000005f82015250565b5f612dc16010836120d1565b9150612dcc82612d8d565b602082019050919050565b5f6020820190508181035f830152612dee81612db5565b9050919050565b7f546f6b656e204e6f7420457869737400000000000000000000000000000000005f82015250565b5f612e29600f836120d1565b9150612e3482612df5565b602082019050919050565b5f6020820190508181035f830152612e5681612e1d565b9050919050565b5f81905092915050565b5f612e71826120c7565b612e7b8185612e5d565b9350612e8b8185602086016120e1565b80840191505092915050565b5f612ea28285612e67565b9150612eae8284612e67565b91508190509392505050565b7f6e6f74206f776e657200000000000000000000000000000000000000000000005f82015250565b5f612eee6009836120d1565b9150612ef982612eba565b602082019050919050565b5f6020820190508181035f830152612f1b81612ee2565b9050919050565b7f7472616e7366657220746f20746865207a65726f2061646472657373000000005f82015250565b5f612f56601c836120d1565b9150612f6182612f22565b602082019050919050565b5f6020820190508181035f830152612f8381612f4a565b9050919050565b7f6d696e7420746f207a65726f20616464726573730000000000000000000000005f82015250565b5f612fbe6014836120d1565b9150612fc982612f8a565b602082019050919050565b5f6020820190508181035f830152612feb81612fb2565b9050919050565b7f746f6b656e20616c7265616479206d696e7465640000000000000000000000005f82015250565b5f6130266014836120d1565b915061303182612ff2565b602082019050919050565b5f6020820190508181035f8301526130538161301a565b9050919050565b5f61306482612157565b91507fffffffffffffffffffffffffffffffffffffffffffffffffffffffffffffffff8203613096576130956127a7565b5b600182019050919050565b5f6130ab82612157565b91506130b683612157565b9250826130c6576130c5612807565b5b828206905092915050565b7f4e487b71000000000000000000000000000000000000000000000000000000005f52603260045260245ffd5b5f81519050919050565b5f82825260208201905092915050565b5f613122826130fe565b61312c8185613108565b935061313c8185602086016120e1565b613145816120ef565b840191505092915050565b5f6080820190506131635f8301876121e5565b61317060208301866121e5565b61317d6040830185612275565b818103606083015261318f8184613118565b905095945050505050565b5f815190506131a881611fdb565b92915050565b5f602082840312156131c3576131c2611fa8565b5b5f6131d08482850161319a565b9150509291505056fea2646970667358221220e6c4961231964124990a12bf5aebeeec3778d11abb7c1f9a33114bf6ac9c6b9164736f6c63430008220033","linkReferences":{}},"methodIdentifiers":{"AUCTION_DROP_INTERVAL()":"5cae01d3","AUCTION_DROP_PER_STEP()":"59f369fe","AUCTION_END_PRICE()":"caf8a6d1","AUCTION_START_PRICE()":"7a1c4a56","AUCTION_TIME()":"e592301a","COLLECTION_SIZE()":"d8258d95","approve(address,uint256)":"095ea7b3","auctionMint(uint256)":"4d3554c3","auctionStartTime()":"eb54f9ec","balanceOf(address)":"70a08231","getApproved(uint256)":"081812fc","getAuctionPrice()":"4bd25c6f","isApprovedForAll(address,address)":"e985e9c5","name()":"06fdde03","owner()":"8da5cb5b","ownerOf(uint256)":"6352211e","renounceOwnership()":"715018a6","safeTransferFrom(address,address,uint256)":"42842e0e","safeTransferFrom(address,address,uint256,bytes)":"b88d4fde","setApprovalForAll(address,bool)":"a22cb465","setAuctionStartTime(uint32)":"0697346f","setBaseURI(string)":"55f804b3","supportsInterface(bytes4)":"01ffc9a7","symbol()":"95d89b41","tokenURI(uint256)":"c87b56dd","totalSupply()":"18160ddd","transferFrom(address,address,uint256)":"23b872dd","transferOwnership(address)":"f2fde38b","withdrawMoney()":"ac446002"},"id":85}