{"abi":[{"type":"constructor","inputs":[],"stateMutability":"nonpayable"},{"type":"function","name":"BUSD","inputs":[],"outputs":[{"name":"","type":"address","internalType":"address"}],"stateMutability":"view"},{"type":"function","name":"FACTORY_V2","inputs":[],"outputs":[{"name":"","type":"address","internalType":"address"}],"stateMutability":"view"},{"type":"function","name":"WETH","inputs":[],"outputs":[{"name":"","type":"address","internalType":"address"}],"stateMutability":"view"},{"type":"function","name":"allowance","inputs":[{"name":"owner","type":"address","internalType":"address"},{"name":"spender","type":"address","internalType":"address"}],"outputs":[{"name":"","type":"uint256","internalType":"uint256"}],"stateMutability":"view"},{"type":"function","name":"approve","inputs":[{"name":"spender","type":"address","internalType":"address"},{"name":"value","type":"uint256","internalType":"uint256"}],"outputs":[{"name":"","type":"bool","internalType":"bool"}],"stateMutability":"nonpayable"},{"type":"function","name":"balanceOf","inputs":[{"name":"account","type":"address","internalType":"address"}],"outputs":[{"name":"","type":"uint256","internalType":"uint256"}],"stateMutability":"view"},{"type":"function","name":"busd","inputs":[],"outputs":[{"name":"","type":"address","internalType":"contract IERC20"}],"stateMutability":"view"},{"type":"function","name":"decimals","inputs":[],"outputs":[{"name":"","type":"uint8","internalType":"uint8"}],"stateMutability":"view"},{"type":"function","name":"factory","inputs":[],"outputs":[{"name":"","type":"address","internalType":"contract IUniswapV2Factory"}],"stateMutability":"view"},{"type":"function","name":"getPrice","inputs":[],"outputs":[{"name":"price","type":"uint256","internalType":"uint256"}],"stateMutability":"view"},{"type":"function","name":"name","inputs":[],"outputs":[{"name":"","type":"string","internalType":"string"}],"stateMutability":"view"},{"type":"function","name":"pair","inputs":[],"outputs":[{"name":"","type":"address","internalType":"contract IUniswapV2Pair"}],"stateMutability":"view"},{"type":"function","name":"swap","inputs":[],"outputs":[{"name":"amount","type":"uint256","internalType":"uint256"}],"stateMutability":"payable"},{"type":"function","name":"symbol","inputs":[],"outputs":[{"name":"","type":"string","internalType":"string"}],"stateMutability":"view"},{"type":"function","name":"totalSupply","inputs":[],"outputs":[{"name":"","type":"uint256","internalType":"uint256"}],"stateMutability":"view"},{"type":"function","name":"transfer","inputs":[{"name":"to","type":"address","internalType":"address"},{"name":"value","type":"uint256","internalType":"uint256"}],"outputs":[{"name":"","type":"bool","internalType":"bool"}],"stateMutability":"nonpayable"},{"type":"function","name":"transferFrom","inputs":[{"name":"from","type":"address","internalType":"address"},{"name":"to","type":"address","internalType":"address"},{"name":"value","type":"uint256","internalType":"uint256"}],"outputs":[{"name":"","type":"bool","internalType":"bool"}],"stateMutability":"nonpayable"},{"type":"function","name":"weth","inputs":[],"outputs":[{"name":"","type":"address","internalType":"contract IERC20"}],"stateMutability":"view"},{"type":"event","name":"Approval","inputs":[{"name":"owner","type":"address","indexed":true,"internalType":"address"},{"name":"spender","type":"address","indexed":true,"internalType":"address"},{"name":"value","type":"uint256","indexed":false,"internalType":"uint256"}],"anonymous":false},{"type":"event","name":"Transfer","inputs":[{"name":"from","type":"address","indexed":true,"internalType":"address"},{"name":"to","type":"address","indexed":true,"internalType":"address"},{"name":"value","type":"uint256","indexed":false,"internalType":"uint256"}],"anonymous":false},{"type":"error","name":"ERC20InsufficientAllowance","inputs":[{"name":"spender","type":"address","internalType":"address"},{"name":"allowance","type":"uint256","internalType":"uint256"},{"name":"needed","type":"uint256","internalType":"uint256"}]},{"type":"error","name":"ERC20InsufficientBalance","inputs":[{"name":"sender","type":"address","internalType":"address"},{"name":"balance","type":"uint256","internalType":"uint256"},{"name":"needed","type":"uint256","internalType":"uint256"}]},{"type":"error","name":"ERC20InvalidApprover","inputs":[{"name":"approver","type":"address","internalType":"address"}]},{"type":"error","name":"ERC20InvalidReceiver","inputs":[{"name":"receiver","type":"address","internalType":"address"}]},{"type":"error","name":"ERC20InvalidSender","inputs":[{"name":"sender","type":"address","internalType":"address"}]},{"type":"error","name":"ERC20InvalidSpender","inputs":[{"name":"spender","type":"address","internalType":"address"}]}],"bytecode":{"object":"0x6080604052735c69bee701ef814a2b6a3edd4b1652cb9cc5aa6f60055f6101000a81548173ffffffffffffffffffffffffffffffffffffffff021916908373ffffffffffffffffffffffffffffffffffffffff16021790555060055f9054906101000a900473ffffffffffffffffffffffffffffffffffffffff1673ffffffffffffffffffffffffffffffffffffffff1663e6a4390573c02aaa39b223fe8d0a0e5c4f27ead9083c756cc2734fabb145d64652a948d72533023f6e7a623c7c536040518363ffffffff1660e01b81526004016100dc9291906102e0565b602060405180830381865afa1580156100f7573d5f5f3e3d5ffd5b505050506040513d601f19601f8201168201806040525081019061011b9190610335565b60065f6101000a81548173ffffffffffffffffffffffffffffffffffffffff021916908373ffffffffffffffffffffffffffffffffffffffff16021790555073c02aaa39b223fe8d0a0e5c4f27ead9083c756cc260075f6101000a81548173ffffffffffffffffffffffffffffffffffffffff021916908373ffffffffffffffffffffffffffffffffffffffff160217905550734fabb145d64652a948d72533023f6e7a623c7c5360085f6101000a81548173ffffffffffffffffffffffffffffffffffffffff021916908373ffffffffffffffffffffffffffffffffffffffff16021790555034801561020d575f5ffd5b506040518060400160405280600a81526020017f4f7261636c6520555344000000000000000000000000000000000000000000008152506040518060400160405280600481526020017f6f55534400000000000000000000000000000000000000000000000000000000815250816003908161028991906105ae565b50806004908161029991906105ae565b50505061067d565b5f73ffffffffffffffffffffffffffffffffffffffff82169050919050565b5f6102ca826102a1565b9050919050565b6102da816102c0565b82525050565b5f6040820190506102f35f8301856102d1565b61030060208301846102d1565b9392505050565b5f5ffd5b610314816102c0565b811461031e575f5ffd5b50565b5f8151905061032f8161030b565b92915050565b5f6020828403121561034a57610349610307565b5b5f61035784828501610321565b91505092915050565b5f81519050919050565b7f4e487b71000000000000000000000000000000000000000000000000000000005f52604160045260245ffd5b7f4e487b71000000000000000000000000000000000000000000000000000000005f52602260045260245ffd5b5f60028204905060018216806103db57607f821691505b6020821081036103ee576103ed610397565b5b50919050565b5f819050815f5260205f209050919050565b5f6020601f8301049050919050565b5f82821b905092915050565b5f600883026104507fffffffffffffffffffffffffffffffffffffffffffffffffffffffffffffffff82610415565b61045a8683610415565b95508019841693508086168417925050509392505050565b5f819050919050565b5f819050919050565b5f61049e61049961049484610472565b61047b565b610472565b9050919050565b5f819050919050565b6104b783610484565b6104cb6104c3826104a5565b848454610421565b825550505050565b5f5f905090565b6104e26104d3565b6104ed8184846104ae565b505050565b5f5b82811015610513576105085f8284016104da565b6001810190506104f4565b505050565b601f821115610566578282111561056557610532816103f4565b61053b83610406565b61054485610406565b6020861015610551575f90505b808301610560828403826104f2565b505050505b5b505050565b5f82821c905092915050565b5f6105865f198460080261056b565b1980831691505092915050565b5f61059e8383610577565b9150826002028217905092915050565b6105b782610360565b67ffffffffffffffff8111156105d0576105cf61036a565b5b6105da82546103c4565b6105e5828285610518565b5f60209050601f831160018114610616575f8415610604578287015190505b61060e8582610593565b865550610675565b601f198416610624866103f4565b5f5b8281101561064b57848901518255600182019150602085019450602081019050610626565b868310156106685784890151610664601f891682610577565b8355505b6001600288020188555050505b505050505050565b6114bf8061068a5f395ff3fe608060405260043610610108575f3560e01c806370a0823111610094578063a8aa1b3111610063578063a8aa1b3114610358578063a9059cbb14610382578063ad5c4648146103be578063c45a0155146103e8578063dd62ed3e1461041257610108565b806370a08231146102aa5780638119c065146102e657806395d89b411461030457806398d5fdca1461032e57610108565b8063313ce567116100db578063313ce567146101d85780633ca5b234146102025780633fc8cef31461022c578063484f4ea9146102565780634d2eaf701461028057610108565b806306fdde031461010c578063095ea7b31461013657806318160ddd1461017257806323b872dd1461019c575b5f5ffd5b348015610117575f5ffd5b5061012061044e565b60405161012d9190610ee8565b60405180910390f35b348015610141575f5ffd5b5061015c60048036038101906101579190610f99565b6104de565b6040516101699190610ff1565b60405180910390f35b34801561017d575f5ffd5b50610186610500565b6040516101939190611019565b60405180910390f35b3480156101a7575f5ffd5b506101c260048036038101906101bd9190611032565b610509565b6040516101cf9190610ff1565b60405180910390f35b3480156101e3575f5ffd5b506101ec610537565b6040516101f9919061109d565b60405180910390f35b34801561020d575f5ffd5b5061021661053f565b6040516102239190611111565b60405180910390f35b348015610237575f5ffd5b50610240610564565b60405161024d9190611111565b60405180910390f35b348015610261575f5ffd5b5061026a610589565b6040516102779190611139565b60405180910390f35b34801561028b575f5ffd5b506102946105a1565b6040516102a19190611139565b60405180910390f35b3480156102b5575f5ffd5b506102d060048036038101906102cb9190611152565b6105b9565b6040516102dd9190611019565b60405180910390f35b6102ee6105fe565b6040516102fb9190611019565b60405180910390f35b34801561030f575f5ffd5b50610318610626565b6040516103259190610ee8565b60405180910390f35b348015610339575f5ffd5b506103426106b6565b60405161034f9190611019565b60405180910390f35b348015610363575f5ffd5b5061036c61076f565b604051610379919061119d565b60405180910390f35b34801561038d575f5ffd5b506103a860048036038101906103a39190610f99565b610794565b6040516103b59190610ff1565b60405180910390f35b3480156103c9575f5ffd5b506103d26107b6565b6040516103df9190611139565b60405180910390f35b3480156103f3575f5ffd5b506103fc6107ce565b60405161040991906111d6565b60405180910390f35b34801561041d575f5ffd5b50610438600480360381019061043391906111ef565b6107f3565b6040516104459190611019565b60405180910390f35b60606003805461045d9061125a565b80601f01602080910402602001604051908101604052809291908181526020018280546104899061125a565b80156104d45780601f106104ab576101008083540402835291602001916104d4565b820191905f5260205f20905b8154815290600101906020018083116104b757829003601f168201915b5050505050905090565b5f5f6104e8610875565b90506104f581858561087c565b600191505092915050565b5f600254905090565b5f5f610513610875565b905061052085828561088e565b61052b858585610921565b60019150509392505050565b5f6012905090565b60085f9054906101000a900473ffffffffffffffffffffffffffffffffffffffff1681565b60075f9054906101000a900473ffffffffffffffffffffffffffffffffffffffff1681565b734fabb145d64652a948d72533023f6e7a623c7c5381565b735c69bee701ef814a2b6a3edd4b1652cb9cc5aa6f81565b5f5f5f8373ffffffffffffffffffffffffffffffffffffffff1673ffffffffffffffffffffffffffffffffffffffff1681526020019081526020015f20549050919050565b5f5f6106086106b6565b9050348161061691906112b7565b91506106223383610a11565b5090565b6060600480546106359061125a565b80601f01602080910402602001604051908101604052809291908181526020018280546106619061125a565b80156106ac5780601f10610683576101008083540402835291602001916106ac565b820191905f5260205f20905b81548152906001019060200180831161068f57829003601f168201915b5050505050905090565b5f5f5f60065f9054906101000a900473ffffffffffffffffffffffffffffffffffffffff1673ffffffffffffffffffffffffffffffffffffffff16630902f1ac6040518163ffffffff1660e01b8152600401606060405180830381865afa158015610723573d5f5f3e3d5ffd5b505050506040513d601f19601f820116820180604052508101906107479190611374565b5091509150808261075891906113f1565b6dffffffffffffffffffffffffffff169250505090565b60065f9054906101000a900473ffffffffffffffffffffffffffffffffffffffff1681565b5f5f61079e610875565b90506107ab818585610921565b600191505092915050565b73c02aaa39b223fe8d0a0e5c4f27ead9083c756cc281565b60055f9054906101000a900473ffffffffffffffffffffffffffffffffffffffff1681565b5f60015f8473ffffffffffffffffffffffffffffffffffffffff1673ffffffffffffffffffffffffffffffffffffffff1681526020019081526020015f205f8373ffffffffffffffffffffffffffffffffffffffff1673ffffffffffffffffffffffffffffffffffffffff1681526020019081526020015f2054905092915050565b5f33905090565b6108898383836001610a90565b505050565b5f61089984846107f3565b90507fffffffffffffffffffffffffffffffffffffffffffffffffffffffffffffffff81101561091b578181101561090c578281836040517ffb8f41b200000000000000000000000000000000000000000000000000000000815260040161090393929190611421565b60405180910390fd5b61091a84848484035f610a90565b5b50505050565b5f73ffffffffffffffffffffffffffffffffffffffff168373ffffffffffffffffffffffffffffffffffffffff1603610991575f6040517f96c6fd1e0000000000000000000000000000000000000000000000000000000081526004016109889190611139565b60405180910390fd5b5f73ffffffffffffffffffffffffffffffffffffffff168273ffffffffffffffffffffffffffffffffffffffff1603610a01575f6040517fec442f050000000000000000000000000000000000000000000000000000000081526004016109f89190611139565b60405180910390fd5b610a0c838383610c5f565b505050565b5f73ffffffffffffffffffffffffffffffffffffffff168273ffffffffffffffffffffffffffffffffffffffff1603610a81575f6040517fec442f05000000000000000000000000000000000000000000000000000000008152600401610a789190611139565b60405180910390fd5b610a8c5f8383610c5f565b5050565b5f73ffffffffffffffffffffffffffffffffffffffff168473ffffffffffffffffffffffffffffffffffffffff1603610b00575f6040517fe602df05000000000000000000000000000000000000000000000000000000008152600401610af79190611139565b60405180910390fd5b5f73ffffffffffffffffffffffffffffffffffffffff168373ffffffffffffffffffffffffffffffffffffffff1603610b70575f6040517f94280d62000000000000000000000000000000000000000000000000000000008152600401610b679190611139565b60405180910390fd5b8160015f8673ffffffffffffffffffffffffffffffffffffffff1673ffffffffffffffffffffffffffffffffffffffff1681526020019081526020015f205f8573ffffffffffffffffffffffffffffffffffffffff1673ffffffffffffffffffffffffffffffffffffffff1681526020019081526020015f20819055508015610c59578273ffffffffffffffffffffffffffffffffffffffff168473ffffffffffffffffffffffffffffffffffffffff167f8c5be1e5ebec7d5bd14f71427d1e84f3dd0314c0f7b2291e5b200ac8c7c3b92584604051610c509190611019565b60405180910390a35b50505050565b5f73ffffffffffffffffffffffffffffffffffffffff168373ffffffffffffffffffffffffffffffffffffffff1603610caf578060025f828254610ca39190611456565b92505081905550610d7d565b5f5f5f8573ffffffffffffffffffffffffffffffffffffffff1673ffffffffffffffffffffffffffffffffffffffff1681526020019081526020015f2054905081811015610d38578381836040517fe450d38c000000000000000000000000000000000000000000000000000000008152600401610d2f93929190611421565b60405180910390fd5b8181035f5f8673ffffffffffffffffffffffffffffffffffffffff1673ffffffffffffffffffffffffffffffffffffffff1681526020019081526020015f2081905550505b5f73ffffffffffffffffffffffffffffffffffffffff168273ffffffffffffffffffffffffffffffffffffffff1603610dc4578060025f8282540392505081905550610e0e565b805f5f8473ffffffffffffffffffffffffffffffffffffffff1673ffffffffffffffffffffffffffffffffffffffff1681526020019081526020015f205f82825401925050819055505b8173ffffffffffffffffffffffffffffffffffffffff168373ffffffffffffffffffffffffffffffffffffffff167fddf252ad1be2c89b69c2b068fc378daa952ba7f163c4a11628f55a4df523b3ef83604051610e6b9190611019565b60405180910390a3505050565b5f81519050919050565b5f82825260208201905092915050565b8281835e5f83830152505050565b5f601f19601f8301169050919050565b5f610eba82610e78565b610ec48185610e82565b9350610ed4818560208601610e92565b610edd81610ea0565b840191505092915050565b5f6020820190508181035f830152610f008184610eb0565b905092915050565b5f5ffd5b5f73ffffffffffffffffffffffffffffffffffffffff82169050919050565b5f610f3582610f0c565b9050919050565b610f4581610f2b565b8114610f4f575f5ffd5b50565b5f81359050610f6081610f3c565b92915050565b5f819050919050565b610f7881610f66565b8114610f82575f5ffd5b50565b5f81359050610f9381610f6f565b92915050565b5f5f60408385031215610faf57610fae610f08565b5b5f610fbc85828601610f52565b9250506020610fcd85828601610f85565b9150509250929050565b5f8115159050919050565b610feb81610fd7565b82525050565b5f6020820190506110045f830184610fe2565b92915050565b61101381610f66565b82525050565b5f60208201905061102c5f83018461100a565b92915050565b5f5f5f6060848603121561104957611048610f08565b5b5f61105686828701610f52565b935050602061106786828701610f52565b925050604061107886828701610f85565b9150509250925092565b5f60ff82169050919050565b61109781611082565b82525050565b5f6020820190506110b05f83018461108e565b92915050565b5f819050919050565b5f6110d96110d46110cf84610f0c565b6110b6565b610f0c565b9050919050565b5f6110ea826110bf565b9050919050565b5f6110fb826110e0565b9050919050565b61110b816110f1565b82525050565b5f6020820190506111245f830184611102565b92915050565b61113381610f2b565b82525050565b5f60208201905061114c5f83018461112a565b92915050565b5f6020828403121561116757611166610f08565b5b5f61117484828501610f52565b91505092915050565b5f611187826110e0565b9050919050565b6111978161117d565b82525050565b5f6020820190506111b05f83018461118e565b92915050565b5f6111c0826110e0565b9050919050565b6111d0816111b6565b82525050565b5f6020820190506111e95f8301846111c7565b92915050565b5f5f6040838503121561120557611204610f08565b5b5f61121285828601610f52565b925050602061122385828601610f52565b9150509250929050565b7f4e487b71000000000000000000000000000000000000000000000000000000005f52602260045260245ffd5b5f600282049050600182168061127157607f821691505b6020821081036112845761128361122d565b5b50919050565b7f4e487b71000000000000000000000000000000000000000000000000000000005f52601160045260245ffd5b5f6112c182610f66565b91506112cc83610f66565b92508282026112da81610f66565b915082820484148315176112f1576112f061128a565b5b5092915050565b5f6dffffffffffffffffffffffffffff82169050919050565b61131a816112f8565b8114611324575f5ffd5b50565b5f8151905061133581611311565b92915050565b5f63ffffffff82169050919050565b6113538161133b565b811461135d575f5ffd5b50565b5f8151905061136e8161134a565b92915050565b5f5f5f6060848603121561138b5761138a610f08565b5b5f61139886828701611327565b93505060206113a986828701611327565b92505060406113ba86828701611360565b9150509250925092565b7f4e487b71000000000000000000000000000000000000000000000000000000005f52601260045260245ffd5b5f6113fb826112f8565b9150611406836112f8565b925082611416576114156113c4565b5b828204905092915050565b5f6060820190506114345f83018661112a565b611441602083018561100a565b61144e604083018461100a565b949350505050565b5f61146082610f66565b915061146b83610f66565b92508282019050808211156114835761148261128a565b5b9291505056fea2646970667358221220500568a93642554caeca9d1b81e6878775f0c3cdc81db5fc65c00e0a6dcc4ac064736f6c63430008220033","linkReferences":{}},"methodIdentifiers":{"BUSD()":"484f4ea9","FACTORY_V2()":"4d2eaf70","WETH()":"ad5c4648","allowance(address,address)":"dd62ed3e","approve(address,uint256)":"095ea7b3","balanceOf(address)":"70a08231","busd()":"3ca5b234","decimals()":"313ce567","factory()":"c45a0155","getPrice()":"98d5fdca","name()":"06fdde03","pair()":"a8aa1b31","swap()":"8119c065","symbol()":"95d89b41","totalSupply()":"18160ddd","transfer(address,uint256)":"a9059cbb","transferFrom(address,address,uint256)":"23b872dd","weth()":"3fc8cef3"},"id":136}