{"abi":[{"type":"constructor","inputs":[{"name":"_token0","type":"address","internalType":"contract IERC20"},{"name":"_token1","type":"address","internalType":"contract IERC20"}],"stateMutability":"nonpayable"},{"type":"function","name":"addLiquidity","inputs":[{"name":"amount0Desired","type":"uint256","internalType":"uint256"},{"name":"amount1Desired","type":"uint256","internalType":"uint256"}],"outputs":[{"name":"liquidity","type":"uint256","internalType":"uint256"}],"stateMutability":"nonpayable"},{"type":"function","name":"allowance","inputs":[{"name":"owner","type":"address","internalType":"address"},{"name":"spender","type":"address","internalType":"address"}],"outputs":[{"name":"","type":"uint256","internalType":"uint256"}],"stateMutability":"view"},{"type":"function","name":"approve","inputs":[{"name":"spender","type":"address","internalType":"address"},{"name":"value","type":"uint256","internalType":"uint256"}],"outputs":[{"name":"","type":"bool","internalType":"bool"}],"stateMutability":"nonpayable"},{"type":"function","name":"balanceOf","inputs":[{"name":"account","type":"address","internalType":"address"}],"outputs":[{"name":"","type":"uint256","internalType":"uint256"}],"stateMutability":"view"},{"type":"function","name":"decimals","inputs":[],"outputs":[{"name":"","type":"uint8","internalType":"uint8"}],"stateMutability":"view"},{"type":"function","name":"getAmountOut","inputs":[{"name":"amountIn","type":"uint256","internalType":"uint256"},{"name":"reserveIn","type":"uint256","internalType":"uint256"},{"name":"reserveOut","type":"uint256","internalType":"uint256"}],"outputs":[{"name":"amountOut","type":"uint256","internalType":"uint256"}],"stateMutability":"pure"},{"type":"function","name":"name","inputs":[],"outputs":[{"name":"","type":"string","internalType":"string"}],"stateMutability":"view"},{"type":"function","name":"removeLiquidity","inputs":[{"name":"liquidity","type":"uint256","internalType":"uint256"}],"outputs":[{"name":"amount0","type":"uint256","internalType":"uint256"},{"name":"amount1","type":"uint256","internalType":"uint256"}],"stateMutability":"nonpayable"},{"type":"function","name":"reserve0","inputs":[],"outputs":[{"name":"","type":"uint256","internalType":"uint256"}],"stateMutability":"view"},{"type":"function","name":"reserve1","inputs":[],"outputs":[{"name":"","type":"uint256","internalType":"uint256"}],"stateMutability":"view"},{"type":"function","name":"swap","inputs":[{"name":"amountIn","type":"uint256","internalType":"uint256"},{"name":"tokenIn","type":"address","internalType":"contract IERC20"},{"name":"amountOutMin","type":"uint256","internalType":"uint256"}],"outputs":[{"name":"amountOut","type":"uint256","internalType":"uint256"},{"name":"tokenOut","type":"address","internalType":"contract IERC20"}],"stateMutability":"nonpayable"},{"type":"function","name":"symbol","inputs":[],"outputs":[{"name":"","type":"string","internalType":"string"}],"stateMutability":"view"},{"type":"function","name":"token0","inputs":[],"outputs":[{"name":"","type":"address","internalType":"contract IERC20"}],"stateMutability":"view"},{"type":"function","name":"token1","inputs":[],"outputs":[{"name":"","type":"address","internalType":"contract IERC20"}],"stateMutability":"view"},{"type":"function","name":"totalSupply","inputs":[],"outputs":[{"name":"","type":"uint256","internalType":"uint256"}],"stateMutability":"view"},{"type":"function","name":"transfer","inputs":[{"name":"to","type":"address","internalType":"address"},{"name":"value","type":"uint256","internalType":"uint256"}],"outputs":[{"name":"","type":"bool","internalType":"bool"}],"stateMutability":"nonpayable"},{"type":"function","name":"transferFrom","inputs":[{"name":"from","type":"address","internalType":"address"},{"name":"to","type":"address","internalType":"address"},{"name":"value","type":"uint256","internalType":"uint256"}],"outputs":[{"name":"","type":"bool","internalType":"bool"}],"stateMutability":"nonpayable"},{"type":"event","name":"Approval","inputs":[{"name":"owner","type":"address","indexed":true,"internalType":"address"},{"name":"spender","type":"address","indexed":true,"internalType":"address"},{"name":"value","type":"uint256","indexed":false,"internalType":"uint256"}],"anonymous":false},{"type":"event","name":"Burn","inputs":[{"name":"sender","type":"address","indexed":true,"internalType":"address"},{"name":"amount0","type":"uint256","indexed":false,"internalType":"uint256"},{"name":"amount1","type":"uint256","indexed":false,"internalType":"uint256"}],"anonymous":false},{"type":"event","name":"Mint","inputs":[{"name":"sender","type":"address","indexed":true,"internalType":"address"},{"name":"amount0","type":"uint256","indexed":false,"internalType":"uint256"},{"name":"amount1","type":"uint256","indexed":false,"internalType":"uint256"}],"anonymous":false},{"type":"event","name":"Swap","inputs":[{"name":"sender","type":"address","indexed":true,"internalType":"address"},{"name":"amountIn","type":"uint256","indexed":false,"internalType":"uint256"},{"name":"tokenIn","type":"address","indexed":false,"internalType":"address"},{"name":"amountOut","type":"uint256","indexed":false,"internalType":"uint256"},{"name":"tokenOut","type":"address","indexed":false,"internalType":"address"}],"anonymous":false},{"type":"event","name":"Transfer","inputs":[{"name":"from","type":"address","indexed":true,"internalType":"address"},{"name":"to","type":"address","indexed":true,"internalType":"address"},{"name":"value","type":"uint256","indexed":false,"internalType":"uint256"}],"anonymous":false},{"type":"error","name":"ERC20InsufficientAllowance","inputs":[{"name":"spender","type":"address","internalType":"address"},{"name":"allowance","type":"uint256","internalType":"uint256"},{"name":"needed","type":"uint256","internalType":"uint256"}]},{"type":"error","name":"ERC20InsufficientBalance","inputs":[{"name":"sender","type":"address","internalType":"address"},{"name":"balance","type":"uint256","internalType":"uint256"},{"name":"needed","type":"uint256","internalType":"uint256"}]},{"type":"error","name":"ERC20InvalidApprover","inputs":[{"name":"approver","type":"address","internalType":"address"}]},{"type":"error","name":"ERC20InvalidReceiver","inputs":[{"name":"receiver","type":"address","internalType":"address"}]},{"type":"error","name":"ERC20InvalidSender","inputs":[{"name":"sender","type":"address","internalType":"address"}]},{"type":"error","name":"ERC20InvalidSpender","inputs":[{"name":"spender","type":"address","internalType":"address"}]}],"bytecode":{"object":"0x608060405234801561000f575f5ffd5b50604051612cf0380380612cf0833981810160405281019061003191906101b5565b6040518060400160405280600a81526020017f53696d706c6553776170000000000000000000000000000000000000000000008152506040518060400160405280600281526020017f535300000000000000000000000000000000000000000000000000000000000081525081600390816100ac9190610441565b5080600490816100bc9190610441565b5050508160055f6101000a81548173ffffffffffffffffffffffffffffffffffffffff021916908373ffffffffffffffffffffffffffffffffffffffff1602179055508060065f6101000a81548173ffffffffffffffffffffffffffffffffffffffff021916908373ffffffffffffffffffffffffffffffffffffffff1602179055505050610510565b5f5ffd5b5f73ffffffffffffffffffffffffffffffffffffffff82169050919050565b5f6101738261014a565b9050919050565b5f61018482610169565b9050919050565b6101948161017a565b811461019e575f5ffd5b50565b5f815190506101af8161018b565b92915050565b5f5f604083850312156101cb576101ca610146565b5b5f6101d8858286016101a1565b92505060206101e9858286016101a1565b9150509250929050565b5f81519050919050565b7f4e487b71000000000000000000000000000000000000000000000000000000005f52604160045260245ffd5b7f4e487b71000000000000000000000000000000000000000000000000000000005f52602260045260245ffd5b5f600282049050600182168061026e57607f821691505b6020821081036102815761028061022a565b5b50919050565b5f819050815f5260205f209050919050565b5f6020601f8301049050919050565b5f82821b905092915050565b5f600883026102e37fffffffffffffffffffffffffffffffffffffffffffffffffffffffffffffffff826102a8565b6102ed86836102a8565b95508019841693508086168417925050509392505050565b5f819050919050565b5f819050919050565b5f61033161032c61032784610305565b61030e565b610305565b9050919050565b5f819050919050565b61034a83610317565b61035e61035682610338565b8484546102b4565b825550505050565b5f5f905090565b610375610366565b610380818484610341565b505050565b5f5b828110156103a65761039b5f82840161036d565b600181019050610387565b505050565b601f8211156103f957828211156103f8576103c581610287565b6103ce83610299565b6103d785610299565b60208610156103e4575f90505b8083016103f382840382610385565b505050505b5b505050565b5f82821c905092915050565b5f6104195f19846008026103fe565b1980831691505092915050565b5f610431838361040a565b9150826002028217905092915050565b61044a826101f3565b67ffffffffffffffff811115610463576104626101fd565b5b61046d8254610257565b6104788282856103ab565b5f60209050601f8311600181146104a9575f8415610497578287015190505b6104a18582610426565b865550610508565b601f1984166104b786610287565b5f5b828110156104de578489015182556001820191506020850194506020810190506104b9565b868310156104fb57848901516104f7601f89168261040a565b8355505b6001600288020188555050505b505050505050565b6127d38061051d5f395ff3fe608060405234801561000f575f5ffd5b5060043610610109575f3560e01c8063443cb4bc116100a05780639c8f9f231161006f5780639c8f9f23146102d05780639cd441da14610301578063a9059cbb14610331578063d21220a714610361578063dd62ed3e1461037f57610109565b8063443cb4bc146102465780635a76f25e1461026457806370a082311461028257806395d89b41146102b257610109565b806318160ddd116100dc57806318160ddd146101a957806323b872dd146101c7578063313ce567146101f7578063432643491461021557610109565b8063054d50d41461010d57806306fdde031461013d578063095ea7b31461015b5780630dfe16811461018b575b5f5ffd5b61012760048036038101906101229190611dcc565b6103af565b6040516101349190611e2b565b60405180910390f35b61014561046a565b6040516101529190611eb4565b60405180910390f35b61017560048036038101906101709190611f2e565b6104fa565b6040516101829190611f86565b60405180910390f35b61019361051c565b6040516101a09190611ffa565b60405180910390f35b6101b1610541565b6040516101be9190611e2b565b60405180910390f35b6101e160048036038101906101dc9190612013565b61054a565b6040516101ee9190611f86565b60405180910390f35b6101ff610578565b60405161020c919061207e565b60405180910390f35b61022f600480360381019061022a91906120d2565b610580565b60405161023d929190612122565b60405180910390f35b61024e610cb2565b60405161025b9190611e2b565b60405180910390f35b61026c610cb8565b6040516102799190611e2b565b60405180910390f35b61029c60048036038101906102979190612149565b610cbe565b6040516102a99190611e2b565b60405180910390f35b6102ba610d03565b6040516102c79190611eb4565b60405180910390f35b6102ea60048036038101906102e59190612174565b610d93565b6040516102f892919061219f565b60405180910390f35b61031b600480360381019061031691906121c6565b611231565b6040516103289190611e2b565b60405180910390f35b61034b60048036038101906103469190611f2e565b6115bb565b6040516103589190611f86565b60405180910390f35b6103696115dd565b6040516103769190611ffa565b60405180910390f35b61039960048036038101906103949190612204565b611602565b6040516103a69190611e2b565b60405180910390f35b5f5f84116103f2576040517f08c379a00000000000000000000000000000000000000000000000000000000081526004016103e99061228c565b60405180910390fd5b5f8311801561040057505f82115b61043f576040517f08c379a0000000000000000000000000000000000000000000000000000000008152600401610436906122f4565b60405180910390fd5b838361044b919061233f565b82856104579190612372565b61046191906123e0565b90509392505050565b6060600380546104799061243d565b80601f01602080910402602001604051908101604052809291908181526020018280546104a59061243d565b80156104f05780601f106104c7576101008083540402835291602001916104f0565b820191905f5260205f20905b8154815290600101906020018083116104d357829003601f168201915b5050505050905090565b5f5f610504611684565b905061051181858561168b565b600191505092915050565b60055f9054906101000a900473ffffffffffffffffffffffffffffffffffffffff1681565b5f600254905090565b5f5f610554611684565b905061056185828561169d565b61056c858585611730565b60019150509392505050565b5f6012905090565b5f5f5f85116105c4576040517f08c379a00000000000000000000000000000000000000000000000000000000081526004016105bb906124b7565b60405180910390fd5b60055f9054906101000a900473ffffffffffffffffffffffffffffffffffffffff1673ffffffffffffffffffffffffffffffffffffffff168473ffffffffffffffffffffffffffffffffffffffff16148061066b575060065f9054906101000a900473ffffffffffffffffffffffffffffffffffffffff1673ffffffffffffffffffffffffffffffffffffffff168473ffffffffffffffffffffffffffffffffffffffff16145b6106aa576040517f08c379a00000000000000000000000000000000000000000000000000000000081526004016106a19061251f565b60405180910390fd5b5f60055f9054906101000a900473ffffffffffffffffffffffffffffffffffffffff1673ffffffffffffffffffffffffffffffffffffffff166370a08231306040518263ffffffff1660e01b8152600401610705919061254c565b602060405180830381865afa158015610720573d5f5f3e3d5ffd5b505050506040513d601f19601f820116820180604052508101906107449190612579565b90505f60065f9054906101000a900473ffffffffffffffffffffffffffffffffffffffff1673ffffffffffffffffffffffffffffffffffffffff166370a08231306040518263ffffffff1660e01b81526004016107a1919061254c565b602060405180830381865afa1580156107bc573d5f5f3e3d5ffd5b505050506040513d601f19601f820116820180604052508101906107e09190612579565b905060055f9054906101000a900473ffffffffffffffffffffffffffffffffffffffff1673ffffffffffffffffffffffffffffffffffffffff168673ffffffffffffffffffffffffffffffffffffffff16036109a85760065f9054906101000a900473ffffffffffffffffffffffffffffffffffffffff1692506108658783836103af565b93508484116108a9576040517f08c379a00000000000000000000000000000000000000000000000000000000081526004016108a0906124b7565b60405180910390fd5b8573ffffffffffffffffffffffffffffffffffffffff166323b872dd33308a6040518463ffffffff1660e01b81526004016108e6939291906125a4565b6020604051808303815f875af1158015610902573d5f5f3e3d5ffd5b505050506040513d601f19601f820116820180604052508101906109269190612603565b508273ffffffffffffffffffffffffffffffffffffffff1663a9059cbb33866040518363ffffffff1660e01b815260040161096292919061262e565b6020604051808303815f875af115801561097e573d5f5f3e3d5ffd5b505050506040513d601f19601f820116820180604052508101906109a29190612603565b50610b16565b60055f9054906101000a900473ffffffffffffffffffffffffffffffffffffffff1692506109d78782846103af565b9350848411610a1b576040517f08c379a0000000000000000000000000000000000000000000000000000000008152600401610a12906124b7565b60405180910390fd5b8573ffffffffffffffffffffffffffffffffffffffff166323b872dd33308a6040518463ffffffff1660e01b8152600401610a58939291906125a4565b6020604051808303815f875af1158015610a74573d5f5f3e3d5ffd5b505050506040513d601f19601f82011682018060405250810190610a989190612603565b508273ffffffffffffffffffffffffffffffffffffffff1663a9059cbb33866040518363ffffffff1660e01b8152600401610ad492919061262e565b6020604051808303815f875af1158015610af0573d5f5f3e3d5ffd5b505050506040513d601f19601f82011682018060405250810190610b149190612603565b505b60055f9054906101000a900473ffffffffffffffffffffffffffffffffffffffff1673ffffffffffffffffffffffffffffffffffffffff166370a08231306040518263ffffffff1660e01b8152600401610b70919061254c565b602060405180830381865afa158015610b8b573d5f5f3e3d5ffd5b505050506040513d601f19601f82011682018060405250810190610baf9190612579565b60078190555060065f9054906101000a900473ffffffffffffffffffffffffffffffffffffffff1673ffffffffffffffffffffffffffffffffffffffff166370a08231306040518263ffffffff1660e01b8152600401610c0f919061254c565b602060405180830381865afa158015610c2a573d5f5f3e3d5ffd5b505050506040513d601f19601f82011682018060405250810190610c4e9190612579565b6008819055503373ffffffffffffffffffffffffffffffffffffffff167f24043855bfbfea0ccea141e5a73d7116bf0bfe083ea900a791f4b407ff03e52588888787604051610ca09493929190612655565b60405180910390a25050935093915050565b60075481565b60085481565b5f5f5f8373ffffffffffffffffffffffffffffffffffffffff1673ffffffffffffffffffffffffffffffffffffffff1681526020019081526020015f20549050919050565b606060048054610d129061243d565b80601f0160208091040260200160405190810160405280929190818152602001828054610d3e9061243d565b8015610d895780601f10610d6057610100808354040283529160200191610d89565b820191905f5260205f20905b815481529060010190602001808311610d6c57829003601f168201915b5050505050905090565b5f5f5f60055f9054906101000a900473ffffffffffffffffffffffffffffffffffffffff1673ffffffffffffffffffffffffffffffffffffffff166370a08231306040518263ffffffff1660e01b8152600401610df0919061254c565b602060405180830381865afa158015610e0b573d5f5f3e3d5ffd5b505050506040513d601f19601f82011682018060405250810190610e2f9190612579565b90505f60065f9054906101000a900473ffffffffffffffffffffffffffffffffffffffff1673ffffffffffffffffffffffffffffffffffffffff166370a08231306040518263ffffffff1660e01b8152600401610e8c919061254c565b602060405180830381865afa158015610ea7573d5f5f3e3d5ffd5b505050506040513d601f19601f82011682018060405250810190610ecb9190612579565b90505f610ed6610541565b9050808387610ee59190612372565b610eef91906123e0565b9450808287610efe9190612372565b610f0891906123e0565b93505f85118015610f1857505f84115b610f57576040517f08c379a0000000000000000000000000000000000000000000000000000000008152600401610f4e906126e2565b60405180910390fd5b610f613387611820565b60055f9054906101000a900473ffffffffffffffffffffffffffffffffffffffff1673ffffffffffffffffffffffffffffffffffffffff1663a9059cbb33876040518363ffffffff1660e01b8152600401610fbd92919061262e565b6020604051808303815f875af1158015610fd9573d5f5f3e3d5ffd5b505050506040513d601f19601f82011682018060405250810190610ffd9190612603565b5060065f9054906101000a900473ffffffffffffffffffffffffffffffffffffffff1673ffffffffffffffffffffffffffffffffffffffff1663a9059cbb33866040518363ffffffff1660e01b815260040161105a92919061262e565b6020604051808303815f875af1158015611076573d5f5f3e3d5ffd5b505050506040513d601f19601f8201168201806040525081019061109a9190612603565b5060055f9054906101000a900473ffffffffffffffffffffffffffffffffffffffff1673ffffffffffffffffffffffffffffffffffffffff166370a08231306040518263ffffffff1660e01b81526004016110f5919061254c565b602060405180830381865afa158015611110573d5f5f3e3d5ffd5b505050506040513d601f19601f820116820180604052508101906111349190612579565b60078190555060065f9054906101000a900473ffffffffffffffffffffffffffffffffffffffff1673ffffffffffffffffffffffffffffffffffffffff166370a08231306040518263ffffffff1660e01b8152600401611194919061254c565b602060405180830381865afa1580156111af573d5f5f3e3d5ffd5b505050506040513d601f19601f820116820180604052508101906111d39190612579565b6008819055503373ffffffffffffffffffffffffffffffffffffffff167f49995e5dd6158cf69ad3e9777c46755a1a826a446c6416992167462dad033b2a868660405161122192919061219f565b60405180910390a2505050915091565b5f60055f9054906101000a900473ffffffffffffffffffffffffffffffffffffffff1673ffffffffffffffffffffffffffffffffffffffff166323b872dd3330866040518463ffffffff1660e01b8152600401611290939291906125a4565b6020604051808303815f875af11580156112ac573d5f5f3e3d5ffd5b505050506040513d601f19601f820116820180604052508101906112d09190612603565b5060065f9054906101000a900473ffffffffffffffffffffffffffffffffffffffff1673ffffffffffffffffffffffffffffffffffffffff166323b872dd3330856040518463ffffffff1660e01b815260040161132f939291906125a4565b6020604051808303815f875af115801561134b573d5f5f3e3d5ffd5b505050506040513d601f19601f8201168201806040525081019061136f9190612603565b505f611379610541565b90505f810361139d5761139683856113919190612372565b61189f565b91506113da565b6113d760075482866113af9190612372565b6113b991906123e0565b60085483866113c89190612372565b6113d291906123e0565b611916565b91505b5f821161141c576040517f08c379a00000000000000000000000000000000000000000000000000000000081526004016114139061274a565b60405180910390fd5b60055f9054906101000a900473ffffffffffffffffffffffffffffffffffffffff1673ffffffffffffffffffffffffffffffffffffffff166370a08231306040518263ffffffff1660e01b8152600401611476919061254c565b602060405180830381865afa158015611491573d5f5f3e3d5ffd5b505050506040513d601f19601f820116820180604052508101906114b59190612579565b60078190555060065f9054906101000a900473ffffffffffffffffffffffffffffffffffffffff1673ffffffffffffffffffffffffffffffffffffffff166370a08231306040518263ffffffff1660e01b8152600401611515919061254c565b602060405180830381865afa158015611530573d5f5f3e3d5ffd5b505050506040513d601f19601f820116820180604052508101906115549190612579565b600881905550611564338361192e565b3373ffffffffffffffffffffffffffffffffffffffff167f4c209b5fc8ad50758f13e2e1088ba56a560dff690a1c6fef26394f4c03821c4f85856040516115ac92919061219f565b60405180910390a25092915050565b5f5f6115c5611684565b90506115d2818585611730565b600191505092915050565b60065f9054906101000a900473ffffffffffffffffffffffffffffffffffffffff1681565b5f60015f8473ffffffffffffffffffffffffffffffffffffffff1673ffffffffffffffffffffffffffffffffffffffff1681526020019081526020015f205f8373ffffffffffffffffffffffffffffffffffffffff1673ffffffffffffffffffffffffffffffffffffffff1681526020019081526020015f2054905092915050565b5f33905090565b61169883838360016119ad565b505050565b5f6116a88484611602565b90507fffffffffffffffffffffffffffffffffffffffffffffffffffffffffffffffff81101561172a578181101561171b578281836040517ffb8f41b200000000000000000000000000000000000000000000000000000000815260040161171293929190612768565b60405180910390fd5b61172984848484035f6119ad565b5b50505050565b5f73ffffffffffffffffffffffffffffffffffffffff168373ffffffffffffffffffffffffffffffffffffffff16036117a0575f6040517f96c6fd1e000000000000000000000000000000000000000000000000000000008152600401611797919061254c565b60405180910390fd5b5f73ffffffffffffffffffffffffffffffffffffffff168273ffffffffffffffffffffffffffffffffffffffff1603611810575f6040517fec442f05000000000000000000000000000000000000000000000000000000008152600401611807919061254c565b60405180910390fd5b61181b838383611b7c565b505050565b5f73ffffffffffffffffffffffffffffffffffffffff168273ffffffffffffffffffffffffffffffffffffffff1603611890575f6040517f96c6fd1e000000000000000000000000000000000000000000000000000000008152600401611887919061254c565b60405180910390fd5b61189b825f83611b7c565b5050565b5f6003821115611904578190505f60016002846118bc91906123e0565b6118c6919061233f565b90505b818110156118fe5780915060028182856118e391906123e0565b6118ed919061233f565b6118f791906123e0565b90506118c9565b50611911565b5f821461191057600190505b5b919050565b5f8183106119245781611926565b825b905092915050565b5f73ffffffffffffffffffffffffffffffffffffffff168273ffffffffffffffffffffffffffffffffffffffff160361199e575f6040517fec442f05000000000000000000000000000000000000000000000000000000008152600401611995919061254c565b60405180910390fd5b6119a95f8383611b7c565b5050565b5f73ffffffffffffffffffffffffffffffffffffffff168473ffffffffffffffffffffffffffffffffffffffff1603611a1d575f6040517fe602df05000000000000000000000000000000000000000000000000000000008152600401611a14919061254c565b60405180910390fd5b5f73ffffffffffffffffffffffffffffffffffffffff168373ffffffffffffffffffffffffffffffffffffffff1603611a8d575f6040517f94280d62000000000000000000000000000000000000000000000000000000008152600401611a84919061254c565b60405180910390fd5b8160015f8673ffffffffffffffffffffffffffffffffffffffff1673ffffffffffffffffffffffffffffffffffffffff1681526020019081526020015f205f8573ffffffffffffffffffffffffffffffffffffffff1673ffffffffffffffffffffffffffffffffffffffff1681526020019081526020015f20819055508015611b76578273ffffffffffffffffffffffffffffffffffffffff168473ffffffffffffffffffffffffffffffffffffffff167f8c5be1e5ebec7d5bd14f71427d1e84f3dd0314c0f7b2291e5b200ac8c7c3b92584604051611b6d9190611e2b565b60405180910390a35b50505050565b5f73ffffffffffffffffffffffffffffffffffffffff168373ffffffffffffffffffffffffffffffffffffffff1603611bcc578060025f828254611bc0919061233f565b92505081905550611c9a565b5f5f5f8573ffffffffffffffffffffffffffffffffffffffff1673ffffffffffffffffffffffffffffffffffffffff1681526020019081526020015f2054905081811015611c55578381836040517fe450d38c000000000000000000000000000000000000000000000000000000008152600401611c4c93929190612768565b60405180910390fd5b8181035f5f8673ffffffffffffffffffffffffffffffffffffffff1673ffffffffffffffffffffffffffffffffffffffff1681526020019081526020015f2081905550505b5f73ffffffffffffffffffffffffffffffffffffffff168273ffffffffffffffffffffffffffffffffffffffff1603611ce1578060025f8282540392505081905550611d2b565b805f5f8473ffffffffffffffffffffffffffffffffffffffff1673ffffffffffffffffffffffffffffffffffffffff1681526020019081526020015f205f82825401925050819055505b8173ffffffffffffffffffffffffffffffffffffffff168373ffffffffffffffffffffffffffffffffffffffff167fddf252ad1be2c89b69c2b068fc378daa952ba7f163c4a11628f55a4df523b3ef83604051611d889190611e2b565b60405180910390a3505050565b5f5ffd5b5f819050919050565b611dab81611d99565b8114611db5575f5ffd5b50565b5f81359050611dc681611da2565b92915050565b5f5f5f60608486031215611de357611de2611d95565b5b5f611df086828701611db8565b9350506020611e0186828701611db8565b9250506040611e1286828701611db8565b9150509250925092565b611e2581611d99565b82525050565b5f602082019050611e3e5f830184611e1c565b92915050565b5f81519050919050565b5f82825260208201905092915050565b8281835e5f83830152505050565b5f601f19601f8301169050919050565b5f611e8682611e44565b611e908185611e4e565b9350611ea0818560208601611e5e565b611ea981611e6c565b840191505092915050565b5f6020820190508181035f830152611ecc8184611e7c565b905092915050565b5f73ffffffffffffffffffffffffffffffffffffffff82169050919050565b5f611efd82611ed4565b9050919050565b611f0d81611ef3565b8114611f17575f5ffd5b50565b5f81359050611f2881611f04565b92915050565b5f5f60408385031215611f4457611f43611d95565b5b5f611f5185828601611f1a565b9250506020611f6285828601611db8565b9150509250929050565b5f8115159050919050565b611f8081611f6c565b82525050565b5f602082019050611f995f830184611f77565b92915050565b5f819050919050565b5f611fc2611fbd611fb884611ed4565b611f9f565b611ed4565b9050919050565b5f611fd382611fa8565b9050919050565b5f611fe482611fc9565b9050919050565b611ff481611fda565b82525050565b5f60208201905061200d5f830184611feb565b92915050565b5f5f5f6060848603121561202a57612029611d95565b5b5f61203786828701611f1a565b935050602061204886828701611f1a565b925050604061205986828701611db8565b9150509250925092565b5f60ff82169050919050565b61207881612063565b82525050565b5f6020820190506120915f83018461206f565b92915050565b5f6120a182611ef3565b9050919050565b6120b181612097565b81146120bb575f5ffd5b50565b5f813590506120cc816120a8565b92915050565b5f5f5f606084860312156120e9576120e8611d95565b5b5f6120f686828701611db8565b9350506020612107868287016120be565b925050604061211886828701611db8565b9150509250925092565b5f6040820190506121355f830185611e1c565b6121426020830184611feb565b9392505050565b5f6020828403121561215e5761215d611d95565b5b5f61216b84828501611f1a565b91505092915050565b5f6020828403121561218957612188611d95565b5b5f61219684828501611db8565b91505092915050565b5f6040820190506121b25f830185611e1c565b6121bf6020830184611e1c565b9392505050565b5f5f604083850312156121dc576121db611d95565b5b5f6121e985828601611db8565b92505060206121fa85828601611db8565b9150509250929050565b5f5f6040838503121561221a57612219611d95565b5b5f61222785828601611f1a565b925050602061223885828601611f1a565b9150509250929050565b7f494e53554646494349454e545f414d4f554e54000000000000000000000000005f82015250565b5f612276601383611e4e565b915061228182612242565b602082019050919050565b5f6020820190508181035f8301526122a38161226a565b9050919050565b7f494e53554646494349454e545f4c4951554944495459000000000000000000005f82015250565b5f6122de601683611e4e565b91506122e9826122aa565b602082019050919050565b5f6020820190508181035f83015261230b816122d2565b9050919050565b7f4e487b71000000000000000000000000000000000000000000000000000000005f52601160045260245ffd5b5f61234982611d99565b915061235483611d99565b925082820190508082111561236c5761236b612312565b5b92915050565b5f61237c82611d99565b915061238783611d99565b925082820261239581611d99565b915082820484148315176123ac576123ab612312565b5b5092915050565b7f4e487b71000000000000000000000000000000000000000000000000000000005f52601260045260245ffd5b5f6123ea82611d99565b91506123f583611d99565b925082612405576124046123b3565b5b828204905092915050565b7f4e487b71000000000000000000000000000000000000000000000000000000005f52602260045260245ffd5b5f600282049050600182168061245457607f821691505b60208210810361246757612466612410565b5b50919050565b7f494e53554646494349454e545f4f55545055545f414d4f554e540000000000005f82015250565b5f6124a1601a83611e4e565b91506124ac8261246d565b602082019050919050565b5f6020820190508181035f8301526124ce81612495565b9050919050565b7f494e56414c49445f544f4b454e000000000000000000000000000000000000005f82015250565b5f612509600d83611e4e565b9150612514826124d5565b602082019050919050565b5f6020820190508181035f830152612536816124fd565b9050919050565b61254681611ef3565b82525050565b5f60208201905061255f5f83018461253d565b92915050565b5f8151905061257381611da2565b92915050565b5f6020828403121561258e5761258d611d95565b5b5f61259b84828501612565565b91505092915050565b5f6060820190506125b75f83018661253d565b6125c4602083018561253d565b6125d16040830184611e1c565b949350505050565b6125e281611f6c565b81146125ec575f5ffd5b50565b5f815190506125fd816125d9565b92915050565b5f6020828403121561261857612617611d95565b5b5f612625848285016125ef565b91505092915050565b5f6040820190506126415f83018561253d565b61264e6020830184611e1c565b9392505050565b5f6080820190506126685f830187611e1c565b612675602083018661253d565b6126826040830185611e1c565b61268f606083018461253d565b95945050505050565b7f494e53554646494349454e545f4c49515549444954595f4255524e45440000005f82015250565b5f6126cc601d83611e4e565b91506126d782612698565b602082019050919050565b5f6020820190508181035f8301526126f9816126c0565b9050919050565b7f494e53554646494349454e545f4c49515549444954595f4d494e5445440000005f82015250565b5f612734601d83611e4e565b915061273f82612700565b602082019050919050565b5f6020820190508181035f83015261276181612728565b9050919050565b5f60608201905061277b5f83018661253d565b6127886020830185611e1c565b6127956040830184611e1c565b94935050505056fea264697066735822122081eda57c90f9cf795bda1837e0408f2b3fce3417080131dc7829e2640e00074264736f6c63430008220033","linkReferences":{}},"methodIdentifiers":{"addLiquidity(uint256,uint256)":"9cd441da","allowance(address,address)":"dd62ed3e","approve(address,uint256)":"095ea7b3","balanceOf(address)":"70a08231","decimals()":"313ce567","getAmountOut(uint256,uint256,uint256)":"054d50d4","name()":"06fdde03","removeLiquidity(uint256)":"9c8f9f23","reserve0()":"443cb4bc","reserve1()":"5a76f25e","swap(uint256,address,uint256)":"43264349","symbol()":"95d89b41","token0()":"0dfe1681","token1()":"d21220a7","totalSupply()":"18160ddd","transfer(address,uint256)":"a9059cbb","transferFrom(address,address,uint256)":"23b872dd"},"id":113}