{"abi":[{"type":"function","name":"getSum","inputs":[{"name":"_arr","type":"uint256[]","internalType":"uint256[]"}],"outputs":[{"name":"sum","type":"uint256","internalType":"uint256"}],"stateMutability":"pure"},{"type":"function","name":"multiTransferETH","inputs":[{"name":"_addresses","type":"address[]","internalType":"address payable[]"},{"name":"_amounts","type":"uint256[]","internalType":"uint256[]"}],"outputs":[],"stateMutability":"payable"},{"type":"function","name":"multiTransferToken","inputs":[{"name":"_token","type":"address","internalType":"address"},{"name":"_addresses","type":"address[]","internalType":"address[]"},{"name":"_amounts","type":"uint256[]","internalType":"uint256[]"}],"outputs":[],"stateMutability":"nonpayable"},{"type":"function","name":"withdrawFromFailList","inputs":[{"name":"_to","type":"address","internalType":"address"}],"outputs":[],"stateMutability":"nonpayable"}],"bytecode":{"object":"0x6080604052348015600e575f5ffd5b50610e748061001c5f395ff3fe60806040526004361061003e575f3560e01c806341ed24a21461004257806377988cf81461006a578063acacd8ee14610086578063ccb8c1e0146100ae575b5f5ffd5b34801561004d575f5ffd5b50610068600480360381019061006391906107a1565b6100ea565b005b610084600480360381019061007f9190610887565b6102e1565b005b348015610091575f5ffd5b506100ac60048036038101906100a79190610905565b6104cd565b005b3480156100b9575f5ffd5b506100d460048036038101906100cf9190610930565b61063d565b6040516100e19190610993565b60405180910390f35b818190508484905014610132576040517f08c379a000000000000000000000000000000000000000000000000000000000815260040161012990610a2c565b60405180910390fd5b5f8590505f610141848461063d565b9050808273ffffffffffffffffffffffffffffffffffffffff1663dd62ed3e33306040518363ffffffff1660e01b815260040161017f929190610a59565b602060405180830381865afa15801561019a573d5f5f3e3d5ffd5b505050506040513d601f19601f820116820180604052508101906101be9190610aaa565b10156101ff576040517f08c379a00000000000000000000000000000000000000000000000000000000081526004016101f690610b1f565b60405180910390fd5b5f5b868690508110156102d7578273ffffffffffffffffffffffffffffffffffffffff166323b872dd3389898581811061023c5761023b610b3d565b5b90506020020160208101906102519190610905565b88888681811061026457610263610b3d565b5b905060200201356040518463ffffffff1660e01b815260040161028993929190610b6a565b6020604051808303815f875af11580156102a5573d5f5f3e3d5ffd5b505050506040513d601f19601f820116820180604052508101906102c99190610bd4565b508080600101915050610201565b5050505050505050565b818190508484905014610329576040517f08c379a000000000000000000000000000000000000000000000000000000000815260040161032090610a2c565b60405180910390fd5b5f610334838361063d565b9050803414610378576040517f08c379a000000000000000000000000000000000000000000000000000000000815260040161036f90610c49565b60405180910390fd5b5f5f90505b858590508110156104c5575f86868381811061039c5761039b610b3d565b5b90506020020160208101906103b19190610ca2565b73ffffffffffffffffffffffffffffffffffffffff168585848181106103da576103d9610b3d565b5b905060200201356040516103ed90610cfa565b5f6040518083038185875af1925050503d805f8114610427576040519150601f19603f3d011682016040523d82523d5f602084013e61042c565b606091505b50509050806104b75784848381811061044857610447610b3d565b5b905060200201355f5f89898681811061046457610463610b3d565b5b90506020020160208101906104799190610ca2565b73ffffffffffffffffffffffffffffffffffffffff1673ffffffffffffffffffffffffffffffffffffffff1681526020019081526020015f20819055505b50808060010191505061037d565b505050505050565b5f5f5f3373ffffffffffffffffffffffffffffffffffffffff1673ffffffffffffffffffffffffffffffffffffffff1681526020019081526020015f205490505f811161054f576040517f08c379a000000000000000000000000000000000000000000000000000000000815260040161054690610d58565b60405180910390fd5b5f5f5f3373ffffffffffffffffffffffffffffffffffffffff1673ffffffffffffffffffffffffffffffffffffffff1681526020019081526020015f20819055505f8273ffffffffffffffffffffffffffffffffffffffff16826040516105b590610cfa565b5f6040518083038185875af1925050503d805f81146105ef576040519150601f19603f3d011682016040523d82523d5f602084013e6105f4565b606091505b5050905080610638576040517f08c379a000000000000000000000000000000000000000000000000000000000815260040161062f90610dc0565b60405180910390fd5b505050565b5f5f5f90505b838390508110156106825783838281811061066157610660610b3d565b5b90506020020135826106739190610e0b565b91508080600101915050610643565b5092915050565b5f5ffd5b5f5ffd5b5f73ffffffffffffffffffffffffffffffffffffffff82169050919050565b5f6106ba82610691565b9050919050565b6106ca816106b0565b81146106d4575f5ffd5b50565b5f813590506106e5816106c1565b92915050565b5f5ffd5b5f5ffd5b5f5ffd5b5f5f83601f84011261070c5761070b6106eb565b5b8235905067ffffffffffffffff811115610729576107286106ef565b5b602083019150836020820283011115610745576107446106f3565b5b9250929050565b5f5f83601f840112610761576107606106eb565b5b8235905067ffffffffffffffff81111561077e5761077d6106ef565b5b60208301915083602082028301111561079a576107996106f3565b5b9250929050565b5f5f5f5f5f606086880312156107ba576107b9610689565b5b5f6107c7888289016106d7565b955050602086013567ffffffffffffffff8111156107e8576107e761068d565b5b6107f4888289016106f7565b9450945050604086013567ffffffffffffffff8111156108175761081661068d565b5b6108238882890161074c565b92509250509295509295909350565b5f5f83601f840112610847576108466106eb565b5b8235905067ffffffffffffffff811115610864576108636106ef565b5b6020830191508360208202830111156108805761087f6106f3565b5b9250929050565b5f5f5f5f6040858703121561089f5761089e610689565b5b5f85013567ffffffffffffffff8111156108bc576108bb61068d565b5b6108c887828801610832565b9450945050602085013567ffffffffffffffff8111156108eb576108ea61068d565b5b6108f78782880161074c565b925092505092959194509250565b5f6020828403121561091a57610919610689565b5b5f610927848285016106d7565b91505092915050565b5f5f6020838503121561094657610945610689565b5b5f83013567ffffffffffffffff8111156109635761096261068d565b5b61096f8582860161074c565b92509250509250929050565b5f819050919050565b61098d8161097b565b82525050565b5f6020820190506109a65f830184610984565b92915050565b5f82825260208201905092915050565b7f4c656e67746873206f662041646472657373657320616e6420416d6f756e74735f8201527f204e4f5420455155414c00000000000000000000000000000000000000000000602082015250565b5f610a16602a836109ac565b9150610a21826109bc565b604082019050919050565b5f6020820190508181035f830152610a4381610a0a565b9050919050565b610a53816106b0565b82525050565b5f604082019050610a6c5f830185610a4a565b610a796020830184610a4a565b9392505050565b610a898161097b565b8114610a93575f5ffd5b50565b5f81519050610aa481610a80565b92915050565b5f60208284031215610abf57610abe610689565b5b5f610acc84828501610a96565b91505092915050565b7f4e65656420417070726f766520455243323020746f6b656e00000000000000005f82015250565b5f610b096018836109ac565b9150610b1482610ad5565b602082019050919050565b5f6020820190508181035f830152610b3681610afd565b9050919050565b7f4e487b71000000000000000000000000000000000000000000000000000000005f52603260045260245ffd5b5f606082019050610b7d5f830186610a4a565b610b8a6020830185610a4a565b610b976040830184610984565b949350505050565b5f8115159050919050565b610bb381610b9f565b8114610bbd575f5ffd5b50565b5f81519050610bce81610baa565b92915050565b5f60208284031215610be957610be8610689565b5b5f610bf684828501610bc0565b91505092915050565b7f5472616e7366657220616d6f756e74206572726f7200000000000000000000005f82015250565b5f610c336015836109ac565b9150610c3e82610bff565b602082019050919050565b5f6020820190508181035f830152610c6081610c27565b9050919050565b5f610c7182610691565b9050919050565b610c8181610c67565b8114610c8b575f5ffd5b50565b5f81359050610c9c81610c78565b92915050565b5f60208284031215610cb757610cb6610689565b5b5f610cc484828501610c8e565b91505092915050565b5f81905092915050565b50565b5f610ce55f83610ccd565b9150610cf082610cd7565b5f82019050919050565b5f610d0482610cda565b9150819050919050565b7f596f7520617265206e6f7420696e206661696c6564206c6973740000000000005f82015250565b5f610d42601a836109ac565b9150610d4d82610d0e565b602082019050919050565b5f6020820190508181035f830152610d6f81610d36565b9050919050565b7f4661696c207769746864726177000000000000000000000000000000000000005f82015250565b5f610daa600d836109ac565b9150610db582610d76565b602082019050919050565b5f6020820190508181035f830152610dd781610d9e565b9050919050565b7f4e487b71000000000000000000000000000000000000000000000000000000005f52601160045260245ffd5b5f610e158261097b565b9150610e208361097b565b9250828201905080821115610e3857610e37610dde565b5b9291505056fea26469706673582212207d2a44d36b8dea060f7f3153f870510f2afa5990093e8f1b2f20f318e4c12a7a64736f6c63430008220033","linkReferences":{}},"methodIdentifiers":{"getSum(uint256[])":"ccb8c1e0","multiTransferETH(address[],uint256[])":"77988cf8","multiTransferToken(address,address[],uint256[])":"41ed24a2","withdrawFromFailList(address)":"acacd8ee"},"id":76}