{"abi":[{"type":"function","name":"_address","inputs":[],"outputs":[{"name":"","type":"address","internalType":"address"}],"stateMutability":"view"},{"type":"function","name":"_address1","inputs":[],"outputs":[{"name":"","type":"address","internalType":"address payable"}],"stateMutability":"view"},{"type":"function","name":"_bool","inputs":[],"outputs":[{"name":"","type":"bool","internalType":"bool"}],"stateMutability":"view"},{"type":"function","name":"_bool1","inputs":[],"outputs":[{"name":"","type":"bool","internalType":"bool"}],"stateMutability":"view"},{"type":"function","name":"_bool2","inputs":[],"outputs":[{"name":"","type":"bool","internalType":"bool"}],"stateMutability":"view"},{"type":"function","name":"_bool3","inputs":[],"outputs":[{"name":"","type":"bool","internalType":"bool"}],"stateMutability":"view"},{"type":"function","name":"_bool4","inputs":[],"outputs":[{"name":"","type":"bool","internalType":"bool"}],"stateMutability":"view"},{"type":"function","name":"_bool5","inputs":[],"outputs":[{"name":"","type":"bool","internalType":"bool"}],"stateMutability":"view"},{"type":"function","name":"_byte","inputs":[],"outputs":[{"name":"","type":"bytes1","internalType":"bytes1"}],"stateMutability":"view"},{"type":"function","name":"_byte32","inputs":[],"outputs":[{"name":"","type":"bytes32","internalType":"bytes32"}],"stateMutability":"view"},{"type":"function","name":"_int","inputs":[],"outputs":[{"name":"","type":"int256","internalType":"int256"}],"stateMutability":"view"},{"type":"function","name":"_number","inputs":[],"outputs":[{"name":"","type":"uint256","internalType":"uint256"}],"stateMutability":"view"},{"type":"function","name":"_number1","inputs":[],"outputs":[{"name":"","type":"uint256","internalType":"uint256"}],"stateMutability":"view"},{"type":"function","name":"_number2","inputs":[],"outputs":[{"name":"","type":"uint256","internalType":"uint256"}],"stateMutability":"view"},{"type":"function","name":"_number3","inputs":[],"outputs":[{"name":"","type":"uint256","internalType":"uint256"}],"stateMutability":"view"},{"type":"function","name":"_numberbool","inputs":[],"outputs":[{"name":"","type":"bool","internalType":"bool"}],"stateMutability":"view"},{"type":"function","name":"_uint","inputs":[],"outputs":[{"name":"","type":"uint256","internalType":"uint256"}],"stateMutability":"view"},{"type":"function","name":"balance","inputs":[],"outputs":[{"name":"","type":"uint256","internalType":"uint256"}],"stateMutability":"view"},{"type":"function","name":"enumToUint","inputs":[],"outputs":[{"name":"","type":"uint256","internalType":"uint256"}],"stateMutability":"view"}],"bytecode":{"object":"0x608060405260015f5f6101000a81548160ff0219169083151502179055505f5f9054906101000a900460ff16155f60016101000a81548160ff0219169083151502179055505f5f9054906101000a900460ff16801561006957505f60019054906101000a900460ff165b5f60026101000a81548160ff0219169083151502179055505f5f9054906101000a900460ff16806100a557505f60019054906101000a900460ff165b5f60036101000a81548160ff0219169083151502179055505f60019054906101000a900460ff1615155f5f9054906101000a900460ff161515145f60046101000a81548160ff0219169083151502179055505f60019054906101000a900460ff1615155f5f9054906101000a900460ff16151514155f60056101000a81548160ff0219169083151502179055507fffffffffffffffffffffffffffffffffffffffffffffffffffffffffffffffff600155600160025563013489aa60035560016003546101729190610358565b600455600460055560016006556006546005541160075f6101000a81548160ff021916908315150217905550737a58c0be72be218b41c608b7fe7c5bb630736c71600760016101000a81548173ffffffffffffffffffffffffffffffffffffffff021916908373ffffffffffffffffffffffffffffffffffffffff160217905550600760019054906101000a900473ffffffffffffffffffffffffffffffffffffffff1660085f6101000a81548173ffffffffffffffffffffffffffffffffffffffff021916908373ffffffffffffffffffffffffffffffffffffffff16021790555060085f9054906101000a900473ffffffffffffffffffffffffffffffffffffffff1673ffffffffffffffffffffffffffffffffffffffff16316009557f4d696e69536f6c69646974790000000000000000000000000000000000000000600a55600a545f602081106102ca576102c961038b565b5b1a60f81b600b5f6101000a81548160ff021916908360f81c02179055505f600b60016101000a81548160ff0219169083600281111561030c5761030b6103b8565b5b021790555034801561031c575f5ffd5b506103e5565b5f819050919050565b7f4e487b71000000000000000000000000000000000000000000000000000000005f52601160045260245ffd5b5f61036282610322565b915061036d83610322565b92508282019050808211156103855761038461032b565b5b92915050565b7f4e487b71000000000000000000000000000000000000000000000000000000005f52603260045260245ffd5b7f4e487b71000000000000000000000000000000000000000000000000000000005f52602160045260245ffd5b61069c806103f25f395ff3fe608060405234801561000f575f5ffd5b506004361061011f575f3560e01c8063924b3d21116100ab578063aeb6f2921161006f578063aeb6f292146102c7578063af45869e146102e5578063b69ef8a814610303578063e37c6c8214610321578063f9bd55cc1461033f5761011f565b8063924b3d21146102315780639e6ba9c21461024f578063a2e7fe8a1461026d578063aa9949261461028b578063ac729403146102a95761011f565b80632543135b116100f25780632543135b1461019b5780632b36a762146101b95780633f346102146101d75780636b1d2c4e146101f55780636e8d0c9e146102135761011f565b8063010199581461012357806318bad2171461014157806319bff7df1461015f5780631db19d8c1461017d575b5f5ffd5b61012b61035d565b60405161013891906104a7565b60405180910390f35b610149610385565b60405161015691906104ff565b60405180910390f35b6101676103ab565b60405161017491906104a7565b60405180910390f35b6101856103b1565b6040516101929190610532565b60405180910390f35b6101a36103c3565b6040516101b091906104a7565b60405180910390f35b6101c16103c9565b6040516101ce9190610532565b60405180910390f35b6101df6103db565b6040516101ec9190610563565b60405180910390f35b6101fd6103e1565b60405161020a91906104a7565b60405180910390f35b61021b6103e7565b60405161022891906104a7565b60405180910390f35b6102396103ed565b6040516102469190610532565b60405180910390f35b6102576103ff565b6040516102649190610532565b60405180910390f35b610275610410565b6040516102829190610532565b60405180910390f35b610293610422565b6040516102a09190610532565b60405180910390f35b6102b1610434565b6040516102be919061059c565b60405180910390f35b6102cf610459565b6040516102dc91906105ef565b60405180910390f35b6102ed61046b565b6040516102fa9190610620565b60405180910390f35b61030b610471565b60405161031891906104a7565b60405180910390f35b610329610477565b6040516103369190610532565b60405180910390f35b610347610489565b60405161035491906104a7565b60405180910390f35b5f600b60019054906101000a900460ff1660028111156103805761037f610639565b5b905090565b600760019054906101000a900473ffffffffffffffffffffffffffffffffffffffff1681565b60065481565b5f60059054906101000a900460ff1681565b60025481565b5f60049054906101000a900460ff1681565b600a5481565b60055481565b60045481565b5f60019054906101000a900460ff1681565b5f5f9054906101000a900460ff1681565b5f60029054906101000a900460ff1681565b5f60039054906101000a900460ff1681565b60085f9054906101000a900473ffffffffffffffffffffffffffffffffffffffff1681565b600b5f9054906101000a900460f81b81565b60015481565b60095481565b60075f9054906101000a900460ff1681565b60035481565b5f819050919050565b6104a18161048f565b82525050565b5f6020820190506104ba5f830184610498565b92915050565b5f73ffffffffffffffffffffffffffffffffffffffff82169050919050565b5f6104e9826104c0565b9050919050565b6104f9816104df565b82525050565b5f6020820190506105125f8301846104f0565b92915050565b5f8115159050919050565b61052c81610518565b82525050565b5f6020820190506105455f830184610523565b92915050565b5f819050919050565b61055d8161054b565b82525050565b5f6020820190506105765f830184610554565b92915050565b5f610586826104c0565b9050919050565b6105968161057c565b82525050565b5f6020820190506105af5f83018461058d565b92915050565b5f7fff0000000000000000000000000000000000000000000000000000000000000082169050919050565b6105e9816105b5565b82525050565b5f6020820190506106025f8301846105e0565b92915050565b5f819050919050565b61061a81610608565b82525050565b5f6020820190506106335f830184610611565b92915050565b7f4e487b71000000000000000000000000000000000000000000000000000000005f52602160045260245ffdfea26469706673582212207702055ce109a7434e3c9043fbedc92d842cd1e66d0f9bab4d16ff36e5f8b20e64736f6c63430008220033","linkReferences":{}},"methodIdentifiers":{"_address()":"18bad217","_address1()":"ac729403","_bool()":"9e6ba9c2","_bool1()":"924b3d21","_bool2()":"a2e7fe8a","_bool3()":"aa994926","_bool4()":"2b36a762","_bool5()":"1db19d8c","_byte()":"aeb6f292","_byte32()":"3f346102","_int()":"af45869e","_number()":"f9bd55cc","_number1()":"6e8d0c9e","_number2()":"6b1d2c4e","_number3()":"19bff7df","_numberbool()":"e37c6c82","_uint()":"2543135b","balance()":"b69ef8a8","enumToUint()":"01019958"},"id":45}