{"abi":[{"type":"function","name":"arrayPush","inputs":[],"outputs":[{"name":"","type":"uint256[]","internalType":"uint256[]"}],"stateMutability":"nonpayable"},{"type":"function","name":"initArray","inputs":[],"outputs":[{"name":"","type":"uint256[]","internalType":"uint256[]"}],"stateMutability":"pure"}],"bytecode":{"object":"0x6080604052600567ffffffffffffffff81111561001f5761001e6100cb565b5b60405190808252806020026020018201604052801561004d5781602001602082028036833780820191505090505b506071908161005c91906102d6565b50600967ffffffffffffffff811115610078576100776100cb565b5b6040519080825280601f01601f1916602001820160405280156100aa5781602001600182028036833780820191505090505b50607290816100b99190610492565b503480156100c5575f5ffd5b50610561565b7f4e487b71000000000000000000000000000000000000000000000000000000005f52604160045260245ffd5b5f81549050919050565b5f819050919050565b5f8190506001806001038301049050919050565b5f819050815f5260205f209050919050565b5f82821b905092915050565b5f6008830261016c7fffffffffffffffffffffffffffffffffffffffffffffffffffffffffffffffff82610131565b6101768683610131565b95508019841693508086168417925050509392505050565b5f819050919050565b5f6101b16101ac6101a784610102565b61018e565b610102565b9050919050565b5f819050919050565b6101ca83610197565b6101de6101d6826101b8565b84845461013d565b825550505050565b5f5f905090565b6101f56101e6565b6102008184846101c1565b505050565b5f5b828110156102265761021b5f8284016101ed565b600181019050610207565b505050565b5f82821c905092915050565b8183101561026e576102488261010b565b6102518461010b565b61025a8361011f565b81810161026983850382610205565b505050505b505050565b6801000000000000000082111561028d5761028c6100cb565b5b610296816100f8565b8282556102a4838284610237565b505050565b5f81519050919050565b5f6102be8251610102565b80915050919050565b5f819050602082019050919050565b6102df826102a9565b67ffffffffffffffff8111156102f8576102f76100cb565b5b6103028183610273565b61030b836102c7565b6103148361011f565b600183045f5b81811015610351575f61032c856102b3565b610335816101b8565b809250602087019650505080828501555060018101905061031a565b50505050505050565b5f81519050919050565b7f4e487b71000000000000000000000000000000000000000000000000000000005f52602260045260245ffd5b5f60028204905060018216806103a857607f821691505b6020821081036103bb576103ba610364565b5b50919050565b5f819050815f5260205f209050919050565b5f6020601f8301049050919050565b5f5b82811015610403576103f85f8284016101ed565b6001810190506103e4565b505050565b601f821115610456578282111561045557610422816103c1565b61042b836103d3565b610434856103d3565b6020861015610441575f90505b808301610450828403826103e2565b505050505b5b505050565b5f61046a5f198460080261022b565b1980831691505092915050565b5f610482838361045b565b9150826002028217905092915050565b61049b8261035a565b67ffffffffffffffff8111156104b4576104b36100cb565b5b6104be8254610391565b6104c9828285610408565b5f60209050601f8311600181146104fa575f84156104e8578287015190505b6104f28582610477565b865550610559565b601f198416610508866103c1565b5f5b8281101561052f5784890151825560018201915060208501945060208101905061050a565b8683101561054c5784890151610548601f89168261045b565b8355505b6001600288020188555050505b505050505050565b61058e8061056e5f395ff3fe608060405234801561000f575f5ffd5b5060043610610034575f3560e01c806347f6ac111461003857806382a8181b14610056575b5f5ffd5b610040610074565b60405161004d9190610297565b60405180910390f35b61005e61011c565b60405161006b9190610297565b60405180910390f35b60605f6040518060400160405280600181526020016002815250905080606d908161009f91906104a7565b50606d6003908060018154018082558091505060019003905f5260205f20015f9091909190915055606d80548060200260200160405190810160405280929190818152602001828054801561011157602002820191905f5260205f20905b8154815260200190600101908083116100fd575b505050505091505090565b60605f600367ffffffffffffffff81111561013a576101396102b7565b5b6040519080825280602002602001820160405280156101685781602001602082028036833780820191505090505b5090506001815f815181106101805761017f61052b565b5b6020026020010181815250506003816001815181106101a2576101a161052b565b5b6020026020010181815250506004816002815181106101c4576101c361052b565b5b6020026020010181815250508091505090565b5f81519050919050565b5f82825260208201905092915050565b5f819050602082019050919050565b5f819050919050565b61021281610200565b82525050565b5f6102238383610209565b60208301905092915050565b5f602082019050919050565b5f610245826101d7565b61024f81856101e1565b935061025a836101f1565b805f5b8381101561028a5781516102718882610218565b975061027c8361022f565b92505060018101905061025d565b5085935050505092915050565b5f6020820190508181035f8301526102af818461023b565b905092915050565b7f4e487b71000000000000000000000000000000000000000000000000000000005f52604160045260245ffd5b5f81549050919050565b5f8190506001806001038301049050919050565b5f819050815f5260205f209050919050565b5f82821b905092915050565b5f6008830261034f7fffffffffffffffffffffffffffffffffffffffffffffffffffffffffffffffff82610314565b6103598683610314565b95508019841693508086168417925050509392505050565b5f819050919050565b5f61039461038f61038a84610200565b610371565b610200565b9050919050565b5f819050919050565b6103ad8361037a565b6103c16103b98261039b565b848454610320565b825550505050565b5f5f905090565b6103d86103c9565b6103e38184846103a4565b505050565b5f5b82811015610409576103fe5f8284016103d0565b6001810190506103ea565b505050565b818310156104455761041f826102ee565b610428846102ee565b61043183610302565b818101610440838503826103e8565b505050505b505050565b68010000000000000000821115610464576104636102b7565b5b61046d816102e4565b82825561047b83828461040e565b505050565b5f60029050919050565b5f6104958251610200565b80915050919050565b5f819050919050565b6104b082610480565b67ffffffffffffffff8111156104c9576104c86102b7565b5b6104d3818361044a565b6104dc8361049e565b6104e583610302565b600183045f5b81811015610522575f6104fd8561048a565b6105068161039b565b80925060208701965050508082850155506001810190506104eb565b50505050505050565b7f4e487b71000000000000000000000000000000000000000000000000000000005f52603260045260245ffdfea2646970667358221220e3dd00f606543d681ee2098efc7bae718eb2703d1f02ce2eb5e817879b47c02e64736f6c63430008220033","linkReferences":{}},"methodIdentifiers":{"arrayPush()":"47f6ac11","initArray()":"82a8181b"},"id":49}