{"abi":[{"type":"function","name":"enumToUint","inputs":[],"outputs":[{"name":"","type":"uint256","internalType":"uint256"}],"stateMutability":"view"}],"bytecode":{"object":"0x60806040525f5f5f6101000a81548160ff0219169083600281111560245760236038565b5b02179055503480156033575f5ffd5b506065565b7f4e487b71000000000000000000000000000000000000000000000000000000005f52602160045260245ffd5b60f7806100715f395ff3fe6080604052348015600e575f5ffd5b50600436106026575f3560e01c80630101995814602a575b5f5ffd5b60306044565b604051603b9190607d565b60405180910390f35b5f5f5f9054906101000a900460ff16600281111560625760616094565b5b905090565b5f819050919050565b6077816067565b82525050565b5f602082019050608e5f8301846070565b92915050565b7f4e487b71000000000000000000000000000000000000000000000000000000005f52602160045260245ffdfea2646970667358221220b40f79ada1fe0118e262086237ad3a55c9747c37ed38ce304b4a71067716c65c64736f6c63430008220033","linkReferences":{}},"methodIdentifiers":{"enumToUint()":"01019958"},"id":49}