{"abi":[{"type":"constructor","inputs":[{"name":"_bank","type":"address","internalType":"contract Bank"}],"stateMutability":"nonpayable"},{"type":"function","name":"attack","inputs":[],"outputs":[],"stateMutability":"nonpayable"},{"type":"function","name":"hacker","inputs":[],"outputs":[{"name":"","type":"address","internalType":"address payable"}],"stateMutability":"view"}],"bytecode":{"object":"0x608060405234801561000f575f5ffd5b5060405161039138038061039183398181016040528101906100319190610125565b8060015f6101000a81548173ffffffffffffffffffffffffffffffffffffffff021916908373ffffffffffffffffffffffffffffffffffffffff160217905550335f5f6101000a81548173ffffffffffffffffffffffffffffffffffffffff021916908373ffffffffffffffffffffffffffffffffffffffff16021790555050610150565b5f5ffd5b5f73ffffffffffffffffffffffffffffffffffffffff82169050919050565b5f6100e3826100ba565b9050919050565b5f6100f4826100d9565b9050919050565b610104816100ea565b811461010e575f5ffd5b50565b5f8151905061011f816100fb565b92915050565b5f6020828403121561013a576101396100b6565b5b5f61014784828501610111565b91505092915050565b6102348061015d5f395ff3fe608060405234801561000f575f5ffd5b5060043610610034575f3560e01c806338d1af2d146100385780639e5faafc14610056575b5f5ffd5b610040610060565b60405161004d91906101a6565b60405180910390f35b61005e610084565b005b5f5f9054906101000a900473ffffffffffffffffffffffffffffffffffffffff1681565b60015f9054906101000a900473ffffffffffffffffffffffffffffffffffffffff1673ffffffffffffffffffffffffffffffffffffffff1663a9059cbb5f5f9054906101000a900473ffffffffffffffffffffffffffffffffffffffff1660015f9054906101000a900473ffffffffffffffffffffffffffffffffffffffff1673ffffffffffffffffffffffffffffffffffffffff16316040518363ffffffff1660e01b81526004016101389291906101d7565b5f604051808303815f87803b15801561014f575f5ffd5b505af1158015610161573d5f5f3e3d5ffd5b50505050565b5f73ffffffffffffffffffffffffffffffffffffffff82169050919050565b5f61019082610167565b9050919050565b6101a081610186565b82525050565b5f6020820190506101b95f830184610197565b92915050565b5f819050919050565b6101d1816101bf565b82525050565b5f6040820190506101ea5f830185610197565b6101f760208301846101c8565b939250505056fea2646970667358221220b283b487a244215b9815b1bf7e12b60d3e0c5c449f49d683c2ee78c469a3c92864736f6c63430008220033","linkReferences":{}},"methodIdentifiers":{"attack()":"9e5faafc","hacker()":"38d1af2d"},"id":132}