{"abi":[{"type":"constructor","inputs":[],"stateMutability":"payable"},{"type":"function","name":"owner","inputs":[],"outputs":[{"name":"","type":"address","internalType":"address"}],"stateMutability":"view"},{"type":"function","name":"transfer","inputs":[{"name":"_to","type":"address","internalType":"address payable"},{"name":"_amount","type":"uint256","internalType":"uint256"}],"outputs":[],"stateMutability":"nonpayable"}],"bytecode":{"object":"0x6080604052335f5f6101000a81548173ffffffffffffffffffffffffffffffffffffffff021916908373ffffffffffffffffffffffffffffffffffffffff160217905550610430806100505f395ff3fe608060405234801561000f575f5ffd5b5060043610610034575f3560e01c80638da5cb5b14610038578063a9059cbb14610056575b5f5ffd5b610040610072565b60405161004d9190610210565b60405180910390f35b610070600480360381019061006b919061029b565b610096565b005b5f5f9054906101000a900473ffffffffffffffffffffffffffffffffffffffff1681565b5f5f9054906101000a900473ffffffffffffffffffffffffffffffffffffffff1673ffffffffffffffffffffffffffffffffffffffff163273ffffffffffffffffffffffffffffffffffffffff1614610124576040517f08c379a000000000000000000000000000000000000000000000000000000000815260040161011b90610333565b60405180910390fd5b5f8273ffffffffffffffffffffffffffffffffffffffff16826040516101499061037e565b5f6040518083038185875af1925050503d805f8114610183576040519150601f19603f3d011682016040523d82523d5f602084013e610188565b606091505b50509050806101cc576040517f08c379a00000000000000000000000000000000000000000000000000000000081526004016101c3906103dc565b60405180910390fd5b505050565b5f73ffffffffffffffffffffffffffffffffffffffff82169050919050565b5f6101fa826101d1565b9050919050565b61020a816101f0565b82525050565b5f6020820190506102235f830184610201565b92915050565b5f5ffd5b5f610237826101d1565b9050919050565b6102478161022d565b8114610251575f5ffd5b50565b5f813590506102628161023e565b92915050565b5f819050919050565b61027a81610268565b8114610284575f5ffd5b50565b5f8135905061029581610271565b92915050565b5f5f604083850312156102b1576102b0610229565b5b5f6102be85828601610254565b92505060206102cf85828601610287565b9150509250929050565b5f82825260208201905092915050565b7f4e6f74206f776e657200000000000000000000000000000000000000000000005f82015250565b5f61031d6009836102d9565b9150610328826102e9565b602082019050919050565b5f6020820190508181035f83015261034a81610311565b9050919050565b5f81905092915050565b50565b5f6103695f83610351565b91506103748261035b565b5f82019050919050565b5f6103888261035e565b9150819050919050565b7f4661696c656420746f2073656e642045746865720000000000000000000000005f82015250565b5f6103c66014836102d9565b91506103d182610392565b602082019050919050565b5f6020820190508181035f8301526103f3816103ba565b905091905056fea26469706673582212208dd77fbd9cb580180385ea2e33cf77add981994462b2839bd366c1ca3a7aacc364736f6c63430008220033","linkReferences":{}},"methodIdentifiers":{"owner()":"8da5cb5b","transfer(address,uint256)":"a9059cbb"},"id":132}