{"abi":[{"type":"fallback","stateMutability":"payable"},{"type":"function","name":"list","inputs":[{"name":"_nftAddr","type":"address","internalType":"address"},{"name":"_tokenId","type":"uint256","internalType":"uint256"},{"name":"_price","type":"uint256","internalType":"uint256"}],"outputs":[],"stateMutability":"nonpayable"},{"type":"function","name":"nftList","inputs":[{"name":"","type":"address","internalType":"address"},{"name":"","type":"uint256","internalType":"uint256"}],"outputs":[{"name":"owner","type":"address","internalType":"address"},{"name":"price","type":"uint256","internalType":"uint256"}],"stateMutability":"view"},{"type":"function","name":"onERC721Received","inputs":[{"name":"operator","type":"address","internalType":"address"},{"name":"from","type":"address","internalType":"address"},{"name":"tokenId","type":"uint256","internalType":"uint256"},{"name":"data","type":"bytes","internalType":"bytes"}],"outputs":[{"name":"","type":"bytes4","internalType":"bytes4"}],"stateMutability":"nonpayable"},{"type":"function","name":"purchase","inputs":[{"name":"_nftAddr","type":"address","internalType":"address"},{"name":"_tokenId","type":"uint256","internalType":"uint256"}],"outputs":[],"stateMutability":"payable"},{"type":"function","name":"revoke","inputs":[{"name":"_nftAddr","type":"address","internalType":"address"},{"name":"_tokenId","type":"uint256","internalType":"uint256"}],"outputs":[],"stateMutability":"nonpayable"},{"type":"function","name":"update","inputs":[{"name":"_nftAddr","type":"address","internalType":"address"},{"name":"_tokenId","type":"uint256","internalType":"uint256"},{"name":"_newPrice","type":"uint256","internalType":"uint256"}],"outputs":[],"stateMutability":"nonpayable"},{"type":"event","name":"List","inputs":[{"name":"seller","type":"address","indexed":true,"internalType":"address"},{"name":"nftAddr","type":"address","indexed":true,"internalType":"address"},{"name":"tokenId","type":"uint256","indexed":true,"internalType":"uint256"},{"name":"price","type":"uint256","indexed":false,"internalType":"uint256"}],"anonymous":false},{"type":"event","name":"Purchase","inputs":[{"name":"buyer","type":"address","indexed":true,"internalType":"address"},{"name":"nftAddr","type":"address","indexed":true,"internalType":"address"},{"name":"tokenId","type":"uint256","indexed":true,"internalType":"uint256"},{"name":"price","type":"uint256","indexed":false,"internalType":"uint256"}],"anonymous":false},{"type":"event","name":"Revoke","inputs":[{"name":"seller","type":"address","indexed":true,"internalType":"address"},{"name":"nftAddr","type":"address","indexed":true,"internalType":"address"},{"name":"tokenId","type":"uint256","indexed":true,"internalType":"uint256"}],"anonymous":false},{"type":"event","name":"Update","inputs":[{"name":"seller","type":"address","indexed":true,"internalType":"address"},{"name":"nftAddr","type":"address","indexed":true,"internalType":"address"},{"name":"tokenId","type":"uint256","indexed":true,"internalType":"uint256"},{"name":"newPrice","type":"uint256","indexed":false,"internalType":"uint256"}],"anonymous":false}],"bytecode":{"object":"0x6080604052348015600e575f5ffd5b5061136e8061001c5f395ff3fe608060405260043610610058575f3560e01c8063150b7a021461005b5780638de9322214610097578063ba5f4fb2146100b3578063d09b6d43146100f0578063dda342bb14610118578063eac449d91461014057610059565b5b005b348015610066575f5ffd5b50610081600480360381019061007c9190610e89565b610168565b60405161008e9190610f47565b60405180910390f35b6100b160048036038101906100ac9190610f60565b61017c565b005b3480156100be575f5ffd5b506100d960048036038101906100d49190610f60565b61055c565b6040516100e7929190610fbc565b60405180910390f35b3480156100fb575f5ffd5b5061011660048036038101906101119190610fe3565b6105a5565b005b348015610123575f5ffd5b5061013e60048036038101906101399190610fe3565b610824565b005b34801561014b575f5ffd5b5061016660048036038101906101619190610f60565b610a87565b005b5f63150b7a0260e01b905095945050505050565b5f5f5f8473ffffffffffffffffffffffffffffffffffffffff1673ffffffffffffffffffffffffffffffffffffffff1681526020019081526020015f205f8381526020019081526020015f2090505f816001015411610210576040517f08c379a00000000000000000000000000000000000000000000000000000000081526004016102079061108d565b60405180910390fd5b8060010154341015610257576040517f08c379a000000000000000000000000000000000000000000000000000000000815260040161024e906110f5565b60405180910390fd5b5f8390503073ffffffffffffffffffffffffffffffffffffffff168173ffffffffffffffffffffffffffffffffffffffff16636352211e856040518263ffffffff1660e01b81526004016102ab9190611113565b602060405180830381865afa1580156102c6573d5f5f3e3d5ffd5b505050506040513d601f19601f820116820180604052508101906102ea9190611140565b73ffffffffffffffffffffffffffffffffffffffff1614610340576040517f08c379a0000000000000000000000000000000000000000000000000000000008152600401610337906111b5565b60405180910390fd5b5f825f015f9054906101000a900473ffffffffffffffffffffffffffffffffffffffff1690505f836001015490505f5f8773ffffffffffffffffffffffffffffffffffffffff1673ffffffffffffffffffffffffffffffffffffffff1681526020019081526020015f205f8681526020019081526020015f205f5f82015f6101000a81549073ffffffffffffffffffffffffffffffffffffffff0219169055600182015f905550508273ffffffffffffffffffffffffffffffffffffffff166342842e0e3033886040518463ffffffff1660e01b8152600401610425939291906111d3565b5f604051808303815f87803b15801561043c575f5ffd5b505af115801561044e573d5f5f3e3d5ffd5b505050508173ffffffffffffffffffffffffffffffffffffffff166108fc8290811502906040515f60405180830381858888f19350505050158015610495573d5f5f3e3d5ffd5b50803411156104ee573373ffffffffffffffffffffffffffffffffffffffff166108fc82346104c49190611235565b90811502906040515f60405180830381858888f193505050501580156104ec573d5f5f3e3d5ffd5b505b848673ffffffffffffffffffffffffffffffffffffffff163373ffffffffffffffffffffffffffffffffffffffff167f46661dab58311a6838247afecbee792192b4f27fc8b3e7168c66bc55ec2e404e8460405161054c9190611113565b60405180910390a4505050505050565b5f602052815f5260405f20602052805f5260405f205f9150915050805f015f9054906101000a900473ffffffffffffffffffffffffffffffffffffffff16908060010154905082565b5f81116105e7576040517f08c379a00000000000000000000000000000000000000000000000000000000081526004016105de9061108d565b60405180910390fd5b5f5f5f8573ffffffffffffffffffffffffffffffffffffffff1673ffffffffffffffffffffffffffffffffffffffff1681526020019081526020015f205f8481526020019081526020015f2090503373ffffffffffffffffffffffffffffffffffffffff16815f015f9054906101000a900473ffffffffffffffffffffffffffffffffffffffff1673ffffffffffffffffffffffffffffffffffffffff16146106c5576040517f08c379a00000000000000000000000000000000000000000000000000000000081526004016106bc906112b2565b60405180910390fd5b5f8490503073ffffffffffffffffffffffffffffffffffffffff168173ffffffffffffffffffffffffffffffffffffffff16636352211e866040518263ffffffff1660e01b81526004016107199190611113565b602060405180830381865afa158015610734573d5f5f3e3d5ffd5b505050506040513d601f19601f820116820180604052508101906107589190611140565b73ffffffffffffffffffffffffffffffffffffffff16146107ae576040517f08c379a00000000000000000000000000000000000000000000000000000000081526004016107a5906111b5565b60405180910390fd5b828260010181905550838573ffffffffffffffffffffffffffffffffffffffff163373ffffffffffffffffffffffffffffffffffffffff167fb7f0ca7cd5b24651672216886135b99ff40342bcf549009a4c6fc74f059fb9a0866040516108159190611113565b60405180910390a45050505050565b5f8390503073ffffffffffffffffffffffffffffffffffffffff168173ffffffffffffffffffffffffffffffffffffffff1663081812fc856040518263ffffffff1660e01b81526004016108789190611113565b602060405180830381865afa158015610893573d5f5f3e3d5ffd5b505050506040513d601f19601f820116820180604052508101906108b79190611140565b73ffffffffffffffffffffffffffffffffffffffff161461090d576040517f08c379a00000000000000000000000000000000000000000000000000000000081526004016109049061131a565b60405180910390fd5b5f8211610918575f5ffd5b5f5f5f8673ffffffffffffffffffffffffffffffffffffffff1673ffffffffffffffffffffffffffffffffffffffff1681526020019081526020015f205f8581526020019081526020015f20905033815f015f6101000a81548173ffffffffffffffffffffffffffffffffffffffff021916908373ffffffffffffffffffffffffffffffffffffffff1602179055508281600101819055508173ffffffffffffffffffffffffffffffffffffffff166342842e0e3330876040518463ffffffff1660e01b81526004016109ed939291906111d3565b5f604051808303815f87803b158015610a04575f5ffd5b505af1158015610a16573d5f5f3e3d5ffd5b50505050838573ffffffffffffffffffffffffffffffffffffffff163373ffffffffffffffffffffffffffffffffffffffff167fedbdf022944a3291f4b30148903a84720506f48e10478ec5812e5caf30e1fab086604051610a789190611113565b60405180910390a45050505050565b5f5f5f8473ffffffffffffffffffffffffffffffffffffffff1673ffffffffffffffffffffffffffffffffffffffff1681526020019081526020015f205f8381526020019081526020015f2090503373ffffffffffffffffffffffffffffffffffffffff16815f015f9054906101000a900473ffffffffffffffffffffffffffffffffffffffff1673ffffffffffffffffffffffffffffffffffffffff1614610b65576040517f08c379a0000000000000000000000000000000000000000000000000000000008152600401610b5c906112b2565b60405180910390fd5b5f8390503073ffffffffffffffffffffffffffffffffffffffff168173ffffffffffffffffffffffffffffffffffffffff16636352211e856040518263ffffffff1660e01b8152600401610bb99190611113565b602060405180830381865afa158015610bd4573d5f5f3e3d5ffd5b505050506040513d601f19601f82011682018060405250810190610bf89190611140565b73ffffffffffffffffffffffffffffffffffffffff1614610c4e576040517f08c379a0000000000000000000000000000000000000000000000000000000008152600401610c45906111b5565b60405180910390fd5b5f5f8573ffffffffffffffffffffffffffffffffffffffff1673ffffffffffffffffffffffffffffffffffffffff1681526020019081526020015f205f8481526020019081526020015f205f5f82015f6101000a81549073ffffffffffffffffffffffffffffffffffffffff0219169055600182015f905550508073ffffffffffffffffffffffffffffffffffffffff166342842e0e3033866040518463ffffffff1660e01b8152600401610d05939291906111d3565b5f604051808303815f87803b158015610d1c575f5ffd5b505af1158015610d2e573d5f5f3e3d5ffd5b50505050828473ffffffffffffffffffffffffffffffffffffffff163373ffffffffffffffffffffffffffffffffffffffff167fb698e31a2abee5824d0d7bcfd2339aead7f9e9ae413fba50bf554ff3fa470b7b60405160405180910390a450505050565b5f5ffd5b5f5ffd5b5f73ffffffffffffffffffffffffffffffffffffffff82169050919050565b5f610dc482610d9b565b9050919050565b610dd481610dba565b8114610dde575f5ffd5b50565b5f81359050610def81610dcb565b92915050565b5f819050919050565b610e0781610df5565b8114610e11575f5ffd5b50565b5f81359050610e2281610dfe565b92915050565b5f5ffd5b5f5ffd5b5f5ffd5b5f5f83601f840112610e4957610e48610e28565b5b8235905067ffffffffffffffff811115610e6657610e65610e2c565b5b602083019150836001820283011115610e8257610e81610e30565b5b9250929050565b5f5f5f5f5f60808688031215610ea257610ea1610d93565b5b5f610eaf88828901610de1565b9550506020610ec088828901610de1565b9450506040610ed188828901610e14565b935050606086013567ffffffffffffffff811115610ef257610ef1610d97565b5b610efe88828901610e34565b92509250509295509295909350565b5f7fffffffff0000000000000000000000000000000000000000000000000000000082169050919050565b610f4181610f0d565b82525050565b5f602082019050610f5a5f830184610f38565b92915050565b5f5f60408385031215610f7657610f75610d93565b5b5f610f8385828601610de1565b9250506020610f9485828601610e14565b9150509250929050565b610fa781610dba565b82525050565b610fb681610df5565b82525050565b5f604082019050610fcf5f830185610f9e565b610fdc6020830184610fad565b9392505050565b5f5f5f60608486031215610ffa57610ff9610d93565b5b5f61100786828701610de1565b935050602061101886828701610e14565b925050604061102986828701610e14565b9150509250925092565b5f82825260208201905092915050565b7f496e76616c6964205072696365000000000000000000000000000000000000005f82015250565b5f611077600d83611033565b915061108282611043565b602082019050919050565b5f6020820190508181035f8301526110a48161106b565b9050919050565b7f496e6372656173652070726963650000000000000000000000000000000000005f82015250565b5f6110df600e83611033565b91506110ea826110ab565b602082019050919050565b5f6020820190508181035f83015261110c816110d3565b9050919050565b5f6020820190506111265f830184610fad565b92915050565b5f8151905061113a81610dcb565b92915050565b5f6020828403121561115557611154610d93565b5b5f6111628482850161112c565b91505092915050565b7f496e76616c6964204f72646572000000000000000000000000000000000000005f82015250565b5f61119f600d83611033565b91506111aa8261116b565b602082019050919050565b5f6020820190508181035f8301526111cc81611193565b9050919050565b5f6060820190506111e65f830186610f9e565b6111f36020830185610f9e565b6112006040830184610fad565b949350505050565b7f4e487b71000000000000000000000000000000000000000000000000000000005f52601160045260245ffd5b5f61123f82610df5565b915061124a83610df5565b925082820390508181111561126257611261611208565b5b92915050565b7f4e6f74204f776e657200000000000000000000000000000000000000000000005f82015250565b5f61129c600983611033565b91506112a782611268565b602082019050919050565b5f6020820190508181035f8301526112c981611290565b9050919050565b7f4e65656420417070726f76616c000000000000000000000000000000000000005f82015250565b5f611304600d83611033565b915061130f826112d0565b602082019050919050565b5f6020820190508181035f830152611331816112f8565b905091905056fea264697066735822122025427cb4f12e19f68038d702bbd77adc6f3a61268a5d964fc0da977a9f272cfa64736f6c63430008220033","linkReferences":{}},"methodIdentifiers":{"list(address,uint256,uint256)":"dda342bb","nftList(address,uint256)":"ba5f4fb2","onERC721Received(address,address,uint256,bytes)":"150b7a02","purchase(address,uint256)":"8de93222","revoke(address,uint256)":"eac449d9","update(address,uint256,uint256)":"d09b6d43"},"id":88}