{"abi":[{"type":"function","name":"_string","inputs":[],"outputs":[{"name":"","type":"string","internalType":"string"}],"stateMutability":"view"}],"bytecode":{"object":"0x60806040526040518060400160405280600b81526020017f48656c6c6f2057656233210000000000000000000000000000000000000000008152505f908161004791906102a7565b50348015610053575f5ffd5b50610376565b5f81519050919050565b7f4e487b71000000000000000000000000000000000000000000000000000000005f52604160045260245ffd5b7f4e487b71000000000000000000000000000000000000000000000000000000005f52602260045260245ffd5b5f60028204905060018216806100d457607f821691505b6020821081036100e7576100e6610090565b5b50919050565b5f819050815f5260205f209050919050565b5f6020601f8301049050919050565b5f82821b905092915050565b5f600883026101497fffffffffffffffffffffffffffffffffffffffffffffffffffffffffffffffff8261010e565b610153868361010e565b95508019841693508086168417925050509392505050565b5f819050919050565b5f819050919050565b5f61019761019261018d8461016b565b610174565b61016b565b9050919050565b5f819050919050565b6101b08361017d565b6101c46101bc8261019e565b84845461011a565b825550505050565b5f5f905090565b6101db6101cc565b6101e68184846101a7565b505050565b5f5b8281101561020c576102015f8284016101d3565b6001810190506101ed565b505050565b601f82111561025f578282111561025e5761022b816100ed565b610234836100ff565b61023d856100ff565b602086101561024a575f90505b808301610259828403826101eb565b505050505b5b505050565b5f82821c905092915050565b5f61027f5f1984600802610264565b1980831691505092915050565b5f6102978383610270565b9150826002028217905092915050565b6102b082610059565b67ffffffffffffffff8111156102c9576102c8610063565b5b6102d382546100bd565b6102de828285610211565b5f60209050601f83116001811461030f575f84156102fd578287015190505b610307858261028c565b86555061036e565b601f19841661031d866100ed565b5f5b828110156103445784890151825560018201915060208501945060208101905061031f565b86831015610361578489015161035d601f891682610270565b8355505b6001600288020188555050505b505050505050565b6101f9806103835f395ff3fe608060405234801561000f575f5ffd5b5060043610610029575f3560e01c80639b267f091461002d575b5f5ffd5b61003561004b565b6040516100429190610146565b60405180910390f35b5f805461005790610193565b80601f016020809104026020016040519081016040528092919081815260200182805461008390610193565b80156100ce5780601f106100a5576101008083540402835291602001916100ce565b820191905f5260205f20905b8154815290600101906020018083116100b157829003601f168201915b505050505081565b5f81519050919050565b5f82825260208201905092915050565b8281835e5f83830152505050565b5f601f19601f8301169050919050565b5f610118826100d6565b61012281856100e0565b93506101328185602086016100f0565b61013b816100fe565b840191505092915050565b5f6020820190508181035f83015261015e818461010e565b905092915050565b7f4e487b71000000000000000000000000000000000000000000000000000000005f52602260045260245ffd5b5f60028204905060018216806101aa57607f821691505b6020821081036101bd576101bc610166565b5b5091905056fea2646970667358221220d44307577f7ea3339ad359ab6aef20564b980fc09211719f64fc018eaef7c90b64736f6c63430008220033","linkReferences":{}},"methodIdentifiers":{"_string()":"9b267f09"},"id":44}