{"abi":[{"type":"constructor","inputs":[{"name":"_payees","type":"address[]","internalType":"address[]"},{"name":"_shares","type":"uint256[]","internalType":"uint256[]"}],"stateMutability":"payable"},{"type":"receive","stateMutability":"payable"},{"type":"function","name":"payees","inputs":[{"name":"","type":"uint256","internalType":"uint256"}],"outputs":[{"name":"","type":"address","internalType":"address"}],"stateMutability":"view"},{"type":"function","name":"pendingPayment","inputs":[{"name":"_account","type":"address","internalType":"address"},{"name":"_totalReceived","type":"uint256","internalType":"uint256"},{"name":"_alreadyReleased","type":"uint256","internalType":"uint256"}],"outputs":[{"name":"","type":"uint256","internalType":"uint256"}],"stateMutability":"view"},{"type":"function","name":"releasable","inputs":[{"name":"_account","type":"address","internalType":"address"}],"outputs":[{"name":"","type":"uint256","internalType":"uint256"}],"stateMutability":"view"},{"type":"function","name":"release","inputs":[{"name":"_account","type":"address","internalType":"address payable"}],"outputs":[],"stateMutability":"nonpayable"},{"type":"function","name":"released","inputs":[{"name":"","type":"address","internalType":"address"}],"outputs":[{"name":"","type":"uint256","internalType":"uint256"}],"stateMutability":"view"},{"type":"function","name":"shares","inputs":[{"name":"","type":"address","internalType":"address"}],"outputs":[{"name":"","type":"uint256","internalType":"uint256"}],"stateMutability":"view"},{"type":"function","name":"totalReleased","inputs":[],"outputs":[{"name":"","type":"uint256","internalType":"uint256"}],"stateMutability":"view"},{"type":"function","name":"totalShares","inputs":[],"outputs":[{"name":"","type":"uint256","internalType":"uint256"}],"stateMutability":"view"},{"type":"event","name":"PayeeAdded","inputs":[{"name":"account","type":"address","indexed":false,"internalType":"address"},{"name":"shares","type":"uint256","indexed":false,"internalType":"uint256"}],"anonymous":false},{"type":"event","name":"PaymentReceived","inputs":[{"name":"from","type":"address","indexed":false,"internalType":"address"},{"name":"amount","type":"uint256","indexed":false,"internalType":"uint256"}],"anonymous":false},{"type":"event","name":"PaymentReleased","inputs":[{"name":"to","type":"address","indexed":false,"internalType":"address"},{"name":"amount","type":"uint256","indexed":false,"internalType":"uint256"}],"anonymous":false}],"bytecode":{"object":"0x608060405260405161144d38038061144d833981810160405281019061002591906105e6565b8051825114610069576040517f08c379a0000000000000000000000000000000000000000000000000000000008152600401610060906106dc565b60405180910390fd5b5f8251116100ac576040517f08c379a00000000000000000000000000000000000000000000000000000000081526004016100a390610744565b60405180910390fd5b5f5f90505b825181101561010b576100fe8382815181106100d0576100cf610762565b5b60200260200101518383815181106100eb576100ea610762565b5b602002602001015161011360201b60201c565b80806001019150506100b1565b5050506109b8565b5f73ffffffffffffffffffffffffffffffffffffffff168273ffffffffffffffffffffffffffffffffffffffff1603610181576040517f08c379a0000000000000000000000000000000000000000000000000000000008152600401610178906107ff565b60405180910390fd5b5f81116101c3576040517f08c379a00000000000000000000000000000000000000000000000000000000081526004016101ba90610867565b60405180910390fd5b5f60025f8473ffffffffffffffffffffffffffffffffffffffff1673ffffffffffffffffffffffffffffffffffffffff1681526020019081526020015f205414610242576040517f08c379a0000000000000000000000000000000000000000000000000000000008152600401610239906108f5565b60405180910390fd5b600482908060018154018082558091505060019003905f5260205f20015f9091909190916101000a81548173ffffffffffffffffffffffffffffffffffffffff021916908373ffffffffffffffffffffffffffffffffffffffff1602179055508060025f8473ffffffffffffffffffffffffffffffffffffffff1673ffffffffffffffffffffffffffffffffffffffff1681526020019081526020015f2081905550805f5f8282546102f49190610940565b925050819055507f40c340f65e17194d14ddddb073d3c9f888e3cb52b5aae0c6c7706b4fbc905fac828260405161032c929190610991565b60405180910390a15050565b5f604051905090565b5f5ffd5b5f5ffd5b5f5ffd5b5f601f19601f8301169050919050565b7f4e487b71000000000000000000000000000000000000000000000000000000005f52604160045260245ffd5b6103938261034d565b810181811067ffffffffffffffff821117156103b2576103b161035d565b5b80604052505050565b5f6103c4610338565b90506103d0828261038a565b919050565b5f67ffffffffffffffff8211156103ef576103ee61035d565b5b602082029050602081019050919050565b5f5ffd5b5f73ffffffffffffffffffffffffffffffffffffffff82169050919050565b5f61042d82610404565b9050919050565b61043d81610423565b8114610447575f5ffd5b50565b5f8151905061045881610434565b92915050565b5f61047061046b846103d5565b6103bb565b9050808382526020820190506020840283018581111561049357610492610400565b5b835b818110156104bc57806104a8888261044a565b845260208401935050602081019050610495565b5050509392505050565b5f82601f8301126104da576104d9610349565b5b81516104ea84826020860161045e565b91505092915050565b5f67ffffffffffffffff82111561050d5761050c61035d565b5b602082029050602081019050919050565b5f819050919050565b6105308161051e565b811461053a575f5ffd5b50565b5f8151905061054b81610527565b92915050565b5f61056361055e846104f3565b6103bb565b9050808382526020820190506020840283018581111561058657610585610400565b5b835b818110156105af578061059b888261053d565b845260208401935050602081019050610588565b5050509392505050565b5f82601f8301126105cd576105cc610349565b5b81516105dd848260208601610551565b91505092915050565b5f5f604083850312156105fc576105fb610341565b5b5f83015167ffffffffffffffff81111561061957610618610345565b5b610625858286016104c6565b925050602083015167ffffffffffffffff81111561064657610645610345565b5b610652858286016105b9565b9150509250929050565b5f82825260208201905092915050565b7f5061796d656e7453706c69747465723a2070617965657320616e6420736861725f8201527f6573206c656e677468206d69736d617463680000000000000000000000000000602082015250565b5f6106c660328361065c565b91506106d18261066c565b604082019050919050565b5f6020820190508181035f8301526106f3816106ba565b9050919050565b7f5061796d656e7453706c69747465723a206e6f207061796565730000000000005f82015250565b5f61072e601a8361065c565b9150610739826106fa565b602082019050919050565b5f6020820190508181035f83015261075b81610722565b9050919050565b7f4e487b71000000000000000000000000000000000000000000000000000000005f52603260045260245ffd5b7f5061796d656e7453706c69747465723a206163636f756e7420697320746865205f8201527f7a65726f20616464726573730000000000000000000000000000000000000000602082015250565b5f6107e9602c8361065c565b91506107f48261078f565b604082019050919050565b5f6020820190508181035f830152610816816107dd565b9050919050565b7f5061796d656e7453706c69747465723a207368617265732061726520300000005f82015250565b5f610851601d8361065c565b915061085c8261081d565b602082019050919050565b5f6020820190508181035f83015261087e81610845565b9050919050565b7f5061796d656e7453706c69747465723a206163636f756e7420616c72656164795f8201527f2068617320736861726573000000000000000000000000000000000000000000602082015250565b5f6108df602b8361065c565b91506108ea82610885565b604082019050919050565b5f6020820190508181035f83015261090c816108d3565b9050919050565b7f4e487b71000000000000000000000000000000000000000000000000000000005f52601160045260245ffd5b5f61094a8261051e565b91506109558361051e565b925082820190508082111561096d5761096c610913565b5b92915050565b61097c81610423565b82525050565b61098b8161051e565b82525050565b5f6040820190506109a45f830185610973565b6109b16020830184610982565b9392505050565b610a88806109c55f395ff3fe60806040526004361061007e575f3560e01c80639852595c1161004d5780639852595c1461018c578063a3f8eace146101c8578063ce7c2ac214610204578063e33b7de314610240576100be565b806319165587146100c25780631b51003d146100ea5780633a98ef391461012657806363037b0c14610150576100be565b366100be577f6ef95f06320e7a25a04a175ca677b7052bdd97131872c2192525a629f51be77033346040516100b49291906105b6565b60405180910390a1005b5f5ffd5b3480156100cd575f5ffd5b506100e860048036038101906100e3919061061c565b61026a565b005b3480156100f5575f5ffd5b50610110600480360381019061010b919061069b565b610423565b60405161011d91906106eb565b60405180910390f35b348015610131575f5ffd5b5061013a61048d565b60405161014791906106eb565b60405180910390f35b34801561015b575f5ffd5b5061017660048036038101906101719190610704565b610492565b604051610183919061072f565b60405180910390f35b348015610197575f5ffd5b506101b260048036038101906101ad9190610748565b6104cd565b6040516101bf91906106eb565b60405180910390f35b3480156101d3575f5ffd5b506101ee60048036038101906101e99190610748565b6104e2565b6040516101fb91906106eb565b60405180910390f35b34801561020f575f5ffd5b5061022a60048036038101906102259190610748565b610544565b60405161023791906106eb565b60405180910390f35b34801561024b575f5ffd5b50610254610559565b60405161026191906106eb565b60405180910390f35b5f60025f8373ffffffffffffffffffffffffffffffffffffffff1673ffffffffffffffffffffffffffffffffffffffff1681526020019081526020015f2054116102e9576040517f08c379a00000000000000000000000000000000000000000000000000000000081526004016102e0906107f3565b60405180910390fd5b5f6102f3826104e2565b90505f8103610337576040517f08c379a000000000000000000000000000000000000000000000000000000000815260040161032e90610881565b60405180910390fd5b8060015f82825461034891906108cc565b925050819055508060035f8473ffffffffffffffffffffffffffffffffffffffff1673ffffffffffffffffffffffffffffffffffffffff1681526020019081526020015f205f82825461039b91906108cc565b925050819055508173ffffffffffffffffffffffffffffffffffffffff166108fc8290811502906040515f60405180830381858888f193505050501580156103e5573d5f5f3e3d5ffd5b507fdf20fd1e76bc69d672e4814fafb2c449bba3a5369d8359adf9e05e6fde87b056828260405161041792919061095a565b60405180910390a15050565b5f815f5460025f8773ffffffffffffffffffffffffffffffffffffffff1673ffffffffffffffffffffffffffffffffffffffff1681526020019081526020015f2054856104709190610981565b61047a91906109ef565b6104849190610a1f565b90509392505050565b5f5481565b600481815481106104a1575f80fd5b905f5260205f20015f915054906101000a900473ffffffffffffffffffffffffffffffffffffffff1681565b6003602052805f5260405f205f915090505481565b5f5f600154476104f291906108cc565b905061053c838260035f8773ffffffffffffffffffffffffffffffffffffffff1673ffffffffffffffffffffffffffffffffffffffff1681526020019081526020015f2054610423565b915050919050565b6002602052805f5260405f205f915090505481565b60015481565b5f73ffffffffffffffffffffffffffffffffffffffff82169050919050565b5f6105888261055f565b9050919050565b6105988161057e565b82525050565b5f819050919050565b6105b08161059e565b82525050565b5f6040820190506105c95f83018561058f565b6105d660208301846105a7565b9392505050565b5f5ffd5b5f6105eb8261055f565b9050919050565b6105fb816105e1565b8114610605575f5ffd5b50565b5f81359050610616816105f2565b92915050565b5f60208284031215610631576106306105dd565b5b5f61063e84828501610608565b91505092915050565b6106508161057e565b811461065a575f5ffd5b50565b5f8135905061066b81610647565b92915050565b61067a8161059e565b8114610684575f5ffd5b50565b5f8135905061069581610671565b92915050565b5f5f5f606084860312156106b2576106b16105dd565b5b5f6106bf8682870161065d565b93505060206106d086828701610687565b92505060406106e186828701610687565b9150509250925092565b5f6020820190506106fe5f8301846105a7565b92915050565b5f60208284031215610719576107186105dd565b5b5f61072684828501610687565b91505092915050565b5f6020820190506107425f83018461058f565b92915050565b5f6020828403121561075d5761075c6105dd565b5b5f61076a8482850161065d565b91505092915050565b5f82825260208201905092915050565b7f5061796d656e7453706c69747465723a206163636f756e7420686173206e6f205f8201527f7368617265730000000000000000000000000000000000000000000000000000602082015250565b5f6107dd602683610773565b91506107e882610783565b604082019050919050565b5f6020820190508181035f83015261080a816107d1565b9050919050565b7f5061796d656e7453706c69747465723a206163636f756e74206973206e6f74205f8201527f647565207061796d656e74000000000000000000000000000000000000000000602082015250565b5f61086b602b83610773565b915061087682610811565b604082019050919050565b5f6020820190508181035f8301526108988161085f565b9050919050565b7f4e487b71000000000000000000000000000000000000000000000000000000005f52601160045260245ffd5b5f6108d68261059e565b91506108e18361059e565b92508282019050808211156108f9576108f861089f565b5b92915050565b5f819050919050565b5f61092261091d6109188461055f565b6108ff565b61055f565b9050919050565b5f61093382610908565b9050919050565b5f61094482610929565b9050919050565b6109548161093a565b82525050565b5f60408201905061096d5f83018561094b565b61097a60208301846105a7565b9392505050565b5f61098b8261059e565b91506109968361059e565b92508282026109a48161059e565b915082820484148315176109bb576109ba61089f565b5b5092915050565b7f4e487b71000000000000000000000000000000000000000000000000000000005f52601260045260245ffd5b5f6109f98261059e565b9150610a048361059e565b925082610a1457610a136109c2565b5b828204905092915050565b5f610a298261059e565b9150610a348361059e565b9250828203905081811115610a4c57610a4b61089f565b5b9291505056fea264697066735822122000c8d0e7bbf8551b3eb38dab68b33e00a91f5e1d01b42d6206235c0bb188348564736f6c63430008220033","linkReferences":{}},"methodIdentifiers":{"payees(uint256)":"63037b0c","pendingPayment(address,uint256,uint256)":"1b51003d","releasable(address)":"a3f8eace","release(address)":"19165587","released(address)":"9852595c","shares(address)":"ce7c2ac2","totalReleased()":"e33b7de3","totalShares()":"3a98ef39"},"id":95}