{"abi":[{"type":"constructor","inputs":[],"stateMutability":"nonpayable"},{"type":"function","name":"allowance","inputs":[{"name":"owner","type":"address","internalType":"address"},{"name":"spender","type":"address","internalType":"address"}],"outputs":[{"name":"","type":"uint256","internalType":"uint256"}],"stateMutability":"view"},{"type":"function","name":"approve","inputs":[{"name":"spender","type":"address","internalType":"address"},{"name":"value","type":"uint256","internalType":"uint256"}],"outputs":[{"name":"","type":"bool","internalType":"bool"}],"stateMutability":"nonpayable"},{"type":"function","name":"balanceOf","inputs":[{"name":"account","type":"address","internalType":"address"}],"outputs":[{"name":"","type":"uint256","internalType":"uint256"}],"stateMutability":"view"},{"type":"function","name":"decimals","inputs":[],"outputs":[{"name":"","type":"uint8","internalType":"uint8"}],"stateMutability":"view"},{"type":"function","name":"isContract","inputs":[{"name":"account","type":"address","internalType":"address"}],"outputs":[{"name":"","type":"bool","internalType":"bool"}],"stateMutability":"view"},{"type":"function","name":"mint","inputs":[],"outputs":[],"stateMutability":"nonpayable"},{"type":"function","name":"name","inputs":[],"outputs":[{"name":"","type":"string","internalType":"string"}],"stateMutability":"view"},{"type":"function","name":"symbol","inputs":[],"outputs":[{"name":"","type":"string","internalType":"string"}],"stateMutability":"view"},{"type":"function","name":"totalSupply","inputs":[],"outputs":[{"name":"","type":"uint256","internalType":"uint256"}],"stateMutability":"view"},{"type":"function","name":"transfer","inputs":[{"name":"to","type":"address","internalType":"address"},{"name":"value","type":"uint256","internalType":"uint256"}],"outputs":[{"name":"","type":"bool","internalType":"bool"}],"stateMutability":"nonpayable"},{"type":"function","name":"transferFrom","inputs":[{"name":"from","type":"address","internalType":"address"},{"name":"to","type":"address","internalType":"address"},{"name":"value","type":"uint256","internalType":"uint256"}],"outputs":[{"name":"","type":"bool","internalType":"bool"}],"stateMutability":"nonpayable"},{"type":"event","name":"Approval","inputs":[{"name":"owner","type":"address","indexed":true,"internalType":"address"},{"name":"spender","type":"address","indexed":true,"internalType":"address"},{"name":"value","type":"uint256","indexed":false,"internalType":"uint256"}],"anonymous":false},{"type":"event","name":"Transfer","inputs":[{"name":"from","type":"address","indexed":true,"internalType":"address"},{"name":"to","type":"address","indexed":true,"internalType":"address"},{"name":"value","type":"uint256","indexed":false,"internalType":"uint256"}],"anonymous":false},{"type":"error","name":"ERC20InsufficientAllowance","inputs":[{"name":"spender","type":"address","internalType":"address"},{"name":"allowance","type":"uint256","internalType":"uint256"},{"name":"needed","type":"uint256","internalType":"uint256"}]},{"type":"error","name":"ERC20InsufficientBalance","inputs":[{"name":"sender","type":"address","internalType":"address"},{"name":"balance","type":"uint256","internalType":"uint256"},{"name":"needed","type":"uint256","internalType":"uint256"}]},{"type":"error","name":"ERC20InvalidApprover","inputs":[{"name":"approver","type":"address","internalType":"address"}]},{"type":"error","name":"ERC20InvalidReceiver","inputs":[{"name":"receiver","type":"address","internalType":"address"}]},{"type":"error","name":"ERC20InvalidSender","inputs":[{"name":"sender","type":"address","internalType":"address"}]},{"type":"error","name":"ERC20InvalidSpender","inputs":[{"name":"spender","type":"address","internalType":"address"}]}],"bytecode":{"object":"0x608060405234801561000f575f5ffd5b5060405180602001604052805f81525060405180602001604052805f815250816003908161003d91906102a3565b50806004908161004d91906102a3565b505050610372565b5f81519050919050565b7f4e487b71000000000000000000000000000000000000000000000000000000005f52604160045260245ffd5b7f4e487b71000000000000000000000000000000000000000000000000000000005f52602260045260245ffd5b5f60028204905060018216806100d057607f821691505b6020821081036100e3576100e261008c565b5b50919050565b5f819050815f5260205f209050919050565b5f6020601f8301049050919050565b5f82821b905092915050565b5f600883026101457fffffffffffffffffffffffffffffffffffffffffffffffffffffffffffffffff8261010a565b61014f868361010a565b95508019841693508086168417925050509392505050565b5f819050919050565b5f819050919050565b5f61019361018e61018984610167565b610170565b610167565b9050919050565b5f819050919050565b6101ac83610179565b6101c06101b88261019a565b848454610116565b825550505050565b5f5f905090565b6101d76101c8565b6101e28184846101a3565b505050565b5f5b82811015610208576101fd5f8284016101cf565b6001810190506101e9565b505050565b601f82111561025b578282111561025a57610227816100e9565b610230836100fb565b610239856100fb565b6020861015610246575f90505b808301610255828403826101e7565b505050505b5b505050565b5f82821c905092915050565b5f61027b5f1984600802610260565b1980831691505092915050565b5f610293838361026c565b9150826002028217905092915050565b6102ac82610055565b67ffffffffffffffff8111156102c5576102c461005f565b5b6102cf82546100b9565b6102da82828561020d565b5f60209050601f83116001811461030b575f84156102f9578287015190505b6103038582610288565b86555061036a565b601f198416610319866100e9565b5f5b828110156103405784890151825560018201915060208501945060208101905061031b565b8683101561035d5784890151610359601f89168261026c565b8355505b6001600288020188555050505b505050505050565b610f808061037f5f395ff3fe608060405234801561000f575f5ffd5b50600436106100a7575f3560e01c806323b872dd1161006f57806323b872dd14610151578063313ce5671461018157806370a082311461019f57806395d89b41146101cf578063a9059cbb146101ed578063dd62ed3e1461021d576100a7565b806306fdde03146100ab578063095ea7b3146100c95780631249c58b146100f9578063162790551461010357806318160ddd14610133575b5f5ffd5b6100b361024d565b6040516100c09190610b91565b60405180910390f35b6100e360048036038101906100de9190610c42565b6102dd565b6040516100f09190610c9a565b60405180910390f35b6101016102ff565b005b61011d60048036038101906101189190610cb3565b610355565b60405161012a9190610c9a565b60405180910390f35b61013b610366565b6040516101489190610ced565b60405180910390f35b61016b60048036038101906101669190610d06565b61036f565b6040516101789190610c9a565b60405180910390f35b61018961039d565b6040516101969190610d71565b60405180910390f35b6101b960048036038101906101b49190610cb3565b6103a5565b6040516101c69190610ced565b60405180910390f35b6101d76103ea565b6040516101e49190610b91565b60405180910390f35b61020760048036038101906102029190610c42565b61047a565b6040516102149190610c9a565b60405180910390f35b61023760048036038101906102329190610d8a565b61049c565b6040516102449190610ced565b60405180910390f35b60606003805461025c90610df5565b80601f016020809104026020016040519081016040528092919081815260200182805461028890610df5565b80156102d35780601f106102aa576101008083540402835291602001916102d3565b820191905f5260205f20905b8154815290600101906020018083116102b657829003601f168201915b5050505050905090565b5f5f6102e761051e565b90506102f4818585610525565b600191505092915050565b61030833610355565b15610348576040517f08c379a000000000000000000000000000000000000000000000000000000000815260040161033f90610e6f565b60405180910390fd5b610353336064610537565b565b5f5f823b90505f8111915050919050565b5f600254905090565b5f5f61037961051e565b90506103868582856105b6565b610391858585610649565b60019150509392505050565b5f6012905090565b5f5f5f8373ffffffffffffffffffffffffffffffffffffffff1673ffffffffffffffffffffffffffffffffffffffff1681526020019081526020015f20549050919050565b6060600480546103f990610df5565b80601f016020809104026020016040519081016040528092919081815260200182805461042590610df5565b80156104705780601f1061044757610100808354040283529160200191610470565b820191905f5260205f20905b81548152906001019060200180831161045357829003601f168201915b5050505050905090565b5f5f61048461051e565b9050610491818585610649565b600191505092915050565b5f60015f8473ffffffffffffffffffffffffffffffffffffffff1673ffffffffffffffffffffffffffffffffffffffff1681526020019081526020015f205f8373ffffffffffffffffffffffffffffffffffffffff1673ffffffffffffffffffffffffffffffffffffffff1681526020019081526020015f2054905092915050565b5f33905090565b6105328383836001610739565b505050565b5f73ffffffffffffffffffffffffffffffffffffffff168273ffffffffffffffffffffffffffffffffffffffff16036105a7575f6040517fec442f0500000000000000000000000000000000000000000000000000000000815260040161059e9190610e9c565b60405180910390fd5b6105b25f8383610908565b5050565b5f6105c1848461049c565b90507fffffffffffffffffffffffffffffffffffffffffffffffffffffffffffffffff8110156106435781811015610634578281836040517ffb8f41b200000000000000000000000000000000000000000000000000000000815260040161062b93929190610eb5565b60405180910390fd5b61064284848484035f610739565b5b50505050565b5f73ffffffffffffffffffffffffffffffffffffffff168373ffffffffffffffffffffffffffffffffffffffff16036106b9575f6040517f96c6fd1e0000000000000000000000000000000000000000000000000000000081526004016106b09190610e9c565b60405180910390fd5b5f73ffffffffffffffffffffffffffffffffffffffff168273ffffffffffffffffffffffffffffffffffffffff1603610729575f6040517fec442f050000000000000000000000000000000000000000000000000000000081526004016107209190610e9c565b60405180910390fd5b610734838383610908565b505050565b5f73ffffffffffffffffffffffffffffffffffffffff168473ffffffffffffffffffffffffffffffffffffffff16036107a9575f6040517fe602df050000000000000000000000000000000000000000000000000000000081526004016107a09190610e9c565b60405180910390fd5b5f73ffffffffffffffffffffffffffffffffffffffff168373ffffffffffffffffffffffffffffffffffffffff1603610819575f6040517f94280d620000000000000000000000000000000000000000000000000000000081526004016108109190610e9c565b60405180910390fd5b8160015f8673ffffffffffffffffffffffffffffffffffffffff1673ffffffffffffffffffffffffffffffffffffffff1681526020019081526020015f205f8573ffffffffffffffffffffffffffffffffffffffff1673ffffffffffffffffffffffffffffffffffffffff1681526020019081526020015f20819055508015610902578273ffffffffffffffffffffffffffffffffffffffff168473ffffffffffffffffffffffffffffffffffffffff167f8c5be1e5ebec7d5bd14f71427d1e84f3dd0314c0f7b2291e5b200ac8c7c3b925846040516108f99190610ced565b60405180910390a35b50505050565b5f73ffffffffffffffffffffffffffffffffffffffff168373ffffffffffffffffffffffffffffffffffffffff1603610958578060025f82825461094c9190610f17565b92505081905550610a26565b5f5f5f8573ffffffffffffffffffffffffffffffffffffffff1673ffffffffffffffffffffffffffffffffffffffff1681526020019081526020015f20549050818110156109e1578381836040517fe450d38c0000000000000000000000000000000000000000000000000000000081526004016109d893929190610eb5565b60405180910390fd5b8181035f5f8673ffffffffffffffffffffffffffffffffffffffff1673ffffffffffffffffffffffffffffffffffffffff1681526020019081526020015f2081905550505b5f73ffffffffffffffffffffffffffffffffffffffff168273ffffffffffffffffffffffffffffffffffffffff1603610a6d578060025f8282540392505081905550610ab7565b805f5f8473ffffffffffffffffffffffffffffffffffffffff1673ffffffffffffffffffffffffffffffffffffffff1681526020019081526020015f205f82825401925050819055505b8173ffffffffffffffffffffffffffffffffffffffff168373ffffffffffffffffffffffffffffffffffffffff167fddf252ad1be2c89b69c2b068fc378daa952ba7f163c4a11628f55a4df523b3ef83604051610b149190610ced565b60405180910390a3505050565b5f81519050919050565b5f82825260208201905092915050565b8281835e5f83830152505050565b5f601f19601f8301169050919050565b5f610b6382610b21565b610b6d8185610b2b565b9350610b7d818560208601610b3b565b610b8681610b49565b840191505092915050565b5f6020820190508181035f830152610ba98184610b59565b905092915050565b5f5ffd5b5f73ffffffffffffffffffffffffffffffffffffffff82169050919050565b5f610bde82610bb5565b9050919050565b610bee81610bd4565b8114610bf8575f5ffd5b50565b5f81359050610c0981610be5565b92915050565b5f819050919050565b610c2181610c0f565b8114610c2b575f5ffd5b50565b5f81359050610c3c81610c18565b92915050565b5f5f60408385031215610c5857610c57610bb1565b5b5f610c6585828601610bfb565b9250506020610c7685828601610c2e565b9150509250929050565b5f8115159050919050565b610c9481610c80565b82525050565b5f602082019050610cad5f830184610c8b565b92915050565b5f60208284031215610cc857610cc7610bb1565b5b5f610cd584828501610bfb565b91505092915050565b610ce781610c0f565b82525050565b5f602082019050610d005f830184610cde565b92915050565b5f5f5f60608486031215610d1d57610d1c610bb1565b5b5f610d2a86828701610bfb565b9350506020610d3b86828701610bfb565b9250506040610d4c86828701610c2e565b9150509250925092565b5f60ff82169050919050565b610d6b81610d56565b82525050565b5f602082019050610d845f830184610d62565b92915050565b5f5f60408385031215610da057610d9f610bb1565b5b5f610dad85828601610bfb565b9250506020610dbe85828601610bfb565b9150509250929050565b7f4e487b71000000000000000000000000000000000000000000000000000000005f52602260045260245ffd5b5f6002820490506001821680610e0c57607f821691505b602082108103610e1f57610e1e610dc8565b5b50919050565b7f436f6e7472616374206e6f7420616c6c6f7765642100000000000000000000005f82015250565b5f610e59601583610b2b565b9150610e6482610e25565b602082019050919050565b5f6020820190508181035f830152610e8681610e4d565b9050919050565b610e9681610bd4565b82525050565b5f602082019050610eaf5f830184610e8d565b92915050565b5f606082019050610ec85f830186610e8d565b610ed56020830185610cde565b610ee26040830184610cde565b949350505050565b7f4e487b71000000000000000000000000000000000000000000000000000000005f52601160045260245ffd5b5f610f2182610c0f565b9150610f2c83610c0f565b9250828201905080821115610f4457610f43610eea565b5b9291505056fea264697066735822122090d2e3f312fd334dad103ab2351b79c978f6c9bbda6a38393be084391c7e8a0c64736f6c63430008220033","linkReferences":{}},"methodIdentifiers":{"allowance(address,address)":"dd62ed3e","approve(address,uint256)":"095ea7b3","balanceOf(address)":"70a08231","decimals()":"313ce567","isContract(address)":"16279055","mint()":"1249c58b","name()":"06fdde03","symbol()":"95d89b41","totalSupply()":"18160ddd","transfer(address,uint256)":"a9059cbb","transferFrom(address,address,uint256)":"23b872dd"},"id":128}