{"abi":[{"type":"constructor","inputs":[{"name":"addr","type":"address","internalType":"address"}],"stateMutability":"nonpayable"},{"type":"function","name":"contractCheck","inputs":[],"outputs":[{"name":"","type":"address","internalType":"address"}],"stateMutability":"view"},{"type":"function","name":"isContract","inputs":[],"outputs":[{"name":"","type":"bool","internalType":"bool"}],"stateMutability":"view"},{"type":"function","name":"mint","inputs":[],"outputs":[],"stateMutability":"nonpayable"}],"bytecode":{"object":"0x608060405234801561000f575f5ffd5b50604051610496380380610496833981810160405281019061003191906101d8565b805f60016101000a81548173ffffffffffffffffffffffffffffffffffffffff021916908373ffffffffffffffffffffffffffffffffffffffff1602179055508073ffffffffffffffffffffffffffffffffffffffff166316279055306040518263ffffffff1660e01b81526004016100aa9190610212565b602060405180830381865afa1580156100c5573d5f5f3e3d5ffd5b505050506040513d601f19601f820116820180604052508101906100e99190610260565b5f5f6101000a81548160ff0219169083151502179055505f5b600a811015610173578173ffffffffffffffffffffffffffffffffffffffff16631249c58b6040518163ffffffff1660e01b81526004015f604051808303815f87803b158015610150575f5ffd5b505af1158015610162573d5f5f3e3d5ffd5b505050508080600101915050610102565b505061028b565b5f5ffd5b5f73ffffffffffffffffffffffffffffffffffffffff82169050919050565b5f6101a78261017e565b9050919050565b6101b78161019d565b81146101c1575f5ffd5b50565b5f815190506101d2816101ae565b92915050565b5f602082840312156101ed576101ec61017a565b5b5f6101fa848285016101c4565b91505092915050565b61020c8161019d565b82525050565b5f6020820190506102255f830184610203565b92915050565b5f8115159050919050565b61023f8161022b565b8114610249575f5ffd5b50565b5f8151905061025a81610236565b92915050565b5f602082840312156102755761027461017a565b5b5f6102828482850161024c565b91505092915050565b6101fe806102985f395ff3fe608060405234801561000f575f5ffd5b506004361061003f575f3560e01c80631249c58b14610043578063536eee561461004d578063f7ec2f351461006b575b5f5ffd5b61004b610089565b005b610055610107565b604051610062919061017c565b60405180910390f35b61007361012c565b60405161008091906101af565b60405180910390f35b5f60019054906101000a900473ffffffffffffffffffffffffffffffffffffffff1673ffffffffffffffffffffffffffffffffffffffff16631249c58b6040518163ffffffff1660e01b81526004015f604051808303815f87803b1580156100ef575f5ffd5b505af1158015610101573d5f5f3e3d5ffd5b50505050565b5f60019054906101000a900473ffffffffffffffffffffffffffffffffffffffff1681565b5f5f9054906101000a900460ff1681565b5f73ffffffffffffffffffffffffffffffffffffffff82169050919050565b5f6101668261013d565b9050919050565b6101768161015c565b82525050565b5f60208201905061018f5f83018461016d565b92915050565b5f8115159050919050565b6101a981610195565b82525050565b5f6020820190506101c25f8301846101a0565b9291505056fea2646970667358221220f6bce88e84da64162e1fac66177ec9cf271a691d8b3893d88493c25a271ee2d864736f6c63430008220033","linkReferences":{}},"methodIdentifiers":{"contractCheck()":"536eee56","isContract()":"f7ec2f35","mint()":"1249c58b"},"id":128}