{"abi":[{"type":"constructor","inputs":[{"name":"beneficiaryAddress","type":"address","internalType":"address"},{"name":"durationSeconds","type":"uint256","internalType":"uint256"}],"stateMutability":"nonpayable"},{"type":"function","name":"beneficiary","inputs":[],"outputs":[{"name":"","type":"address","internalType":"address"}],"stateMutability":"view"},{"type":"function","name":"duration","inputs":[],"outputs":[{"name":"","type":"uint256","internalType":"uint256"}],"stateMutability":"view"},{"type":"function","name":"erc20Released","inputs":[{"name":"","type":"address","internalType":"address"}],"outputs":[{"name":"","type":"uint256","internalType":"uint256"}],"stateMutability":"view"},{"type":"function","name":"release","inputs":[{"name":"token","type":"address","internalType":"address"}],"outputs":[],"stateMutability":"nonpayable"},{"type":"function","name":"start","inputs":[],"outputs":[{"name":"","type":"uint256","internalType":"uint256"}],"stateMutability":"view"},{"type":"function","name":"vestedAmount","inputs":[{"name":"token","type":"address","internalType":"address"},{"name":"timestamp","type":"uint256","internalType":"uint256"}],"outputs":[{"name":"","type":"uint256","internalType":"uint256"}],"stateMutability":"view"},{"type":"event","name":"ERC20Released","inputs":[{"name":"token","type":"address","indexed":true,"internalType":"address"},{"name":"amount","type":"uint256","indexed":false,"internalType":"uint256"}],"anonymous":false}],"bytecode":{"object":"0x60e060405234801561000f575f5ffd5b50604051610b2c380380610b2c8339818101604052810190610031919061017b565b5f73ffffffffffffffffffffffffffffffffffffffff168273ffffffffffffffffffffffffffffffffffffffff160361009f576040517f08c379a000000000000000000000000000000000000000000000000000000000815260040161009690610239565b60405180910390fd5b8173ffffffffffffffffffffffffffffffffffffffff1660808173ffffffffffffffffffffffffffffffffffffffff16815250504260a081815250508060c081815250505050610257565b5f5ffd5b5f73ffffffffffffffffffffffffffffffffffffffff82169050919050565b5f610117826100ee565b9050919050565b6101278161010d565b8114610131575f5ffd5b50565b5f815190506101428161011e565b92915050565b5f819050919050565b61015a81610148565b8114610164575f5ffd5b50565b5f8151905061017581610151565b92915050565b5f5f60408385031215610191576101906100ea565b5b5f61019e85828601610134565b92505060206101af85828601610167565b9150509250929050565b5f82825260208201905092915050565b7f56657374696e6757616c6c65743a2062656e6566696369617279206973207a655f8201527f726f206164647265737300000000000000000000000000000000000000000000602082015250565b5f610223602a836101b9565b915061022e826101c9565b604082019050919050565b5f6020820190508181035f83015261025081610217565b9050919050565b60805160a05160c0516108816102ab5f395f818161013c0152818161025401526102b001525f818161022301528181610275015281816102d101526104e801525f818161042c01526104b001526108815ff3fe608060405234801561000f575f5ffd5b5060043610610060575f3560e01c80630fb5a6b41461006457806317cf53911461008257806319165587146100b257806338af3eed146100ce578063bbc702c6146100ec578063be9a65551461011c575b5f5ffd5b61006c61013a565b6040516100799190610522565b60405180910390f35b61009c600480360381019061009791906105c3565b61015e565b6040516100a99190610522565b60405180910390f35b6100cc60048036038101906100c79190610601565b61031a565b005b6100d66104ae565b6040516100e3919061063b565b60405180910390f35b61010660048036038101906101019190610601565b6104d2565b6040516101139190610522565b60405180910390f35b6101246104e6565b6040516101319190610522565b60405180910390f35b7f000000000000000000000000000000000000000000000000000000000000000081565b5f5f5f5f8573ffffffffffffffffffffffffffffffffffffffff1673ffffffffffffffffffffffffffffffffffffffff1681526020019081526020015f20548473ffffffffffffffffffffffffffffffffffffffff166370a08231306040518263ffffffff1660e01b81526004016101d6919061063b565b602060405180830381865afa1580156101f1573d5f5f3e3d5ffd5b505050506040513d601f19601f820116820180604052508101906102159190610668565b61021f91906106c0565b90507f0000000000000000000000000000000000000000000000000000000000000000831015610252575f915050610314565b7f00000000000000000000000000000000000000000000000000000000000000007f000000000000000000000000000000000000000000000000000000000000000061029e91906106c0565b8311156102ae5780915050610314565b7f00000000000000000000000000000000000000000000000000000000000000007f0000000000000000000000000000000000000000000000000000000000000000846102fb91906106f3565b826103069190610726565b6103109190610794565b9150505b92915050565b5f5f5f8373ffffffffffffffffffffffffffffffffffffffff1673ffffffffffffffffffffffffffffffffffffffff1681526020019081526020015f2054610362834261015e565b61036c91906106f3565b9050805f5f8473ffffffffffffffffffffffffffffffffffffffff1673ffffffffffffffffffffffffffffffffffffffff1681526020019081526020015f205f8282546103b991906106c0565b925050819055508173ffffffffffffffffffffffffffffffffffffffff167fc0e523490dd523c33b1878c9eb14ff46991e3f5b2cd33710918618f2a39cba1b826040516104069190610522565b60405180910390a28173ffffffffffffffffffffffffffffffffffffffff1663a9059cbb7f0000000000000000000000000000000000000000000000000000000000000000836040518363ffffffff1660e01b81526004016104699291906107c4565b6020604051808303815f875af1158015610485573d5f5f3e3d5ffd5b505050506040513d601f19601f820116820180604052508101906104a99190610820565b505050565b7f000000000000000000000000000000000000000000000000000000000000000081565b5f602052805f5260405f205f915090505481565b7f000000000000000000000000000000000000000000000000000000000000000081565b5f819050919050565b61051c8161050a565b82525050565b5f6020820190506105355f830184610513565b92915050565b5f5ffd5b5f73ffffffffffffffffffffffffffffffffffffffff82169050919050565b5f6105688261053f565b9050919050565b6105788161055e565b8114610582575f5ffd5b50565b5f813590506105938161056f565b92915050565b6105a28161050a565b81146105ac575f5ffd5b50565b5f813590506105bd81610599565b92915050565b5f5f604083850312156105d9576105d861053b565b5b5f6105e685828601610585565b92505060206105f7858286016105af565b9150509250929050565b5f602082840312156106165761061561053b565b5b5f61062384828501610585565b91505092915050565b6106358161055e565b82525050565b5f60208201905061064e5f83018461062c565b92915050565b5f8151905061066281610599565b92915050565b5f6020828403121561067d5761067c61053b565b5b5f61068a84828501610654565b91505092915050565b7f4e487b71000000000000000000000000000000000000000000000000000000005f52601160045260245ffd5b5f6106ca8261050a565b91506106d58361050a565b92508282019050808211156106ed576106ec610693565b5b92915050565b5f6106fd8261050a565b91506107088361050a565b92508282039050818111156107205761071f610693565b5b92915050565b5f6107308261050a565b915061073b8361050a565b92508282026107498161050a565b915082820484148315176107605761075f610693565b5b5092915050565b7f4e487b71000000000000000000000000000000000000000000000000000000005f52601260045260245ffd5b5f61079e8261050a565b91506107a98361050a565b9250826107b9576107b8610767565b5b828204905092915050565b5f6040820190506107d75f83018561062c565b6107e46020830184610513565b9392505050565b5f8115159050919050565b6107ff816107eb565b8114610809575f5ffd5b50565b5f8151905061081a816107f6565b92915050565b5f602082840312156108355761083461053b565b5b5f6108428482850161080c565b9150509291505056fea264697066735822122091411f859b9c29c973f385e06eb69e7212128dd2f4752e1e0af3046cb807e92764736f6c63430008220033","linkReferences":{}},"methodIdentifiers":{"beneficiary()":"38af3eed","duration()":"0fb5a6b4","erc20Released(address)":"bbc702c6","release(address)":"19165587","start()":"be9a6555","vestedAmount(address,uint256)":"17cf5391"},"id":96}