{"abi":[{"type":"function","name":"hash","inputs":[{"name":"_num","type":"uint256","internalType":"uint256"},{"name":"_string","type":"string","internalType":"string"},{"name":"_addr","type":"address","internalType":"address"}],"outputs":[{"name":"","type":"bytes32","internalType":"bytes32"}],"stateMutability":"pure"},{"type":"function","name":"strong","inputs":[{"name":"string1","type":"string","internalType":"string"},{"name":"string2","type":"string","internalType":"string"}],"outputs":[{"name":"","type":"bool","internalType":"bool"}],"stateMutability":"pure"},{"type":"function","name":"weak","inputs":[{"name":"string1","type":"string","internalType":"string"}],"outputs":[{"name":"","type":"bool","internalType":"bool"}],"stateMutability":"view"}],"bytecode":{"object":"0x60806040526040516020016011906088565b604051602081830303815290604052805190602001205f553480156033575f5ffd5b50609a565b5f81905092915050565b7f30784141000000000000000000000000000000000000000000000000000000005f82015250565b5f60746004836038565b9150607d826042565b600482019050919050565b5f609082606a565b9150819050919050565b610634806100a75f395ff3fe608060405234801561000f575f5ffd5b506004361061003f575f3560e01c806310be181c146100435780634f6b068d14610073578063d6abfc7b146100a3575b5f5ffd5b61005d600480360381019061005891906102df565b6100d3565b60405161006a919061036f565b60405180910390f35b61008d60048036038101906100889190610415565b61012b565b60405161009a9190610499565b60405180910390f35b6100bd60048036038101906100b891906104b2565b610160565b6040516100ca919061036f565b60405180910390f35b5f816040516020016100e5919061054b565b604051602081830303815290604052805190602001208360405160200161010c919061054b565b6040516020818303038152906040528051906020012014905092915050565b5f838383604051602001610141939291906105c6565b6040516020818303038152906040528051906020012090509392505050565b5f5f5482604051602001610174919061054b565b60405160208183030381529060405280519060200120149050919050565b5f604051905090565b5f5ffd5b5f5ffd5b5f5ffd5b5f5ffd5b5f601f19601f8301169050919050565b7f4e487b71000000000000000000000000000000000000000000000000000000005f52604160045260245ffd5b6101f1826101ab565b810181811067ffffffffffffffff821117156102105761020f6101bb565b5b80604052505050565b5f610222610192565b905061022e82826101e8565b919050565b5f67ffffffffffffffff82111561024d5761024c6101bb565b5b610256826101ab565b9050602081019050919050565b828183375f83830152505050565b5f61028361027e84610233565b610219565b90508281526020810184848401111561029f5761029e6101a7565b5b6102aa848285610263565b509392505050565b5f82601f8301126102c6576102c56101a3565b5b81356102d6848260208601610271565b91505092915050565b5f5f604083850312156102f5576102f461019b565b5b5f83013567ffffffffffffffff8111156103125761031161019f565b5b61031e858286016102b2565b925050602083013567ffffffffffffffff81111561033f5761033e61019f565b5b61034b858286016102b2565b9150509250929050565b5f8115159050919050565b61036981610355565b82525050565b5f6020820190506103825f830184610360565b92915050565b5f819050919050565b61039a81610388565b81146103a4575f5ffd5b50565b5f813590506103b581610391565b92915050565b5f73ffffffffffffffffffffffffffffffffffffffff82169050919050565b5f6103e4826103bb565b9050919050565b6103f4816103da565b81146103fe575f5ffd5b50565b5f8135905061040f816103eb565b92915050565b5f5f5f6060848603121561042c5761042b61019b565b5b5f610439868287016103a7565b935050602084013567ffffffffffffffff81111561045a5761045961019f565b5b610466868287016102b2565b925050604061047786828701610401565b9150509250925092565b5f819050919050565b61049381610481565b82525050565b5f6020820190506104ac5f83018461048a565b92915050565b5f602082840312156104c7576104c661019b565b5b5f82013567ffffffffffffffff8111156104e4576104e361019f565b5b6104f0848285016102b2565b91505092915050565b5f81519050919050565b5f81905092915050565b8281835e5f83830152505050565b5f610525826104f9565b61052f8185610503565b935061053f81856020860161050d565b80840191505092915050565b5f610556828461051b565b915081905092915050565b5f819050919050565b61057b61057682610388565b610561565b82525050565b5f8160601b9050919050565b5f61059782610581565b9050919050565b5f6105a88261058d565b9050919050565b6105c06105bb826103da565b61059e565b82525050565b5f6105d1828661056a565b6020820191506105e1828561051b565b91506105ed82846105af565b60148201915081905094935050505056fea26469706673582212202b10a997b0008def492681cb95220e53346ad05395c568ba9bb7e16ec30253ec64736f6c63430008220033","linkReferences":{}},"methodIdentifiers":{"hash(uint256,string,address)":"4f6b068d","strong(string,string)":"10be181c","weak(string)":"d6abfc7b"},"id":69}