{"abi":[{"type":"function","name":"executeCrossChainTx","inputs":[{"name":"_method","type":"bytes","internalType":"bytes"},{"name":"_bytes","type":"bytes","internalType":"bytes"},{"name":"_bytes1","type":"bytes","internalType":"bytes"},{"name":"_num","type":"uint64","internalType":"uint64"}],"outputs":[{"name":"success","type":"bool","internalType":"bool"}],"stateMutability":"nonpayable"},{"type":"function","name":"hackSlector","inputs":[],"outputs":[{"name":"","type":"bytes4","internalType":"bytes4"}],"stateMutability":"pure"},{"type":"function","name":"putCurEpochConPubKeyBytes","inputs":[{"name":"_bytes","type":"bytes","internalType":"bytes"}],"outputs":[],"stateMutability":"nonpayable"},{"type":"function","name":"secretSlector","inputs":[],"outputs":[{"name":"","type":"bytes4","internalType":"bytes4"}],"stateMutability":"pure"},{"type":"function","name":"solved","inputs":[],"outputs":[{"name":"","type":"bool","internalType":"bool"}],"stateMutability":"view"}],"bytecode":{"object":"0x6080604052348015600e575f5ffd5b5061083f8061001c5f395ff3fe608060405234801561000f575f5ffd5b5060043610610055575f3560e01c806320a826ba1461005957806341973cd914610089578063799320bb146100a5578063d6276ab5146100c3578063efa7897b146100e1575b5f5ffd5b610073600480360381019061006e919061044e565b6100ff565b6040516100809190610520565b60405180910390f35b6100a3600480360381019061009e9190610539565b6101db565b005b6100ad610265565b6040516100ba9190610520565b60405180910390f35b6100cb610276565b6040516100d891906105ba565b60405180910390f35b6100e961029d565b6040516100f691906105ba565b60405180910390f35b5f3073ffffffffffffffffffffffffffffffffffffffff16856040516020016101289190610679565b60405160208183030381529060405280519060200120858585604051602001610153939291906106f1565b604051602081830303815290604052604051602001610173929190610754565b60405160208183030381529060405260405161018f919061077b565b5f604051808303815f865af19150503d805f81146101c8576040519150601f19603f3d011682016040523d82523d5f602084013e6101cd565b606091505b505080915050949350505050565b3073ffffffffffffffffffffffffffffffffffffffff163373ffffffffffffffffffffffffffffffffffffffff1614610249576040517f08c379a0000000000000000000000000000000000000000000000000000000008152600401610240906107eb565b60405180910390fd5b60015f5f6101000a81548160ff02191690831515021790555050565b5f5f9054906101000a900460ff1681565b5f7f41973cd95e41447fbb4f155da56b91d5b31daf7e54600218eb7b6c8384048c4c905090565b5f7f41973cd9ca2c3f7fa28309a71815e084e9827b0551227e684c70c7d6c9e5e031905090565b5f604051905090565b5f5ffd5b5f5ffd5b5f5ffd5b5f5ffd5b5f601f19601f8301169050919050565b7f4e487b71000000000000000000000000000000000000000000000000000000005f52604160045260245ffd5b610323826102dd565b810181811067ffffffffffffffff82111715610342576103416102ed565b5b80604052505050565b5f6103546102c4565b9050610360828261031a565b919050565b5f67ffffffffffffffff82111561037f5761037e6102ed565b5b610388826102dd565b9050602081019050919050565b828183375f83830152505050565b5f6103b56103b084610365565b61034b565b9050828152602081018484840111156103d1576103d06102d9565b5b6103dc848285610395565b509392505050565b5f82601f8301126103f8576103f76102d5565b5b81356104088482602086016103a3565b91505092915050565b5f67ffffffffffffffff82169050919050565b61042d81610411565b8114610437575f5ffd5b50565b5f8135905061044881610424565b92915050565b5f5f5f5f60808587031215610466576104656102cd565b5b5f85013567ffffffffffffffff811115610483576104826102d1565b5b61048f878288016103e4565b945050602085013567ffffffffffffffff8111156104b0576104af6102d1565b5b6104bc878288016103e4565b935050604085013567ffffffffffffffff8111156104dd576104dc6102d1565b5b6104e9878288016103e4565b92505060606104fa8782880161043a565b91505092959194509250565b5f8115159050919050565b61051a81610506565b82525050565b5f6020820190506105335f830184610511565b92915050565b5f6020828403121561054e5761054d6102cd565b5b5f82013567ffffffffffffffff81111561056b5761056a6102d1565b5b610577848285016103e4565b91505092915050565b5f7fffffffff0000000000000000000000000000000000000000000000000000000082169050919050565b6105b481610580565b82525050565b5f6020820190506105cd5f8301846105ab565b92915050565b5f81519050919050565b5f81905092915050565b8281835e5f83830152505050565b5f6105ff826105d3565b61060981856105dd565b93506106198185602086016105e7565b80840191505092915050565b5f81905092915050565b7f2862797465732c62797465732c75696e743634290000000000000000000000005f82015250565b5f610663601483610625565b915061066e8261062f565b601482019050919050565b5f61068482846105f5565b915061068f82610657565b915081905092915050565b5f82825260208201905092915050565b5f6106b4826105d3565b6106be818561069a565b93506106ce8185602086016105e7565b6106d7816102dd565b840191505092915050565b6106eb81610411565b82525050565b5f6060820190508181035f83015261070981866106aa565b9050818103602083015261071d81856106aa565b905061072c60408301846106e2565b949350505050565b5f819050919050565b61074e61074982610580565b610734565b82525050565b5f61075f828561073d565b60048201915061076f82846105f5565b91508190509392505050565b5f61078682846105f5565b915081905092915050565b5f82825260208201905092915050565b7f4e6f74204f776e657200000000000000000000000000000000000000000000005f82015250565b5f6107d5600983610791565b91506107e0826107a1565b602082019050919050565b5f6020820190508181035f830152610802816107c9565b905091905056fea2646970667358221220dca3ff3c83effbd594959254f4d8a0d8a75bb6a1230a60cbd9e88f167f6442bc64736f6c63430008220033","linkReferences":{}},"methodIdentifiers":{"executeCrossChainTx(bytes,bytes,bytes,uint64)":"20a826ba","hackSlector()":"d6276ab5","putCurEpochConPubKeyBytes(bytes)":"41973cd9","secretSlector()":"efa7897b","solved()":"799320bb"},"id":122}