{"abi":[{"type":"constructor","inputs":[{"name":"token_","type":"address","internalType":"contract IERC20"},{"name":"beneficiary_","type":"address","internalType":"address"},{"name":"lockTime_","type":"uint256","internalType":"uint256"}],"stateMutability":"nonpayable"},{"type":"function","name":"beneficiary","inputs":[],"outputs":[{"name":"","type":"address","internalType":"address"}],"stateMutability":"view"},{"type":"function","name":"lockTime","inputs":[],"outputs":[{"name":"","type":"uint256","internalType":"uint256"}],"stateMutability":"view"},{"type":"function","name":"release","inputs":[],"outputs":[],"stateMutability":"nonpayable"},{"type":"function","name":"startTime","inputs":[],"outputs":[{"name":"","type":"uint256","internalType":"uint256"}],"stateMutability":"view"},{"type":"function","name":"token","inputs":[],"outputs":[{"name":"","type":"address","internalType":"contract IERC20"}],"stateMutability":"view"},{"type":"event","name":"Release","inputs":[{"name":"beneficiary","type":"address","indexed":true,"internalType":"address"},{"name":"token","type":"address","indexed":true,"internalType":"address"},{"name":"releaseTime","type":"uint256","indexed":false,"internalType":"uint256"},{"name":"amount","type":"uint256","indexed":false,"internalType":"uint256"}],"anonymous":false},{"type":"event","name":"TokenLockStart","inputs":[{"name":"beneficiary","type":"address","indexed":true,"internalType":"address"},{"name":"token","type":"address","indexed":true,"internalType":"address"},{"name":"startTime","type":"uint256","indexed":false,"internalType":"uint256"},{"name":"lockTime","type":"uint256","indexed":false,"internalType":"uint256"}],"anonymous":false}],"bytecode":{"object":"0x610100604052348015610010575f5ffd5b50604051610b63380380610b6383398181016040528101906100329190610227565b5f8111610074576040517f08c379a000000000000000000000000000000000000000000000000000000000815260040161006b906102f7565b60405180910390fd5b8273ffffffffffffffffffffffffffffffffffffffff1660808173ffffffffffffffffffffffffffffffffffffffff16815250508173ffffffffffffffffffffffffffffffffffffffff1660a08173ffffffffffffffffffffffffffffffffffffffff16815250508060c081815250504260e081815250508273ffffffffffffffffffffffffffffffffffffffff168273ffffffffffffffffffffffffffffffffffffffff167fe5d7d4b5cb0219916a8be73968f7baf3c806fd018b0cc5598f5129436cf5c316428460405161014b929190610324565b60405180910390a350505061034b565b5f5ffd5b5f73ffffffffffffffffffffffffffffffffffffffff82169050919050565b5f6101888261015f565b9050919050565b5f6101998261017e565b9050919050565b6101a98161018f565b81146101b3575f5ffd5b50565b5f815190506101c4816101a0565b92915050565b6101d38161017e565b81146101dd575f5ffd5b50565b5f815190506101ee816101ca565b92915050565b5f819050919050565b610206816101f4565b8114610210575f5ffd5b50565b5f81519050610221816101fd565b92915050565b5f5f5f6060848603121561023e5761023d61015b565b5b5f61024b868287016101b6565b935050602061025c868287016101e0565b925050604061026d86828701610213565b9150509250925092565b5f82825260208201905092915050565b7f546f6b656e4c6f636b3a206c6f636b2074696d652073686f756c6420677265615f8201527f746572207468616e203000000000000000000000000000000000000000000000602082015250565b5f6102e1602a83610277565b91506102ec82610287565b604082019050919050565b5f6020820190508181035f83015261030e816102d5565b9050919050565b61031e816101f4565b82525050565b5f6040820190506103375f830185610315565b6103446020830184610315565b9392505050565b60805160a05160c05160e0516107bc6103a75f395f8181610125015261016a01525f818160dd015261014901525f818161010101526102f001525f81816101d8015281816102b40152818161037001526103fa01526107bc5ff3fe608060405234801561000f575f5ffd5b5060043610610055575f3560e01c80630d6680871461005957806338af3eed1461007757806378e979251461009557806386d1a69f146100b3578063fc0c546a146100bd575b5f5ffd5b6100616100db565b60405161006e9190610434565b60405180910390f35b61007f6100ff565b60405161008c919061048c565b60405180910390f35b61009d610123565b6040516100aa9190610434565b60405180910390f35b6100bb610147565b005b6100c56103f8565b6040516100d29190610500565b60405180910390f35b7f000000000000000000000000000000000000000000000000000000000000000081565b7f000000000000000000000000000000000000000000000000000000000000000081565b7f000000000000000000000000000000000000000000000000000000000000000081565b7f00000000000000000000000000000000000000000000000000000000000000007f00000000000000000000000000000000000000000000000000000000000000006101939190610546565b4210156101d5576040517f08c379a00000000000000000000000000000000000000000000000000000000081526004016101cc906105f9565b60405180910390fd5b5f7f000000000000000000000000000000000000000000000000000000000000000073ffffffffffffffffffffffffffffffffffffffff166370a08231306040518263ffffffff1660e01b815260040161022f919061048c565b602060405180830381865afa15801561024a573d5f5f3e3d5ffd5b505050506040513d601f19601f8201168201806040525081019061026e9190610645565b90505f81116102b2576040517f08c379a00000000000000000000000000000000000000000000000000000000081526004016102a9906106ba565b60405180910390fd5b7f000000000000000000000000000000000000000000000000000000000000000073ffffffffffffffffffffffffffffffffffffffff1663a9059cbb7f0000000000000000000000000000000000000000000000000000000000000000836040518363ffffffff1660e01b815260040161032d9291906106d8565b6020604051808303815f875af1158015610349573d5f5f3e3d5ffd5b505050506040513d601f19601f8201168201806040525081019061036d9190610734565b507f000000000000000000000000000000000000000000000000000000000000000073ffffffffffffffffffffffffffffffffffffffff163373ffffffffffffffffffffffffffffffffffffffff167f10b55f01b1cfe0feeb7d144f66162661602d8e73256499b6d8342aac37ff067942846040516103ed92919061075f565b60405180910390a350565b7f000000000000000000000000000000000000000000000000000000000000000081565b5f819050919050565b61042e8161041c565b82525050565b5f6020820190506104475f830184610425565b92915050565b5f73ffffffffffffffffffffffffffffffffffffffff82169050919050565b5f6104768261044d565b9050919050565b6104868161046c565b82525050565b5f60208201905061049f5f83018461047d565b92915050565b5f819050919050565b5f6104c86104c36104be8461044d565b6104a5565b61044d565b9050919050565b5f6104d9826104ae565b9050919050565b5f6104ea826104cf565b9050919050565b6104fa816104e0565b82525050565b5f6020820190506105135f8301846104f1565b92915050565b7f4e487b71000000000000000000000000000000000000000000000000000000005f52601160045260245ffd5b5f6105508261041c565b915061055b8361041c565b925082820190508082111561057357610572610519565b5b92915050565b5f82825260208201905092915050565b7f546f6b656e4c6f636b3a2063757272656e742074696d65206973206265666f725f8201527f652072656c656173652074696d65000000000000000000000000000000000000602082015250565b5f6105e3602e83610579565b91506105ee82610589565b604082019050919050565b5f6020820190508181035f830152610610816105d7565b9050919050565b5f5ffd5b6106248161041c565b811461062e575f5ffd5b50565b5f8151905061063f8161061b565b92915050565b5f6020828403121561065a57610659610617565b5b5f61066784828501610631565b91505092915050565b7f546f6b656e4c6f636b3a206e6f20746f6b656e7320746f2072656c65617365005f82015250565b5f6106a4601f83610579565b91506106af82610670565b602082019050919050565b5f6020820190508181035f8301526106d181610698565b9050919050565b5f6040820190506106eb5f83018561047d565b6106f86020830184610425565b9392505050565b5f8115159050919050565b610713816106ff565b811461071d575f5ffd5b50565b5f8151905061072e8161070a565b92915050565b5f6020828403121561074957610748610617565b5b5f61075684828501610720565b91505092915050565b5f6040820190506107725f830185610425565b61077f6020830184610425565b939250505056fea2646970667358221220ecce137a6d459c29fb0a4bb2b18d41597abc9d3e0f51df52e3bca10016a9ee8864736f6c63430008220033","linkReferences":{}},"methodIdentifiers":{"beneficiary()":"38af3eed","lockTime()":"0d668087","release()":"86d1a69f","startTime()":"78e97925","token()":"fc0c546a"},"id":97}